:100000000C94B8000C94E0000C94E0000C94E00018
:100010000C94E0000C94E0000C94E0000C94E000E0
:100020000C94E0000C94E0000C94E0000C94E000D0
:100030000C94E0000C94E0000C94E0000C94E000C0
:100040000C94FF040C94E0000C94A6030C94800321
:100050000C94E0000C94E0000C94E0000C94E000A0
:100060000C94E0000C94E00069645F6F66660069C0
:10007000645F6F6E00506F6D7061206A65737420ED
:100080007779C582C485637A6F6E61007465787410
:1000900000506F6D7061206A6573742077C582C4EB
:1000A00085637A6F6E61007465787400506F6D704F
:1000B00061206A657374207779C582C485637A6F1D
:1000C0006E61007465787400506F6D7061206A65B0
:1000D00073742077C582C485637A6F6E610074651E
:1000E00078740048616E646C6572206E6F7420666F
:1000F0006F756E6420666F722055524C3A00000096
:100100000000240027002A0000000000250028002D
:100110002B0000000008000201000003040700009B
:100120000000000000002F537465726F77616E69E4
:10013000652E68746D6C2E6A736F6E00000000008F
:100140002300260029000404040404040404020219
:100150000202020203030303030301020408102046
:100160004080010204081020010204081020B40C91
:1001700011241FBECFEFD8E0DEBFCDBF12E0A0E05C
:10018000B1E0E0E0F7E202C005900D92A236B107BF
:10019000D9F723E0A2E6B2E001C01D92A73DB20765
:1001A000E1F710E0C8EBD0E004C02197FE010E9407
:1001B000CB10C73BD107C9F70E944B0D0C947E139F
:1001C0000C940000CF92DF92EF92FF920F931F9357
:1001D000CF93DF936C017A018B01C0E0D0E0CE15A4
:1001E000DF0589F0D8016D918D01D601ED91FC916B
:1001F0000190F081E02DC6010995892B11F47E0153
:1002000002C02196ECCFC701DF91CF911F910F91D2
:10021000FF90EF90DF90CF900895FC01918D828D3B
:10022000981761F0828DDF01A80FB11D5D968C914A
:10023000928D9F5F9F73928F90E008958FEF9FEF55
:100240000895FC01918D828D981731F0828DE80F11
:10025000F11D858D90E008958FEF9FEF0895FC01CB
:10026000918D228D892F90E0805C9F4F821B910998
:100270008F73992708958FE792E00E942F0121E064
:10028000892B09F420E0822F0895FC01848DDF0181
:10029000A80FB11DA35ABF4F2C91848D90E00196F9
:1002A0008F739927848FA689B7892C93A089B189E8
:1002B0008C9180648C93938D848D981306C00288F2
:1002C000F389E02D80818F7D80830895EF92FF92E6
:1002D0000F931F93CF93DF93EC0181E0888F9B8D69
:1002E0008C8D981305C0E889F989808185FD24C02B
:1002F000F62E0B8D10E00F5F1F4F0F731127E02EAE
:100300008C8DE8120CC00FB607FCFACFE889F9898A
:10031000808185FFF5CFCE010E944501F1CF8B8D05
:10032000FE01E80FF11DE35AFF4FF0820B8FEA89BF
:10033000FB898081806207C0EE89FF896083E8893C
:10034000F98980818064808381E090E0DF91CF91A2
:100350001F910F91FF90EF900895CF93DF93EC01E1
:10036000888D8823C9F0EA89FB89808185FD05C0D5
:10037000A889B9898C9186FD0FC00FB607FCF5CF0F
:10038000808185FFF2CFA889B9898C9185FFEDCF57
:10039000CE010E944501E7CFDF91CF91089580E023
:1003A00090E0892B29F00E943B0181110C94000000
:1003B0000895833081F028F4813099F08230A1F0E3
:1003C00008958730A9F08830B9F08430D1F4809155
:1003D00080008F7D03C0809180008F7780938000A4
:1003E000089584B58F7702C084B58F7D84BD08954C
:1003F0008091B0008F7703C08091B0008F7D809393
:10040000B0000895DC011296ED91FC91139730979E
:10041000F1F02D913C91119721153105B1F0149611
:100420004D915C911597CA019595879540FF0AC03B
:10043000D901A80FB91F4D915C91E40FF51F0190F0
:10044000F081E02D820F931F0994CB010994089548
:10045000EF92FF920F931F93CF93DF93EC0188816C
:100460009981EC81FD81228133818217930760F5A8
:10047000EA81FB81019111912EEF3FEF201B310B9F
:100480007901A3E0EA22FF24FB83EA8301969983A2
:100490008883CB019A010417150708F49801260FE9
:1004A000371F8217930729F04191DC014D93CD014D
:1004B000F8CF9701200F311F8A819B81280F391FA8
:1004C0003B832A83C80102C08FEF9FEFDF91CF915A
:1004D0001F910F91FF90EF900895CF93DF93FC0150
:1004E00080819181A481B58112962D913C911397C1
:1004F00082179307E0F4A281B3814D915D91B3839C
:10050000A283019691838083EB01B983A8832EEFA8
:100510003FEF241B350B23703327240F351F8281B7
:100520009381280F391F33832283CA0102C08FEFC2
:100530009FEFDF91CF9108954627342F252FA901F2
:10054000442784E0440F551F8A95E1F7422753273B
:10055000CA01892F992782958F7048275927CA0188
:10056000882735E0969587953A95E1F78427952772
:100570000895EF92FF920F931F93CF93DF937C0127
:10058000C901EB018B01040F151FC017D10731F012
:100590006991AC01C7010E949C02F7CFDF91CF9116
:1005A0001F910F91FF90EF900895CF93DF93EC018F
:1005B0008A859B85603CA1F06B3D21F5DC01ED91C6
:1005C000FC910190F081E02D6BED09958A859B856A
:1005D000DC01ED91FC910190F081E02D6DED18C0F2
:1005E000DC01ED91FC910190F081E02D6BED09951E
:1005F0008A859B85DC01ED91FC910190F081E02DD5
:100600006CED06C0DC01ED91FC910190F081E02DD4
:10061000DF91CF910994EF92FF920F931F93CF93A5
:10062000DF937C01EB018B01040F151FC017D1076D
:1006300029F06991C7010E94D502F8CFDF91CF91CF
:100640001F910F91FF90EF9008956115710579F05A
:10065000FB0101900020E9F73197AF01461B570BD2
:10066000DC01ED91FC910280F381E02D099480E0A2
:1006700090E008950C942503EF92FF920F931F933F
:10068000CF93DF9361157105A1F18B01EC01BC01E2
:10069000645F7F4F42E050E0C8010E942802EC8175
:1006A000FD8184858823E9F066E171E08081918194
:1006B0000E943A034C855D85EC81FD81E080F180EC
:1006C000052E000C660B770B77FF04C0C7010E9454
:1006D000B20B04C02AE0C7010E94690BC7010E9447
:1006E000DB0BBE01605F7F4FC8010E946D029F87D8
:1006F0008E87DF91CF911F910F91FF90EF9008951A
:100700001F920F920FB60F9211242F933F934F9386
:100710005F936F937F938F939F93AF93BF93EF9369
:10072000FF938FE792E00E944501FF91EF91BF9107
:10073000AF919F918F917F916F915F914F913F9179
:100740002F910F900FBE0F901F9018951F920F9230
:100750000FB60F9211242F938F939F93EF93FF93D4
:10076000E0918F02F09190028081E0919502F091EA
:10077000960282FD12C09081809198028F5F8F73E4
:1007800020919902821751F0E0919802F0E0E1582F
:10079000FD4F958F8093980201C08081FF91EF916A
:1007A0009F918F912F910F900FBE0F901F901895D2
:1007B000CF93DF93282F30E0F901EE5EFE4F849156
:1007C000F901E65AFE4FD491F901EA5BFE4FC4915C
:1007D000CC2391F081110E94D901EC2FF0E0EE0FB3
:1007E000FF1FE45CFE4FA591B491EC91ED2381E0F5
:1007F00090E021F480E002C080E090E0DF91CF91B2
:10080000089582E10E94D803892B29F468EC70E0F6
:100810008EED90E004C06CEA70E083EC90E00C9404
:100820009C0A82E10E94D803892B29F461E970E0D7
:1008300087EA90E004C065E770E08CE890E00C94F3
:100840009C0A1F93CF93DF93282F30E0F901EE5ECF
:10085000FE4F8491F901E65AFE4FD491F901EA5B0B
:10086000FE4FC491CC23C9F0162F81110E94D901EB
:10087000EC2FF0E0EE0FFF1FE85FFE4FA591B49163
:100880008FB7F894111105C09C91ED2FE095E923E5
:1008900002C0EC91ED2BEC938FBFDF91CF911F91B4
:1008A00008951F93CF93DF93CDB7DEB72C970FB684
:1008B000F894DEBF0FBECDBFBC01CE0101960E94F1
:1008C000540B18861F821A8619861C861B866FE6B3
:1008D00070E0CE0107960E94270BBE01695F7F4F33
:1008E000CE0101960E94F50A182FCE0107960E94AC
:1008F0004F0B112351F060E081E10E94210461E27D
:1009000071E08FE792E00E94DF0B18861F821A8643
:1009100019861C861B8668E670E0CE0107960E9449
:10092000270BBE01695F7F4FCE0101960E94F50A39
:10093000182FCE0107960E944F0B112351F061E052
:1009400081E10E94210464E271E08FE792E00E945D
:10095000DF0BCE0101960E944F0B2C960FB6F89438
:10096000DEBF0FBECDBFDF91CF911F910895CF9312
:10097000DF9390E0FC01E65AFE4F2491FC01EA5B14
:10098000FE4F8491882361F190E0880F991FFC014C
:10099000E250FF4FC591D491FC01E85FFE4FA59155
:1009A000B491611109C09FB7F89488812095822382
:1009B0008883EC912E230BC0623061F49FB7F894CA
:1009C0003881822F809583238883EC912E2B2C9362
:1009D0009FBF06C08FB7F894E8812E2B28838FBF66
:1009E000DF91CF9108952FB7F894609167027091CD
:1009F00068028091690290916A022FBF08951F9248
:100A00000F920FB60F9211242F933F938F939F93C2
:100A1000AF93BF938091670290916802A0916902A1
:100A2000B0916A023091660223E0230F2D3720F443
:100A30000196A11DB11D05C026E8230F0296A11D38
:100A4000B11D209366028093670290936802A09381
:100A50006902B0936A028091620290916302A09150
:100A60006402B09165020196A11DB11D80936202DE
:100A700090936302A0936402B0936502BF91AF911B
:100A80009F918F913F912F910F900FBE0F901F90CC
:100A90001895CF93DF93EC01BC01635F7F4F42E079
:100AA00050E00E940B038A859B85DC01ED91FC914F
:100AB0000190F081E02D60ECDF91CF910994CF920D
:100AC000DF92EF92FF920F931F93CF93DF9300D0AB
:100AD000CDB7DEB78C017B015A83498342E050E0F9
:100AE000BE016F5F7F4F0E940B03F801258536859D
:100AF00042E050E0BE016F5F7F4FC8010E94B90223
:100B0000F80196878587C980DA80CE0CDF1CEC144B
:100B1000FD0491F0F7016081C8010E94D502F8013F
:100B200045855685F70161917F01C8010E949C02AD
:100B3000F80196878587EBCFE980FA80F194E194FC
:100B4000F108F3E0EF22FF24F1E0EF1AF10878F06A
:100B500060E0C8010E94D502F8014585568560E035
:100B6000C8010E949C02F80196878587EDCF0F90FF
:100B70000F90DF91CF911F910F91FF90EF90DF9039
:100B8000CF900895EF92FF920F931F93CF93DF932F
:100B9000CDB7DEB728970FB6F894DEBF0FBECDBF36
:100BA0007C017A8369832B833C834D835E83188722
:100BB0000F83DC011E961C921E921D971A968D9132
:100BC0009C911B97DC01ED91FC910190F081E02D4F
:100BD00060EC099542E050E0BE016F5F7F4FC701B6
:100BE0000E940B03F7012585368542E050E0BE01E7
:100BF0006F5F7F4FC7010E94B902D7011E969C9379
:100C00008E931D9742E050E0BE01695F7F4FC701A0
:100C10000E940B03F7012585368542E050E0BE01B6
:100C2000695F7F4FC7010E94B902D7011E969C934E
:100C30008E931D9744E050E0BE016D5F7F4FC7016A
:100C40000E940B03F7012585368544E050E0BE0184
:100C50006D5F7F4FC7010E94B902D7011E969C931A
:100C60008E931D9728960FB6F894DEBF0FBECDBFAA
:100C7000DF91CF911F910F91FF90EF9008952F92E8
:100C80003F924F925F926F927F928F929F92AF921C
:100C9000BF92CF92DF92EF92FF920F931F93CF9369
:100CA000DF93CDB7DEB728970FB6F894DEBF0FBE3F
:100CB000CDBF8C012DB73EB738872F83E0906B02F4
:100CC000F0906C0242E050E0BE016B5F7F4F0E94EB
:100CD0002802AD80BE80370132E0630E711C44E013
:100CE00050E0B301C8010E942802270186E0480EA7
:100CF000511C42E050E0B201C8010E942802BE012E
:100D00006D5F7F4FC8010E946D024C01D70118969C
:100D1000CD90DC9019972B803C80C114D10449F10F
:100D2000F601848195818815990541F4608171816E
:100D3000A401C1010E94CD12892B31F0D6015E962B
:100D4000CD90DC905F97E9CFB2E0AB16B10409F427
:100D500049C01CF4B7FEC3C0F8C0F3E0AF16B1043D
:100D600009F0F3C084E0882E912CE2E1CE0ED11C74
:100D700066C0D701ED91FC918485882309F4E5C014
:100D8000C080D18003EE10E0F8016491611103C0CE
:100D900000E010E00DC0D601ED91FC910190F081D2
:100DA000E02DC60109950F5F1F4F892B69F7F0CF22
:100DB000D701ED91FC91808191810815190579F099
:100DC000DC01ED91FC91AB81BC81A00FB11F0190C2
:100DD000F081E02D6C9109950F5F1F4FE9CF0E94C4
:100DE000DB0BB3C02DB63EB6BE016F5F7F4FC801AF
:100DF0000E946D028C010196EDB7FEB7E81BF90B5E
:100E00000FB6F894FEBF0FBEEDBF2DB73EB72F5FF4
:100E10003F4F490169817A81A801C9010E94DA1214
:100E2000F401E00FF11F1082B401C60148960E9440
:100E300002020FB6F8943EBE0FBE2DBE50C0D801C0
:100E40001496ED91FC9115978281938188169906ED
:100E500008F07BC0BE016F5F7F4FC8010E946D022A
:100E600049805A80D2011196FD0101900020E9F7D6
:100E700031975F01AA1ABB0A3C016A187B08C301BB
:100E800001970E94D110D7011B969C938E931A97BD
:100E9000A30142505109FC01E40FF51F1082B50176
:100EA0006E5F7F4F640D751D1A968D919C911B97F7
:100EB0000E94DA1269817A816F5F7F4FC6010E94BA
:100EC0000202F701828593850E946611D7011B9665
:100ED0001C921E921A97BFEF8B1A9B0AB0CF0FEF8E
:100EE00010E024E630E040E050E06FE170E0F70110
:100EF000808191810E94C20544E050E0B301D70196
:100F00008D919C910E945F0542E050E0B201F70193
:100F1000808191810E945F05D6016D917C91C6010F
:100F2000AB2811F4069601C00C960E94020240E024
:100F300050E060E070E0F701808191810E945F05E0
:100F4000D7018D919C910E944905EF81F8850FB6DC
:100F5000F894FEBF0FBEEDBF28960FB6F894DEBF23
:100F60000FBECDBFDF91CF911F910F91FF90EF90FA
:100F7000DF90CF90BF90AF909F908F907F906F90B9
:100F80005F904F903F902F9008950F931F93CF93B2
:100F9000DF9300D000D0CDB7DEB768E271E08FE715
:100FA00092E00E94DF0B0E94F10B811103C061E40B
:100FB00071E0F5CF68E571E08FE792E00E94DF0B0A
:100FC00001E010E020E030E0A9016EE170E08091E6
:100FD0006D0290916E020E94C20589E792E0092E8F
:100FE000000CAA0BBB0B89839A83AB83BC8344E0C0
:100FF00050E0BE016F5F7F4F80916D0290916E0255
:101000000E945F0580916D0290916E020E944905D9
:101010000F900F900F900F90DF91CF911F910F9134
:1010200008958F929F92AF92BF92DF92EF92FF92BC
:101030000F931F93CF93DF9300D000D000D0CDB794
:10104000DEB78C01DD24D394D8011A968D919C9142
:101050001B97DC01ED91FC910480F581E02D099551
:10106000892B09F48AC1D8011A968D919C911B97FE
:10107000DC01ED91FC910680F781E02D09958B3D17
:10108000910519F4F801D58ADFCFD80153962D9137
:101090003C915497803C910509F04AC128303105B4
:1010A00008F437C1F801E784F0888485882309F4BF
:1010B00084C06AE671E0808191810E943A03D80180
:1010C00053964D915C91549760E070E02AE08D91C9
:1010D0009C910E94690B64E771E0F8018081918125
:1010E0000E943A03D8011F964D915C915097052EAE
:1010F000000C660B770B20E18D919C910E94690B8F
:1011000068E971E0F801808191810E943A03D7017A
:101110004D915C9160E070E020E1F8018081918167
:101120000E94690B69E971E0D8018D919C910E9440
:101130003A03F701448155816681778120E1D80126
:101140008D919C910E94690B69E971E0F8018081A1
:1011500091810E943A03D70112964D915C911397A9
:1011600060E070E020E1F801808191810E94690BCC
:1011700048E0A42EB12CF801238934898081918123
:10118000A216B306C0F469E971E00E943A03D801DF
:101190001F96ED91FC915097EA0DFB1D408150E0A8
:1011A00060E070E020E18D919C910E94690BBFEF9F
:1011B000AB1ABB0AE0CF0E94DB0BD8015396AD906F
:1011C000BC905497B2E0AB1AB108F80187849088BC
:1011D00020E030E0A501B401C8010E94B902F40189
:1011E000EA0DFB1D208131818217930761F0D80140
:1011F0001C968C911C97882309F48BC067E771E0DB
:101200008D919C9184C0F7018081918182309105FC
:1012100039F08330910519F1019709F070C05FC072
:10122000D8011C968C911C97882309F474C068E837
:1012300071E08D919C910E943A03F801A080B180E9
:10124000D70114964D915D916D917C9117972AE08D
:10125000C5010E94690BC5010E94DB0B5CC0F8014F
:101260008485882359F161E971E0808191810E9430
:101270003A03D70114964D915D916D917C9117972A
:101280002AE0F801808191810E94690B69E971E08F
:10129000D8018D919C910E943A03F801A080B18001
:1012A000D70112964D915C91139760E070E02AE0AF
:1012B000C5010E94690BC5010E94DB0BF701A481E7
:1012C000B5818D919C911197009709F059C01296A4
:1012D0002D913C911397232B09F052C01AC06BE952
:1012E00071E0D8018D919C910E94DF0BD801189676
:1012F000ED91FC911997309761F009950AC0F801BA
:101300008485882331F066EA71E0808191810E94B2
:10131000DF0BE12CF12CD80154961C921E925397AE
:1013200055961C92E114F10409F48ECEC70158C001
:10133000F8014589442371F08C3D910531F08D3DD4
:10134000910529F48BED90E002C080EC90E0D8018B
:1013500055961C92F801418952892417350708F0E7
:1013600073CE47855089B9016F5F7F4F748B638B54
:10137000FA01E20FF31F808367CE80E090E030C077
:10138000FE82ED82E8E0EE0EF11CFC82EB821A8216
:1013900019821296ED91FC911397309709F4B9CF09
:1013A0000097D1F014962D913C911597A901559570
:1013B000479520FF0AC0DC01A40FB51F2D913C9179
:1013C000E20FF31F0190F081E02DBE016F5F7F4FB0
:1013D000840F951F09959DCFCE010196099599CF50
:1013E00026960FB6F894DEBF0FBECDBFDF91CF912A
:1013F0001F910F91FF90EF90DF90BF90AF909F9063
:101400008F900895CF92DF92EF92FF92CF93DF9368
:10141000EC010E94F3046B017C010E94F304AB0118
:10142000BC014C195D096E097F09403D57406105BB
:10143000710530F4CE010E941108009771F302C0CB
:1014400080E090E0DF91CF91FF90EF90DF90CF9020
:1014500008950E94C8120F931F93CF93DF93EC015E
:1014600088819981009729F02A813B8126173707C7
:1014700088F48B016F5F7F4F0E94FE11009761F02F
:10148000998388831B830A832C813D81232B11F44C
:10149000FC01108281E001C080E0DF91CF911F91BB
:1014A0000F910895CF93DF93EC0188819981009784
:1014B00011F00E946611198218821D821C821B8203
:1014C0001A82DF91CF910895EF92FF920F931F93AD
:1014D000CF93DF93EC017B018A01BA010E942B0AB2
:1014E000811104C0CE010E94520A07C01D830C83E3
:1014F000B701888199810E94EC12CE01DF91CF91D2
:101500001F910F91FF90EF900895CF93DF93EC011F
:10151000FB018617970761F0608171816115710584
:1015200029F0448155810E94640A02C00E94520A37
:10153000CE01DF91CF9108956F927F928F929F920B
:10154000AF92BF92CF92DF92EF92FF920F931F93D1
:10155000CF93DF93CDB7DEB73C016B01ADB6BEB61E
:101560000E9409138C01C6010E94091311279801DA
:10157000280F311D490182E0880E911C2D5F3F4FDD
:10158000EDB7FEB7E21BF30B0FB6F894FEBF0FBE2C
:10159000EDBF8DB79EB701967C011182B301019614
:1015A0000E940213C8010296B6018E0D9F1D0E9473
:1015B0000213A401B70180916D0290916E020E9406
:1015C0005F050FB6F894BEBE0FBEADBEDF91CF91E2
:1015D0001F910F91FF90EF90DF90CF90BF90AF9051
:1015E0009F908F907F906F900895FC0124813581AA
:1015F000FB01448155812417350721F5FC018081C9
:101600009181FB0160817181009719F0611571056D
:10161000A1F46115710549F0232BB1F0FB01808124
:1016200090E09195819591090AC0009769F0232B6C
:1016300059F0FC01808190E002C00E94E31221E099
:10164000892B19F020E001C021E0822F0895EF924C
:10165000FF920F931F93CF93DF93EC018B016115E2
:10166000710551F0CB010E9409137C01BC01CE0130
:101670000E942B0A811104C0CE010E94520A07C0A9
:10168000FD82EC82B801888199810E940213CE010B
:10169000DF91CF911F910F91FF90EF900895FC0182
:1016A000808191810C946611FC0111821082138259
:1016B0001282158214826115710551F0FB010190AF
:1016C0000020E9F73197AF01461B570B0C94640AD1
:1016D00008954F925F926F927F92EF92FF920F93D5
:1016E0001F93CF93DF93CDB7DEB7A1970FB6F894D2
:1016F000DEBF0FBECDBF7C01FA01CB0119A22230A3
:1017000008F42AE08E010F5D1F4F422E512C612CF0
:10171000712CBF01A30192010E94A910F901CA0115
:10172000015011096A3014F4605D01C0695CD80190
:101730006C93232B242B252B61F7B801C7010E9442
:101740002503A1960FB6F894DEBF0FBECDBFDF9183
:10175000CF911F910F91FF90EF907F906F905F90CE
:101760004F900895CF92DF92EF92FF920F931F93C5
:10177000CF93DF93EC016A017B01E881F98101904D
:10178000F081E02D6DE209958C0144275527BA01BF
:101790004C195D096E097F092AE0CE010E94690B90
:1017A000800F911FDF91CF911F910F91FF90EF90CC
:1017B000DF90CF9008956CEA71E00C9425030F93AD
:1017C0001F93CF93DF93EC010E9425038C01CE0180
:1017D0000E94DB0B800F911FDF91CF911F910F9122
:1017E0000895AF92BF92CF92DF92EF92FF920F9344
:1017F0001F93CF93DF938091260390912703DC0101
:10180000ED91FC910190F081E02D60EC09958EE165
:1018100093E06C01990FEE08FF0800E010E0A701CB
:10182000960161E070E08CE193E00E94C2058CE1DA
:1018300093E00E9449050091240310912503109222
:101840002503109224038CE193E00E94020AEC012C
:10185000892BA9F14C815D816E817F818091280364
:101860004C155D056E057F0581F4882341F060EA23
:1018700071E080911C0390911D030E94DF0B109377
:1018800025030093240381E01FC08823E1F26FEA5F
:1018900071E080911C0390911D030E943A03A09077
:1018A0001C03B0901D034C815D816E817F812AE015
:1018B000C5010E94690BC5010E94DB0BC4CF1093C8
:1018C00025030093240380E0DF91CF911F910F91B6
:1018D000FF90EF90DF90CF90BF90AF900895CF92A0
:1018E000DF92EF92FF920F931F93E82FF92F05C01D
:1018F000015011092109310961F190819623941752
:10190000B9F305C0015011092109310911F1908184
:1019100096239413F7CFC12CD12CE12CF12C0AC0C3
:101920008FEFC81AD80AE80AF80A0C151D052E050B
:101930003F0579F080818623841791F36C2D7D2DEE
:101940008E2D9F2D1F910F91FF90EF90DF90CF90E4
:10195000089560E070E080E090E01F910F91FF90AB
:10196000EF90DF90CF9008950F931F93CF93DF9365
:10197000CFE7D2E01B821A8288EE93E0A0E0B0E0CD
:101980008C839D83AE83BF838AE091E099838883B3
:1019900085EC90E09D878C8784EC90E09F878E8714
:1019A00080EC90E0998B888B81EC90E09B8B8A8B0C
:1019B00082EC90E09D8B8C8B86EC90E09F8B8E8BE5
:1019C000198E1A8E1B8E1C8E0CEC13E0F8011282FD
:1019D0008FE0808380E1818361E08FE00E94B70423
:1019E00060E0F80181810E94B70480E29EE4A0E0FB
:1019F000B0E0F80183839483A583B683ECE1F3E040
:101A0000D183C0831382128215821482D387C28746
:101A100081E0848782E393E0908B878780E890E081
:101A2000928B818B148A138A158AADE6B2E01196E7
:101A3000FC93EE9319961C921E9218971B961C927B
:101A40001E921A971D961C921E921C97B0936C02C0
:101A5000A0936B028FE396E01F969C938E931E9744
:101A6000AAEBB3E017961C921E92169719961C9239
:101A70001E9218971596FC93EE9314974FEF5FEF15
:101A8000BA014D935D936D937C931397DF91CF9142
:101A90001F910F910895CF93DF93CDB7DEB7C35554
:101AA000D1090FB6F894DEBF0FBECDBF789484B5D0
:101AB000826084BD84B5816084BD85B5826085BD4A
:101AC00085B5816085BD80916E00816080936E00D8
:101AD00010928100809181008260809381008091CA
:101AE000810081608093810080918000816080937B
:101AF00080008091B10084608093B1008091B0003B
:101B000081608093B00080917A00846080937A0035
:101B100080917A00826080937A0080917A0081605F
:101B200080937A0080917A00806880937A00109286
:101B3000C100E0918F02F091900282E08083E091F9
:101B40008B02F0918C021082E0918D02F0918E0256
:101B500080E1808310929702E0919302F0919402C9
:101B600086E08083E0919102F09192028081806111
:101B70008083E0919102F09192028081886080835D
:101B8000E0919102F0919202808180688083E091DF
:101B90009102F091920280818F7D808361E08EE0DE
:101BA0000E94B70461E08FE00E94B70460E080E12A
:101BB0000E94B70461E081E10E94B70460E082E125
:101BC0000E94B70461E08EE00E94210461E081E19F
:101BD0000E94210465EB71E08FE792E00E94DF0B29
:101BE0000E94F10B811103C061E471E0F5CF68E55B
:101BF00071E08FE792E00E94DF0B1A8219821C824B
:101C00001B821E821D8266E271E0CE0101967C017C
:101C10000E94270B80E290E00E94D1106C0180E2CC
:101C2000F60111928A95E9F76EEA71E0C6010E9409
:101C3000540BF601178216821186108615861486BB
:101C400017861686138A128A158A148A118E108EA8
:101C5000138E128EB701C6010E94850A809175020B
:101C600090917602F601978F868FD0927602C0927D
:101C70007502C7010E944F0B81E194E0F601918744
:101C8000808781E094E09787868781E594E0938F51
:101C9000828F85EC97E090932503809324030E9424
:101CA000C50780E99FE164969FAF8EAF6497198264
:101CB0008AEB93E09093C1038093C0038CE393E09D
:101CC0009093C3038093C2031092C5031092C40380
:101CD00003E010E020EC33E0032E000C440B550B26
:101CE00064E170E08091BE039091BF030E94C20541
:101CF0004CE050E064E572E08091BE039091BF0338
:101D00000E945F0542E050E0BE016E5A7F4F809115
:101D1000BE039091BF030E945F0541E050E0B70110
:101D20008091BE039091BF030E945F058091BE0326
:101D30009091BF030E9449058091BE039091BF031B
:101D40000E94020A009791F0FC014481558166814E
:101D5000778177FD0BC04093BA035093BB03609328
:101D6000BC037093BD0380E090E003C0FC0184815C
:101D70009581892B39F060ED71E08FE792E00E9448
:101D80003A03FFCF64EE71E08FE792E00E94DF0B31
:101D900023E0C22ED12C33E2A32EB12C4CE1842EB1
:101DA000912C5EE2652E77247A948CE193E00E9478
:101DB00011080E94F3040091B6031091B70320911B
:101DC000B8033091B9031B012C01201A310A420AD1
:101DD000530A40EA24164BEB34064DE04406510406
:101DE000F0F06093B6037093B7038093B8039093B9
:101DF000B9038EE00E94D803019739F460E08EE0C9
:101E00000E94210462EF71E006C061E08EE00E9452
:101E1000210461E072E08FE792E00E94DF0B0E94F4
:101E2000F3040091B2031091B3032091B4033091F5
:101E3000B5031B012C01201A310A420A530A40E261
:101E400024164EE434064104510408F453C160934F
:101E5000B2037093B3038093B4039093B50380915E
:101E6000CE03882329F061E08091CC030E94B7045F
:101E700060E08091CC030E942104C6010197F1F734
:101E800061E08091CC030E942104C5010197F1F724
:101E900060E08091CC030E9421048091CE038823CE
:101EA00029F060E08091CC030E94B7048091CD03BB
:101EB00090E0FC01E65AFE4F6491FC01EA5BFE4FA4
:101EC000E491F0E0EE0FFF1FE45CFE4F85919491EA
:101ED0000091CF031091D0032091D1033091D20310
:101EE0003F70462F0E946F0C6115710581059105A9
:101EF00039F0DC01CB010196A11DB11DBF7003C0FB
:101F000080E090E0DC01B4010E9481107695679535
:101F10006A5F7109E4E6E69FC001E79F900D112416
:101F2000B3010E9495108B01AB01770F660B770B05
:101F300077FF05C08FE792E00E94B20B05C02AE050
:101F40008FE792E00E94690B61E172E08FE792E017
:101F50000E94DF0B63E172E0CE01845B9F4F0E9421
:101F6000540B28961FAE1EAE28972A961FAE1EAEA3
:101F70002A972C961FAE1EAE2C974AE0B701C801D7
:101F80000E941213F70101900020E9F73197AF0189
:101F90004E195F09B701CE018A5B9F4F0E94640A08
:101FA0001A8219821C821B821E821D82BE01645B02
:101FB0007F4FC7010E94850A2C968EAD9FAD2C974E
:101FC00028962EAC3FAC28970D811E812114310438
:101FD00009F493C00097A1F0080F191FB801C701B9
:101FE0000E942B0A882309F488C029813A818D81B7
:101FF0009E81B101820F931F0E94EC121E830D83FC
:1020000022961FAE1EAE229724961FAE1EAE2497B8
:1020100026961FAE1EAE2697B701CE01805C9F4F5D
:102020000E94850AC7010E944F0B26964EAD5FADF8
:10203000269722966EAD7FAD22978FE792E00E94A1
:10204000E2008FE792E00E94DB0B22966EAD7FAD3F
:1020500022974FE350E0C7010E94F3121FAEB70171
:102060008FE792E00E94DF0B1092C7031092C60325
:102070002091BA033091BB034091BC035091BD0342
:1020800057FD29C002E010E065E170E08091BE03D9
:102090009091BF030E94C20543E050E060E572E00A
:1020A0008091BE039091BF030E945F05F7010190EC
:1020B0000020E9F73197AF014E195F09B701809110
:1020C000BE039091BF030E945F058091BE03909173
:1020D000BF030E944905CE01805C9F4F0E944F0BB9
:1020E000CE018A5B9F4F0E944F0BCE01845B9F4FB6
:1020F0000E944F0B0E94CF0158CEC7010E94520A86
:102100007FCFAA1BBB1B51E107C0AA1FBB1FA6178D
:10211000B70710F0A61BB70B881F991F5A95A9F790
:1021200080959095BC01CD01089597FB072E16F47C
:10213000009407D077FD09D00E94811007FC05D0DC
:102140003EF4909581959F4F0895709561957F4FCE
:102150000895A1E21A2EAA1BBB1BFD010DC0AA1FE8
:10216000BB1FEE1FFF1FA217B307E407F50720F000
:10217000A21BB30BE40BF50B661F771F881F991F7B
:102180001A9469F760957095809590959B01AC01C4
:10219000BD01CF010895EE0FFF1F0590F491E02DD2
:1021A0000994CF93DF938230910510F482E090E0A0
:1021B000E091D503F091D60320E030E0C0E0D0E01C
:1021C000309711F14081518148175907C0F04817E5
:1021D000590761F482819381209719F09B838A8348
:1021E0002BC09093D6038093D50326C021153105CB
:1021F00019F04217530718F49A01BE01DF01EF01ED
:102200000280F381E02DDCCF2115310509F1281B77
:10221000390B2430310590F412968D919C911397CF
:102220006115710521F0FB019383828304C09093B3
:10223000D6038093D503FD01329644C0FD01E20F21
:10224000F31F81939193225031092D933C933AC00F
:102250002091D3033091D403232B41F42091020128
:10226000309103013093D4032093D30320910001D4
:10227000309101012115310541F42DB73EB7409150
:10228000040150910501241B350BE091D303F0911B
:10229000D403E217F307A0F42E1B3F0B28173907CE
:1022A00078F0AC014E5F5F4F2417350748F04E0FB2
:1022B0005F1F5093D4034093D3038193919302C043
:1022C000E0E0F0E0CF01DF91CF9108950F931F93ED
:1022D000CF93DF93009709F48CC0FC0132971382EF
:1022E00012820091D5031091D6030115110581F4D6
:1022F00020813181820F931F2091D3033091D40329
:102300002817390779F5F093D403E093D30371C00C
:10231000D80140E050E0AE17BF0750F412962D915F
:102320003C911397AD012115310509F1D901F3CF86
:102330009D01DA013383228360817181860F971FAB
:102340008217930769F4EC0128813981260F371F22
:102350002E5F3F4F318320838A819B8193838283C9
:10236000452B29F4F093D603E093D50342C013968E
:10237000FC93EE931297ED01499159919E01240F20
:10238000351FE217F30771F480819181840F951F47
:10239000029611969C938E938281938113969C93BF
:1023A0008E931297E0E0F0E0D80112968D919C9107
:1023B0001397009719F0F8018C01F6CF8D919C913D
:1023C00098012E5F3F4F820F931F2091D3033091CE
:1023D000D4032817390769F4309729F41092D603EB
:1023E0001092D50302C0138212821093D40300937B
:1023F000D303DF91CF911F910F910895A0E0B0E03A
:10240000E4E0F2E10C944B13EC01009721F4CB01D2
:102410000E94D110B8C0FC01E60FF71F9C012250AA
:102420003109E217F30708F4ACC0D9010D911C91F2
:10243000119706171707B0F00530110508F49FC073
:10244000C80104978617970708F499C0025011092C
:10245000061B170B019311936D937C93CF010E9480
:1024600066118DC05B01A01AB10A4C01800E911E4D
:10247000A091D503B091D60340E050E0E12CF12CBF
:10248000109709F44AC0A815B905D1F56D907C9054
:102490001197630182E0C80ED11CCA14DB0480F1DD
:1024A000A3014A195B096A0182E0C80ED11C129689
:1024B000BC9012971396AC91B5E0CB16D10440F0C6
:1024C000B282A38351834083D9016D937C930AC068
:1024D0000E5F1F4FC301800F911FF901918380830D
:1024E000EB2DFA2FE114F10431F0D7011396FC9390
:1024F000EE93129744C0F093D603E093D5033FC008
:102500008D919C9111974817590708F4AC017D01F2
:1025100012960D90BC91A02DB3CF8091D3039091D2
:10252000D40388159905E1F446175707C8F480913C
:10253000000190910101009741F48DB79EB7409141
:10254000040150910501841B950BE817F907C8F4A5
:10255000F093D403E093D303F901718360830FC038
:10256000CB010E94D1107C01009759F0A801BE0157
:102570000E94DA12CE010E946611C70104C0CE018A
:1025800002C080E090E0CDB7DEB7EEE00C946713B8
:1025900081E090E0F8940C947E13FB01DC0104C010
:1025A0008D910190801921F441505040C8F7881B4B
:1025B000990B0895FB01DC0102C001900D9241507E
:1025C0005040D8F70895FB01DC018D9101908019EE
:1025D0000110D9F3990B0895FB01DC0101900D92D4
:1025E0000020E1F70895FB01DC014150504048F024
:1025F00001900D920020C9F701C01D92415050403A
:10260000E0F70895FB01DC0105900D920020E1F751
:102610000895FC0105900020E9F7809590958E0FB4
:102620009F1F0895BB274A3031F4992322F4BDE25D
:10263000909581959F4F0C941E13BB27FB01552746
:10264000AA27880F991FAA1FA41710F0A41B83950F
:102650005051B9F7A05DAA3308F0A95DA193009786
:1026600079F7B111B1931192CB010C943713DC01BE
:10267000FC01672F71917723E1F7329704C07C91B9
:102680006D9370836291AE17BF07C8F308952F92C0
:102690003F924F925F926F927F928F929F92AF92F2
:1026A000BF92CF92DF92EF92FF920F931F93CF933F
:1026B000DF93CDB7DEB7CA1BDB0B0FB6F894DEBFD6
:1026C0000FBECDBF09942A88398848885F846E84FC
:1026D0007D848C849B84AA84B984C884DF80EE8046
:1026E000FD800C811B81AA81B981CE0FD11D0FB64F
:1026F000F894DEBF0FBECDBFED010895F894FFCF73
:102700000000D7038000000000006601E2002F01F6
:102710000D012101AD015245535420636F646520C2
:10272000004F4E004F464600454C2D436C69656E88
:1027300074202872652D297374617274696E672123
:1027400000454C2D436C69656E742073796E63206F
:102750006661696C65642100454C2D436C69656E4A
:10276000742073796E6365642100454C433A206799
:102770006F742000204000454C433A20496E76613A
:102780006C69642043524300524553505F563A20CF
:1027900000524553505F43423A20004E4545445F46
:1027A00053594E432100434D443F3F000D0A004220
:1027B00041443A20006B6F6E6965632073656B77E7
:1027C000656E636A692073746172746F77656A00FD
:1027D0005245535420626567696E206661696C6575
:1027E000643A2000454C2D52455354207265616473
:1027F0007900776C61637A616D20706F6D706B65C5
:102800000077796C61637A616D20706F6D706B65B4
:102810000025002F6A736F6E2E68746D3F74797097
:10282000653D636F6D6D616E6426706172616D3DB3
:1028300075646576696365266964783D3333266E11
:1028400076616C75653D30267376616C75653D000B
:10285000474554003139322E3136382E312E353439
:02286000000076
:00000001FF
