:100000000C9491000C94B9000C94B9000C94B900B4
:100010000C94B9000C94B9000C94B9000C945309D9
:100020000C94B9000C94B9000C94B9000C94B9006C
:100030000C94B9000C94B9000C94B9000C94B9005C
:100040000C94AC050C94B9000C947A050C945405EE
:100050000C94B9000C94B9000C94B9000C94B9003C
:100060000C94B9000C94B9004C4544206973206F7E
:100070006E0074657874004C4544206973206F6687
:100080006600746578740062746E5F6F6666006205
:10009000746E5F6F6E0048616E646C6572206E6F87
:1000A0007420666F756E6420666F722055524C3AEC
:1000B0000000000008000201000003040700000027
:1000C00000000000002F53696D706C654C45442E94
:1000D00068746D6C2E6A736F6E000000000024005F
:1000E00027002A000000000023002600290000004D
:1000F0000000250028002B00040404040404040468
:1001000002020202020203030303030301020408C2
:100110001020408001020408102001020408102071
:100120002A0E11241FBECFEFD8E0DEBFCDBF11E0F5
:10013000A0E0B1E0E4EDF2E202C005900D92AE3D28
:10014000B107D9F723E0AEEDB1E001C01D92A235B1
:10015000B207E1F710E0C1E9D0E004C02197FE0149
:100160000E94F90EC039D107C9F70E94E40B0C9424
:1001700068110C940000CF92DF92EF92FF920F93E0
:100180001F93CF93DF936C017A018B01C0E0D0E025
:10019000CE15DF0589F0D8016D918D01D601ED9165
:1001A000FC910190F081E02DC6010995892B11F495
:1001B0007E0102C02196ECCFC701DF91CF911F9144
:1001C0000F91FF90EF90DF90CF900895FC01918DFB
:1001D000828D981761F0828DDF01A80FB11D5D96A9
:1001E0008C91928D9F5F9F73928F90E008958FEF17
:1001F0009FEF0895FC01918D828D981731F0828DCB
:10020000E80FF11D858D90E008958FEF9FEF089521
:10021000FC01918D228D892F90E0805C9F4F821B85
:1002200091098F739927089589E092E00E9408014F
:1002300021E0892B09F420E0822F0895FC01848DB0
:10024000DF01A80FB11DA35ABF4F2C91848D90E000
:1002500001968F739927848FA689B7892C93A089DB
:10026000B1898C9180648C93938D848D981306C092
:100270000288F389E02D80818F7D80830895EF923D
:10028000FF920F931F93CF93DF93EC0181E0888F50
:100290009B8D8C8D981305C0E889F989808185FD37
:1002A00024C0F62E0B8D10E00F5F1F4F0F73112728
:1002B000E02E8C8DE8120CC00FB607FCFACFE8894F
:1002C000F989808185FFF5CFCE010E941E01F1CF13
:1002D0008B8DFE01E80FF11DE35AFF4FF0820B8F6B
:1002E000EA89FB898081806207C0EE89FF8960838B
:1002F000E889F98980818064808381E090E0DF91E2
:10030000CF911F910F91FF90EF900895CF93DF93BE
:10031000EC01888D8823C9F0EA89FB89808185FDFD
:1003200005C0A889B9898C9186FD0FC00FB607FC5E
:10033000F5CF808185FFF2CFA889B9898C9185FF9F
:10034000EDCFCE010E941E01E7CFDF91CF9108953E
:1003500080E090E0892B29F00E94140181110C9417
:1003600000000895833081F028F4813099F08230C4
:10037000A1F008958730A9F08830B9F08430D1F425
:10038000809180008F7D03C0809180008F77809363
:100390008000089584B58F7702C084B58F7D84BDB9
:1003A00008958091B0008F7703C08091B0008F7D59
:1003B0008093B0000895CF93DF93282F30E0F901A8
:1003C000EF54FF4F8491F901E45FFE4FD491F9019E
:1003D000E850FF4FC491CC2391F081110E94B201EB
:1003E000EC2FF0E0EE0FFF1FEC51FF4FA591B49101
:1003F000EC91ED2381E090E021F480E002C080E008
:1004000090E0DF91CF9108951F93CF93DF93282F32
:1004100030E0F901EF54FF4F8491F901E45FFE4FA2
:10042000D491F901E850FF4FC491CC23C9F0162FA5
:1004300081110E94B201EC2FF0E0EE0FFF1FE2519C
:10044000FF4FA591B4918FB7F894111105C09C91FD
:10045000ED2FE095E92302C0EC91ED2BEC938FBFDB
:10046000DF91CF911F910895CF93DF9390E0FC012E
:10047000E45FFE4F2491FC01E850FF4F84918823F4
:1004800061F190E0880F991FFC01E652FF4FC59182
:10049000D491FC01E251FF4FA591B491611109C0C3
:1004A0009FB7F8948881209582238883EC912E232E
:1004B0000BC0623061F49FB7F8943881822F809529
:1004C00083238883EC912E2B2C939FBF06C08FB77C
:1004D000F894E8812E2B28838FBFDF91CF91089568
:1004E0003FB7F8948091E9019091EA01A091EB0166
:1004F000B091EC0126B5A89B05C02F3F19F00196DD
:10050000A11DB11D3FBFBA2FA92F982F8827820F99
:10051000911DA11DB11DBC01CD0142E0660F771FE9
:10052000881F991F4A95D1F708952FB7F8946091C5
:10053000E5017091E6018091E7019091E8012FBFFC
:100540000895DC011296ED91FC9113973097F1F02C
:100550002D913C91119721153105B1F014964D91D3
:100560005C911597CA019595879540FF0AC0D901FE
:10057000A80FB91F4D915C91E40FF51F0190F08118
:10058000E02D820F931F0994CB0109940895EF92F7
:10059000FF920F931F93CF93DF93EC018881998192
:1005A000EC81FD81228133818217930760F5EA8116
:1005B000FB81019111912EEF3FEF201B310B79014F
:1005C000A3E0EA22FF24FB83EA83019699838883D0
:1005D000CB019A010417150708F49801260F371F5D
:1005E0008217930729F04191DC014D93CD01F8CF9B
:1005F0009701200F311F8A819B81280F391F3B8370
:100600002A83C80102C08FEF9FEFDF91CF911F9126
:100610000F91FF90EF900895CF93DF93FC018081BD
:100620009181A481B58112962D913C9113978217E7
:100630009307E0F4A281B3814D915D91B383A283CE
:10064000019691838083EB01B983A8832EEF3FEF5E
:10065000241B350B23703327240F351F8281938190
:10066000280F391F33832283CA0102C08FEF9FEF07
:10067000DF91CF9108954627342F252FA9014427D4
:1006800084E0440F551F8A95E1F742275327CA019A
:10069000892F992782958F7048275927CA01882763
:1006A00035E0969587953A95E1F784279527089543
:1006B000CF93DF93EC018A859B85603CA1F06B3D75
:1006C00021F5DC01ED91FC910190F081E02D6BEDC5
:1006D00009958A859B85DC01ED91FC910190F08163
:1006E000E02D6DED18C0DC01ED91FC910190F081E1
:1006F000E02D6BED09958A859B85DC01ED91FC91E0
:100700000190F081E02D6CED06C0DC01ED91FC91D3
:100710000190F081E02DDF91CF910994EF92FF924B
:100720000F931F93CF93DF937C01EB018B01040F99
:10073000151FC017D10729F06991C7010E945803FE
:10074000F8CFDF91CF911F910F91FF90EF90089517
:10075000CF93DF93EC01BC01635F7F4F42E050E039
:100760000E948E038A859B85DC01ED91FC910190AE
:10077000F081E02D60ECDF91CF91099481E10E943E
:10078000DB01892B29F068E670E082E790E004C085
:1007900067E770E082E890E00C948B0BCF93DF93D7
:1007A000EC0188819981009711F00E94940F1982C1
:1007B00018821D821C821B821A82DF91CF910895BC
:1007C0000E94F610FC0124813581FB014481558192
:1007D0002417350721F5FC0180819181FB0160819F
:1007E0007181009719F061157105A1F4611571050A
:1007F00049F0232BB1F0FB01808190E09195819528
:1008000091090AC0009769F0232B59F0FC018081FF
:1008100090E002C00E94111121E0892B19F020E024
:1008200001C021E0822F08950F931F93CF93DF9390
:10083000EC0188819981009729F02A813B81261754
:10084000370788F48B016F5F7F4F0E942C10009751
:1008500061F0998388831B830A832C813D81232B3C
:1008600011F4FC01108281E001C080E0DF91CF91A2
:100870001F910F910895EF92FF920F931F93CF93C3
:10088000DF93EC018B016115710551F0CB010E94E2
:1008900028117C01BC01CE010E941404811104C006
:1008A000CE010E94CE0307C0FD82EC82B801888190
:1008B00099810E942111CE01DF91CF911F910F915B
:1008C000FF90EF900895EF92FF920F931F93CF93B5
:1008D000DF93CDB7DEB72C970FB6F894DEBF0FBE0F
:1008E000CDBF7C011A8219821C821B821E821D824E
:1008F0000097D9F0FC0101900020E9F731978F01B2
:10090000081B190BB801CE0101960E941404811135
:1009100005C0CE0101960E94CE0307C01E830D8341
:10092000B70189819A810E941A1118861F821A863E
:1009300019861C861B866FE870E0CE0107960E9420
:100940003B04BE01695F7F4FCE0101960E94E20326
:10095000182F8F8198850E94940F112311F061E068
:100960001BC018861F821A8619861C861B8667E89C
:1009700070E0CE0107960E943B04BE01695F7F4F85
:10098000CE0101960E94E203182F8F8198850E9464
:10099000940F112321F060E081E10E94040289811B
:1009A0009A810E94940F2C960FB6F894DEBF0FBE6A
:1009B000CDBFDF91CF911F910F91FF90EF900895E0
:1009C0006115710579F0FB0101900020E9F731977D
:1009D000AF01461B570BDC01ED91FC910280F381C6
:1009E000E02D099480E090E008954F925F926F921D
:1009F0007F92EF92FF920F931F93CF93DF93CDB728
:100A0000DEB7A1970FB6F894DEBF0FBECDBF7C0155
:100A1000FA01CB0119A2223008F42AE08E010F5D01
:100A20001F4F422E512C612C712CBF01A30192014A
:100A30000E94D70EF901CA01015011096A3014F45D
:100A4000605D01C0695CD8016C93232B242B252B9E
:100A500061F7B801C7010E94E004A1960FB6F894AF
:100A6000DEBF0FBECDBFDF91CF911F910F91FF90E1
:100A7000EF907F906F905F904F9008950F931F932A
:100A8000CF93DF93EC010E94E0048C0166E171E0FA
:100A9000CE010E94E004800F911FDF91CF911F9142
:100AA0000F9108950C94E0041F920F920FB60F92CD
:100AB00011242F933F934F935F936F937F938F9363
:100AC0009F93AF93BF93EF93FF9389E092E00E94CF
:100AD0001E01FF91EF91BF91AF919F918F917F91F7
:100AE0006F915F914F913F912F910F900FBE0F909B
:100AF0001F9018951F920F920FB60F9211242F93EB
:100B00008F939F93EF93FF93E0911902F0911A0254
:100B10008081E0911F02F091200282FD12C090813D
:100B2000809122028F5F8F7320912302821751F0F0
:100B3000E0912202F0E0E75FFD4F958F8093220263
:100B400001C08081FF91EF919F918F912F910F9024
:100B50000FBE0F901F9018951F920F920FB60F9215
:100B600011242F933F938F939F93AF93BF938091C3
:100B7000E5019091E601A091E701B091E801309183
:100B8000E40123E0230F2D3720F40196A11DB11DB0
:100B900005C026E8230F0296A11DB11D2093E40194
:100BA0008093E5019093E601A093E701B093E801FB
:100BB0008091E9019091EA01A091EB01B091EC01E3
:100BC0000196A11DB11D8093E9019093EA01A093C4
:100BD000EB01B093EC01BF91AF919F918F913F9149
:100BE0002F910F900FBE0F901F901895EF92FF92CC
:100BF0000F931F93CF93DF937C01C901EB018B010E
:100C0000040F151FC017D10731F06991AC01C7015E
:100C10000E943B03F7CFDF91CF911F910F91FF907F
:100C2000EF900895EF92FF920F931F93CF93DF936E
:100C3000CDB7DEB728970FB6F894DEBF0FBECDBF95
:100C40007C017A8369832B833C834D835E83188781
:100C50000F83DC011E961C921E921D971A968D9191
:100C60009C911B97DC01ED91FC910190F081E02DAE
:100C700060EC099542E050E0BE016F5F7F4FC70115
:100C80000E948E03F7012585368542E050E0BE01C3
:100C90006F5F7F4FC7010E94F605D7011E969C9398
:100CA0008E931D9742E050E0BE01695F7F4FC70100
:100CB0000E948E03F7012585368542E050E0BE0193
:100CC000695F7F4FC7010E94F605D7011E969C936E
:100CD0008E931D9744E050E0BE016D5F7F4FC701CA
:100CE0000E948E03F7012585368544E050E0BE0161
:100CF0006D5F7F4FC7010E94F605D7011E969C933A
:100D00008E931D9728960FB6F894DEBF0FBECDBF09
:100D1000DF91CF911F910F91FF90EF900895CF92A7
:100D2000DF92EF92FF920F931F93CF93DF9300D048
:100D3000CDB7DEB78C017B015A83498342E050E096
:100D4000BE016F5F7F4F0E948E03F80125853685B7
:100D500042E050E0BE016F5F7F4FC8010E94F60580
:100D6000F80196878587C980DA80CE0CDF1CEC14E9
:100D7000FD0491F0F7016081C8010E945803F80159
:100D800045855685F70161917F01C8010E943B03AB
:100D9000F80196878587EBCFE980FA80F194E1949A
:100DA000F108F3E0EF22FF24F1E0EF1AF10878F008
:100DB00060E0C8010E945803F8014585568560E04F
:100DC000C8010E943B03F80196878587EDCF0F90FD
:100DD0000F90DF91CF911F910F91FF90EF90DF90D7
:100DE000CF9008952F923F924F925F926F927F9291
:100DF0008F929F92AF92BF92CF92DF92EF92FF922B
:100E00000F931F93CF93DF93CDB7DEB728970FB61D
:100E1000F894DEBF0FBECDBF8C012DB73EB738872B
:100E20002F83E090F501F090F60142E050E0BE0122
:100E30006B5F7F4F0E94C702AD80BE80370132E0FA
:100E4000630E711C44E050E0B301C8010E94C70268
:100E5000270186E0480E511C42E050E0B201C80173
:100E60000E94C702BE016D5F7F4FC8010E940C0344
:100E70004C01D7011896CD90DC9019972B803C80BF
:100E8000C114D10449F1F601848195818815990531
:100E900041F460817181A401C1010E94FB10892B82
:100EA00031F0D6015E96CD90DC905F97E9CFB2E04D
:100EB000AB16B10409F44DC01CF4B7FEC7C0FCC0AA
:100EC000F3E0AF16B10409F0F7C084E0882E912C4E
:100ED000E2E1CE0ED11C6AC0D701ED91FC91848570
:100EE000882309F4E9C0C080D18006E910E0F80148
:100EF0006491611103C000E010E00DC0D601ED91D6
:100F0000FC910190F081E02DC60109950F5F1F4F04
:100F1000892B69F7F0CFD701ED91FC9108151905E0
:100F200089F080819181DC01ED91FC91AB81BC81E4
:100F3000A00FB11F0190F081E02D6C9109950F5F1A
:100F40001F4FE9CF66E171E0808191810E94E0044A
:100F5000B3C02DB63EB6BE016F5F7F4FC8010E9481
:100F60000C038C010196EDB7FEB7E81BF90B0FB629
:100F7000F894FEBF0FBEEDBF2DB73EB72F5F3F4FBA
:100F8000490169817A81A801C9010E940811F4010F
:100F9000E00FF11F1082B401C60148960E94A10221
:100FA0000FB6F8943EBE0FBE2DBE50C0D8011496A9
:100FB000ED91FC911597828193818816990608F02E
:100FC0007BC0BE016F5F7F4FC8010E940C03498048
:100FD0005A80D2011196FD0101900020E9F7319766
:100FE0005F01AA1ABB0A3C016A187B08C30101977A
:100FF0000E94FF0ED7011B969C938E931A97A30114
:1010000042505109FC01E40FF51F1082B5016E5FDB
:101010007F4F640D751D1A968D919C911B970E94B0
:10102000081169817A816F5F7F4FC6010E94A1021A
:10103000F701828593850E94940FD7011B961C921D
:101040001E921A97BFEF8B1A9B0AB0CF0FEF10E0DA
:1010500024E630E040E050E06FE170E0F70180818D
:1010600091810E94120644E050E0B301D7018D91B6
:101070009C910E948F0642E050E0B201F70180810E
:1010800091810E948F06D6016D917C91C601AB289B
:1010900011F4069601C00C960E94A10240E050E0B7
:1010A00060E070E0F701808191810E948F06D70196
:1010B0008D919C910E94A803EF81F8850FB6F8945A
:1010C000FEBF0FBEEDBF28960FB6F894DEBF0FBE71
:1010D000CDBFDF91CF911F910F91FF90EF90DF90E7
:1010E000CF90BF90AF909F908F907F906F905F90C8
:1010F0004F903F902F9008954F925F926F927F9202
:10110000AF92BF92CF92DF92EF92FF920F931F9315
:10111000CF93DF9300D000D0CDB7DEB769E171E0A7
:1011200089E092E00E943E0588EA92E06C01990F06
:10113000EE08FF088091B0029091B102DC01ED91C0
:10114000FC910190F081E02D60EC099500E010E049
:10115000A701960161E070E086EA92E00E94120623
:1011600086EA92E00E94A8030091AE021091AF02BD
:101170001092AF021092AE020E9495022B013C0128
:101180000E949502DC01CB0184199509A609B709D3
:10119000803D9740A105B10508F07AC00E948F09F3
:1011A0005C01009769F3DC0114964D915D916D919E
:1011B0007C9117978091B2024C155D056E057F05F5
:1011C00009F04FC0882341F061ED71E08091A602E3
:1011D0009091A7020E943E051093AF020093AE02C9
:1011E00062E371E089E092E00E943E0501E010E0D8
:1011F00020E030E0A9016EE170E08091F70190916C
:10120000F8010E94120683E092E0092E000CAA0B5E
:10121000BB0B89839A83AB83BC8344E050E0BE015F
:101220006F5F7F4F8091F7019091F8010E948F06C8
:101230008091F7019091F8010E94A8030F900F9000
:101240000F900F90DF91CF911F910F91FF90EF9032
:10125000DF90CF90BF90AF907F906F905F904F9056
:101260000895882309F488CF64E471E08091A60290
:101270009091A7020E945205F50144815581668133
:1012800077818091A6029091A7020E947A0974CF7B
:101290001093AF020093AE026AE471E089E092E03D
:1012A0000E943E0547CF1F920F920FB60F92112456
:1012B0002F933F934F935F936F937F938F939F935E
:1012C000AF93BF93EF93FF93E091E201F091E301BD
:1012D0000995FF91EF91BF91AF919F918F917F9170
:1012E0006F915F914F913F912F910F900FBE0F9093
:1012F0001F9018950F931F93CF93DF93EC012AE073
:101300000E94F5048C0166E171E0CE010E94E004C8
:10131000800F911FDF91CF911F910F910895AF9290
:10132000BF92CF92DF92FF920F931F93CF93DF93E1
:1013300000D000D000D0CDB7DEB7FF24F394809169
:10134000B0029091B102DC01ED91FC910480F58135
:10135000E02D0995892B09F49CC18091B0029091F0
:10136000B102DC01ED91FC910680F781E02D099539
:101370008B3D910519F4F092BB02E1CF2091B902A7
:101380003091BA02803C910509F05AC128303105EC
:1013900008F448C10091B5021091B6028091B202E2
:1013A000882309F495C06BE971E08091A6029091C1
:1013B000A7020E9452054091B9025091BA0260E022
:1013C00070E02AE08091A6029091A7020E94F504A5
:1013D00065EA71E08091A6029091A7020E945205F1
:1013E0004091B5025091B602052E000C660B770BAA
:1013F00020E18091A6029091A7020E94F50469EC79
:1014000071E08091A6029091A7020E945205F80116
:101410004081518160E070E020E18091A6029091CE
:10142000A7020E94F5046AEC71E08091A6029091F7
:10143000A7020E945205D80114964D915D916D91BD
:101440007C91179720E18091A6029091A7020E94BB
:10145000F5046AEC71E08091A6029091A7020E94C7
:101460005205F8014281538160E070E020E18091F3
:10147000A6029091A7020E94F50448E0C42ED12C48
:101480002091B9023091BA028091A6029091A702F0
:10149000C216D306C8F46AEC71E00E945205E091CE
:1014A000B502F091B602EC0DFD1D408150E060E008
:1014B00070E020E18091A6029091A7020E94F504BD
:1014C000FFEFCF1ADF0ADCCF66E171E00E94E00493
:1014D000C090B902D090BA0282E0C81AD108A09098
:1014E000B502B090B60220E030E0A601B50186EA70
:1014F00092E00E94F605F501EC0DFD1D2081318181
:101500008217930741F08091B202882309F48AC0C0
:1015100068EA71E081C0D8018D919C91823091057B
:1015200039F083309105E9F0019709F06FC05EC092
:101530008091B202882309F477C069EB71E0809151
:10154000A6029091A7020E945205F801448155819C
:10155000668177818091A6029091A7020E947A0904
:1015600063C08091B202882381F162EC71E08091C6
:10157000A6029091A7020E945205D80114964D919F
:101580005D916D917C9117972AE08091A6029091D0
:10159000A7020E94F5046AEC71E08091A602909186
:1015A000A7020E945205C090A602D090A702F8019F
:1015B0004281538160E070E02AE0C6010E94F50498
:1015C00066E171E0C6010E94E004F801A481B581E2
:1015D0008D919C911197009709F05EC012962D9104
:1015E0003C911397232B09F057C01CC06CEC71E0A1
:1015F0008091A6029091A7020E943E05E091AE0262
:10160000F091AF02309771F009950CC08091B20251
:10161000882341F067ED71E08091A6029091A702C6
:101620000E943E0500E010E01092BA021092B9024A
:101630001092BB020115110509F481CEC8015BC0EF
:101640004091BB02442369F08C3D910531F08D3D02
:10165000910529F48BED90E002C080EC90E01092AF
:10166000BB024091B7025091B8022417350708F029
:1016700066CE4091B5025091B602B9016F5F7F4FBF
:101680007093BA026093B902FA01E20FF31F8083EC
:1016900056CE80E090E02FC01E830D83085F1F4F61
:1016A0001C830B831A8219821296ED91FC91139779
:1016B000309709F4B7CF0097D1F014962D913C9153
:1016C0001597A9015595479520FF0AC0DC01A40F85
:1016D000B51F2D913C91E20FF31F0190F081E02D99
:1016E000BE016F5F7F4F840F951F09959BCFCE0181
:1016F0000196099597CF26960FB6F894DEBF0FBED8
:10170000CDBFDF91CF911F910F91FF90DF90CF90D0
:10171000BF90AF9008956F927F928F929F92AF92F9
:10172000BF92CF92DF92EF92FF920F931F93CF93CE
:10173000DF93CDB7DEB73C016B01ADB6BEB60E94FC
:1017400028118C01C6010E94281111279801280F29
:10175000311D490182E0880E911C2D5F3F4FEDB78E
:10176000FEB7E21BF30B0FB6F894FEBF0FBEEDBF42
:101770008DB79EB701967C011182B30101960E943C
:101780002111C8010296B6018E0D9F1D0E942111E4
:10179000A401B7018091F7019091F8010E948F0692
:1017A0000FB6F894BEBE0FBEADBEDF91CF911F91B4
:1017B0000F91FF90EF90DF90CF90BF90AF909F90F0
:1017C0008F907F906F900895CF93DF9300D000D0DB
:1017D00000D0CDB7DEB7789484B5826084BD84B57F
:1017E000816084BD85B5826085BD85B5816085BD1C
:1017F00080916E00816080936E00109281008091D4
:10180000810082608093810080918100816080935B
:101810008100809180008160809380008091B10080
:1018200084608093B1008091B00081608093B000AB
:1018300080917A00846080937A0080917A0082603F
:1018400080937A0080917A00816080937A00809101
:101850007A00806880937A001092C100E0911902AA
:10186000F0911A0282E08083E0911502F091160255
:101870001082E0911702F09118028FEC8083109291
:101880002102E0911D02F0911E0286E08083E0912A
:101890001B02F0911C02808180618083E0911B0219
:1018A000F0911C02808188608083E0911B02F0919E
:1018B0001C02808180688083E0911B02F0911C02F1
:1018C00080818F7D808361E08EE00E94340261E040
:1018D0008FE00E94340260E080E10E94340261E007
:1018E00081E10E94340260E08EE00E94040261E621
:1018F00071E089E092E00E943E051A8219821C8202
:101900001B821E821D8265EC70E09E012F5F3F4F9F
:101910007901C9010E943B0480E290E00E94FF0E21
:101920008C0180E2F80111928A95E9F7F8011182A1
:101930001082138212821582148260E070E0C80166
:101940000E941404811104C0C8010E94CE0309C082
:10195000F8011582148268E171E0808191810E9412
:101960001A11F801178216821186108615861486C0
:1019700017861686138A128A158A148A118E108E7B
:10198000138E128E0E151F05C9F0E980FA80E1143E
:10199000F10489F0AD80BE80B501C8010E94140435
:1019A000882349F0F801B582A482B7018081918132
:1019B0000E941A1103C0C8010E94CE038091FF014A
:1019C00090910002F801978F868F10930002009388
:1019D000FF0189819A810E94940F8EEB93E0F801B8
:1019E000918780879787868783E694E0938F828F9D
:1019F0008CE798E09093AF028093AE020E947C083F
:101A00000BE010E083E2E82EF12C99E3892E912C73
:101A1000A12CB12C0E948F090E9495024090F101E7
:101A20005090F2016090F3017090F4019B01AC01C1
:101A3000241935094609570929013A0130ED4316A1
:101A400037E0530661047104F0F06093F101709384
:101A5000F2018093F3019093F4018EE00E94DB0188
:101A6000892B39F461E08EE00E9404026CE771E09A
:101A700006C060E08EE00E9404026BE871E089E03D
:101A800092E00E943E050E9495024090ED01509028
:101A9000EE016090EF017090F0019B01AC01241900
:101AA00035094609570929013A0130EA43163FE052
:101AB00053066104710408F4CAC06093ED01709389
:101AC000EE018093EF019093F001E0914603F091D5
:101AD0004703908180914003892B8083E0914203EA
:101AE000F091430390818091400380958923808306
:101AF000C8010197F1F7E0914203F091430390810F
:101B000080914003892B8083C7010197F1F7E09111
:101B10004203F09143039081809140038095892393
:101B20008083E0914603F0914703908180914003C8
:101B3000809589238083E0914403F091450390814F
:101B400080914103892309F074C00E9470022091A2
:101B50004803309149032901612C712C48EA440E55
:101B600046E1541E611C711CDC01CB01840D951DE6
:101B7000A61DB71D80934A0390934B03A0934C037B
:101B8000B0934D03E0914403F0914503908180911F
:101B90004103892381F40E94700240904A035090CF
:101BA0004B0360904C0370904D0346165706680631
:101BB000790640F73EC00E947002209148033091A0
:101BC0004903DC01CB01820F931FA11DB11D80933E
:101BD0004A0390934B03A0934C03B0934D03E091C1
:101BE0004403F0914503908180914103892381F062
:101BF0000E94700240904A0350904B0360904C0347
:101C000070904D03461657066806790640F711C0D6
:101C10000E947002209148033091490325503109F8
:101C200040914A0350914B03241B350B620F731FE5
:101C300002C060E070E080E090E0A50194010E94A5
:101C4000D70EBA01A90189E092E00E947A090E94A8
:101C5000A801E0CECF93DF93A9E0B2E013961C92E7
:101C60001E92129748EE53E060E070E014964D9398
:101C70005D936D937C9317978AE091E011969C9306
:101C80008E9385EC90E01D969C938E931C9784EC2C
:101C900090E01F969C938E931E9780EC90E0519657
:101CA0009C938E93509781EC90E053969C938E93E7
:101CB000529782EC90E055969C938E93549786ECC5
:101CC00090E057969C938E93569759961C925997ED
:101CD0005A961C925A975B961C925B975C961C9244
:101CE0005C97EBE1F1E0E491CCE3D3E0EC83ECE151
:101CF000F1E0E491ED8387E091E0FC012491E22F93
:101D0000F0E0EE0FFF1FE251FF4F259134913F832A
:101D10002E83E8E0F1E0E491F0E0EE0FFF1FEC51DC
:101D2000FF4F2591349139872887FC018491E82F52
:101D3000F0E0EE0FFF1FE652FF4F859194919B87D5
:101D40008A8789E499E59D878C87E6EAF2E0138229
:101D5000128215821482B387A28714868CEB92E0DC
:101D6000908B878780E890E0928B818B148A138A0E
:101D7000158AA7EFB1E01196FC93EE9319961C9289
:101D80001E9218971B961C921E921A971D961C92D3
:101D90001E921C97B093F601A093F50182EF96E096
:101DA0001F969C938E931E97DF91CF910895A1E289
:101DB0001A2EAA1BBB1BFD010DC0AA1FBB1FEE1FC5
:101DC000FF1FA217B307E407F50720F0A21BB30B10
:101DD000E40BF50B661F771F881F991F1A9469F78C
:101DE00060957095809590959B01AC01BD01CF01E8
:101DF0000895EE0FFF1F0590F491E02D0994CF9305
:101E0000DF938230910510F482E090E0E09150037E
:101E1000F091510320E030E0C0E0D0E0309711F1C4
:101E20004081518148175907C0F04817590761F49C
:101E300082819381209719F09B838A832BC0909392
:101E400051038093500326C02115310519F0421724
:101E5000530718F49A01BE01DF01EF010280F381FC
:101E6000E02DDCCF2115310509F1281B390B243079
:101E7000310590F412968D919C911397611571051F
:101E800021F0FB019383828304C0909351038093DC
:101E90005003FD01329644C0FD01E20FF31F819310
:101EA0009193225031092D933C933AC020914E03D7
:101EB00030914F03232B41F4209102013091030113
:101EC00030934F0320934E03209100013091010184
:101ED0002115310541F42DB73EB7409104015091D1
:101EE0000501241B350BE0914E03F0914F03E217DF
:101EF000F307A0F42E1B3F0B2817390778F0AC012D
:101F00004E5F5F4F2417350748F04E0F5F1F509309
:101F10004F0340934E038193919302C0E0E0F0E0C1
:101F2000CF01DF91CF9108950F931F93CF93DF934C
:101F3000009709F48CC0FC01329713821282009141
:101F40005003109151030115110581F42081318155
:101F5000820F931F20914E0330914F0328173907AA
:101F600079F5F0934F03E0934E0371C0D80140E040
:101F700050E0AE17BF0750F412962D913C91139785
:101F8000AD012115310509F1D901F3CF9D01DA0128
:101F90003383228360817181860F971F8217930795
:101FA00069F4EC0128813981260F371F2E5F3F4FDE
:101FB000318320838A819B8193838283452B29F4FB
:101FC000F0935103E093500342C01396FC93EE93B9
:101FD0001297ED01499159919E01240F351FE21787
:101FE000F30771F480819181840F951F02961196F9
:101FF0009C938E938281938113969C938E931297D8
:10200000E0E0F0E0D80112968D919C911397009733
:1020100019F0F8018C01F6CF8D919C9198012E5FFB
:102020003F4F820F931F20914E0330914F0328178B
:10203000390769F4309729F4109251031092500334
:1020400002C01382128210934F0300934E03DF915C
:10205000CF911F910F910895A0E0B0E0E2E3F0E18D
:102060000C943511EC01009721F4CB010E94FF0E76
:10207000B8C0FC01E60FF71F9C0122503109E2179E
:10208000F30708F4ACC0D9010D911C911197061704
:102090001707B0F00530110508F49FC0C801049778
:1020A0008617970708F499C002501109061B170BF1
:1020B000019311936D937C93CF010E94940F8DC077
:1020C0005B01A01AB10A4C01800E911EA091500331
:1020D000B091510340E050E0E12CF12C109709F44D
:1020E0004AC0A815B905D1F56D907C901197630190
:1020F00082E0C80ED11CCA14DB0480F1A3014A1986
:102100005B096A0182E0C80ED11C1296BC9012973E
:102110001396AC91B5E0CB16D10440F0B282A38304
:1021200051834083D9016D937C930AC00E5F1F4F8A
:10213000C301800F911FF90191838083EB2DFA2F4A
:10214000E114F10431F0D7011396FC93EE9312974A
:1021500044C0F0935103E09350033FC08D919C9194
:1021600011974817590708F4AC017D0112960D909C
:10217000BC91A02DB3CF80914E0390914F03881551
:102180009905E1F446175707C8F480910001909132
:102190000101009741F48DB79EB740910401509121
:1021A0000501841B950BE817F907C8F4F0934F035A
:1021B000E0934E03F901718360830FC0CB010E944D
:1021C000FF0E7C01009759F0A801BE010E94081182
:1021D000CE010E94940FC70104C0CE0102C080E06E
:1021E00090E0CDB7DEB7EEE00C94511181E090E0C5
:1021F000F8940C946811FB01DC0104C08D910190EE
:10220000801921F441505040C8F7881B990B08955C
:10221000FB01DC0102C001900D9241505040D8F703
:102220000895FB01DC018D91019080190110D9F313
:10223000990B0895FB01DC0101900D920020E1F75C
:102240000895FB01DC0105900D920020E1F708954F
:10225000FC0105900020E9F7809590958E0F9F1F57
:1022600008952F923F924F925F926F927F928F923A
:102270009F92AF92BF92CF92DF92EF92FF920F9315
:102280001F93CF93DF93CDB7DEB7CA1BDB0B0FB61F
:10229000F894DEBF0FBECDBF09942A8839884888DC
:1022A0005F846E847D848C849B84AA84B984C88472
:1022B000DF80EE80FD800C811B81AA81B981CE0F69
:1022C000D11D0FB6F894DEBF0FBECDBFED0108954E
:0422D000F894FFCFB0
:1022D400000052038000000000003F01BB00080121
:1022E400E600FA0086010D0A00454C2D436C696531
:1022F4006E74202872652D297374617274696E6717
:102304002100454C2D436C69656E742073796E63AE
:10231400656421004241443A2000454C2D436C69D8
:10232400656E742073796E63206661696C656421DF
:10233400006B6F6E6965632073656B77656E636AA6
:10234400692073746172746F77656A00776C616376
:102354007A616D20706F6D706B650077796C616365
:102364007A616D20706F6D706B6500454C433A2047
:10237400676F742000204000454C433A20496E7634
:10238400616C69642043524300524553505F563A8E
:102394002000524553505F43423A20004E45454485
:0E23A4005F53594E432100434D443F3F00001C
:107800000C94343C0C94513C0C94513C0C94513CE1
:107810000C94513C0C94513C0C94513C0C94513CB4
:107820000C94513C0C94513C0C94513C0C94513CA4
:107830000C94513C0C94513C0C94513C0C94513C94
:107840000C94513C0C94513C0C94513C0C94513C84
:107850000C94513C0C94513C0C94513C0C94513C74
:107860000C94513C0C94513C11241FBECFEFD8E036
:10787000DEBFCDBF11E0A0E0B1E0ECE9FFE702C060
:1078800005900D92A230B107D9F712E0A2E0B1E065
:1078900001C01D92AD30B107E1F70E942D3D0C945F
:1078A000CC3F0C94003C982F959595959595959582
:1078B000905D8F708A307CF0282F295A8091C0000B
:1078C00085FFFCCF9093C6008091C00085FFFCCF60
:1078D0002093C6000895282F205DF0CF982F809127
:1078E000C00085FFFCCF9093C6000895EF92FF92F1
:1078F0000F931F93EE24FF2487018091C00087FD22
:1079000017C00894E11CF11C011D111D81E4E8164B
:1079100082E4F8068FE0080780E0180770F3E09132
:107920000401F091050109958091C00087FFE9CF1E
:107930008091C6001F910F91FF90EF9008950E94D3
:10794000763C982F8091C00085FFFCCF9093C600B5
:1079500091362CF490330CF09053892F089597555D
:10796000892F08951F930E949F3C182F0E949F3CCF
:107970001295107F810F1F9108951F93182F882350
:1079800021F00E94763C1150E1F71F9108951F935A
:10799000182F0E94763C803249F0809103018F5F5E
:1079A000809303018530C1F01F9108958091C0003C
:1079B00085FFFCCF84E18093C6008091C00085FFE5
:1079C000FCCF1093C6008091C00085FFFCCF80E102
:1079D0008093C6001F910895E0910401F091050184
:1079E00009951F9108950E94763C803241F0809164
:1079F00003018F5F80930301853081F008958091AA
:107A0000C00085FFFCCF84E18093C6008091C00058
:107A100085FFFCCF80E18093C6000895E0910401CA
:107A2000F09105010995089540E951E08823A1F0FE
:107A30002D9A28EE33E0FA013197F1F721503040CA
:107A4000D1F72D9828EE33E0FA013197F1F7215064
:107A50003040D1F7815061F708953F924F925F9285
:107A60006F927F928F929F92AF92BF92CF92DF924E
:107A7000EF92FF920F931F93CF93DF93000080E16B
:107A80008093C4001092C50088E18093C10086E015
:107A90008093C2005098589A259A81E00E94143D24
:107AA00024E1F22E9EE1E92E85E9D82E0FE0C02ECA
:107AB00010E1B12EAA24A394B1E49B2EA6E58A2E50
:107AC000F2E57F2EE0E26E2E79E4572E63E5462E36
:107AD00050E5352E0E94763C8033B1F18133B9F107
:107AE000803409F46FC0813409F476C0823409F41B
:107AF00085C0853409F488C0803531F1823521F1A3
:107B0000813511F1853509F485C0863509F48DC0BC
:107B1000843609F496C0843709F403C1853709F423
:107B200072C1863709F466C0809103018F5F80932C
:107B30000301853079F6E0910401F0910501099582
:107B40000E94763C803351F60E94F33CC3CF0E94E2
:107B5000763C803249F78091C00085FFFCCFF092DF
:107B6000C6008091C00085FFFCCF9092C600809136
:107B7000C00085FFFCCF8092C6008091C00085FFC9
:107B8000FCCF7092C6008091C00085FFFCCF609250
:107B9000C6008091C00085FFFCCF5092C600809146
:107BA000C00085FFFCCF4092C6008091C00085FFD9
:107BB000FCCF3092C6008091C00085FFFCCFB09210
:107BC000C60088CF0E94763C863808F4BDCF0E945C
:107BD000763C0E94F33C7ECF0E94763C803809F4CC
:107BE0009CC0813809F40BC1823809F43CC1883942
:107BF00009F48FC080E00E94C73C6CCF84E10E94F2
:107C0000BD3C0E94F33C66CF85E00E94BD3C0E94D3
:107C1000F33C60CF0E94763C809306010E94763C44
:107C2000809307010E94F33C55CF0E94763C80333D
:107C300009F41DC183E00E94BD3C80E00E94C73C66
:107C400049CF0E94763C809309020E94763C809343
:107C5000080280910C028E7F80930C020E94763C79
:107C6000853409F415C18091080290910902892B8D
:107C700089F000E010E00E94763CF801E85FFE4FDA
:107C800080830F5F1F4F80910802909109020817AF
:107C9000190788F30E94763C803209F045CF809125
:107CA0000C0280FF01C16091060170910701660F0F
:107CB000771F7093070160930601A0910802B091AD
:107CC00009021097C9F0E8E0F1E09B01AD014E0F09
:107CD0005F1FF999FECF32BD21BD819180BDFA9A17
:107CE000F99A2F5F3F4FE417F50799F76A0F7B1F4B
:107CF00070930701609306018091C00085FFFCCF5F
:107D0000F092C6008091C00085FFFCCFB092C60003
:107D1000E1CE83E00E94C73CDDCE82E00E94C73CFA
:107D2000D9CE0E94763C809309020E94763C8093D3
:107D300008028091060190910701880F991F909386
:107D40000701809306010E94763C853409F4A6C0A1
:107D500080910C028E7F80930C020E94763C8032D0
:107D600009F0B8CE8091C00085FFFCCFF092C6002C
:107D7000609108027091090261157105B9F140E046
:107D800050E080910C02A82FA170B82FB27011C0E2
:107D9000BB2309F45CC0E0910601F0910701319624
:107DA000F0930701E09306014F5F5F4F46175707B7
:107DB000E8F4AA2369F3F999FECF209106013091E6
:107DC000070132BD21BDF89A90B58091C00085FFB2
:107DD000FCCF9093C6002F5F3F4F30930701209355
:107DE00006014F5F5F4F4617570718F38091C00099
:107DF00085FDE5CE8091C00085FFF8CFE0CE81E023
:107E00000E94C73C67CE0E94763C803209F08CCE3F
:107E10008091C00085FFFCCFF092C6008091C00029
:107E200085FFFCCFE092C6008091C00085FFFCCFAB
:107E3000D092C6008091C00085FFFCCFC092C600E2
:107E40008091C00085FFFCCFB092C60043CEE09188
:107E50000601F091070194918091C00085FFFCCF4D
:107E60009093C6009CCF80E10E94C73C33CE0E9415
:107E7000763C0E94763C182F0E94763C112309F430
:107E800083C0113009F484C08FE00E94C73C22CE29
:107E900080910C02816080930C02E5CE80910C02EF
:107EA000816080930C0259CF809107018823880F4D
:107EB000880B8A2180930B02809106019091070123
:107EC000880F991F90930701809306018091080203
:107ED00080FF09C080910802909109020196909359
:107EE000090280930802F894F999FECF1127E091D6
:107EF0000601F0910701C8E0D1E08091080290915D
:107F00000902103091F40091570001700130D9F34B
:107F100003E000935700E89500915700017001308D
:107F2000D9F301E100935700E89509901990009169
:107F3000570001700130D9F301E000935700E89534
:107F40001395103498F011270091570001700130FB
:107F5000D9F305E000935700E895009157000170B0
:107F60000130D9F301E100935700E895329602976A
:107F700009F0C7CF103011F00296E5CF112480919F
:107F8000C00085FFB9CEBCCE8EE10E94C73CA2CD19
:0C7F900085E90E94C73C9ECDF894FFCF0D
:027F9C00800063
:040000030000780081
:00000001FF
