:100000000C94B8000C94E0000C94E0000C94E00018
:100010000C94E0000C94E0000C94E0000C94E000E0
:100020000C94E0000C94E0000C94E0000C94E000D0
:100030000C94E0000C94E0000C94E0000C94E000C0
:100040000C9422050C94E0000C94A4030C947E0301
:100050000C94E0000C94E0000C94E0000C94E000A0
:100060000C94E0000C94E00069645F6F66660069C0
:10007000645F6F6E00506F6D7061206A65737420ED
:100080007779C582C485637A6F6E61007465787410
:1000900000506F6D7061206A6573742077C582C4EB
:1000A00085637A6F6E61007465787400506F6D704F
:1000B00061206A657374207779C582C485637A6F1D
:1000C0006E61007465787400506F6D7061206A65B0
:1000D00073742077C582C485637A6F6E610074651E
:1000E00078740048616E646C6572206E6F7420666F
:1000F0006F756E6420666F722055524C3A00000096
:100100000000240027002A0000000000250028002D
:100110002B0000000008000201000003040700009B
:100120000000000000002F537465726F77616E69E4
:10013000652E68746D6C2E6A736F6E00000000008F
:100140002300260029000404040404040404020219
:100150000202020203030303030301020408102046
:100160004080010204081020010204081020870CBE
:1001700011241FBECFEFD8E0DEBFCDBF12E0A0E05C
:10018000B1E0E4E5F5E202C005900D92A236B107B8
:10019000D9F723E0A2E6B2E001C01D92A73DB20765
:1001A000E1F710E0C8EBD0E004C02197FE010E9407
:1001B0003910C73BD107C9F70E941E0D0C94A81235
:1001C0000C940000CF92DF92EF92FF920F931F9357
:1001D000CF93DF936C017A018B01C0E0D0E0CE15A4
:1001E000DF0589F0D8016D918D01D601ED91FC916B
:1001F0000190F081E02DC6010995892B11F47E0153
:1002000002C02196ECCFC701DF91CF911F910F91D2
:10021000FF90EF90DF90CF900895FC01918D828D3B
:10022000981761F0828DDF01A80FB11D5D968C914A
:10023000928D9F5F9F73928F90E008958FEF9FEF55
:100240000895FC01918D828D981731F0828DE80F11
:10025000F11D858D90E008958FEF9FEF0895FC01CB
:10026000918D228D892F90E0805C9F4F821B910998
:100270008F73992708958FE792E00E942F0121E064
:10028000892B09F420E0822F0895FC01848DDF0181
:10029000A80FB11DA35ABF4F2C91848D90E00196F9
:1002A0008F739927848FA689B7892C93A089B189E8
:1002B0008C9180648C93938D848D981306C00288F2
:1002C000F389E02D80818F7D80830895EF92FF92E6
:1002D0000F931F93CF93DF93EC0181E0888F9B8D69
:1002E0008C8D981305C0E889F989808185FD24C02B
:1002F000F62E0B8D10E00F5F1F4F0F731127E02EAE
:100300008C8DE8120CC00FB607FCFACFE889F9898A
:10031000808185FFF5CFCE010E944501F1CF8B8D05
:10032000FE01E80FF11DE35AFF4FF0820B8FEA89BF
:10033000FB898081806207C0EE89FF896083E8893C
:10034000F98980818064808381E090E0DF91CF91A2
:100350001F910F91FF90EF900895CF93DF93EC01E1
:10036000888D8823C9F0EA89FB89808185FD05C0D5
:10037000A889B9898C9186FD0FC00FB607FCF5CF0F
:10038000808185FFF2CFA889B9898C9185FFEDCF57
:10039000CE010E944501E7CFDF91CF91089580E023
:1003A00090E0892B29F00E943B0181110C94000000
:1003B0000895833081F028F4813099F08230A1F0E3
:1003C00008958730A9F08830B9F08430D1F4809155
:1003D00080008F7D03C0809180008F7780938000A4
:1003E000089584B58F7702C084B58F7D84BD08954C
:1003F0008091B0008F7703C08091B0008F7D809393
:10040000B0000895DC011296ED91FC91139730979E
:10041000F1F02D913C91119721153105B1F0149611
:100420004D915C911597CA019595879540FF0AC03B
:10043000D901A80FB91F4D915C91E40FF51F0190F0
:10044000F081E02D820F931F0994CB010994089548
:10045000EF92FF920F931F93CF93DF93EC0188816C
:100460009981EC81FD81228133818217930760F5A8
:10047000EA81FB81019111912EEF3FEF201B310B9F
:100480007901A3E0EA22FF24FB83EA8301969983A2
:100490008883CB019A010417150708F49801260FE9
:1004A000371F8217930729F04191DC014D93CD014D
:1004B000F8CF9701200F311F8A819B81280F391FA8
:1004C0003B832A83C80102C08FEF9FEFDF91CF915A
:1004D0001F910F91FF90EF900895CF93DF93FC0150
:1004E00080819181A481B58112962D913C911397C1
:1004F00082179307E0F4A281B3814D915D91B3839C
:10050000A283019691838083EB01B983A8832EEFA8
:100510003FEF241B350B23703327240F351F8281B7
:100520009381280F391F33832283CA0102C08FEFC2
:100530009FEFDF91CF9108954627342F252FA901F2
:10054000442784E0440F551F8A95E1F7422753273B
:10055000CA01892F992782958F7048275927CA0188
:10056000882735E0969587953A95E1F78427952772
:100570000895EF92FF920F931F93CF93DF937C0127
:10058000C901EB018B01040F151FC017D10731F012
:100590006991AC01C7010E949C02F7CFDF91CF9116
:1005A0001F910F91FF90EF900895CF93DF93EC018F
:1005B0008A859B85603CA1F06B3D21F5DC01ED91C6
:1005C000FC910190F081E02D6BED09958A859B856A
:1005D000DC01ED91FC910190F081E02D6DED18C0F2
:1005E000DC01ED91FC910190F081E02D6BED09951E
:1005F0008A859B85DC01ED91FC910190F081E02DD5
:100600006CED06C0DC01ED91FC910190F081E02DD4
:10061000DF91CF910994EF92FF920F931F93CF93A5
:10062000DF937C01EB018B01040F151FC017D1076D
:1006300029F06991C7010E94D502F8CFDF91CF91CF
:100640001F910F91FF90EF900895EF92FF920F93FB
:100650001F93CF93DF9361157105A1F18B01EC011D
:10066000BC01645F7F4F42E050E0C8010E94280255
:10067000EC81FD8184858823E9F066E171E0808169
:1006800091810E94C20B4C855D85EC81FD81E080EB
:10069000F180052E000C660B770B77FF04C0C701B5
:1006A0000E94830B04C02AE0C7010E943A0BC701D5
:1006B0000E94AC0BBE01605F7F4FC8010E946D02BB
:1006C0009F878E87DF91CF911F910F91FF90EF90C1
:1006D00008956115710579F0FB0101900020E9F79B
:1006E0003197AF01461B570BDC01ED91FC91028065
:1006F000F381E02D099480E090E008951F920F921D
:100700000FB60F9211242F933F934F935F936F93E4
:100710007F938F939F93AF93BF93EF93FF938FE755
:1007200092E00E944501FF91EF91BF91AF919F919F
:100730008F917F916F915F914F913F912F910F908A
:100740000FBE0F901F9018951F920F920FB60F9229
:1007500011242F938F939F93EF93FF93E0918F0238
:10076000F09190028081E0919502F091960282FDD5
:1007700012C09081809198028F5F8F7320919902AF
:10078000821751F0E0919802F0E0E158FD4F958F0B
:100790008093980201C08081FF91EF919F918F918A
:1007A0002F910F900FBE0F901F901895CF93DF934E
:1007B000282F30E0F901EE5EFE4F8491F901E65AF0
:1007C000FE4FD491F901EA5BFE4FC491CC2391F026
:1007D00081110E94D901EC2FF0E0EE0FFF1FE45CC5
:1007E000FE4FA591B491EC91ED2381E090E021F4CE
:1007F00080E002C080E090E0DF91CF91089582E137
:100800000E94D603892B29F468EC70E08EED90E00D
:1008100004C06CEA70E083EC90E00C944E0A82E134
:100820000E94D603892B29F461E970E087EA90E001
:1008300004C065E770E08CE890E00C944E0A1F93CA
:10084000CF93DF93282F30E0F901EE5EFE4F8491C5
:10085000F901E65AFE4FD491F901EA5BFE4FC491CB
:10086000CC23C9F0162F81110E94D901EC2FF0E0A2
:10087000EE0FFF1FE85FFE4FA591B4918FB7F8947C
:10088000111105C09C91ED2FE095E92302C0EC9178
:10089000ED2BEC938FBFDF91CF911F910895EF92D5
:1008A000FF920F931F93CF93DF93CDB7DEB72C97B3
:1008B0000FB6F894DEBF0FBECDBF7C011A8219823D
:1008C0001C821B821E821D820097D9F0FC010190C0
:1008D0000020E9F731978F01081B190BB801CE01F1
:1008E00001960E94D90A811105C0CE0101960E948D
:1008F000000B07C01E830D83B70189819A810E9476
:100900005A1218861F821A8619861C861B866FE665
:1009100070E0CE0107960E94120BBE01695F7F4F07
:10092000CE0101960E94A70A182F8F8198850E94F8
:10093000D410112351F060E081E10E941F0461E2B4
:1009400071E08FE792E00E94B00B18861F821A8632
:1009500019861C861B8668E670E0CE0107960E9409
:10096000120BBE01695F7F4FCE0101960E94A70A5C
:10097000182F8F8198850E94D410112351F061E0C7
:1009800081E10E941F0464E271E08FE792E00E941F
:10099000B00B89819A810E94D4102C960FB6F894DE
:1009A000DEBF0FBECDBFDF91CF911F910F91FF90A2
:1009B000EF900895CF93DF9390E0FC01E65AFE4F4D
:1009C0002491FC01EA5BFE4F8491882361F190E061
:1009D000880F991FFC01E250FF4FC591D491FC0193
:1009E000E85FFE4FA591B491611109C09FB7F894DB
:1009F0008881209582238883EC912E230BC062305E
:100A000061F49FB7F8943881822F8095832388837F
:100A1000EC912E2B2C939FBF06C08FB7F894E881E2
:100A20002E2B28838FBFDF91CF9108952FB7F89495
:100A300060916702709168028091690290916A02E8
:100A40002FBF08951F920F920FB60F9211242F936C
:100A50003F938F939F93AF93BF9380916702909141
:100A60006802A0916902B0916A023091660223E0A7
:100A7000230F2D3720F40196A11DB11D05C026E8D6
:100A8000230F0296A11DB11D209366028093670279
:100A900090936802A0936902B0936A028091620207
:100AA00090916302A0916402B09165020196A11D2C
:100AB000B11D8093620290936302A0936402B0938D
:100AC0006502BF91AF919F918F913F912F910F90B0
:100AD0000FBE0F901F901895CF93DF93EC01BC01D0
:100AE000635F7F4F42E050E00E940B038A859B8545
:100AF000DC01ED91FC910190F081E02D60ECDF9143
:100B0000CF910994CF92DF92EF92FF920F931F93B0
:100B1000CF93DF9300D0CDB7DEB78C017B015A8332
:100B2000498342E050E0BE016F5F7F4F0E940B039C
:100B3000F8012585368542E050E0BE016F5F7F4FAA
:100B4000C8010E94B902F80196878587C980DA80BA
:100B5000CE0CDF1CEC14FD0491F0F7016081C8019C
:100B60000E94D502F80145855685F70161917F0104
:100B7000C8010E949C02F80196878587EBCFE98027
:100B8000FA80F194E194F108F3E0EF22FF24F1E020
:100B9000EF1AF10878F060E0C8010E94D502F80170
:100BA0004585568560E0C8010E949C02F801968741
:100BB0008587EDCF0F900F90DF91CF911F910F910F
:100BC000FF90EF90DF90CF900895EF92FF920F93F8
:100BD0001F93CF93DF93CDB7DEB728970FB6F89466
:100BE000DEBF0FBECDBF7C017A8369832B833C833C
:100BF0004D835E8318870F83DC011E961C921E9224
:100C00001D971A968D919C911B97DC01ED91FC919B
:100C10000190F081E02D60EC099542E050E0BE01CA
:100C20006F5F7F4FC7010E940B03F7012585368553
:100C300042E050E0BE016F5F7F4FC7010E94B902E2
:100C4000D7011E969C938E931D9742E050E0BE0103
:100C5000695F7F4FC7010E940B03F7012585368529
:100C600042E050E0BE01695F7F4FC7010E94B902B8
:100C7000D7011E969C938E931D9744E050E0BE01D1
:100C80006D5F7F4FC7010E940B03F70125853685F5
:100C900044E050E0BE016D5F7F4FC7010E94B90282
:100CA000D7011E969C938E931D9728960FB6F894A5
:100CB000DEBF0FBECDBFDF91CF911F910F91FF908F
:100CC000EF9008952F923F924F925F926F927F9292
:100CD0008F929F92AF92BF92CF92DF92EF92FF924C
:100CE0000F931F93CF93DF93CDB7DEB728970FB63F
:100CF000F894DEBF0FBECDBF8C012DB73EB738874D
:100D00002F83E0906B02F0906C0242E050E0BE0155
:100D10006B5F7F4F0E942802AD80BE80370132E0BA
:100D2000630E711C44E050E0B301C8010E94280228
:100D3000270186E0480E511C42E050E0B201C80194
:100D40000E942802BE016D5F7F4FC8010E946D02A4
:100D50004C01D7011896CD90DC9019972B803C80E0
:100D6000C114D10449F1F601848195818815990552
:100D700041F460817181A401C1010E943B12892B61
:100D800031F0D6015E96CD90DC905F97E9CFB2E06E
:100D9000AB16B10409F449C01CF4B7FEC3C0F8C0D7
:100DA000F3E0AF16B10409F0F3C084E0882E912C73
:100DB000E2E1CE0ED11C66C0D701ED91FC91848595
:100DC000882309F4E5C0C080D18003EE10E0F8016B
:100DD0006491611103C000E010E00DC0D601ED91F7
:100DE000FC910190F081E02DC60109950F5F1F4F26
:100DF000892B69F7F0CFD701ED91FC91808191812A
:100E00000815190579F0DC01ED91FC91AB81BC81ED
:100E1000A00FB11F0190F081E02D6C9109950F5F3B
:100E20001F4FE9CF0E94AC0BB3C02DB63EB6BE013A
:100E30006F5F7F4FC8010E946D028C010196EDB774
:100E4000FEB7E81BF90B0FB6F894FEBF0FBEEDBF5F
:100E50002DB73EB72F5F3F4F490169817A81A801C5
:100E6000C9010E944812F401E00FF11F1082B40181
:100E7000C60148960E9402020FB6F8943EBE0FBE0D
:100E80002DBE50C0D8011496ED91FC91159782812A
:100E900093818816990608F07BC0BE016F5F7F4F73
:100EA000C8010E946D0249805A80D2011196FD014D
:100EB00001900020E9F731975F01AA1ABB0A3C01B3
:100EC0006A187B08C30101970E943F10D7011B9647
:100ED0009C938E931A97A30142505109FC01E40F91
:100EE000F51F1082B5016E5F7F4F640D751D1A9658
:100EF0008D919C911B970E94481269817A816F5F46
:100F00007F4FC6010E940202F701828593850E94ED
:100F1000D410D7011B961C921E921A97BFEF8B1A02
:100F20009B0AB0CF0FEF10E024E630E040E050E045
:100F30006FE170E0F701808191810E94E50544E056
:100F400050E0B301D7018D919C910E94820542E04F
:100F500050E0B201F701808191810E948205D601A3
:100F60006D917C91C601AB2811F4069601C00C96D8
:100F70000E94020240E050E060E070E0F7018081F2
:100F800091810E948205D7018D919C910E946C05F0
:100F9000EF81F8850FB6F894FEBF0FBEEDBF28961F
:100FA0000FB6F894DEBF0FBECDBFDF91CF911F917A
:100FB0000F91FF90EF90DF90CF90BF90AF909F90F8
:100FC0008F907F906F905F904F903F902F900895FB
:100FD0000F931F93CF93DF9300D000D0CDB7DEB730
:100FE00068E271E08FE792E00E94B00B0E94C40BB0
:100FF000811103C061E471E0F5CF68E571E08FE72E
:1010000092E00E94B00B01E010E020E030E0A90186
:101010006EE170E080916D0290916E020E94E50594
:1010200089E792E0092E000CAA0BBB0B89839A83F7
:10103000AB83BC8344E050E0BE016F5F7F4F809183
:101040006D0290916E020E94820580916D029091D6
:101050006E020E946C050F900F900F900F90DF9121
:10106000CF911F910F9108958F929F92AF92BF924F
:10107000DF92EF92FF920F931F93CF93DF9300D0F5
:1010800000D000D0CDB7DEB78C01DD24D394D801D9
:101090001A968D919C911B97DC01ED91FC91048037
:1010A000F581E02D0995892B09F48AC1D8011A969A
:1010B0008D919C911B97DC01ED91FC910680F7814D
:1010C000E02D09958B3D910519F4F801D58ADFCF04
:1010D000D80153962D913C915497803C910509F08D
:1010E0004AC12830310508F437C1F801E784F08897
:1010F0008485882309F484C06AE671E08081918147
:101100000E94C20BD80153964D915C91549760E0B8
:1011100070E02AE08D919C910E943A0B64E771E0A7
:10112000F801808191810E94C20BD8011F964D91D8
:101130005C915097052E000C660B770B20E18D918A
:101140009C910E943A0B68E971E0F80180819181DD
:101150000E94C20BD7014D915C9160E070E020E1EC
:10116000F801808191810E943A0B69E971E0D80110
:101170008D919C910E94C20BF7014481558166813B
:10118000778120E1D8018D919C910E943A0B69E909
:1011900071E0F801808191810E94C20BD701129603
:1011A0004D915C91139760E070E020E1F80180813F
:1011B00091810E943A0B48E0A42EB12CF8012389BA
:1011C000348980819181A216B306C0F469E971E087
:1011D0000E94C20BD8011F96ED91FC915097EA0D29
:1011E000FB1D408150E060E070E020E18D919C911A
:1011F0000E943A0BBFEFAB1ABB0AE0CF0E94AC0BC8
:10120000D8015396AD90BC905497B2E0AB1AB10898
:10121000F8018784908820E030E0A501B401C8017E
:101220000E94B902F401EA0DFB1D20813181821771
:10123000930761F0D8011C968C911C97882309F4C0
:101240008BC067E771E08D919C9184C0F70180812C
:1012500091818230910539F08330910519F1019720
:1012600009F070C05FC0D8011C968C911C97882330
:1012700009F474C068E871E08D919C910E94C20BE2
:10128000F801A080B180D70114964D915D916D91C8
:101290007C9117972AE0C5010E943A0BC5010E9474
:1012A000AC0B5CC0F8018485882359F161E971E0D9
:1012B000808191810E94C20BD70114964D915D915E
:1012C0006D917C9117972AE0F801808191810E94AD
:1012D0003A0B69E971E0D8018D919C910E94C20B93
:1012E000F801A080B180D70112964D915C911397BF
:1012F00060E070E02AE0C5010E943A0BC5010E943F
:10130000AC0BF701A481B5818D919C911197009749
:1013100009F059C012962D913C911397232B09F097
:1013200052C01AC06BE971E0D8018D919C910E9466
:10133000B00BD8011896ED91FC911997309761F098
:1013400009950AC0F8018485882331F066EA71E0C6
:10135000808191810E94B00BE12CF12CD801549630
:101360001C921E92539755961C92E114F10409F4B5
:101370008ECEC70158C0F8014589442371F08C3DD9
:10138000910531F08D3D910529F48BED90E002C07F
:1013900080EC90E0D80155961C92F8014189528961
:1013A0002417350708F073CE47855089B9016F5F60
:1013B0007F4F748B638BFA01E20FF31F808367CE3C
:1013C00080E090E030C0FE82ED82E8E0EE0EF11C9D
:1013D000FC82EB821A8219821296ED91FC9113978E
:1013E000309709F4B9CF0097D1F014962D913C9124
:1013F0001597A9015595479520FF0AC0DC01A40F58
:10140000B51F2D913C91E20FF31F0190F081E02D6B
:10141000BE016F5F7F4F840F951F09959DCFCE0151
:101420000196099599CF26960FB6F894DEBF0FBEA8
:10143000CDBFDF91CF911F910F91FF90EF90DF9083
:10144000BF90AF909F908F900895CF92DF92EF92D0
:10145000FF92CF93DF93EC010E9416056B017C0194
:101460000E941605AB01BC014C195D096E097F098C
:10147000403D57406105710530F4CE010E943408AB
:10148000009771F302C080E090E0DF91CF91FF9070
:10149000EF90DF90CF9008950E9436126F927F9266
:1014A0008F929F92AF92BF92CF92DF92EF92FF9274
:1014B0000F931F93CF93DF93CDB7DEB73C016B0142
:1014C000ADB6BEB60E9468128C01C6010E946812B9
:1014D00011279801280F311D490182E0880E911CC7
:1014E0002D5F3F4FEDB7FEB7E21BF30B0FB6F8943D
:1014F000FEBF0FBEEDBF8DB79EB701967C01118276
:10150000B30101960E946112C8010296B6018E0DC8
:101510009F1D0E946112A401B70180916D029091FC
:101520006E020E9482050FB6F894BEBE0FBEADBE1D
:10153000DF91CF911F910F91FF90EF90DF90CF90AF
:10154000BF90AF909F908F907F906F900895FC0117
:1015500024813581FB01448155812417350721F50C
:10156000FC0180819181FB0160817181009719F0FC
:1015700061157105A1F46115710549F0232BB1F0D6
:10158000FB01808190E09195819591090AC00097B7
:1015900069F0232B59F0FC01808190E002C00E9489
:1015A000511221E0892B19F020E001C021E0822FA7
:1015B00008950F931F93CF93DF93EC018881998156
:1015C000009729F02A813B812617370788F48B0181
:1015D0006F5F7F4F0E946C11009761F09983888341
:1015E0001B830A832C813D81232B11F4FC01108283
:1015F00081E001C080E0DF91CF911F910F910895AC
:10160000CF93DF93EC0188819981009711F00E94BC
:10161000D410198218821D821C821B821A82DF91CB
:10162000CF910895EF92FF920F931F93CF93DF9383
:10163000EC018B016115710551F0CB010E9468121C
:101640007C01BC01CE010E94D90A811104C0CE01E7
:101650000E94000B07C0FD82EC82B801888199814D
:101660000E946112CE01DF91CF911F910F91FF90E7
:10167000EF9008954F925F926F927F92EF92FF9258
:101680000F931F93CF93DF93CDB7DEB7A1970FB61C
:10169000F894DEBF0FBECDBF7C01FA01CB0119A2C9
:1016A000223008F42AE08E010F5D1F4F422E512C8C
:1016B000612C712CBF01A30192010E941710F90146
:1016C000CA01015011096A3014F4605D01C0695CFF
:1016D000D8016C93232B242B252B61F7B801C7016C
:1016E0000E946903A1960FB6F894DEBF0FBECDBF6E
:1016F000DF91CF911F910F91FF90EF907F906F90AE
:101700005F904F900895CF92DF92EF92FF920F93E8
:101710001F93CF93DF93EC016A017B01E881F9818C
:101720000190F081E02D6DE209958C014427552749
:10173000BA014C195D096E097F092AE0CE010E94A9
:101740003A0B800F911FDF91CF911F910F91FF9066
:10175000EF90DF90CF9008956CEA71E00C946903EC
:101760000F931F93CF93DF93EC010E9469038C01C9
:10177000CE010E94AC0B800F911FDF91CF911F9182
:101780000F9108950C946903AF92BF92CF92DF92AC
:10179000EF92FF920F931F93CF93DF9380912603D5
:1017A00090912703DC01ED91FC910190F081E02DF7
:1017B00060EC09958EE193E06C01990FEE08FF084B
:1017C00000E010E0A701960161E070E08CE193E099
:1017D0000E94E5058CE193E00E946C0500912403D2
:1017E0001091250310922503109224038CE193E0BD
:1017F0000E94250AEC01892BA9F14C815D816E8143
:101800007F81809128034C155D056E057F0581F46D
:10181000882341F060EA71E080911C0390911D03E0
:101820000E94B00B109325030093240381E01FC096
:101830008823E1F26FEA71E080911C0390911D030F
:101840000E94C20BA0901C03B0901D034C815D81CF
:101850006E817F812AE0C5010E943A0BC5010E947A
:10186000AC0BC4CF109325030093240380E0DF91D9
:10187000CF911F910F91FF90EF90DF90CF90BF908D
:10188000AF900895CF92DF92EF92FF920F931F9344
:10189000E82FF92F05C0015011092109310961F123
:1018A000908196239417B9F305C0015011092109BD
:1018B000310911F1908196239413F7CFC12CD12CCB
:1018C000E12CF12C0AC08FEFC81AD80AE80AF80AEE
:1018D0000C151D052E053F0579F0808186238417A0
:1018E00091F36C2D7D2D8E2D9F2D1F910F91FF90CB
:1018F000EF90DF90CF90089560E070E080E090E09E
:101900001F910F91FF90EF90DF90CF9008950F936C
:101910001F93CF93DF93CFE7D2E01B821A8288EE2A
:1019200093E0A0E0B0E08C839D83AE83BF838AE028
:1019300091E09983888385EC90E09D878C8784EC87
:1019400090E09F878E8780EC90E0998B888B81EC6C
:1019500090E09B8B8A8B82EC90E09D8B8C8B86EC4D
:1019600090E09F8B8E8B198E1A8E1B8E1C8E0CEC2A
:1019700013E0F80112828FE0808380E1818361E0CF
:101980008FE00E94DA0460E0F80181810E94DA04AD
:1019900080E29EE4A0E0B0E0F80183839483A58315
:1019A000B683ECE1F3E0D183C08313821282158207
:1019B0001482D387C28781E0848782E393E0908B8F
:1019C000878780E890E0928B818B148A138A158A2E
:1019D000ADE6B2E01196FC93EE9319961C921E921E
:1019E00018971B961C921E921A971D961C921E9277
:1019F0001C97B0936C02A0936B0282E696E01F9650
:101A00009C938E931E97AAEBB3E017961C921E929E
:101A1000169719961C921E9218971596FC93EE93A2
:101A200014974FEF5FEFBA014D935D936D937C93E5
:101A30001397DF91CF911F910F910895CF93DF936B
:101A4000CDB7DEB727970FB6F894DEBF0FBECDBF78
:101A5000789484B5826084BD84B5816084BD85B589
:101A6000826085BD85B5816085BD80916E00816095
:101A700080936E001092810080918100826080933B
:101A8000810080918100816080938100809180003D
:101A90008160809380008091B10084608093B10068
:101AA0008091B00081608093B00080917A00846062
:101AB00080937A0080917A00826080937A0080918E
:101AC0007A00816080937A0080917A0080688093A8
:101AD0007A001092C100E0918F02F091900282E0B2
:101AE0008083E0918B02F0918C021082E0918D0254
:101AF000F0918E0280E1808310929702E091930230
:101B0000F091940286E08083E0919102F09192023C
:101B1000808180618083E0919102F09192028081C6
:101B200088608083E0919102F091920280818068C8
:101B30008083E0919102F091920280818F7D808379
:101B400061E08EE00E94DA0461E08FE00E94DA0436
:101B500060E080E10E94DA0461E081E10E94DA0441
:101B600060E082E10E94DA0461E08EE00E941F04DE
:101B700061E081E10E941F0465EB71E08FE792E074
:101B80000E94B00B0E94C40B811103C061E471E09C
:101B9000F5CF68E571E08FE792E00E94B00B1A8202
:101BA00019821C821B821E821D8266E271E0CE01B8
:101BB00001960E94120B80E290E00E943F108C017F
:101BC00080E2F80111928A95E9F7F80111821082FA
:101BD000138212821582148260E070E0C8010E94B4
:101BE000D90A811104C0C8010E94000B09C0F80184
:101BF000158214826EEA71E0808191810E945A12EE
:101C0000F8011782168211861086158614861786AB
:101C10001686138A128A158A148A118E108E138ED4
:101C2000128ECE0101967C0108171907C9F0C980F0
:101C3000DA80C114D10489F0AD80BE80B501C8013D
:101C40000E94D90A882349F0F801B582A482B6011E
:101C5000808191810E945A1203C0C8010E94000B2A
:101C60008091750290917602F801978F868F10937C
:101C700076020093750289819A810E94D4108FE0C8
:101C800094E0F801918780878FEF93E097878687AC
:101C90008FE494E0938F828F88EE97E090932503F2
:101CA000809324030E94E80780E99FE19A83898357
:101CB0001F828AEB93E09093C1038093C00385E277
:101CC00093E09093C3038093C2031092C5031092D4
:101CD000C40303E010E020EC33E0032E000C440BBF
:101CE000550B64E170E08091BE039091BF030E94A8
:101CF000E5054CE050E060ED71E08091BE0390910D
:101D0000BF030E94820542E050E0B7018091BE030C
:101D10009091BF030E94820541E050E0BE01695FDF
:101D20007F4F8091BE039091BF030E9482058091F6
:101D3000BE039091BF030E946C058091BE039091F9
:101D4000BF030E94250A009791F0FC014481558150
:101D50006681778177FD0BC04093BA035093BB0334
:101D60006093BC037093BD0380E090E003C0FC016E
:101D700084819581892B39F06DED71E08FE792E0D8
:101D80000E94C20BFFCF61EF71E08FE792E00E94EB
:101D9000B00B23E0E22EF12C33E2C32ED12C4CE128
:101DA000A42EB12C54E6352E6EE2862E99249A94F8
:101DB0008CE193E00E9434080E9416050091B6035E
:101DC0001091B7032091B8033091B9032B013C0166
:101DD000401A510A620A730A40EA44164BEB540651
:101DE0004DE064067104F0F06093B6037093B7039E
:101DF0008093B8039093B9038EE00E94D6030197B5
:101E000039F460E08EE00E941F046FEF71E006C0BD
:101E100061E08EE00E941F046EE072E08FE792E0C6
:101E20000E94B00B0E9416050091B2031091B303FB
:101E30002091B4033091B5032B013C01401A510AA3
:101E4000620A730A40E244164EE4540661047104C7
:101E500008F4C2C06093B2037093B3038093B403D9
:101E60009093B5038091CE03882329F061E080919F
:101E7000CC030E94DA0460E08091CC030E941F042E
:101E8000C7010197F1F761E08091CC030E941F0424
:101E9000C6010197F1F760E08091CC030E941F0416
:101EA0008091CE03882329F060E08091CC030E94CA
:101EB000DA048091CD0390E0FC01E65AFE4F649174
:101EC000FC01EA5BFE4FE491F0E0EE0FFF1FE45CE3
:101ED000FE4F859194910091CF031091D0032091F2
:101EE000D1033091D2033F70462F0E94420C6115FE
:101EF00071058105910539F0DC01CB010196A11D29
:101F0000B11DBF7003C080E090E0DC01B5010E940C
:101F1000EF0F769567956A5F7109369EC001379E0F
:101F2000900D1124B4010E9403108B01AB01770FB7
:101F3000660B770B77FF05C08FE792E00E94830B5B
:101F400005C02AE08FE792E00E943A0B6EE172E052
:101F50008FE792E00E94B00BC801805E9D4F3C016C
:101F6000BC018FE792E00E94B00B1092C703109261
:101F7000C6032091BA033091BB034091BC0350913A
:101F8000BD0357FD29C002E010E065E170E08091DB
:101F9000BE039091BF030E94E50543E050E06DE56C
:101FA00072E08091BE039091BF030E948205F3010D
:101FB00001900020E9F73197AF0146195709B301A5
:101FC0008091BE039091BF030E9482058091BE0361
:101FD0009091BF030E946C050E94CF01E9CEAA1B1D
:101FE000BB1B51E107C0AA1FBB1FA617B70710F004
:101FF000A61BB70B881F991F5A95A9F78095909536
:10200000BC01CD01089597FB072E16F4009407D06C
:1020100077FD09D00E94EF0F07FC05D03EF49095A4
:1020200081959F4F0895709561957F4F0895A1E226
:102030001A2EAA1BBB1BFD010DC0AA1FBB1FEE1F42
:10204000FF1FA217B307E407F50720F0A21BB30B8D
:10205000E40BF50B661F771F881F991F1A9469F709
:1020600060957095809590959B01AC01BD01CF0165
:102070000895EE0FFF1F0590F491E02D0994CF9382
:10208000DF938230910510F482E090E0E091D50377
:10209000F091D60320E030E0C0E0D0E0309711F1BD
:1020A0004081518148175907C0F04817590761F41A
:1020B00082819381209719F09B838A832BC0909310
:1020C000D6038093D50326C02115310519F0421798
:1020D000530718F49A01BE01DF01EF010280F3817A
:1020E000E02DDCCF2115310509F1281B390B2430F7
:1020F000310590F412968D919C911397611571059D
:1021000021F0FB019383828304C09093D6038093D4
:10211000D503FD01329644C0FD01E20FF31F819308
:102120009193225031092D933C933AC02091D303CF
:102130003091D403232B41F420910201309103010B
:102140003093D4032093D3032091000130910101F7
:102150002115310541F42DB73EB74091040150914E
:102160000501241B350BE091D303F091D403E21752
:10217000F307A0F42E1B3F0B2817390778F0AC01AA
:102180004E5F5F4F2417350748F04E0F5F1F509387
:10219000D4034093D3038193919302C0E0E0F0E035
:1021A000CF01DF91CF9108950F931F93CF93DF93CA
:1021B000009709F48CC0FC013297138212820091BF
:1021C000D5031091D6030115110581F420813181C9
:1021D000820F931F2091D3033091D403281739071E
:1021E00079F5F093D403E093D30371C0D80140E0B4
:1021F00050E0AE17BF0750F412962D913C91139703
:10220000AD012115310509F1D901F3CF9D01DA01A5
:102210003383228360817181860F971F8217930712
:1022200069F4EC0128813981260F371F2E5F3F4F5B
:10223000318320838A819B8193838283452B29F478
:10224000F093D603E093D50342C01396FC93EE932C
:102250001297ED01499159919E01240F351FE21704
:10226000F30771F480819181840F951F0296119676
:102270009C938E938281938113969C938E93129755
:10228000E0E0F0E0D80112968D919C9113970097B1
:1022900019F0F8018C01F6CF8D919C9198012E5F79
:1022A0003F4F820F931F2091D3033091D4032817FF
:1022B000390769F4309729F41092D6031092D503A8
:1022C00002C0138212821093D4030093D303DF91D0
:1022D000CF911F910F910895A0E0B0E0E2E7F1E106
:1022E0000C947512EC01009721F4CB010E943F1071
:1022F000B8C0FC01E60FF71F9C0122503109E2171C
:10230000F30708F4ACC0D9010D911C911197061781
:102310001707B0F00530110508F49FC0C8010497F5
:102320008617970708F499C002501109061B170B6E
:10233000019311936D937C93CF010E94D4108DC0B3
:102340005B01A01AB10A4C01800E911EA091D50329
:10235000B091D60340E050E0E12CF12C109709F445
:102360004AC0A815B905D1F56D907C90119763010D
:1023700082E0C80ED11CCA14DB0480F1A3014A1903
:102380005B096A0182E0C80ED11C1296BC901297BC
:102390001396AC91B5E0CB16D10440F0B282A38382
:1023A00051834083D9016D937C930AC00E5F1F4F08
:1023B000C301800F911FF90191838083EB2DFA2FC8
:1023C000E114F10431F0D7011396FC93EE931297C8
:1023D00044C0F093D603E093D5033FC08D919C9108
:1023E00011974817590708F4AC017D0112960D901A
:1023F000BC91A02DB3CF8091D3039091D4038815C5
:102400009905E1F446175707C8F4809100019091AF
:102410000101009741F48DB79EB74091040150919E
:102420000501841B950BE817F907C8F4F093D40352
:10243000E093D303F901718360830FC0CB010E9445
:102440003F107C01009759F0A801BE010E9448127C
:10245000CE010E94D410C70104C0CE0102C080E0AA
:1024600090E0CDB7DEB7EEE00C94911281E090E001
:10247000F8940C94A812FB01DC0104C08D9101902A
:10248000801921F441505040C8F7881B990B0895DA
:10249000FB01DC0102C001900D9241505040D8F781
:1024A0000895FB01DC018D91019080190110D9F391
:1024B000990B0895FB01DC0101900D920020E1F7DA
:1024C0000895FB01DC0105900D920020E1F70895CD
:1024D000FC0105900020E9F7809590958E0F9F1FD5
:1024E00008952F923F924F925F926F927F928F92B8
:1024F0009F92AF92BF92CF92DF92EF92FF920F9393
:102500001F93CF93DF93CDB7DEB7CA1BDB0B0FB69C
:10251000F894DEBF0FBECDBF09942A883988488859
:102520005F846E847D848C849B84AA84B984C884EF
:10253000DF80EE80FD800C811B81AA81B981CE0FE6
:10254000D11D0FB6F894DEBF0FBECDBFED010895CB
:04255000F894FFCF2D
:102554000000D7038000000000006601E2002F01A4
:102564000D012101AD015245535420636F64652070
:10257400004F4E004F464600454C2D436C69656E36
:1025840074202872652D297374617274696E6721D1
:1025940000454C2D436C69656E742073796E63201D
:1025A4006661696C65642100454C2D436C69656EF8
:1025B400742073796E6365642100454C433A206747
:1025C4006F742000204000454C433A20496E7661E8
:1025D4006C69642043524300524553505F563A207D
:1025E40000524553505F43423A20004E4545445FF4
:1025F40053594E432100434D443F3F000D0A0042CE
:1026040041443A20006B6F6E6965632073656B7794
:10261400656E636A692073746172746F77656A00AA
:102624003139322E3136382E312E3534005245535D
:102634005420626567696E206661696C65643A203E
:1026440000454C2D524553542072656164790077DE
:102654006C61637A616D20706F6D706B6500777962
:102664006C61637A616D20706F6D706B650025001D
:102674002F6A736F6E2E68746D3F747970653D6355
:102684006F6D6D616E6426706172616D3D75646518
:1026940076696365266964783D3333266E76616CAA
:1026A40075653D30267376616C75653D004745540C
:0226B400000024
:107800000C94343C0C94513C0C94513C0C94513CE1
:107810000C94513C0C94513C0C94513C0C94513CB4
:107820000C94513C0C94513C0C94513C0C94513CA4
:107830000C94513C0C94513C0C94513C0C94513C94
:107840000C94513C0C94513C0C94513C0C94513C84
:107850000C94513C0C94513C0C94513C0C94513C74
:107860000C94513C0C94513C11241FBECFEFD8E036
:10787000DEBFCDBF11E0A0E0B1E0ECE9FFE702C060
:1078800005900D92A230B107D9F712E0A2E0B1E065
:1078900001C01D92AD30B107E1F70E942D3D0C945F
:1078A000CC3F0C94003C982F959595959595959582
:1078B000905D8F708A307CF0282F295A8091C0000B
:1078C00085FFFCCF9093C6008091C00085FFFCCF60
:1078D0002093C6000895282F205DF0CF982F809127
:1078E000C00085FFFCCF9093C6000895EF92FF92F1
:1078F0000F931F93EE24FF2487018091C00087FD22
:1079000017C00894E11CF11C011D111D81E4E8164B
:1079100082E4F8068FE0080780E0180770F3E09132
:107920000401F091050109958091C00087FFE9CF1E
:107930008091C6001F910F91FF90EF9008950E94D3
:10794000763C982F8091C00085FFFCCF9093C600B5
:1079500091362CF490330CF09053892F089597555D
:10796000892F08951F930E949F3C182F0E949F3CCF
:107970001295107F810F1F9108951F93182F882350
:1079800021F00E94763C1150E1F71F9108951F935A
:10799000182F0E94763C803249F0809103018F5F5E
:1079A000809303018530C1F01F9108958091C0003C
:1079B00085FFFCCF84E18093C6008091C00085FFE5
:1079C000FCCF1093C6008091C00085FFFCCF80E102
:1079D0008093C6001F910895E0910401F091050184
:1079E00009951F9108950E94763C803241F0809164
:1079F00003018F5F80930301853081F008958091AA
:107A0000C00085FFFCCF84E18093C6008091C00058
:107A100085FFFCCF80E18093C6000895E0910401CA
:107A2000F09105010995089540E951E08823A1F0FE
:107A30002D9A28EE33E0FA013197F1F721503040CA
:107A4000D1F72D9828EE33E0FA013197F1F7215064
:107A50003040D1F7815061F708953F924F925F9285
:107A60006F927F928F929F92AF92BF92CF92DF924E
:107A7000EF92FF920F931F93CF93DF93000080E16B
:107A80008093C4001092C50088E18093C10086E015
:107A90008093C2005098589A259A81E00E94143D24
:107AA00024E1F22E9EE1E92E85E9D82E0FE0C02ECA
:107AB00010E1B12EAA24A394B1E49B2EA6E58A2E50
:107AC000F2E57F2EE0E26E2E79E4572E63E5462E36
:107AD00050E5352E0E94763C8033B1F18133B9F107
:107AE000803409F46FC0813409F476C0823409F41B
:107AF00085C0853409F488C0803531F1823521F1A3
:107B0000813511F1853509F485C0863509F48DC0BC
:107B1000843609F496C0843709F403C1853709F423
:107B200072C1863709F466C0809103018F5F80932C
:107B30000301853079F6E0910401F0910501099582
:107B40000E94763C803351F60E94F33CC3CF0E94E2
:107B5000763C803249F78091C00085FFFCCFF092DF
:107B6000C6008091C00085FFFCCF9092C600809136
:107B7000C00085FFFCCF8092C6008091C00085FFC9
:107B8000FCCF7092C6008091C00085FFFCCF609250
:107B9000C6008091C00085FFFCCF5092C600809146
:107BA000C00085FFFCCF4092C6008091C00085FFD9
:107BB000FCCF3092C6008091C00085FFFCCFB09210
:107BC000C60088CF0E94763C863808F4BDCF0E945C
:107BD000763C0E94F33C7ECF0E94763C803809F4CC
:107BE0009CC0813809F40BC1823809F43CC1883942
:107BF00009F48FC080E00E94C73C6CCF84E10E94F2
:107C0000BD3C0E94F33C66CF85E00E94BD3C0E94D3
:107C1000F33C60CF0E94763C809306010E94763C44
:107C2000809307010E94F33C55CF0E94763C80333D
:107C300009F41DC183E00E94BD3C80E00E94C73C66
:107C400049CF0E94763C809309020E94763C809343
:107C5000080280910C028E7F80930C020E94763C79
:107C6000853409F415C18091080290910902892B8D
:107C700089F000E010E00E94763CF801E85FFE4FDA
:107C800080830F5F1F4F80910802909109020817AF
:107C9000190788F30E94763C803209F045CF809125
:107CA0000C0280FF01C16091060170910701660F0F
:107CB000771F7093070160930601A0910802B091AD
:107CC00009021097C9F0E8E0F1E09B01AD014E0F09
:107CD0005F1FF999FECF32BD21BD819180BDFA9A17
:107CE000F99A2F5F3F4FE417F50799F76A0F7B1F4B
:107CF00070930701609306018091C00085FFFCCF5F
:107D0000F092C6008091C00085FFFCCFB092C60003
:107D1000E1CE83E00E94C73CDDCE82E00E94C73CFA
:107D2000D9CE0E94763C809309020E94763C8093D3
:107D300008028091060190910701880F991F909386
:107D40000701809306010E94763C853409F4A6C0A1
:107D500080910C028E7F80930C020E94763C8032D0
:107D600009F0B8CE8091C00085FFFCCFF092C6002C
:107D7000609108027091090261157105B9F140E046
:107D800050E080910C02A82FA170B82FB27011C0E2
:107D9000BB2309F45CC0E0910601F0910701319624
:107DA000F0930701E09306014F5F5F4F46175707B7
:107DB000E8F4AA2369F3F999FECF209106013091E6
:107DC000070132BD21BDF89A90B58091C00085FFB2
:107DD000FCCF9093C6002F5F3F4F30930701209355
:107DE00006014F5F5F4F4617570718F38091C00099
:107DF00085FDE5CE8091C00085FFF8CFE0CE81E023
:107E00000E94C73C67CE0E94763C803209F08CCE3F
:107E10008091C00085FFFCCFF092C6008091C00029
:107E200085FFFCCFE092C6008091C00085FFFCCFAB
:107E3000D092C6008091C00085FFFCCFC092C600E2
:107E40008091C00085FFFCCFB092C60043CEE09188
:107E50000601F091070194918091C00085FFFCCF4D
:107E60009093C6009CCF80E10E94C73C33CE0E9415
:107E7000763C0E94763C182F0E94763C112309F430
:107E800083C0113009F484C08FE00E94C73C22CE29
:107E900080910C02816080930C02E5CE80910C02EF
:107EA000816080930C0259CF809107018823880F4D
:107EB000880B8A2180930B02809106019091070123
:107EC000880F991F90930701809306018091080203
:107ED00080FF09C080910802909109020196909359
:107EE000090280930802F894F999FECF1127E091D6
:107EF0000601F0910701C8E0D1E08091080290915D
:107F00000902103091F40091570001700130D9F34B
:107F100003E000935700E89500915700017001308D
:107F2000D9F301E100935700E89509901990009169
:107F3000570001700130D9F301E000935700E89534
:107F40001395103498F011270091570001700130FB
:107F5000D9F305E000935700E895009157000170B0
:107F60000130D9F301E100935700E895329602976A
:107F700009F0C7CF103011F00296E5CF112480919F
:107F8000C00085FFB9CEBCCE8EE10E94C73CA2CD19
:0C7F900085E90E94C73C9ECDF894FFCF0D
:027F9C00800063
:040000030000780081
:00000001FF
