:100000000C94B4000C94DC000C94DC000C94DC0028
:100010000C94DC000C94DC000C94DC000C94DC00F0
:100020000C94DC000C94DC000C94DC000C94DC00E0
:100030000C94DC000C94DC000C94DC000C94DC00D0
:100040000C94CB040C94DC000C944D030C9427030B
:100050000C94DC000C94DC000C94DC000C94DC00B0
:100060000C94DC000C94DC0069645F6F66660069C8
:10007000645F6F6E00506F6D7061206A65737420ED
:100080007779B3B9637A6F6E6100746578740050E4
:100090006F6D7061206A6573742077B3B9637A6F8E
:1000A0006E61007465787400506F6D7061206A65D0
:1000B0007374207779B3B9637A6F6E610074657871
:1000C0007400506F6D7061206A6573742077B3B9E6
:1000D000637A6F6E6100746578740048616E646C59
:1000E0006572206E6F7420666F756E6420666F7225
:1000F0002055524C3A0000000000240027002A003E
:1001000000000000250028002B0000000000230054
:100110002600290004040404040404040202020268
:1001200002020303030303030102040810204080BA
:100130000102040810200102040810200000000839
:10014000000201000003040700000000000000009E
:100150002F537465726F77616E69652E68746D6C6C
:100160002E6A736F6E00630D11241FBECFEFD8E0AF
:10017000DEBFCDBF12E0A0E0B1E0EAECF7E202C0E2
:1001800005900D92A236B107D9F723E0A2E6B2E0BE
:1001900001C01D92AB3EB207E1F710E0C4EBD0E026
:1001A00004C02197FE010E943011C33BD107C9F75B
:1001B0000E94FA0D0C94E3130C940000FC01918D45
:1001C000828D981761F0828DDF01A80FB11D5D96B9
:1001D0008C91928D9F5F9F73928F90E008958FEF27
:1001E0009FEF0895FC01918D828D981731F0828DDB
:1001F000E80FF11D858D90E008958FEF9FEF089532
:10020000FC01918D228D892F90E0805C9F4F821B95
:1002100091098F73992708958FE792E00E9400015A
:1002200021E0892B09F420E0822F0895FC01848DC0
:10023000DF01A80FB11DA35ABF4F2C91848D90E010
:1002400001968F739927848FA689B7892C93A089EB
:10025000B1898C9180648C93938D848D981306C0A2
:100260000288F389E02D80818F7D80830895EF924D
:10027000FF920F931F93CF93DF93EC0181E0888F60
:100280009B8D8C8D981305C0E889F989808185FD47
:1002900024C0F62E0B8D10E00F5F1F4F0F73112738
:1002A000E02E8C8DE8120CC00FB607FCFACFE8895F
:1002B000F989808185FFF5CFCE010E941601F1CF2B
:1002C0008B8DFE01E80FF11DE35AFF4FF0820B8F7B
:1002D000EA89FB898081806207C0EE89FF8960839B
:1002E000E889F98980818064808381E090E0DF91F2
:1002F000CF911F910F91FF90EF900895CF93DF93CF
:10030000EC01888D8823C9F0EA89FB89808185FD0D
:1003100005C0A889B9898C9186FD0FC00FB607FC6E
:10032000F5CF808185FFF2CFA889B9898C9185FFAF
:10033000EDCFCE010E941601E7CFDF91CF91089556
:1003400080E090E0892B29F00E940C0181110C942F
:1003500000000895833081F028F4813099F08230D4
:10036000A1F008958730A9F08830B9F08430D1F435
:10037000809180008F7D03C0809180008F77809373
:100380008000089584B58F7702C084B58F7D84BDC9
:1003900008958091B0008F7703C08091B0008F7D69
:1003A0008093B0000895DC011296ED91FC911397B3
:1003B0003097F1F02D913C91119721153105B1F055
:1003C00014964D915C911597CA019595879540FFBC
:1003D0000AC0D901A80FB91F4D915C91E40FF51F18
:1003E0000190F081E02D820F931F0994CB010994B5
:1003F0000895EF92FF920F931F93CF93DF93EC0139
:1004000088819981EC81FD81228133818217930754
:1004100060F5EA81FB81019111912EEF3FEF201BE6
:10042000310B7901A3E0EA22FF24FB83EA830196E2
:1004300099838883CB019A010417150708F4980162
:10044000260F371F8217930729F04191DC014D9346
:10045000CD01F8CF9701200F311F8A819B81280F92
:10046000391F3B832A83C80102C08FEF9FEFDF91C2
:10047000CF911F910F91FF90EF900895CF93DF934D
:10048000FC0180819181A481B58112962D913C91CE
:10049000139782179307E0F4A281B3814D915D9188
:1004A000B383A283019691838083EB01B983A883F0
:1004B0002EEF3FEF241B350B23703327240F351FFE
:1004C00082819381280F391F33832283CA0102C09E
:1004D0008FEF9FEFDF91CF9108954627342F252F7F
:1004E000A901442784E0440F551F8A95E1F742276C
:1004F0005327CA01892F992782958F70482759273A
:10050000CA01882735E0969587953A95E1F78427C3
:1005100095270895EF92FF920F931F93CF93DF9348
:100520007C01C901EB018B01040F151FC017D10716
:1005300031F06991AC01C7010E946D02F7CFDF91E4
:10054000CF911F910F91FF90EF900895CF93DF937C
:10055000EC018A859B85603CA1F06B3D21F5DC01B7
:10056000ED91FC910190F081E02D6BED09958A856C
:100570009B85DC01ED91FC910190F081E02D6DED0A
:1005800018C0DC01ED91FC910190F081E02D6BED44
:1005900009958A859B85DC01ED91FC910190F081A4
:1005A000E02D6CED06C0DC01ED91FC910190F08135
:1005B000E02DDF91CF910994EF92FF920F931F935B
:1005C000CF93DF937C01EB018B01040F151FC01744
:1005D000D10729F06991C7010E94A602F8CFDF91E7
:1005E000CF911F910F91FF90EF9008950F931F935C
:1005F000CF93DF936115710529F18B01EC01BC01EB
:10060000645F7F4F42E050E0C8010E94F901EC8135
:10061000FD818485882371F066E171E0808191819C
:100620000E949E0C6C857D85EC81FD81808191818D
:100630000E94700CBE01605F7F4FC8010E943E02A5
:100640009F878E87DF91CF911F910F9108951F9201
:100650000F920FB60F9211242F933F934F935F93F6
:100660006F937F938F939F93AF93BF93EF93FF937A
:100670008FE792E00E941601FF91EF91BF91AF9139
:100680009F918F917F916F915F914F913F912F91AA
:100690000F900FBE0F901F9018951F920F920FB6DC
:1006A0000F9211242F938F939F93EF93FF93E091D9
:1006B0008F02F09190028081E0919502F091960274
:1006C00082FD12C09081809198028F5F8F7320917C
:1006D0009902821751F0E0919802F0E0E158FD4F45
:1006E000958F8093980201C08081FF91EF919F9137
:1006F0008F912F910F900FBE0F901F901895CF9351
:10070000DF93282F30E0F901E45CFE4F8491F9017A
:10071000E85DFE4FD491F901EC5EFE4FC491CC230D
:1007200091F081110E94AA01EC2FF0E0EE0FFF1F63
:10073000E65FFE4FA591B491EC91ED2381E090E04E
:1007400021F480E002C080E090E0DF91CF91089535
:1007500082E10E947F03892B29F462EC70E086ED30
:1007600090E004C068EA70E08DEB90E00C942D0BF3
:1007700082E10E947F03892B29F46FE870E083EA0D
:1007800090E004C065E770E08AE890E00C942D0BDF
:100790001F93CF93DF93282F30E0F901E45CFE4FE5
:1007A0008491F901E85DFE4FD491F901EC5EFE4FB2
:1007B000C491CC23C9F0162F81110E94AA01EC2FFD
:1007C000F0E0EE0FFF1FE050FF4FA591B4918FB7FF
:1007D000F894111105C09C91ED2FE095E92302C01A
:1007E000EC91ED2BEC938FBFDF91CF911F9108958A
:1007F0001F93CF93DF93CDB7DEB72C970FB6F89446
:10080000DEBF0FBECDBFBC01CE0101960E94E50B3D
:1008100018861F821A8619861C861B866FE670E072
:10082000CE0107960E94B80BBE01695F7F4FCE01D3
:1008300001960E94860B182FCE0107960E94E00BAE
:10084000112351F060E081E10E94C80361E271E090
:100850008FE792E00E948C0C18861F821A861986F8
:100860001C861B8668E670E0CE0107960E94B80BD6
:10087000BE01695F7F4FCE0101960E94860B182F43
:10088000CE0107960E94E00B112351F061E081E157
:100890000E94C80364E271E08FE792E00E948C0C32
:1008A000CE0101960E94E00B2C960FB6F894DEBFA5
:1008B0000FBECDBFDF91CF911F910895CF93DF93EE
:1008C00090E0FC01E85DFE4F2491FC01EC5EFE4FE0
:1008D0008491882361F190E0880F991FFC01EA5010
:1008E000FF4FC591D491FC01E050FF4FA591B49109
:1008F000611109C09FB7F89488812095822388836D
:10090000EC912E230BC0623061F49FB7F8943881CC
:10091000822F809583238883EC912E2B2C939FBF6D
:1009200006C08FB7F894E8812E2B28838FBFDF9104
:10093000CF9108953FB7F894809167029091680233
:10094000A0916902B0916A0226B5A89B05C02F3F0D
:1009500019F00196A11DB11D3FBFBA2FA92F982FE5
:100960008827820F911DA11DB11DBC01CD0142E060
:10097000660F771F881F991F4A95D1F708952FB7E3
:10098000F894609163027091640280916502909185
:1009900066022FBF08951F920F920FB60F92112477
:1009A0002F933F938F939F93AF93BF938091630255
:1009B00090916402A0916502B0916602309162024A
:1009C00023E0230F2D3720F40196A11DB11D05C092
:1009D00026E8230F0296A11DB11D20936202809389
:1009E000630290936402A0936502B09366028091C3
:1009F000670290916802A0916902B0916A02019623
:100A0000A11DB11D8093670290936802A0936902B3
:100A1000B0936A02BF91AF919F918F913F912F91B7
:100A20000F900FBE0F901F901895CF93DF93EC019E
:100A3000BC01635F7F4F42E050E00E94DC028A8588
:100A40009B85DC01ED91FC910190F081E02D60EC43
:100A5000DF91CF910994CF92DF92EF92FF920F93A3
:100A60001F93CF93DF9300D0CDB7DEB78C017B010E
:100A70005A83498342E050E0BE016F5F7F4F0E947E
:100A8000DC02F8012585368542E050E0BE016F5F4B
:100A90007F4FC8010E948A02F80196878587C98026
:100AA000DA80CE0CDF1CEC14FD0491F0F7016081BC
:100AB000C8010E94A602F80145855685F70161919B
:100AC0007F01C8010E946D02F80196878587EBCFF0
:100AD000E980FA80F194E194F108F3E0EF22FF2439
:100AE000F1E0EF1AF10878F060E0C8010E94A60278
:100AF000F8014585568560E0C8010E946D02F80145
:100B000096878587EDCF0F900F90DF91CF911F9142
:100B10000F91FF90EF90DF90CF900895EF92FF92AA
:100B20000F931F93CF93DF93CDB7DEB728970FB600
:100B3000F894DEBF0FBECDBF7C017A8369832B831F
:100B40003C834D835E8318870F83DC011E961C92C5
:100B50001E921D971A968D919C911B97DC01ED9129
:100B6000FC910190F081E02D60EC099542E050E0AD
:100B7000BE016F5F7F4FC7010E94DC02F701258530
:100B8000368542E050E0BE016F5F7F4FC7010E9493
:100B90008A02D7011E969C938E931D9742E050E0E7
:100BA000BE01695F7F4FC7010E94DC02F701258506
:100BB000368542E050E0BE01695F7F4FC7010E9469
:100BC0008A02D7011E969C938E931D9744E050E0B5
:100BD000BE016D5F7F4FC7010E94DC02F7012585D2
:100BE000368544E050E0BE016D5F7F4FC7010E9433
:100BF0008A02D7011E969C938E931D9728960FB656
:100C0000F894DEBF0FBECDBFDF91CF911F910F9142
:100C1000FF90EF9008952F923F924F925F926F92C4
:100C20007F928F929F92AF92BF92CF92DF92EF927C
:100C3000FF920F931F93CF93DF93CDB7DEB7289723
:100C40000FB6F894DEBF0FBECDBF8C012DB73EB7F7
:100C500038872F83E0906B02F0906C0242E050E006
:100C6000BE016B5F7F4F0E94F901AD80BE803701EE
:100C700032E0630E711C44E050E0B301C8010E94F1
:100C8000F901270186E0480E511C42E050E0B20114
:100C9000C8010E94F901BE016D5F7F4FC8010E942B
:100CA0003E024C01D7011896CD90DC9019972B800D
:100CB0003C80C114D10449F1F601848195818815E5
:100CC000990541F460817181A401C1010E94321330
:100CD000892B31F0D6015E96CD90DC905F97E9CFFD
:100CE000B2E0AB16B10409F449C01CF4B7FEC3C0AE
:100CF000F8C0F3E0AF16B10409F0F3C084E0882E29
:100D0000912CE2E1CE0ED11C66C0D701ED91FC9191
:100D10008485882309F4E5C0C080D1800BED10E004
:100D2000F8016491611103C000E010E00DC0D6012C
:100D3000ED91FC910190F081E02DC60109950F5FC6
:100D40001F4F892B69F7F0CFD701ED91FC9180817E
:100D500091810815190579F0DC01ED91FC91AB81C9
:100D6000BC81A00FB11F0190F081E02D6C9109951D
:100D70000F5F1F4FE9CF0E946C0CB3C02DB63EB67B
:100D8000BE016F5F7F4FC8010E943E028C01019639
:100D9000EDB7FEB7E81BF90B0FB6F894FEBF0FBE18
:100DA000EDBF2DB73EB72F5F3F4F490169817A8173
:100DB000A801C9010E943F13F401E00FF11F108246
:100DC000B401C60148960E94D3010FB6F8943EBE06
:100DD0000FBE2DBE50C0D8011496ED91FC91159711
:100DE000828193818816990608F07BC0BE016F5FEF
:100DF0007F4FC8010E943E0249805A80D20111965D
:100E0000FD0101900020E9F731975F01AA1ABB0AA2
:100E10003C016A187B08C30101970E943611D70173
:100E20001B969C938E931A97A30142505109FC0183
:100E3000E40FF51F1082B5016E5F7F4F640D751DC5
:100E40001A968D919C911B970E943F1369817A811C
:100E50006F5F7F4FC6010E94D301F70182859385A2
:100E60000E94CB11D7011B961C921E921A97BFEFBE
:100E70008B1A9B0AB0CF0FEF10E024E630E040E081
:100E800050E06FE170E0F701808191810E948E0552
:100E900044E050E0B301D7018D919C910E942B0555
:100EA00042E050E0B201F701808191810E942B0560
:100EB000D6016D917C91C601AB2811F4069601C054
:100EC0000C960E94D30140E050E060E070E0F70132
:100ED000808191810E942B05D7018D919C910E9468
:100EE0001505EF81F8850FB6F894FEBF0FBEEDBF74
:100EF00028960FB6F894DEBF0FBECDBFDF91CF911D
:100F00001F910F91FF90EF90DF90CF90BF90AF9027
:100F10009F908F907F906F905F904F903F902F9019
:100F200008950F931F93CF93DF9300D000D0CDB7D8
:100F3000DEB768E271E08FE792E00E948C0C0E94BD
:100F4000A00C811103C061E471E0F5CF68E571E0A8
:100F50008FE792E00E948C0C01E010E020E030E08E
:100F6000A9016EE170E080916D0290916E020E9485
:100F70008E0589E792E0092E000CAA0BBB0B898332
:100F80009A83AB83BC8344E050E0BE016F5F7F4F28
:100F900080916D0290916E020E942B0580916D02EE
:100FA00090916E020E9415050F900F900F900F9078
:100FB000DF91CF911F910F9108958F929F92AF92E1
:100FC000BF92DF92EF92FF920F931F93CF93DF9325
:100FD00000D000D000D0CDB7DEB78C01DD24D39493
:100FE000D8011A968D919C911B97DC01ED91FC9193
:100FF0000480F581E02D0995892B09F48AC1D80177
:101000001A968D919C911B97DC01ED91FC910680C5
:10101000F781E02D09958B3D910519F4F801D58AEA
:10102000DFCFD80153962D913C915497803C910588
:1010300009F04AC12830310508F437C1F801E784C6
:10104000F0888485882309F484C06AE671E0808191
:1010500091810E949E0CD80153964D915C915497BA
:1010600060E070E02AE08D919C910E94FA0B64E7A9
:1010700071E0F801808191810E949E0CD8011F9639
:101080004D915C915097052E000C660B770B20E17B
:101090008D919C910E94FA0B68E971E0F8018081C2
:1010A00091810E949E0CD7014D915C9160E070E0AF
:1010B00020E1F801808191810E94FA0B69E971E0D9
:1010C000D8018D919C910E949E0CF701448155811D
:1010D0006681778120E1D8018D919C910E94FA0B65
:1010E00069E971E0F801808191810E949E0CD7012D
:1010F00012964D915C91139760E070E020E1F80149
:10110000808191810E94FA0B48E0A42EB12CF80155
:101110002389348980819181A216B306C0F469E9DC
:1011200071E00E949E0CD8011F96ED91FC915097A2
:10113000EA0DFB1D408150E060E070E020E18D9100
:101140009C910E94FA0BBFEFAB1ABB0AE0CF0E9442
:101150006C0CD8015396AD90BC905497B2E0AB1A8A
:10116000B108F8018784908820E030E0A501B4013F
:10117000C8010E948A02F401EA0DFB1D2081318121
:101180008217930761F0D8011C968C911C978823D5
:1011900009F48BC067E771E08D919C9184C0F701E1
:1011A000808191818230910539F08330910519F168
:1011B000019709F070C05FC0D8011C968C911C97F4
:1011C000882309F474C068E871E08D919C910E94B5
:1011D0009E0CF801A080B180D70114964D915D91CD
:1011E0006D917C9117972AE0C5010E94FA0BC50109
:1011F0000E946C0C5CC0F8018485882359F161E978
:1012000071E0808191810E949E0CD70114964D91CE
:101210005D916D917C9117972AE0F8018081918111
:101220000E94FA0B69E971E0D8018D919C910E94AE
:101230009E0CF801A080B180D70112964D915C916F
:10124000139760E070E02AE0C5010E94FA0BC50127
:101250000E946C0CF701A481B5818D919C9111972E
:10126000009709F059C012962D913C911397232BAA
:1012700009F052C01AC06BE971E0D8018D919C91C0
:101280000E948C0CD8011896ED91FC91199730971B
:1012900061F009950AC0F8018485882331F066EA77
:1012A00071E0808191810E948C0CE12CF12CD8019D
:1012B00054961C921E92539755961C92E114F10479
:1012C00009F48ECEC70158C0F8014589442371F056
:1012D0008C3D910531F08D3D910529F48BED90E029
:1012E00002C080EC90E0D80155961C92F80141892B
:1012F00052892417350708F073CE47855089B90104
:101300006F5F7F4F748B638BFA01E20FF31F808353
:1013100067CE80E090E030C0FE82ED82E8E0EE0E25
:10132000F11CFC82EB821A8219821296ED91FC91DB
:101330001397309709F4B9CF0097D1F014962D91F7
:101340003C911597A9015595479520FF0AC0DC01EE
:10135000A40FB51F2D913C91E20FF31F0190F08176
:10136000E02DBE016F5F7F4F840F951F09959DCFC4
:10137000CE010196099599CF26960FB6F894DEBF57
:101380000FBECDBFDF91CF911F910F91FF90EF90D6
:10139000DF90BF90AF909F908F9008950F931F9311
:1013A0008091B403882329F061E08091B2030E9408
:1013B0005E0460E08091B2030E94C80383E090E085
:1013C0000197F1F761E08091B2030E94C80383E2C4
:1013D00090E00197F1F760E08091B2030E94C803AA
:1013E0008091B403882329F060E08091B2030E94C9
:1013F0005E048091B30390E0FC01E85DFE4F6491D0
:10140000FC01EC5EFE4FE491F0E0EE0FFF1FE65FA3
:10141000FE4F859194910091B5031091B6032091F0
:10142000B7033091B8033F70462F0E941E0D61151F
:1014300071058105910539F0DC01CB010196A11DF3
:10144000B11DBF7003C080E090E0DC016CE170E092
:101450000E94E610769567956A5F710924E6269FDB
:10146000C001279F900D11246EE27FEF0E94FA10B9
:101470008B01AB01770F660B770B77FF05C08FE70A
:1014800092E00E94430C05C02AE08FE792E00E94A0
:10149000FA0B6CEA71E08FE792E00E948C0CC801B5
:1014A0001F910F910895CF92DF92EF92FF920F93C9
:1014B0001F93CF93DF936C017A018B01C0E0D0E0E2
:1014C000CE15DF0589F0D8016D918D01D601ED9122
:1014D000FC910190F081E02DC6010995892B11F452
:1014E0007E0102C02196ECCFC701DF91CF911F9101
:1014F0000F91FF90EF90DF90CF900895CF92DF9201
:10150000EF92FF92CF93DF93EC010E94BF046B0137
:101510007C010E94BF04AB01BC014C195D096E093E
:101520007F09403D57406105710530F4CE010E94AE
:10153000DD07009771F302C080E090E0DF91CF916A
:10154000FF90EF90DF90CF9008956115710579F0CD
:10155000FB0101900020E9F73197AF01461B570BC3
:10156000DC01ED91FC910280F381E02D099480E093
:1015700090E008950E942D130F931F93CF93DF9354
:10158000EC0188819981009729F02A813B812617F7
:10159000370788F48B016F5F7F4F0E9463120097BB
:1015A00061F0998388831B830A832C813D81232BDF
:1015B00011F4FC01108281E001C080E0DF91CF9145
:1015C0001F910F910895CF93DF93EC01888199814A
:1015D000009711F00E94CB11198218821D821C8283
:1015E0001B821A82DF91CF910895EF92FF920F93A1
:1015F0001F93CF93DF93EC017B018A01BA010E9414
:10160000BC0A811104C0CE010E94E30A07C01D83F9
:101610000C83B701888199810E945113CE01DF911B
:10162000CF911F910F91FF90EF900895CF93DF938B
:10163000EC01FB018617970761F0608171816115EC
:10164000710529F0448155810E94F50A02C00E946B
:10165000E30ACE01DF91CF9108956F927F928F922E
:101660009F92AF92BF92CF92DF92EF92FF920F9331
:101670001F93CF93DF93CDB7DEB73C016B01ADB6BF
:10168000BEB60E946E138C01C6010E946E13112714
:101690009801280F311D490182E0880E911C2D5FB1
:1016A0003F4FEDB7FEB7E21BF30B0FB6F894FEBF4A
:1016B0000FBEEDBF8DB79EB701967C011182B301BD
:1016C00001960E946713C8010296B6018E0D9F1DF8
:1016D0000E946713A401B70180916D0290916E0280
:1016E0000E942B050FB6F894BEBE0FBEADBEDF91B3
:1016F000CF911F910F91FF90EF90DF90CF90BF900F
:10170000AF909F908F907F906F900895FC012481FF
:101710003581FB01448155812417350721F5FC01F2
:1017200080819181FB0160817181009719F06115C1
:101730007105A1F46115710549F0232BB1F0FB018E
:10174000808190E09195819591090AC0009769F098
:10175000232B59F0FC01808190E002C00E944813C5
:1017600021E0892B19F020E001C021E0822F0895AB
:10177000EF92FF920F931F93CF93DF93EC018B01B6
:101780006115710551F0CB010E946E137C01BC0103
:10179000CE010E94BC0A811104C0CE010E94E30A5E
:1017A00007C0FD82EC82B801888199810E9467138D
:1017B000CE01DF91CF911F910F91FF90EF9008958F
:1017C000FC01808191810C94CB11FC01118210826B
:1017D00013821282158214826115710551F0FB018A
:1017E00001900020E9F73197AF01461B570B0C948D
:1017F000F50A08954F925F926F927F92EF92FF9257
:101800000F931F93CF93DF93CDB7DEB7A1970FB69A
:10181000F894DEBF0FBECDBF7C01FA01CB0119A247
:10182000223008F42AE08E010F5D1F4F422E512C0A
:10183000612C712CBF01A30192010E940E11F901CC
:10184000CA01015011096A3014F4605D01C0695C7D
:10185000D8016C93232B242B252B61F7B801C701EA
:101860000E94A50AA1960FB6F894DEBF0FBECDBFA9
:10187000DF91CF911F910F91FF90EF907F906F902C
:101880005F904F900895CF92DF92EF92FF920F9367
:101890001F93CF93DF93EC016A017B01E881F9810B
:1018A0000190F081E02D6DE209958C0144275527C8
:1018B000BA014C195D096E097F092AE0CE010E9428
:1018C000FA0B800F911FDF91CF911F910F91FF9025
:1018D000EF90DF90CF9008956EEA71E00C94A50A26
:1018E0000F931F93CF93DF93EC01AB01770F660B40
:1018F000770B77FF03C00E94430C03C02AE00E94CD
:10190000FA0B8C01CE010E946C0C800F911FDF91AD
:10191000CF911F910F9108950F931F93CF93DF9352
:10192000EC010E94A50A8C01CE010E946C0C800F74
:10193000911FDF91CF911F910F9108950C94A50AEB
:10194000AF92BF92CF92DF92EF92FF920F931F93CD
:10195000CF93DF938091260390912703DC01ED91D3
:10196000FC910190F081E02D60EC09958EE193E00F
:101970006C01990FEE08FF0800E010E0A701960146
:1019800061E070E08CE193E00E948E058CE193E0D1
:101990000E94150500912403109125031092250340
:1019A000109224038CE193E00E947E0AEC01892BC3
:1019B000A9F14C815D816E817F81809128034C1556
:1019C0005D056E057F0581F4882341F060EA71E0D2
:1019D00080911C0390911D030E948C0C1093250391
:1019E0000093240381E01FC08823E1F261EB71E0E2
:1019F00080911C0390911D030E949E0CA0901C03DB
:101A0000B0901D034C815D816E817F812AE0C5010C
:101A10000E94FA0BC5010E946C0CC4CF10932503E1
:101A20000093240380E0DF91CF911F910F91FF90ED
:101A3000EF90DF90CF90BF90AF900895CF92DF925C
:101A4000EF92FF920F931F93E82FF92F05C00150DB
:101A500011092109310961F1908196239417B9F395
:101A600005C0015011092109310911F19081962316
:101A70009413F7CFC12CD12CE12CF12C0AC08FEF9D
:101A8000C81AD80AE80AF80A0C151D052E053F05E4
:101A900079F080818623841791F36C2D7D2D8E2D16
:101AA0009F2D1F910F91FF90EF90DF90CF900895A1
:101AB00060E070E080E090E01F910F91FF90EF9068
:101AC000DF90CF9008950F931F93CF93DF93CFE7CD
:101AD000D2E01B821A8288EE93E0A0E0B0E08C8313
:101AE0009D83AE83BF838AE091E09983888385ECF0
:101AF00090E09D878C8784EC90E09F878E8780ECB8
:101B000090E0998B888B81EC90E09B8B8A8B82ECA8
:101B100090E09D8B8C8B86EC90E09F8B8E8B198E4A
:101B20001A8E1B8E1C8E02EB13E0F80112828FE0DE
:101B3000808380E1818361E08FE00E945E0460E049
:101B4000F80181810E945E0480E29EE4A0E0B0E0A2
:101B5000F80183839483A583B683ECE1F3E0D1831A
:101B6000C0831382128215821482D387C28781E0D8
:101B7000848782E393E0908B878780E890E0928B64
:101B8000818B148A138A158AADE6B2E01196FC9314
:101B9000EE9319961C921E9218971B961C921E92F9
:101BA0001A971D961C921E921C97B0936C02A093DC
:101BB0006B028BE096E01F969C938E931E97A5ED8B
:101BC000B3E017961C921E92169719961C921E92BD
:101BD00018971596FC93EE9314974FEF5FEFBA01A9
:101BE0004D935D936D937C931397DF91CF911F91EC
:101BF0000F910895CF93DF93CDB7DEB7C355D109C9
:101C00000FB6F894DEBF0FBECDBF789484B5826066
:101C100084BD84B5816084BD85B5826085BD85B590
:101C2000816085BD80916E00816080936E0010920E
:101C30008100809181008260809381008091810089
:101C4000816080938100809180008160809380001A
:101C50008091B10084608093B1008091B000816078
:101C60008093B00080917A00846080937A008091A4
:101C70007A00826080937A0080917A0081608093FC
:101C80007A0080917A00806880937A001092C10077
:101C9000E0918F02F091900282E08083E0918B02CC
:101CA000F0918C021082E0918D02F0918E0280E121
:101CB000808310929702E0919302F091940286E063
:101CC0008083E0919102F091920280818061808313
:101CD000E0919102F0919202808188608083E0918E
:101CE0009102F0919202808180688083E09191025C
:101CF000F091920280818F7D808361E08EE00E946E
:101D00005E0461E08FE00E945E0460E080E10E947A
:101D10005E0461E081E10E945E0460E082E10E9475
:101D20005E0461E08EE00E94C80361E081E10E94F0
:101D3000C80367EB71E08FE792E00E948C0C0E9471
:101D4000A00C811103C061E471E0F5CF68E571E09A
:101D50008FE792E00E948C0C1A8219821C821B82EF
:101D60001E821D8260E571E0CE0101967C010E9419
:101D7000B80B80E290E00E9436118C0180E2F801FD
:101D800011928A95E9F760EB71E0C8010E94E50BBA
:101D9000F80117821682118610861586148617861A
:101DA0001686138A128A158A148A118E108E138E43
:101DB000128EB701C8010E94160B80917502909196
:101DC0007602F801978F868F109376020093750242
:101DD000C7010E94E00B88EB93E0F80191878087B0
:101DE00088EA93E09787868788EF93E0938F828FC6
:101DF00081E997E090932503809324030E94910743
:101E000080E99FE164969FAF8EAF6497198285ED5C
:101E100093E09093DC038093DB0386EF92E0909352
:101E2000DE038093DD031092E0031092DF0303E0F2
:101E300010E02BED33E0032E000C440B550B64E156
:101E400070E08091D9039091DA030E948E054CE0F6
:101E500050E064E572E08091D9039091DA030E942A
:101E60002B0542E050E0BE016E5A7F4F8091D903AE
:101E70009091DA030E942B0541E050E0B701809178
:101E8000D9039091DA030E942B058091D903909198
:101E9000DA030E9415058091D9039091DA030E941C
:101EA0007E0A009791F0FC0144815581668177811B
:101EB00077FD0BC04093D5035093D6036093D703AF
:101EC0007093D80380E090E003C0FC018481958189
:101ED000892B39F062ED71E08FE792E00E949E0C51
:101EE000FFCF66EE71E08FE792E00E948C0C8CE1F0
:101EF00093E00E94DD070E94BF040091D10310917E
:101F0000D2032091D3033091D4035B016C01A01A5A
:101F1000B10AC20AD30A40EAA4164BEBB4064DE05C
:101F2000C406D104F0F06093D1037093D203809380
:101F3000D3039093D4038EE00E947F03019739F47A
:101F400060E08EE00E94C80364EF71E006C061E0CB
:101F50008EE00E94C80363E072E08FE792E00E9487
:101F60008C0C0E94BF040091CD031091CE032091F0
:101F7000CF033091D0035B016C01A01AB10AC20AF1
:101F8000D30A40E2A4164EE4B406C104D10408F416
:101F900016C16093CD037093CE038093CF039093CB
:101FA000D0030E94CE098C0163E172E0CE01845B14
:101FB0009F4F0E94E50B28961FAE1EAE28972A96CB
:101FC0001FAE1EAE2A972C961FAE1EAE2C974AE06F
:101FD000B701C8010E947713F70101900020E9F7CB
:101FE0003197AF014E195F09B701CE018A5B9F4F50
:101FF0000E94F50A1A8219821C821B821E821D828F
:10200000BE01645B7F4FC7010E94160B2C968EADFC
:102010009FAD2C972896AEACBFAC28970D811E8142
:10202000A114B10409F4CEC00097A1F0080F191F44
:10203000B801C7010E94BC0A882309F4C3C02981E2
:102040003A818D819E81B501820F931F0E945113A9
:102050001E830D8322961FAE1EAE229724961FAEBE
:102060001EAE249726961FAE1EAE2697B701CE0150
:10207000805C9F4F0E94160BC7010E94E00B2696C2
:102080004EAD5FAD269722966EAD7FAD22978FE75E
:1020900092E00E94530A8FE792E00E946C0C229615
:1020A0006EAD7FAD22974FE350E0C7010E945813F9
:1020B0001FAEB7018FE792E00E948C0C1092E203F2
:1020C0001092E1032091D5033091D6034091D703BC
:1020D0005091D80357FD29C002E010E065E170E09F
:1020E0008091D9039091DA030E948E0543E050E07D
:1020F00060E572E08091D9039091DA030E942B058C
:10210000F70101900020E9F73197AF014E195F09FF
:10211000B7018091D9039091DA030E942B05809139
:10212000D9039091DA030E9415050E94CE0990937D
:10213000BA038093B9030E949A042B013C0188EEF4
:10214000882E83E0982EA12CB12C0E949A04DC01E9
:10215000CB0184199509A609B709883E9340A105CA
:10216000B10558F081E0881A9108A108B10898EEED
:10217000490E93E0591E611C711C81149104A10445
:10218000B10419F709EB13E0F801619171918F0126
:102190008FE792E00E94700CF3E00D3C1F07A1F75F
:1021A000CE01805C9F4F0E94E00BCE018A5B9F4F67
:1021B0000E94E00BCE01845B9F4F0E94E00B0E94C7
:1021C000A00195CEC7010E94E30A44CFAA1BBB1B06
:1021D00051E107C0AA1FBB1FA617B70710F0A61B27
:1021E000B70B881F991F5A95A9F780959095BC0148
:1021F000CD01089597FB072E16F4009407D077FDC4
:1022000009D00E94E61007FC05D03EF49095819518
:102210009F4F0895709561957F4F0895A1E21A2E02
:10222000AA1BBB1BFD010DC0AA1FBB1FEE1FFF1F7A
:10223000A217B307E407F50720F0A21BB30BE40BCA
:10224000F50B661F771F881F991F1A9469F7609511
:102250007095809590959B01AC01BD01CF010895CB
:10226000EE0FFF1F0590F491E02D0994CF93DF93BB
:102270008230910510F482E090E0E091E903F09162
:10228000EA0320E030E0C0E0D0E0309711F1408177
:10229000518148175907C0F04817590761F48281E6
:1022A0009381209719F09B838A832BC09093EA0334
:1022B0008093E90326C02115310519F04217530711
:1022C00018F49A01BE01DF01EF010280F381E02DD5
:1022D000DCCF2115310509F1281B390B24303105DC
:1022E00090F412968D919C9113976115710521F0D0
:1022F000FB019383828304C09093EA038093E903F4
:10230000FD01329644C0FD01E20FF31F81939193CA
:10231000225031092D933C933AC02091E70330912C
:10232000E803232B41F42091020130910301309303
:10233000E8032093E703209100013091010121156A
:10234000310541F42DB73EB740910401509105018C
:10235000241B350BE091E703F091E803E217F30744
:10236000A0F42E1B3F0B2817390778F0AC014E5F05
:102370005F4F2417350748F04E0F5F1F5093E80357
:102380004093E7038193919302C0E0E0F0E0CF0136
:10239000DF91CF9108950F931F93CF93DF93009711
:1023A00009F48CC0FC013297138212820091E90378
:1023B0001091EA030115110581F420813181820F0A
:1023C000931F2091E7033091E8032817390779F527
:1023D000F093E803E093E70371C0D80140E050E0D8
:1023E000AE17BF0750F412962D913C911397AD0193
:1023F0002115310509F1D901F3CF9D01DA013383AC
:10240000228360817181860F971F8217930769F479
:10241000EC0128813981260F371F2E5F3F4F318312
:1024200020838A819B8193838283452B29F4F093B7
:10243000EA03E093E90342C01396FC93EE931297EC
:10244000ED01499159919E01240F351FE217F307C1
:1024500071F480819181840F951F029611969C934F
:102460008E938281938113969C938E931297E0E0D2
:10247000F0E0D80112968D919C911397009719F076
:10248000F8018C01F6CF8D919C9198012E5F3F4F02
:10249000820F931F2091E7033091E8032817390733
:1024A00069F4309729F41092EA031092E90302C00C
:1024B000138212821093E8030093E703DF91CF9118
:1024C0001F910F910895A0E0B0E0E9E6F2E10C94CD
:1024D000B013EC01009721F4CB010E943611B8C073
:1024E000FC01E60FF71F9C0122503109E217F307A8
:1024F00008F4ACC0D9010D911C911197061717076C
:10250000B0F00530110508F49FC0C8010497861784
:10251000970708F499C002501109061B170B019385
:1025200011936D937C93CF010E94CB118DC05B0101
:10253000A01AB10A4C01800E911EA091E903B0913E
:10254000EA0340E050E0E12CF12C109709F44AC076
:10255000A815B905D1F56D907C901197630182E0C3
:10256000C80ED11CCA14DB0480F1A3014A195B090F
:102570006A0182E0C80ED11C1296BC901297139685
:10258000AC91B5E0CB16D10440F0B282A383518365
:102590004083D9016D937C930AC00E5F1F4FC30126
:1025A000800F911FF90191838083EB2DFA2FE114A5
:1025B000F10431F0D7011396FC93EE93129744C0C7
:1025C000F093EA03E093E9033FC08D919C9111974A
:1025D0004817590708F4AC017D0112960D90BC9183
:1025E000A02DB3CF8091E7039091E803881599055A
:1025F000E1F446175707C8F480910001909101015A
:10260000009741F48DB79EB74091040150910501A8
:10261000841B950BE817F907C8F4F093E803E093DF
:10262000E703F901718360830FC0CB010E9436116B
:102630007C01009759F0A801BE010E943F13CE0112
:102640000E94CB11C70104C0CE0102C080E090E01F
:10265000CDB7DEB7EEE00C94CC1381E090E0F894B7
:102660000C94E313FB01DC0104C08D9101908019EF
:1026700021F441505040C8F7881B990B0895FB0185
:10268000DC0102C001900D9241505040D8F70895EE
:10269000FB01DC018D91019080190110D9F3990B98
:1026A0000895FB01DC0101900D920020E1F70895EF
:1026B000FB01DC014150504048F001900D92002098
:1026C000C9F701C01D9241505040E0F70895FB0149
:1026D000DC0105900D920020E1F70895FC010590C2
:1026E0000020E9F7809590958E0F9F1F0895BB27D6
:1026F0004A3031F4992322F4BDE2909581959F4FA1
:102700000C948313BB27FB015527AA27880F991F19
:10271000AA1FA41710F0A41B83955051B9F7A05D10
:10272000AA3308F0A95DA193009779F7B111B1938D
:102730001192CB010C949C13DC01FC01672F719169
:102740007723E1F7329704C07C916D937083629197
:10275000AE17BF07C8F308952F923F924F925F9232
:102760006F927F928F929F92AF92BF92CF92DF92A1
:10277000EF92FF920F931F93CF93DF93CDB7DEB706
:10278000CA1BDB0B0FB6F894DEBF0FBECDBF09949A
:102790002A88398848885F846E847D848C849B84F1
:1027A000AA84B984C884DF80EE80FD800C811B81FF
:1027B000AA81B981CE0FD11D0FB6F894DEBF0FBE2E
:0A27C000CDBFED010895F894FFCF9E
:1027CA000000EB038000000000003701530A0001FB
:1027DA00DE00F2007E015245535420636F64652087
:1027EA00004F4E004F464600454C2D436C69656EBE
:1027FA0074202872652D297374617274696E672159
:10280A0000454C2D436C69656E742073796E6320A4
:10281A006661696C65642100454C2D436C69656E7F
:10282A00742073796E6365642100454C433A2067CE
:10283A006F742000204000454C433A20496E76616F
:10284A006C69642043524300524553505F563A2004
:10285A0000524553505F43423A20004E4545445F7B
:10286A0053594E432100434D443F3F0025000D0A72
:10287A00004241443A20006B6F6E696563207365BC
:10288A006B77656E636A692073746172746F7765BA
:10289A006A005245535420626567696E2066616911
:1028AA006C65643A2000454C2D524553542072659C
:1028BA0061647900776C61637A616D20706F6D7005
:1028CA006B650077796C61637A616D20706F6D70EA
:1028DA006B65002F6A736F6E2E68746D3F74797022
:1028EA00653D636F6D6D616E6426706172616D3DE9
:1028FA0075646576696365266964783D3333266E47
:10290A0076616C75653D30267376616C75653D0040
:10291A00474554003139322E3136382E312E35346E
:02292A000000AB
:00000001FF
