:100000000C9491000C94B9000C94B9000C94B900B4
:100010000C94B9000C94B9000C94B9000C945609D6
:100020000C94B9000C94B9000C94B9000C94B9006C
:100030000C94B9000C94B9000C94B9000C94B9005C
:100040000C94AE050C94B9000C9429040C94030490
:100050000C94B9000C94B9000C94B9000C94B9003C
:100060000C94B9000C94B9004C4544206973206F7E
:100070006E0074657874004C4544206973206F6687
:100080006600746578740062746E5F6F6666006205
:10009000746E5F6F6E0048616E646C6572206E6F87
:1000A0007420666F756E6420666F722055524C3AEC
:1000B0000000000008000201000003040700000027
:1000C00000000000002F53696D706C654C45442E94
:1000D00068746D6C2E6A736F6E000000000024005F
:1000E00027002A000000000023002600290000004D
:1000F0000000250028002B00040404040404040468
:1001000002020202020203030303030301020408C2
:100110001020408001020408102001020408102071
:10012000D30B11241FBECFEFD8E0DEBFCDBF11E04F
:10013000A0E0B1E0E4E8F3E202C005900D92A83E31
:10014000B107D9F723E0A8EEB1E001C01D92AC35AC
:10015000B207E1F710E0C1E9D0E004C02197FE0149
:100160000E94510FC039D107C9F70E94800C0C942E
:10017000C0110C940000CF92DF92EF92FF920F9388
:100180001F93CF93DF936C017A018B01C0E0D0E025
:10019000CE15DF0589F0D8016D918D01D601ED9165
:1001A000FC910190F081E02DC6010995892B11F495
:1001B0007E0102C02196ECCFC701DF91CF911F9144
:1001C0000F91FF90EF90DF90CF900895FC01918DFB
:1001D000828D981761F0828DDF01A80FB11D5D96A9
:1001E0008C91928D9F5F9F73928F90E008958FEF17
:1001F0009FEF0895FC01918D828D981731F0828DCB
:10020000E80FF11D858D90E008958FEF9FEF089521
:10021000FC01918D228D892F90E0805C9F4F821B85
:1002200091098F73992708958BE092E00E9408014D
:1002300021E0892B09F420E0822F0895FC01848DB0
:10024000DF01A80FB11DA35ABF4F2C91848D90E000
:1002500001968F739927848FA689B7892C93A089DB
:10026000B1898C9180648C93938D848D981306C092
:100270000288F389E02D80818F7D80830895EF923D
:10028000FF920F931F93CF93DF93EC0181E0888F50
:100290009B8D8C8D981305C0E889F989808185FD37
:1002A00024C0F62E0B8D10E00F5F1F4F0F73112728
:1002B000E02E8C8DE8120CC00FB607FCFACFE8894F
:1002C000F989808185FFF5CFCE010E941E01F1CF13
:1002D0008B8DFE01E80FF11DE35AFF4FF0820B8F6B
:1002E000EA89FB898081806207C0EE89FF8960838B
:1002F000E889F98980818064808381E090E0DF91E2
:10030000CF911F910F91FF90EF900895CF93DF93BE
:10031000EC01888D8823C9F0EA89FB89808185FDFD
:1003200005C0A889B9898C9186FD0FC00FB607FC5E
:10033000F5CF808185FFF2CFA889B9898C9185FF9F
:10034000EDCFCE010E941E01E7CFDF91CF9108953E
:1003500080E090E0892B29F00E94140181110C9417
:1003600000000895833081F028F4813099F08230C4
:10037000A1F008958730A9F08830B9F08430D1F425
:10038000809180008F7D03C0809180008F77809363
:100390008000089584B58F7702C084B58F7D84BDB9
:1003A00008958091B0008F7703C08091B0008F7D59
:1003B0008093B0000895DC011296ED91FC911397A3
:1003C0003097F1F02D913C91119721153105B1F045
:1003D00014964D915C911597CA019595879540FFAC
:1003E0000AC0D901A80FB91F4D915C91E40FF51F08
:1003F0000190F081E02D820F931F0994CB010994A5
:100400000895EF92FF920F931F93CF93DF93EC0128
:1004100088819981EC81FD81228133818217930744
:1004200060F5EA81FB81019111912EEF3FEF201BD6
:10043000310B7901A3E0EA22FF24FB83EA830196D2
:1004400099838883CB019A010417150708F4980152
:10045000260F371F8217930729F04191DC014D9336
:10046000CD01F8CF9701200F311F8A819B81280F82
:10047000391F3B832A83C80102C08FEF9FEFDF91B2
:10048000CF911F910F91FF90EF900895CF93DF933D
:10049000FC0180819181A481B58112962D913C91BE
:1004A000139782179307E0F4A281B3814D915D9178
:1004B000B383A283019691838083EB01B983A883E0
:1004C0002EEF3FEF241B350B23703327240F351FEE
:1004D00082819381280F391F33832283CA0102C08E
:1004E0008FEF9FEFDF91CF9108954627342F252F6F
:1004F000A901442784E0440F551F8A95E1F742275C
:100500005327CA01892F992782958F704827592729
:10051000CA01882735E0969587953A95E1F78427B3
:1005200095270895CF93DF93EC018A859B85603CE6
:10053000A1F06B3D21F5DC01ED91FC910190F08182
:10054000E02D6BED09958A859B85DC01ED91FC9191
:100550000190F081E02D6DED18C0DC01ED91FC9172
:100560000190F081E02D6BED09958A859B85DC017A
:10057000ED91FC910190F081E02D6CED06C0DC0165
:10058000ED91FC910190F081E02DDF91CF910994E4
:10059000EF92FF920F931F93CF93DF937C01EB01B8
:1005A0008B01040F151FC017D10729F06991C701EE
:1005B0000E949202F8CFDF91CF911F910F91FF908F
:1005C000EF900895CF93DF93EC01BC01635F7F4F01
:1005D00042E050E00E94C8028A859B85DC01ED91D3
:1005E000FC910190F081E02D60ECDF91CF910994B6
:1005F0000E944E11FC0124813581FB01448155810B
:100600002417350721F5FC0180819181FB01608170
:100610007181009719F061157105A1F461157105DB
:1006200049F0232BB1F0FB01808190E091958195F9
:1006300091090AC0009769F0232B59F0FC018081D1
:1006400090E002C00E94691121E0892B19F020E09E
:1006500001C021E0822F08956115710579F0FB0139
:1006600001900020E9F73197AF01461B570BDC01E1
:10067000ED91FC910280F381E02D099480E090E0FF
:1006800008950F931F93CF93DF93EC018881998195
:10069000009729F02A813B812617370788F48B01C0
:1006A0006F5F7F4F0E948410009761F09983888369
:1006B0001B830A832C813D81232B11F4FC011082C2
:1006C00081E001C080E0DF91CF911F910F910895EB
:1006D000CF93DF93EC0188819981009711F00E94FC
:1006E000EC0F198218821D821C821B821A82DF91F4
:1006F000CF910895EF92FF920F931F93CF93DF93C3
:10070000EC018B016115710551F0CB010E94801144
:100710007C01BC01CE010E944103811104C0CE01C5
:100720000E94680307C0FD82EC82B801888199812C
:100730000E947911CE01DF91CF911F910F91FF900F
:10074000EF9008954F925F926F927F92EF92FF9297
:100750000F931F93CF93DF93CDB7DEB7A1970FB65B
:10076000F894DEBF0FBECDBF7C01FA01CB0119A208
:10077000223008F42AE08E010F5D1F4F422E512CCB
:10078000612C712CBF01A30192010E942F0FF9016E
:10079000CA01015011096A3014F4605D01C0695C3E
:1007A000D8016C93232B242B252B61F7B801C701AB
:1007B0000E942C03A1960FB6F894DEBF0FBECDBFEA
:1007C000DF91CF911F910F91FF90EF907F906F90ED
:1007D0005F904F90089566E171E00C942C030F93A5
:1007E0001F93CF93DF93EC010E942C038C01CE0169
:1007F0000E94EB03800F911FDF91CF911F910F910A
:1008000008950C942C031F920F920FB60F9211248F
:100810002F933F934F935F936F937F938F939F9308
:10082000AF93BF93EF93FF938BE092E00E941E0182
:10083000FF91EF91BF91AF919F918F917F916F91B8
:100840005F914F913F912F910F900FBE0F901F908E
:1008500018951F920F920FB60F9211242F938F931A
:100860009F93EF93FF93E0911B02F0911C02808114
:10087000E0912102F091220282FD12C090818091CC
:1008800024028F5F8F7320912502821751F0E0912F
:100890002402F0E0E55FFD4F958F8093240201C0B4
:1008A0008081FF91EF919F918F912F910F900FBEBB
:1008B0000F901F901895CF93DF93282F30E0F90108
:1008C000EF54FF4F8491F901E45FFE4FD491F90199
:1008D000E850FF4FC491CC2391F081110E94B201E6
:1008E000EC2FF0E0EE0FFF1FEC51FF4FA591B491FC
:1008F000EC91ED2381E090E021F480E002C080E003
:1009000090E0DF91CF91089581E10E945B04892BF3
:1009100029F068E670E082E790E004C067E770E0E5
:1009200082E890E00C947A0B1F93CF93DF93282FEB
:1009300030E0F901EF54FF4F8491F901E45FFE4F7D
:10094000D491F901E850FF4FC491CC23C9F0162F80
:1009500081110E94B201EC2FF0E0EE0FFF1FE25177
:10096000FF4FA591B4918FB7F894111105C09C91D8
:10097000ED2FE095E92302C0EC91ED2BEC938FBFB6
:10098000DF91CF911F910895EF92FF920F931F93E4
:10099000CF93DF93CDB7DEB72C970FB6F894DEBFB9
:1009A0000FBECDBF7C011A8219821C821B821E825F
:1009B0001D820097D9F0FC0101900020E9F73197E2
:1009C0008F01081B190BB801CE0101960E9441034B
:1009D000811105C0CE0101960E94680307C01E83E5
:1009E0000D83B70189819A810E94721118861F8236
:1009F0001A8619861C861B866FE870E0CE01079662
:100A00000E947A03BE01695F7F4FCE0101960E946A
:100A1000FA02182F8F8198850E94EC0F112311F094
:100A200061E01BC018861F821A8619861C861B86E9
:100A300067E870E0CE0107960E947A03BE01695F05
:100A40007F4FCE0101960E94FA02182F8F81988560
:100A50000E94EC0F112321F060E081E10E949404D8
:100A600089819A810E94EC0F2C960FB6F894DEBF14
:100A70000FBECDBFDF91CF911F910F91FF90EF90EF
:100A80000895CF93DF9390E0FC01E45FFE4F249143
:100A9000FC01E850FF4F8491882361F190E0880FBA
:100AA000991FFC01E652FF4FC591D491FC01E25120
:100AB000FF4FA591B491611109C09FB7F894888147
:100AC000209582238883EC912E230BC0623061F441
:100AD0009FB7F8943881822F809583238883EC9187
:100AE0002E2B2C939FBF06C08FB7F894E8812E2B36
:100AF00028838FBFDF91CF9108953FB7F8948091FD
:100B0000F3019091F401A091F501B091F60126B5A1
:100B1000A89B05C02F3F19F00196A11DB11D3FBF35
:100B2000BA2FA92F982F8827820F911DA11DB11DC3
:100B3000BC01CD0142E0660F771F881F991F4A95BF
:100B4000D1F708952FB7F8946091EF017091F001FB
:100B50008091F1019091F2012FBF08951F920F92A1
:100B60000FB60F9211242F933F938F939F93AF93C0
:100B7000BF938091EF019091F001A091F101B091AC
:100B8000F2013091EE0123E0230F2D3720F401967E
:100B9000A11DB11D05C026E8230F0296A11DB11DA0
:100BA0002093EE018093EF019093F001A093F10167
:100BB000B093F2018091F3019091F401A091F501BD
:100BC000B091F6010196A11DB11D8093F3019093A0
:100BD000F401A093F501B093F601BF91AF919F91FD
:100BE0008F913F912F910F900FBE0F901F901895EE
:100BF000EF92FF920F931F93CF93DF937C01C90174
:100C0000EB018B01040F151FC017D10731F069915B
:100C1000AC01C7010E947502F7CFDF91CF911F9100
:100C20000F91FF90EF900895EF92FF920F931F9313
:100C3000CF93DF93CDB7DEB728970FB6F894DEBF1A
:100C40000FBECDBF7C017A8369832B833C834D83A8
:100C50005E8318870F83DC011E961C921E921D97DF
:100C60001A968D919C911B97DC01ED91FC9101905E
:100C7000F081E02D60EC099542E050E0BE016F5F2D
:100C80007F4FC7010E94C802F7012585368542E0E3
:100C900050E0BE016F5F7F4FC7010E94F805D7018A
:100CA0001E969C938E931D9742E050E0BE01695FB3
:100CB0007F4FC7010E94C802F7012585368542E0B3
:100CC00050E0BE01695F7F4FC7010E94F805D70160
:100CD0001E969C938E931D9744E050E0BE016D5F7D
:100CE0007F4FC7010E94C802F7012585368544E081
:100CF00050E0BE016D5F7F4FC7010E94F805D7012C
:100D00001E969C938E931D9728960FB6F894DEBF7F
:100D10000FBECDBFDF91CF911F910F91FF90EF904C
:100D20000895CF92DF92EF92FF920F931F93CF938C
:100D3000DF9300D0CDB7DEB78C017B015A834983A6
:100D400042E050E0BE016F5F7F4F0E94C802F80191
:100D50002585368542E050E0BE016F5F7F4FC801B8
:100D60000E94F805F80196878587C980DA80CE0C45
:100D7000DF1CEC14FD0491F0F7016081C8010E94B2
:100D80009202F80145855685F70161917F01C801FE
:100D90000E947502F80196878587EBCFE980FA807B
:100DA000F194E194F108F3E0EF22FF24F1E0EF1A6F
:100DB000F10878F060E0C8010E949202F8014585D0
:100DC000568560E0C8010E947502F8019687858704
:100DD000EDCF0F900F90DF91CF911F910F91FF906A
:100DE000EF90DF90CF9008952F923F924F925F92B5
:100DF0006F927F928F929F92AF92BF92CF92DF922B
:100E0000EF92FF920F931F93CF93DF93CDB7DEB78F
:100E100028970FB6F894DEBF0FBECDBF8C012DB75B
:100E20003EB738872F83E090F701F090F80142E059
:100E300050E0BE016B5F7F4F0E940102AD80BE801B
:100E4000370132E0630E711C44E050E0B301C80189
:100E50000E940102270186E0480E511C42E050E04A
:100E6000B201C8010E940102BE016D5F7F4FC8013F
:100E70000E9446024C01D7011896CD90DC9019973C
:100E80002B803C80C114D10449F1F6018481958105
:100E90008815990541F460817181A401C1010E9406
:100EA0005311892B31F0D6015E96CD90DC905F977F
:100EB000E9CFB2E0AB16B10409F449C01CF4B7FEA7
:100EC000C3C0F8C0F3E0AF16B10409F0F3C084E08A
:100ED000882E912CE2E1CE0ED11C66C0D701ED9197
:100EE000FC918485882309F4E5C0C080D18006E99F
:100EF00010E0F8016491611103C000E010E00DC042
:100F0000D601ED91FC910190F081E02DC60109958B
:100F10000F5F1F4F892B69F7F0CFD701ED91FC913F
:100F2000808191810815190579F0DC01ED91FC9122
:100F3000AB81BC81A00FB11F0190F081E02D6C91BD
:100F400009950F5F1F4FE9CF0E94EB03B3C02DB689
:100F50003EB6BE016F5F7F4FC8010E9446028C0102
:100F60000196EDB7FEB7E81BF90B0FB6F894FEBF7C
:100F70000FBEEDBF2DB73EB72F5F3F4F49016981CF
:100F80007A81A801C9010E946011F401E00FF11FEC
:100F90001082B401C60148960E94DB010FB6F89496
:100FA0003EBE0FBE2DBE50C0D8011496ED91FC91EF
:100FB0001597828193818816990608F07BC0BE013F
:100FC0006F5F7F4FC8010E94460249805A80D2015C
:100FD0001196FD0101900020E9F731975F01AA1AEF
:100FE000BB0A3C016A187B08C30101970E94570F96
:100FF000D7011B969C938E931A97A30142505109D7
:10100000FC01E40FF51F1082B5016E5F7F4F640D88
:10101000751D1A968D919C911B970E946011698194
:101020007A816F5F7F4FC6010E94DB01F7018285E5
:1010300093850E94EC0FD7011B961C921E921A9763
:10104000BFEF8B1A9B0AB0CF0FEF10E024E630E021
:1010500040E050E06FE170E0F701808191810E94F3
:10106000140644E050E0B301D7018D919C910E9499
:10107000910642E050E0B201F701808191810E9427
:101080009106D6016D917C91C601AB2811F40696AC
:1010900001C00C960E94DB0140E050E060E070E08F
:1010A000F701808191810E949106D7018D919C91D9
:1010B0000E94E202EF81F8850FB6F894FEBF0FBEE2
:1010C000EDBF28960FB6F894DEBF0FBECDBFDF91FF
:1010D000CF911F910F91FF90EF90DF90CF90BF9035
:1010E000AF909F908F907F906F905F904F903F90C8
:1010F0002F9008954F925F926F927F92AF92BF921E
:10110000CF92DF92EF92FF920F931F93CF93DF93D3
:1011100000D000D0CDB7DEB769E171E08BE092E09E
:101120000E94EF038AEA92E06C01990FEE08FF0833
:101130008091B2029091B302DC01ED91FC9101909B
:10114000F081E02D60EC099500E010E0A701960128
:1011500061E070E088EA92E00E94140688EA92E07A
:101160000E94E2020091B0021091B1021092B1020D
:101170001092B0020E94A2052B013C010E94A20520
:10118000DC01CB0184199509A609B709803D974078
:10119000A105B10508F07FC00E947D095C010097A0
:1011A00069F3DC0114964D915D916D917C911797D7
:1011B0008091B4024C155D056E057F0509F04FC0A6
:1011C000882341F067E971E08091A8029091A9021B
:1011D0000E94EF031093B1020093B00262E371E04A
:1011E0008BE092E00E94EF0301E010E020E030E0AD
:1011F000A9016EE170E08091F9019091FA010E94DD
:10120000140685E092E0092E000CAA0BBB0B898323
:101210009A83AB83BC8344E050E0BE016F5F7F4F95
:101220008091F9019091FA010E9491068091F90153
:101230009091FA010E94E2020F900F900F900F9090
:10124000DF91CF911F910F91FF90EF90DF90CF90A2
:10125000BF90AF907F906F905F904F9008958823DC
:1012600009F488CF64E471E08091A8029091A9020A
:101270000E9401046090A8027090A902F5014481C7
:101280005581668177812AE0C3010E94A203C301D0
:101290000E94EB036FCF1093B1020093B0026AE497
:1012A00071E08BE092E00E94EF0342CF1F920F9219
:1012B0000FB60F9211242F933F934F935F936F9329
:1012C0007F938F939F93AF93BF93EF93FF93E0919F
:1012D000EC01F091ED010995FF91EF91BF91AF9174
:1012E0009F918F917F916F915F914F913F912F913E
:1012F0000F900FBE0F901F901895AF92BF92CF9294
:10130000DF92FF920F931F93CF93DF9300D000D013
:1013100000D0CDB7DEB7FF24F3948091B202909154
:10132000B302DC01ED91FC910480F581E02D09957B
:10133000892B09F49DC18091B2029091B302DC0126
:10134000ED91FC910680F781E02D09958B3D91058B
:1013500019F4F092BD02E1CF2091BB023091BC02A2
:10136000803C910509F05BC12830310508F449C182
:101370000091B7021091B8028091B402882309F459
:1013800093C061E671E08091A8029091A9020E9449
:1013900001044091BB025091BC0260E070E02AE081
:1013A0008091A8029091A9020E94A2036BE671E0CD
:1013B0008091A8029091A9020E9401044091B70275
:1013C0005091B802052E000C660B770B20E180913E
:1013D000A8029091A9020E94A2036FE871E0809197
:1013E000A8029091A9020E940104F8014081518154
:1013F00060E070E020E18091A8029091A9020E9433
:10140000A20360E971E08091A8029091A9020E9474
:101410000104D80114964D915D916D917C911797BF
:1014200020E18091A8029091A9020E94A20360E9A4
:1014300071E08091A8029091A9020E940104F80134
:101440004281538160E070E020E18091A802909198
:10145000A9020E94A20348E0C42ED12C2091BB0215
:101460003091BC028091A8029091A902C216D306C5
:10147000C8F460E971E00E940104E091B702F091C4
:10148000B802EC0DFD1D408150E060E070E020E10D
:101490008091A8029091A9020E94A203FFEFCF1AA7
:1014A000DF0ADCCF0E94EB03C090BB02D090BC02ED
:1014B00082E0C81AD108A090B702B090B80220E02C
:1014C00030E0A601B50188EA92E00E94F805F50136
:1014D000EC0DFD1D208131818217930741F0809131
:1014E000B402882309F48DC06EE671E084C0D8018F
:1014F0008D919C918230910539F08330910511F1E5
:10150000019709F072C061C08091B402882309F488
:101510007AC06FE771E08091A8029091A9020E94C1
:101520000104C090A802D090A902F801448155811D
:10153000668177812AE0C6010E94A203C6010E944B
:10154000EB0361C08091B402882371F168E871E017
:101550008091A8029091A9020E940104D8011496DA
:101560004D915D916D917C9117972AE08091A80231
:101570009091A9020E94A20360E971E08091A80203
:101580009091A9020E940104C090A802D090A902E3
:10159000F8014281538160E070E02AE0C6010E94B8
:1015A000A203C6010E94EB03F801A481B5818D91CD
:1015B0009C911197009709F05EC012962D913C9175
:1015C0001397232B09F057C01CC062E971E080918A
:1015D000A8029091A9020E94EF03E091B002F0915D
:1015E000B102309771F009950CC08091B402882344
:1015F00041F06DE971E08091A8029091A9020E94EA
:10160000EF0300E010E01092BC021092BB021092B7
:10161000BD020115110509F480CEC8015BC04091DF
:10162000BD02442369F08C3D910531F08D3D91055B
:1016300029F48BED90E002C080EC90E01092BD02A6
:101640004091B9025091BA022417350708F065CECF
:101650004091B7025091B802B9016F5F7F4F70930C
:10166000BC026093BB02FA01E20FF31F808355CEE8
:1016700080E090E02FC01E830D83085F1F4F1C8306
:101680000B831A8219821296ED91FC911397309771
:1016900009F4B7CF0097D1F014962D913C9115978E
:1016A000A9015595479520FF0AC0DC01A40FB51F7D
:1016B0002D913C91E20FF31F0190F081E02DBE01CE
:1016C0006F5F7F4F840F951F09959BCFCE010196C9
:1016D000099597CF26960FB6F894DEBF0FBECDBF03
:1016E000DF91CF911F910F91FF90DF90CF90BF902E
:1016F000AF9008956F927F928F929F92AF92BF9218
:10170000CF92DF92EF92FF920F931F93CF93DF93CD
:10171000CDB7DEB73C016B01ADB6BEB60E948011FD
:101720008C01C6010E94801111279801280F311DDC
:10173000490182E0880E911C2D5F3F4FEDB7FEB747
:10174000E21BF30B0FB6F894FEBF0FBEEDBF8DB7D3
:101750009EB701967C011182B30101960E94791116
:10176000C8010296B6018E0D9F1D0E947911A40139
:10177000B7018091F9019091FA010E9491060FB68C
:10178000F894BEBE0FBEADBEDF91CF911F910F91F9
:10179000FF90EF90DF90CF90BF90AF909F908F9091
:1017A0007F906F900895CF93DF93ABE0B2E01396F4
:1017B0001C921E92129748EE53E060E070E014967F
:1017C0004D935D936D937C9317978AE091E011960A
:1017D0009C938E9385EC90E01D969C938E931C9722
:1017E00084EC90E01F969C938E931E9780EC90E083
:1017F00051969C938E93509781EC90E053969C93D6
:101800008E93529782EC90E055969C938E935497CA
:1018100086EC90E057969C938E93569759961C921F
:1018200059975A961C925A975B961C925B975C96B6
:101830001C925C97EBE1F1E0E491C6E4D3E0EC8329
:10184000ECE1F1E0E491ED8387E091E0FC0124918B
:10185000E22FF0E0EE0FFF1FE251FF4F2591349190
:101860003F832E83E8E0F1E0E491F0E0EE0FFF1F0C
:10187000EC51FF4F2591349139872887FC018491E1
:10188000E82FF0E0EE0FFF1FE652FF4F8591949195
:101890009B878A8789E499E59D878C87E8EAF2E04F
:1018A0001382128215821482B387A28714868EEB6C
:1018B00092E0908B878780E890E0928B818B148AEE
:1018C000138A158AA9EFB1E01196FC93EE9319964D
:1018D0001C921E9218971B961C921E921A971D9688
:1018E0001C921E921C97B093F801A093F70184EF0D
:1018F00096E01F969C938E931E97DF91CF9108954B
:10190000CF93DF93CDB7DEB72A970FB6F894DEBF3B
:101910000FBECDBF789484B5826084BD84B58160EC
:1019200084BD85B5826085BD85B5816085BD8091AA
:101930006E00816080936E00109281008091810022
:10194000826080938100809181008160809381001A
:10195000809180008160809380008091B1008460DC
:101960008093B1008091B00081608093B00080913D
:101970007A00846080937A0080917A0082608093FC
:101980007A0080917A00816080937A0080917A0059
:10199000806880937A001092C100E0911B02F09160
:1019A0001C0282E08083E0911702F09118021082FD
:1019B000E0911902F0911A028FEC808310922302B9
:1019C000E0911F02F091200286E08083E0911D02E9
:1019D000F0911E02808180618083E0911D02F09170
:1019E0001E02808188608083E0911D02F0911E02BA
:1019F000808180688083E0911D02F0911E028081C9
:101A00008F7D808361E08EE00E94410561E08FE080
:101A10000E94410560E080E10E94410561E081E1B2
:101A20000E94410560E08EE00E94940463EA71E048
:101A30008BE092E00E94EF031A8219821C821B82C3
:101A40001E821D8265EC70E09E012F5F3F4F790181
:101A5000C9010E947A0380E290E00E94570F8C0136
:101A600080E2F80111928A95E9F7F801118210825B
:101A7000138212821582148260E070E0C8010E9415
:101A80004103811104C0C8010E94680309C0F80124
:101A90001582148268E171E0808191810E94721147
:101AA000F80117821682118610861586148617860D
:101AB0001686138A128A158A148A118E108E138E36
:101AC000128E0E151F05C9F0E980FA80E114F104A9
:101AD00089F0CD80DE80B601C8010E9441038823D1
:101AE00049F0F801D582C482B701808191810E94BA
:101AF000721103C0C8010E94680380910102909195
:101B00000202F801978F868F109302020093010260
:101B100089819A810E94EC0F84E894E0F801918712
:101B200080879787868784EC94E0938F828F8AE7FB
:101B300098E09093B1028093B0020E947A0888EEF8
:101B4000482E83E0582E612C712C0E947D090E9442
:101B5000A205009142031091430320914403309168
:101B600045036B017C01C01AD10AE20AF30A40ED79
:101B7000C41647E0D406E104F104F0F06093420398
:101B80007093430380934403909345038EE00E9437
:101B90005B04892B39F461E08EE00E9494046EEBC3
:101BA00071E006C060E08EE00E9494046DEC71E08C
:101BB0008BE092E00E94EF030E94A20500913E0399
:101BC00010913F0320914003309141036B017C0150
:101BD000C01AD10AE20AF30A40EAC4164FE0D4065A
:101BE000E104F10408F438C160933E0370933F03AD
:101BF00080934003909341036DED71E08BE092E0A0
:101C00000E94010408E010E00E947D056B017C0148
:101C1000E0915003F0915103908180914A03892B08
:101C20008083E0914C03F0914D03908180914A03B1
:101C30008095892380838BE090E00197F1F7E09114
:101C40004C03F0914D03908180914A03892B80834E
:101C500083E290E00197F1F7E0914C03F0914D039E
:101C6000908180914A03809589238083E09150037D
:101C7000F0915103908180914A038095892380835C
:101C8000E0914E03F0914F03908180914B038923A3
:101C900009F07AC00E947D052091520330915303D0
:101CA0004901A12CB12C58EA850E56E1951EA11CC4
:101CB000B11CDC01CB01880D991DAA1DBB1D8093B1
:101CC000540390935503A0935603B0935703E091A8
:101CD0004E03F0914F03908180914B03892381F44F
:101CE0000E947D058090540390905503A090560368
:101CF000B090570386169706A806B90640F744C069
:101D00000E947D052091520330915303DC01CB01E9
:101D1000820F931FA11DB11D80935403909355030F
:101D2000A0935603B0935703E0914E03F0914F03F5
:101D3000908180914B03892381F00E947D058090E2
:101D4000540390905503A0905603B0905703861605
:101D50009706A806B90640F717C00E947D05209196
:101D6000520330915303A901455051092091540366
:101D700030915503FA01E21BF30BAF01460F571FD9
:101D8000452B11F01F5F01C00150101708F059C01A
:101D90000E947D05DC01CB018C199D09AE09BF09AC
:101DA00088349147A105B10508F02ECF0E947D052A
:101DB000F8E4CF0EF1E7DF1EE11CF11CA70196014C
:101DC000261B370B480B590BCA01B901A30192011D
:101DD0000E942F0F2F83388749875A870E947D05DD
:101DE0004B015C012F81388549855A8521153105C4
:101DF0004105510509F408CF2F83388749875A8751
:101E00000E947D05DC01CB0188199909AA09BB094B
:101E10002F81388549855A85883E9340A105B105B3
:101E200028F3215031094109510968EE860E63E01B
:101E3000961EA11CB11C2115310541055105E1F685
:101E4000D5CF0FB6F894DEBF0FBECDBF64EE71E004
:101E50008BE092E00E94EF030E94A80176CEA1E2FF
:101E60001A2EAA1BBB1BFD010DC0AA1FBB1FEE1F14
:101E7000FF1FA217B307E407F50720F0A21BB30B5F
:101E8000E40BF50B661F771F881F991F1A9469F7DB
:101E900060957095809590959B01AC01BD01CF0137
:101EA0000895EE0FFF1F0590F491E02D0994CF9354
:101EB000DF938230910510F482E090E0E0915A03C4
:101EC000F0915B0320E030E0C0E0D0E0309711F10A
:101ED0004081518148175907C0F04817590761F4EC
:101EE00082819381209719F09B838A832BC09093E2
:101EF0005B0380935A0326C02115310519F0421760
:101F0000530718F49A01BE01DF01EF010280F3814B
:101F1000E02DDCCF2115310509F1281B390B2430C8
:101F2000310590F412968D919C911397611571056E
:101F300021F0FB019383828304C090935B03809321
:101F40005A03FD01329644C0FD01E20FF31F819355
:101F50009193225031092D933C933AC0209158031C
:101F600030915903232B41F4209102013091030158
:101F700030935903209358032091000130910101BF
:101F80002115310541F42DB73EB740910401509120
:101F90000501241B350BE0915803F0915903E2171A
:101FA000F307A0F42E1B3F0B2817390778F0AC017C
:101FB0004E5F5F4F2417350748F04E0F5F1F509359
:101FC0005903409358038193919302C0E0E0F0E0FD
:101FD000CF01DF91CF9108950F931F93CF93DF939C
:101FE000009709F48CC0FC01329713821282009191
:101FF0005A0310915B030115110581F42081318191
:10200000820F931F209158033091590328173907E5
:1020100079F5F0935903E093580371C0D80140E07B
:1020200050E0AE17BF0750F412962D913C911397D4
:10203000AD012115310509F1D901F3CF9D01DA0177
:102040003383228360817181860F971F82179307E4
:1020500069F4EC0128813981260F371F2E5F3F4F2D
:10206000318320838A819B8193838283452B29F44A
:10207000F0935B03E0935A0342C01396FC93EE93F4
:102080001297ED01499159919E01240F351FE217D6
:10209000F30771F480819181840F951F0296119648
:1020A0009C938E938281938113969C938E93129727
:1020B000E0E0F0E0D80112968D919C911397009783
:1020C00019F0F8018C01F6CF8D919C9198012E5F4B
:1020D0003F4F820F931F20915803309159032817C7
:1020E000390769F4309729F410925B0310925A0370
:1020F00002C0138212821093590300935803DF9198
:10210000CF911F910F910895A0E0B0E0EAE8F0E1CF
:102110000C948D11EC01009721F4CB010E94570F14
:10212000B8C0FC01E60FF71F9C0122503109E217ED
:10213000F30708F4ACC0D9010D911C911197061753
:102140001707B0F00530110508F49FC0C8010497C7
:102150008617970708F499C002501109061B170B40
:10216000019311936D937C93CF010E94EC0F8DC06E
:102170005B01A01AB10A4C01800E911EA0915A0376
:10218000B0915B0340E050E0E12CF12C109709F492
:102190004AC0A815B905D1F56D907C9011976301DF
:1021A00082E0C80ED11CCA14DB0480F1A3014A19D5
:1021B0005B096A0182E0C80ED11C1296BC9012978E
:1021C0001396AC91B5E0CB16D10440F0B282A38354
:1021D00051834083D9016D937C930AC00E5F1F4FDA
:1021E000C301800F911FF90191838083EB2DFA2F9A
:1021F000E114F10431F0D7011396FC93EE9312979A
:1022000044C0F0935B03E0935A033FC08D919C91CF
:1022100011974817590708F4AC017D0112960D90EB
:10222000BC91A02DB3CF809158039091590388158C
:102230009905E1F446175707C8F480910001909181
:102240000101009741F48DB79EB740910401509170
:102250000501841B950BE817F907C8F4F09359039F
:10226000E0935803F901718360830FC0CB010E9492
:10227000570F7C01009759F0A801BE010E94601120
:10228000CE010E94EC0FC70104C0CE0102C080E065
:1022900090E0CDB7DEB7EEE00C94A91181E090E0BC
:1022A000F8940C94C011FB01DC0104C08D910190E5
:1022B000801921F441505040C8F7881B990B0895AC
:1022C000FB01DC0102C001900D9241505040D8F753
:1022D0000895FB01DC018D91019080190110D9F363
:1022E000990B0895FB01DC0101900D920020E1F7AC
:1022F0000895FB01DC0105900D920020E1F708959F
:10230000FC0105900020E9F7809590958E0F9F1FA6
:1023100008952F923F924F925F926F927F928F9289
:102320009F92AF92BF92CF92DF92EF92FF920F9364
:102330001F93CF93DF93CDB7DEB7CA1BDB0B0FB66E
:10234000F894DEBF0FBECDBF09942A88398848882B
:102350005F846E847D848C849B84AA84B984C884C1
:10236000DF80EE80FD800C811B81AA81B981CE0FB8
:10237000D11D0FB6F894DEBF0FBECDBFED0108959D
:04238000F894FFCFFF
:1023840000005C038000000000003F01BB00080166
:10239400E600FA0086010D0A00454C2D436C696580
:1023A4006E74202872652D297374617274696E6766
:1023B4002100454C2D436C69656E742073796E63FE
:1023C400656421004241443A2000454C2D436C6928
:1023D400656E742073796E63206661696C6564212F
:1023E40000454C433A20676F742000204000454C60
:1023F400433A20496E76616C69642043524300522B
:102404004553505F563A2000524553505F43423A79
:1024140020004E4545445F53594E432100434D44EB
:102424003F3F006B6F6E6965632073656B77656E04
:10243400636A692073746172746F77656A00776C7C
:1024440061637A616D20706F6D706B650077796C74
:1024540061637A616D20706F6D706B650050696E99
:08246400673A2000636D0000DF
:107800000C94343C0C94513C0C94513C0C94513CE1
:107810000C94513C0C94513C0C94513C0C94513CB4
:107820000C94513C0C94513C0C94513C0C94513CA4
:107830000C94513C0C94513C0C94513C0C94513C94
:107840000C94513C0C94513C0C94513C0C94513C84
:107850000C94513C0C94513C0C94513C0C94513C74
:107860000C94513C0C94513C11241FBECFEFD8E036
:10787000DEBFCDBF11E0A0E0B1E0ECE9FFE702C060
:1078800005900D92A230B107D9F712E0A2E0B1E065
:1078900001C01D92AD30B107E1F70E942D3D0C945F
:1078A000CC3F0C94003C982F959595959595959582
:1078B000905D8F708A307CF0282F295A8091C0000B
:1078C00085FFFCCF9093C6008091C00085FFFCCF60
:1078D0002093C6000895282F205DF0CF982F809127
:1078E000C00085FFFCCF9093C6000895EF92FF92F1
:1078F0000F931F93EE24FF2487018091C00087FD22
:1079000017C00894E11CF11C011D111D81E4E8164B
:1079100082E4F8068FE0080780E0180770F3E09132
:107920000401F091050109958091C00087FFE9CF1E
:107930008091C6001F910F91FF90EF9008950E94D3
:10794000763C982F8091C00085FFFCCF9093C600B5
:1079500091362CF490330CF09053892F089597555D
:10796000892F08951F930E949F3C182F0E949F3CCF
:107970001295107F810F1F9108951F93182F882350
:1079800021F00E94763C1150E1F71F9108951F935A
:10799000182F0E94763C803249F0809103018F5F5E
:1079A000809303018530C1F01F9108958091C0003C
:1079B00085FFFCCF84E18093C6008091C00085FFE5
:1079C000FCCF1093C6008091C00085FFFCCF80E102
:1079D0008093C6001F910895E0910401F091050184
:1079E00009951F9108950E94763C803241F0809164
:1079F00003018F5F80930301853081F008958091AA
:107A0000C00085FFFCCF84E18093C6008091C00058
:107A100085FFFCCF80E18093C6000895E0910401CA
:107A2000F09105010995089540E951E08823A1F0FE
:107A30002D9A28EE33E0FA013197F1F721503040CA
:107A4000D1F72D9828EE33E0FA013197F1F7215064
:107A50003040D1F7815061F708953F924F925F9285
:107A60006F927F928F929F92AF92BF92CF92DF924E
:107A7000EF92FF920F931F93CF93DF93000080E16B
:107A80008093C4001092C50088E18093C10086E015
:107A90008093C2005098589A259A81E00E94143D24
:107AA00024E1F22E9EE1E92E85E9D82E0FE0C02ECA
:107AB00010E1B12EAA24A394B1E49B2EA6E58A2E50
:107AC000F2E57F2EE0E26E2E79E4572E63E5462E36
:107AD00050E5352E0E94763C8033B1F18133B9F107
:107AE000803409F46FC0813409F476C0823409F41B
:107AF00085C0853409F488C0803531F1823521F1A3
:107B0000813511F1853509F485C0863509F48DC0BC
:107B1000843609F496C0843709F403C1853709F423
:107B200072C1863709F466C0809103018F5F80932C
:107B30000301853079F6E0910401F0910501099582
:107B40000E94763C803351F60E94F33CC3CF0E94E2
:107B5000763C803249F78091C00085FFFCCFF092DF
:107B6000C6008091C00085FFFCCF9092C600809136
:107B7000C00085FFFCCF8092C6008091C00085FFC9
:107B8000FCCF7092C6008091C00085FFFCCF609250
:107B9000C6008091C00085FFFCCF5092C600809146
:107BA000C00085FFFCCF4092C6008091C00085FFD9
:107BB000FCCF3092C6008091C00085FFFCCFB09210
:107BC000C60088CF0E94763C863808F4BDCF0E945C
:107BD000763C0E94F33C7ECF0E94763C803809F4CC
:107BE0009CC0813809F40BC1823809F43CC1883942
:107BF00009F48FC080E00E94C73C6CCF84E10E94F2
:107C0000BD3C0E94F33C66CF85E00E94BD3C0E94D3
:107C1000F33C60CF0E94763C809306010E94763C44
:107C2000809307010E94F33C55CF0E94763C80333D
:107C300009F41DC183E00E94BD3C80E00E94C73C66
:107C400049CF0E94763C809309020E94763C809343
:107C5000080280910C028E7F80930C020E94763C79
:107C6000853409F415C18091080290910902892B8D
:107C700089F000E010E00E94763CF801E85FFE4FDA
:107C800080830F5F1F4F80910802909109020817AF
:107C9000190788F30E94763C803209F045CF809125
:107CA0000C0280FF01C16091060170910701660F0F
:107CB000771F7093070160930601A0910802B091AD
:107CC00009021097C9F0E8E0F1E09B01AD014E0F09
:107CD0005F1FF999FECF32BD21BD819180BDFA9A17
:107CE000F99A2F5F3F4FE417F50799F76A0F7B1F4B
:107CF00070930701609306018091C00085FFFCCF5F
:107D0000F092C6008091C00085FFFCCFB092C60003
:107D1000E1CE83E00E94C73CDDCE82E00E94C73CFA
:107D2000D9CE0E94763C809309020E94763C8093D3
:107D300008028091060190910701880F991F909386
:107D40000701809306010E94763C853409F4A6C0A1
:107D500080910C028E7F80930C020E94763C8032D0
:107D600009F0B8CE8091C00085FFFCCFF092C6002C
:107D7000609108027091090261157105B9F140E046
:107D800050E080910C02A82FA170B82FB27011C0E2
:107D9000BB2309F45CC0E0910601F0910701319624
:107DA000F0930701E09306014F5F5F4F46175707B7
:107DB000E8F4AA2369F3F999FECF209106013091E6
:107DC000070132BD21BDF89A90B58091C00085FFB2
:107DD000FCCF9093C6002F5F3F4F30930701209355
:107DE00006014F5F5F4F4617570718F38091C00099
:107DF00085FDE5CE8091C00085FFF8CFE0CE81E023
:107E00000E94C73C67CE0E94763C803209F08CCE3F
:107E10008091C00085FFFCCFF092C6008091C00029
:107E200085FFFCCFE092C6008091C00085FFFCCFAB
:107E3000D092C6008091C00085FFFCCFC092C600E2
:107E40008091C00085FFFCCFB092C60043CEE09188
:107E50000601F091070194918091C00085FFFCCF4D
:107E60009093C6009CCF80E10E94C73C33CE0E9415
:107E7000763C0E94763C182F0E94763C112309F430
:107E800083C0113009F484C08FE00E94C73C22CE29
:107E900080910C02816080930C02E5CE80910C02EF
:107EA000816080930C0259CF809107018823880F4D
:107EB000880B8A2180930B02809106019091070123
:107EC000880F991F90930701809306018091080203
:107ED00080FF09C080910802909109020196909359
:107EE000090280930802F894F999FECF1127E091D6
:107EF0000601F0910701C8E0D1E08091080290915D
:107F00000902103091F40091570001700130D9F34B
:107F100003E000935700E89500915700017001308D
:107F2000D9F301E100935700E89509901990009169
:107F3000570001700130D9F301E000935700E89534
:107F40001395103498F011270091570001700130FB
:107F5000D9F305E000935700E895009157000170B0
:107F60000130D9F301E100935700E895329602976A
:107F700009F0C7CF103011F00296E5CF112480919F
:107F8000C00085FFB9CEBCCE8EE10E94C73CA2CD19
:0C7F900085E90E94C73C9ECDF894FFCF0D
:027F9C00800063
:040000030000780081
:00000001FF
