:100000000C94B4000C94DC000C94DC000C94DC0028
:100010000C94DC000C94DC000C94DC000C94DC00F0
:100020000C94DC000C94DC000C94DC000C94DC00E0
:100030000C94DC000C94DC000C94DC000C94DC00D0
:100040000C94FB040C94DC000C9475030C944F038B
:100050000C94DC000C94DC000C94DC000C94DC00B0
:100060000C94DC000C94DC0069645F6F66660069C8
:10007000645F6F6E00506F6D7061206A65737420ED
:100080007779B3B9637A6F6E6100746578740050E4
:100090006F6D7061206A6573742077B3B9637A6F8E
:1000A0006E61007465787400506F6D7061206A65D0
:1000B0007374207779B3B9637A6F6E610074657871
:1000C0007400506F6D7061206A6573742077B3B9E6
:1000D000637A6F6E6100746578740048616E646C59
:1000E0006572206E6F7420666F756E6420666F7225
:1000F0002055524C3A0000000000240027002A003E
:1001000000000000250028002B000000000800026D
:1001100001000003040700000000000000002F534E
:100120007465726F77616E69652E68746D6C2E6A86
:10013000736F6E00000000002300260029000404F5
:10014000040404040404020202020202030303037F
:10015000030301020408102040800102040810205B
:10016000010204081020600F11241FBECFEFD8E059
:10017000DEBFCDBF12E0A0E0B1E0E4E6F5E202C0F0
:1001800005900D92A03AB107D9F724E0A0EAB2E0B9
:1001900001C01D92A531B207E1F710E0C4EBD0E039
:1001A00004C02197FE010E944110C33BD107C9F74B
:1001B0000E94D00C0C94B0120C940000FC01918DA4
:1001C000828D981761F0828DDF01A80FB11D5D96B9
:1001D0008C91928D9F5F9F73928F90E008958FEF27
:1001E0009FEF0895FC01918D828D981731F0828DDB
:1001F000E80FF11D858D90E008958FEF9FEF089532
:10020000FC01918D228D892F90E0805C9F4F821B95
:1002100091098F739927089587ED92E00E9400015C
:1002200021E0892B09F420E0822F0895FC01848DC0
:10023000DF01A80FB11DA35ABF4F2C91848D90E010
:1002400001968F739927848FA689B7892C93A089EB
:10025000B1898C9180648C93938D848D981306C0A2
:100260000288F389E02D80818F7D80830895EF924D
:10027000FF920F931F93CF93DF93EC0181E0888F60
:100280009B8D8C8D981305C0E889F989808185FD47
:1002900024C0F62E0B8D10E00F5F1F4F0F73112738
:1002A000E02E8C8DE8120CC00FB607FCFACFE8895F
:1002B000F989808185FFF5CFCE010E941601F1CF2B
:1002C0008B8DFE01E80FF11DE35AFF4FF0820B8F7B
:1002D000EA89FB898081806207C0EE89FF8960839B
:1002E000E889F98980818064808381E090E0DF91F2
:1002F000CF911F910F91FF90EF900895CF93DF93CF
:10030000EC01888D8823C9F0EA89FB89808185FD0D
:1003100005C0A889B9898C9186FD0FC00FB607FC6E
:10032000F5CF808185FFF2CFA889B9898C9185FFAF
:10033000EDCFCE010E941601E7CFDF91CF91089556
:1003400080E090E0892B29F00E940C0181110C942F
:1003500000000895833081F028F4813099F08230D4
:10036000A1F008958730A9F08830B9F08430D1F435
:10037000809180008F7D03C0809180008F77809373
:100380008000089584B58F7702C084B58F7D84BDC9
:1003900008958091B0008F7703C08091B0008F7D69
:1003A0008093B0000895DC011296ED91FC911397B3
:1003B0003097F1F02D913C91119721153105B1F055
:1003C00014964D915C911597CA019595879540FFBC
:1003D0000AC0D901A80FB91F4D915C91E40FF51F18
:1003E0000190F081E02D820F931F0994CB010994B5
:1003F0000895EF92FF920F931F93CF93DF93EC0139
:1004000088819981EC81FD81228133818217930754
:1004100060F5EA81FB81019111912EEF3FEF201BE6
:10042000310B7901A3E0EA22FF24FB83EA830196E2
:1004300099838883CB019A010417150708F4980162
:10044000260F371F8217930729F04191DC014D9346
:10045000CD01F8CF9701200F311F8A819B81280F92
:10046000391F3B832A83C80102C08FEF9FEFDF91C2
:10047000CF911F910F91FF90EF900895CF93DF934D
:10048000FC0180819181A481B58112962D913C91CE
:10049000139782179307E0F4A281B3814D915D9188
:1004A000B383A283019691838083EB01B983A883F0
:1004B0002EEF3FEF241B350B23703327240F351FFE
:1004C00082819381280F391F33832283CA0102C09E
:1004D0008FEF9FEFDF91CF9108954627342F252F7F
:1004E000A901442784E0440F551F8A95E1F742276C
:1004F0005327CA01892F992782958F70482759273A
:10050000CA01882735E0969587953A95E1F78427C3
:1005100095270895EF92FF920F931F93CF93DF9348
:100520007C01C901EB018B01040F151FC017D10716
:1005300031F06991AC01C7010E946D02F7CFDF91E4
:10054000CF911F910F91FF90EF900895CF93DF937C
:10055000EC018A859B85603CA1F06B3D21F5DC01B7
:10056000ED91FC910190F081E02D6BED09958A856C
:100570009B85DC01ED91FC910190F081E02D6DED0A
:1005800018C0DC01ED91FC910190F081E02D6BED44
:1005900009958A859B85DC01ED91FC910190F081A4
:1005A000E02D6CED06C0DC01ED91FC910190F08135
:1005B000E02DDF91CF910994EF92FF920F931F935B
:1005C000CF93DF937C01EB018B01040F151FC01744
:1005D000D10729F06991C7010E94A602F8CFDF91E7
:1005E000CF911F910F91FF90EF900895EF92FF929E
:1005F0000F931F93CF93DF9361157105A1F18B01C9
:10060000EC01BC01645F7F4F42E050E0C8010E94F2
:10061000F901EC81FD8184858823E9F066E171E0D0
:10062000808191810E94460B4C855D85EC81FD8126
:10063000E080F180052E000C660B770B77FF04C07D
:10064000C7010E94070B04C02AE0C7010E94BE0A2E
:10065000C7010E94300BBE01605F7F4FC8010E943E
:100660003E029F878E87DF91CF911F910F91FF9060
:10067000EF9008956115710579F0FB01019000205C
:10068000E9F73197AF01461B570BDC01ED91FC9167
:100690000280F381E02D099480E090E008951F929C
:1006A0000F920FB60F9211242F933F934F935F93A6
:1006B0006F937F938F939F93AF93BF93EF93FF932A
:1006C00087ED92E00E941601FF91EF91BF91AF91EB
:1006D0009F918F917F916F915F914F913F912F915A
:1006E0000F900FBE0F901F9018951F920F920FB68C
:1006F0000F9211242F938F939F93EF93FF93E09189
:10070000E702F091E8028081E091ED02F091EE02C3
:1007100082FD12C090818091F0028F5F8F732091D3
:10072000F102821751F0E091F002F0E0E952FD4F42
:10073000958F8093F00201C08081FF91EF919F918E
:100740008F912F910F900FBE0F901F901895CF9300
:10075000DF93282F30E0F901E65FFE4F8491F90125
:10076000EE5AFE4FD491F901E25CFE4FC491CC23C6
:1007700091F081110E94AA01EC2FF0E0EE0FFF1F13
:10078000EC5CFE4FA591B491EC91ED2381E090E0FB
:1007900021F480E002C080E090E0DF91CF910895E5
:1007A00082E10E94A703892B29F462EC70E086EDB8
:1007B00090E004C068EA70E08DEB90E00C94320C9D
:1007C00082E10E94A703892B29F46FE870E083EA95
:1007D00090E004C065E770E08AE890E00C94320C89
:1007E0001F93CF93DF93282F30E0F901E65FFE4F90
:1007F0008491F901EE5AFE4FD491F901E25CFE4F6B
:10080000C491CC23C9F0162F81110E94AA01EC2FAC
:10081000F0E0EE0FFF1FE050FF4FA591B4918FB7AE
:10082000F894111105C09C91ED2FE095E92302C0C9
:10083000EC91ED2BEC938FBFDF91CF911F91089539
:10084000EF92FF920F931F93CF93DF93CDB7DEB755
:100850002C970FB6F894DEBF0FBECDBF7C011A8275
:1008600019821C821B821E821D820097D9F0FC0116
:1008700001900020E9F731978F01081B190BB8018F
:10088000CE0101960E945D0A811105C0CE0101963C
:100890000E94840A07C01E830D83B70189819A8153
:1008A0000E94621218861F821A8619861C861B8671
:1008B0006FE670E0CE0107960E94960ABE01695F5E
:1008C0007F4FCE0101960E942B0A182F8F819885A9
:1008D0000E94DC10112371F060E081E10E94F003BE
:1008E00061E271E087ED92E00E94340B84E291E0D6
:1008F0000E94ED0B18861F821A8619861C861B869D
:1009000068E670E0CE0107960E94960ABE01695F14
:100910007F4FCE0101960E942B0A182F8F81988558
:100920000E94DC10112371F061E081E10E94F0036C
:1009300061E671E087ED92E00E94340B85E691E07C
:100940000E94ED0B89819A810E94DC102C960FB6D3
:10095000F894DEBF0FBECDBFDF91CF911F910F91F5
:10096000FF90EF900895CF93DF9390E0FC01EE5A53
:10097000FE4F2491FC01E25CFE4F8491882361F1DB
:1009800090E0880F991FFC01EA50FF4FC591D49168
:10099000FC01E050FF4FA591B491611109C09FB7D0
:1009A000F8948881209582238883EC912E230BC0B4
:1009B000623061F49FB7F8943881822F8095832349
:1009C0008883EC912E2B2C939FBF06C08FB7F89491
:1009D000E8812E2B28838FBFDF91CF9108952FB709
:1009E000F8946091A5027091A6028091A70290915F
:1009F000A8022FBF08951F920F920FB60F921124D5
:100A00002F933F938F939F93AF93BF938091A502B2
:100A10009091A602A091A702B091A8023091A402E1
:100A200023E0230F2D3720F40196A11DB11D05C031
:100A300026E8230F0296A11DB11D2093A4028093E6
:100A4000A5029093A602A093A702B093A80280915A
:100A5000A0029091A102A091A202B091A3020196DE
:100A6000A11DB11D8093A0029093A102A093A202A8
:100A7000B093A302BF91AF919F918F913F912F911E
:100A80000F900FBE0F901F901895CF93DF93EC013E
:100A9000BC01635F7F4F42E050E00E94DC028A8528
:100AA0009B85DC01ED91FC910190F081E02D60ECE3
:100AB000DF91CF910994CF92DF92EF92FF920F9343
:100AC0001F93CF93DF9300D0CDB7DEB78C017B01AE
:100AD0005A83498342E050E0BE016F5F7F4F0E941E
:100AE000DC02F8012585368542E050E0BE016F5FEB
:100AF0007F4FC8010E948A02F80196878587C980C6
:100B0000DA80CE0CDF1CEC14FD0491F0F70160815B
:100B1000C8010E94A602F80145855685F70161913A
:100B20007F01C8010E946D02F80196878587EBCF8F
:100B3000E980FA80F194E194F108F3E0EF22FF24D8
:100B4000F1E0EF1AF10878F060E0C8010E94A60217
:100B5000F8014585568560E0C8010E946D02F801E4
:100B600096878587EDCF0F900F90DF91CF911F91E2
:100B70000F91FF90EF90DF90CF900895EF92FF924A
:100B80000F931F93CF93DF93CDB7DEB728970FB6A0
:100B9000F894DEBF0FBECDBF7C017A8369832B83BF
:100BA0003C834D835E8318870F83DC011E961C9265
:100BB0001E921D971A968D919C911B97DC01ED91C9
:100BC000FC910190F081E02D60EC099542E050E04D
:100BD000BE016F5F7F4FC7010E94DC02F7012585D0
:100BE000368542E050E0BE016F5F7F4FC7010E9433
:100BF0008A02D7011E969C938E931D9742E050E087
:100C0000BE01695F7F4FC7010E94DC02F7012585A5
:100C1000368542E050E0BE01695F7F4FC7010E9408
:100C20008A02D7011E969C938E931D9744E050E054
:100C3000BE016D5F7F4FC7010E94DC02F701258571
:100C4000368544E050E0BE016D5F7F4FC7010E94D2
:100C50008A02D7011E969C938E931D9728960FB6F5
:100C6000F894DEBF0FBECDBFDF91CF911F910F91E2
:100C7000FF90EF9008952F923F924F925F926F9264
:100C80007F928F929F92AF92BF92CF92DF92EF921C
:100C9000FF920F931F93CF93DF93CDB7DEB72897C3
:100CA0000FB6F894DEBF0FBECDBF8C012DB73EB797
:100CB00038872F83E090B102F090B20242E050E01A
:100CC000BE016B5F7F4F0E94F901AD80BE8037018E
:100CD00032E0630E711C44E050E0B301C8010E9491
:100CE000F901270186E0480E511C42E050E0B201B4
:100CF000C8010E94F901BE016D5F7F4FC8010E94CB
:100D00003E024C01D7011896CD90DC9019972B80AC
:100D10003C80C114D10449F1F60184819581881584
:100D2000990541F460817181A401C1010E944312BF
:100D3000892B31F0D6015E96CD90DC905F97E9CF9C
:100D4000B2E0AB16B10409F449C01CF4B7FEC3C04D
:100D5000F8C0F3E0AF16B10409F0F3C084E0882EC8
:100D6000912CE2E1CE0ED11C66C0D701ED91FC9131
:100D70008485882309F4E5C0C080D1800BED10E0A4
:100D8000F8016491611103C000E010E00DC0D601CC
:100D9000ED91FC910190F081E02DC60109950F5F66
:100DA0001F4F892B69F7F0CFD701ED91FC9180811E
:100DB00091810815190579F0DC01ED91FC91AB8169
:100DC000BC81A00FB11F0190F081E02D6C910995BD
:100DD0000F5F1F4FE9CF0E94300BB3C02DB63EB658
:100DE000BE016F5F7F4FC8010E943E028C010196D9
:100DF000EDB7FEB7E81BF90B0FB6F894FEBF0FBEB8
:100E0000EDBF2DB73EB72F5F3F4F490169817A8112
:100E1000A801C9010E945012F401E00FF11F1082D5
:100E2000B401C60148960E94D3010FB6F8943EBEA5
:100E30000FBE2DBE50C0D8011496ED91FC911597B0
:100E4000828193818816990608F07BC0BE016F5F8E
:100E50007F4FC8010E943E0249805A80D2011196FC
:100E6000FD0101900020E9F731975F01AA1ABB0A42
:100E70003C016A187B08C30101970E944710D70103
:100E80001B969C938E931A97A30142505109FC0123
:100E9000E40FF51F1082B5016E5F7F4F640D751D65
:100EA0001A968D919C911B970E94501269817A81AC
:100EB0006F5F7F4FC6010E94D301F7018285938542
:100EC0000E94DC10D7011B961C921E921A97BFEF4E
:100ED0008B1A9B0AB0CF0FEF10E024E630E040E021
:100EE00050E06FE170E0F701808191810E94BE05C2
:100EF00044E050E0B301D7018D919C910E945B05C5
:100F000042E050E0B201F701808191810E945B05CF
:100F1000D6016D917C91C601AB2811F4069601C0F3
:100F20000C960E94D30140E050E060E070E0F701D1
:100F3000808191810E945B05D7018D919C910E94D7
:100F40004505EF81F8850FB6F894FEBF0FBEEDBFE3
:100F500028960FB6F894DEBF0FBECDBFDF91CF91BC
:100F60001F910F91FF90EF90DF90CF90BF90AF90C7
:100F70009F908F907F906F905F904F903F902F90B9
:100F800008950F931F93CF93DF9300D000D0CDB778
:100F9000DEB763EA71E087ED92E00E94340B0E94B5
:100FA0006F0B811103C06CEB71E0F5CF63ED71E065
:100FB00087ED92E00E94340B01E010E020E030E089
:100FC000A9016EE170E08091C5029091C6020E9475
:100FD000BE0581ED92E0092E000CAA0BBB0B8983A4
:100FE0009A83AB83BC8344E050E0BE016F5F7F4FC8
:100FF0008091C5029091C6020E945B058091C50256
:101000009091C6020E9445050F900F900F900F908F
:10101000DF91CF911F910F9108958F929F92AF9280
:10102000BF92DF92EF92FF920F931F93CF93DF93C4
:1010300000D000D000D0CDB7DEB78C01DD24D39432
:10104000D8011A968D919C911B97DC01ED91FC9132
:101050000480F581E02D0995892B09F48AC1D80116
:101060001A968D919C911B97DC01ED91FC91068065
:10107000F781E02D09958B3D910519F4F801D58A8A
:10108000DFCFD80153962D913C915497803C910528
:1010900009F04AC12830310508F437C1F801E78466
:1010A000F0888485882309F484C065EE71E080812E
:1010B00091810E94460BD80153964D915C915497B3
:1010C00060E070E02AE08D919C910E94BE0A6FEE74
:1010D00071E0F801808191810E94460BD8011F9632
:1010E0004D915C915097052E000C660B770B20E11B
:1010F0008D919C910E94BE0A63E172E0F8018081AB
:1011000091810E94460BD7014D915C9160E070E0A7
:1011100020E1F801808191810E94BE0A64E172E0C1
:10112000D8018D919C910E94460BF7014481558115
:101130006681778120E1D8018D919C910E94BE0A41
:1011400064E172E0F801808191810E94460BD70131
:1011500012964D915C91139760E070E020E1F801E8
:10116000808191810E94BE0A48E0A42EB12CF80132
:101170002389348980819181A216B306C0F464E189
:1011800072E00E94460BD8011F96ED91FC9150979A
:10119000EA0DFB1D408150E060E070E020E18D91A0
:1011A0009C910E94BE0ABFEFAB1ABB0AE0CF0E941F
:1011B000300BD8015396AD90BC905497B2E0AB1A67
:1011C000B108F8018784908820E030E0A501B401DF
:1011D000C8010E948A02F401EA0DFB1D20813181C1
:1011E0008217930761F0D8011C968C911C97882375
:1011F00009F48BC062EF71E08D919C9184C0F7017E
:10120000808191818230910539F08330910519F107
:10121000019709F070C05FC0D8011C968C911C9793
:10122000882309F474C063E072E08D919C910E9460
:10123000460BF801A080B180D70114964D915D91C5
:101240006D917C9117972AE0C5010E94BE0AC501E5
:101250000E94300B5CC0F8018485882359F16CE052
:1012600072E0808191810E94460BD70114964D91C6
:101270005D916D917C9117972AE0F80180819181B1
:101280000E94BE0A64E172E0D8018D919C910E9497
:10129000460BF801A080B180D70112964D915C9168
:1012A000139760E070E02AE0C5010E94BE0AC50104
:1012B0000E94300BF701A481B5818D919C9111970B
:1012C000009709F059C012962D913C911397232B4A
:1012D00009F052C01AC066E172E0D8018D919C916C
:1012E0000E94340BD8011896ED91FC911997309714
:1012F00061F009950AC0F8018485882331F061E224
:1013000072E0808191810E94340BE12CF12CD80194
:1013100054961C921E92539755961C92E114F10418
:1013200009F48ECEC70158C0F8014589442371F0F5
:101330008C3D910531F08D3D910529F48BED90E0C8
:1013400002C080EC90E0D80155961C92F8014189CA
:1013500052892417350708F073CE47855089B901A3
:101360006F5F7F4F748B638BFA01E20FF31F8083F3
:1013700067CE80E090E030C0FE82ED82E8E0EE0EC5
:10138000F11CFC82EB821A8219821296ED91FC917B
:101390001397309709F4B9CF0097D1F014962D9197
:1013A0003C911597A9015595479520FF0AC0DC018E
:1013B000A40FB51F2D913C91E20FF31F0190F08116
:1013C000E02DBE016F5F7F4F840F951F09959DCF64
:1013D000CE010196099599CF26960FB6F894DEBFF7
:1013E0000FBECDBFDF91CF911F910F91FF90EF9076
:1013F000DF90BF90AF909F908F900895CF92DF9233
:10140000EF92FF920F931F93CF93DF936C017A01BA
:101410008B01C0E0D0E0CE15DF0589F0D8016D91D9
:101420008D01D601ED91FC910190F081E02DC60176
:101430000995892B11F47E0102C02196ECCFC701DA
:10144000DF91CF911F910F91FF90EF90DF90CF90A0
:1014500008950E943E12FC0124813581FB014481E4
:1014600055812417350721F5FC0180819181FB010D
:1014700060817181009719F061157105A1F4611502
:10148000710549F0232BB1F0FB01808190E091952B
:10149000819591090AC0009769F0232B59F0FC014E
:1014A000808190E002C00E94591221E0892B19F03E
:1014B00020E001C021E0822F08950F931F93CF9366
:1014C000DF93EC0188819981009729F02A813B8183
:1014D0002617370788F48B016F5F7F4F0E947411C6
:1014E000009761F0998388831B830A832C813D8157
:1014F000232B11F4FC01108281E001C080E0DF9118
:10150000CF911F910F910895CF93DF93EC018881C4
:101510009981009711F00E94DC10198218821D82B7
:101520001C821B821A82DF91CF910895EF92FF9265
:101530000F931F93CF93DF93EC018B01611571051E
:1015400051F0CB010E9470127C01BC01CE010E94BF
:101550005D0A811104C0CE010E94840A07C0FD8289
:10156000EC82B801888199810E946912CE01DF91D5
:10157000CF911F910F91FF90EF9008954F925F923E
:101580006F927F92EF92FF920F931F93CF93DF930F
:10159000CDB7DEB7A1970FB6F894DEBF0FBECDBFB3
:1015A0007C01FA01CB0119A2223008F42AE08E0155
:1015B0000F5D1F4F422E512C612C712CBF01A301D6
:1015C00092010E941F10F901CA01015011096A30ED
:1015D00014F4605D01C0695CD8016C93232B242B4B
:1015E000252B61F7B801C7010E943A03A1960FB6F7
:1015F000F894DEBF0FBECDBFDF91CF911F910F9149
:10160000FF90EF907F906F905F904F900895CF92F2
:10161000DF92EF92FF920F931F93CF93DF93EC0132
:101620006A017B01E881F9810190F081E02D6DE292
:1016300009958C0144275527BA014C195D096E099B
:101640007F092AE0CE010E94BE0A800F911FDF9120
:10165000CF911F910F91FF90EF90DF90CF90089561
:1016600067E272E00C943A030F931F93CF93DF93DA
:10167000EC010E943A038C01CE010E94300B800FD6
:10168000911FDF91CF911F910F9108950C943A0310
:10169000CF92DF92EF92FF92CF93DF93EC010E9403
:1016A000EF046B017C010E94EF04AB01BC014C19FB
:1016B0005D096E097F09403D57406105710530F4B1
:1016C000CE010E940D08009771F302C080E090E007
:1016D000DF91CF91FF90EF90DF90CF900895AF9280
:1016E000BF92CF92DF92EF92FF920F931F93CF930F
:1016F000DF9380917E0390917F03DC01ED91FC915B
:101700000190F081E02D60EC099586E793E06C0193
:10171000990FEE08FF0800E010E0A701960161E0D4
:1017200070E084E793E00E94BE0584E793E00E94A6
:10173000450500917C0310917D0310927D0310926A
:101740007C0384E793E00E94480BEC01892BA9F10C
:101750004C815D816E817F81809180034C155D0598
:101760006E057F0581F4882341F06BE172E0809182
:101770007403909175030E94340B10937D030093C2
:101780007C0381E01FC08823E1F265E972E080916B
:101790007403909175030E94460BA0907403B0905F
:1017A00075034C815D816E817F812AE0C5010E94B5
:1017B000BE0AC5010E94300BC4CF10937D03009375
:1017C0007C0380E0DF91CF911F910F91FF90EF900C
:1017D000DF90CF90BF90AF9008950F931F93CF935A
:1017E000DF931092C0021092BF022091B302309199
:1017F000B4024091B5025091B60257FD2EC0EC01E3
:1018000002E010E065E170E08091B7029091B802CB
:101810000E94BE0543E050E06BE972E08091B702A0
:101820009091B8020E945B05FE0101900020E9F74B
:101830003197AF014C1B5D0BBE018091B7029091B7
:10184000B8020E945B058091B7029091B802DF91C7
:10185000CF911F910F910C944505DF91CF911F916E
:101860000F9108956F927F928F929F92AF92BF9245
:10187000CF92DF92EF92FF920F931F93CF93DF935C
:10188000CDB7DEB73C016B01ADB6BEB60E9470129B
:101890008C01C6010E94701211279801280F311D7A
:1018A000490182E0880E911C2D5F3F4FEDB7FEB7D6
:1018B000E21BF30B0FB6F894FEBF0FBEEDBF8DB762
:1018C0009EB701967C011182B30101960E946912B4
:1018D000C8010296B6018E0D9F1D0E946912A401D7
:1018E000B7018091C5029091C6020E945B050FB6B8
:1018F000F894BEBE0FBEADBEDF91CF911F910F9188
:10190000FF90EF90DF90CF90BF90AF909F908F901F
:101910007F906F900895CF92DF92EF92FF920F9396
:101920001F93E82FF92F05C0015011092109310932
:1019300061F1908196239417B9F305C00150110904
:101940002109310911F1908196239413F7CFC12C0D
:10195000D12CE12CF12C0AC08FEFC81AD80AE80A62
:10196000F80A0C151D052E053F0579F080818623A8
:10197000841791F36C2D7D2D8E2D9F2D1F910F912E
:10198000FF90EF90DF90CF90089560E070E080E0EE
:1019900090E01F910F91FF90EF90DF90CF9008950E
:1019A000CF93DF93CDB7DEB727970FB6F894DEBF9E
:1019B0000FBECDBF789484B5826084BD84B581604C
:1019C00084BD85B5826085BD85B5816085BD80910A
:1019D0006E00816080936E00109281008091810082
:1019E000826080938100809181008160809381007A
:1019F000809180008160809380008091B10084603C
:101A00008093B1008091B00081608093B00080919C
:101A10007A00846080937A0080917A00826080935B
:101A20007A0080917A00816080937A0080917A00B8
:101A3000806880937A001092C100E091E702F091F3
:101A4000E80282E08083E091E302F091E4021082F8
:101A5000E091E502F091E60280E180831092EF02CE
:101A6000E091EB02F091EC0286E08083E091E902E4
:101A7000F091EA02808180618083E091E902F09137
:101A8000EA02808188608083E091E902F091EA02B5
:101A9000808180688083E091E902F091EA02808190
:101AA0008F7D808361E08EE00E94B30461E08FE06F
:101AB0000E94B30460E080E10E94B30461E081E130
:101AC0000E94B30460E082E10E94B30461E08EE012
:101AD0000E94F00361E081E10E94F0036AE272E09B
:101AE00087ED92E00E94340B0E946F0B811103C0BE
:101AF0006CEB71E0F5CF63ED71E087ED92E00E9451
:101B0000340B1A8219821C821B821E821D826EE196
:101B100071E0CE0101960E94960A80E290E00E9458
:101B200047108C0180E2F80111928A95E9F7F801DB
:101B300011821082138212821582148260E070E09A
:101B4000C8010E945D0A811104C0C8010E94840A74
:101B500009C0F8011582148269E272E080819181E6
:101B60000E946212F801178216821186108615866D
:101B7000148617861686138A128A158A148A118E7D
:101B8000108E138E128ECE0101967C010817190754
:101B9000C9F0C980DA80C114D10489F0AD80BE805B
:101BA000B501C8010E945D0A882349F0F801B58299
:101BB000A482B601808191810E94621203C0C80193
:101BC0000E94840A8091CD029091CE02F801978FF5
:101BD000868F1093CE020093CD0289819A810E9454
:101BE000DC1080EE93E0F8019187808780ED93E030
:101BF0009787868780E294E0938F828F81EC97E0CD
:101C000090937D0380937C030E94C10780E99FE14C
:101C10009A8389831F8283EB92E09093BA02809328
:101C2000B90286EF92E09093BC028093BB021092BF
:101C3000BE021092BD0203E010E029EB32E0032E59
:101C4000000C440B550B64E170E08091B702909159
:101C5000B8020E94BE054CE050E065E472E080915D
:101C6000B7029091B8020E945B0542E050E0B701D4
:101C70008091B7029091B8020E945B0541E050E06C
:101C8000BE01695F7F4F8091B7029091B8020E94B8
:101C90005B058091B7029091B8020E944505809142
:101CA000B7029091B8020E94480B009791F0FC0196
:101CB000448155816681778177FD0BC04093B302E3
:101CC0005093B4026093B5027093B60280E090E046
:101CD00003C0FC0184819581892B39F062E572E0B3
:101CE00087ED92E00E94460BFFCF66E672E087ED3B
:101CF00092E00E94340B23E0E22EF12C33E2C32E5B
:101D0000D12C4CE1A42EB12C54E6752E6EE2862E19
:101D100099249A9484E793E00E940D080E94EF04AE
:101D20000091AD021091AE022091AF023091B0024D
:101D30001B012C01201A310A420A530A40EA2416D8
:101D40004BEB34064DE044065104F0F06093AD02D5
:101D50007093AE028093AF029093B0028EE00E9427
:101D6000A703019739F460E08EE00E94F00364E776
:101D700072E006C061E08EE00E94F00363E872E06A
:101D800087ED92E00E94340B0E94EF040091A902BB
:101D90001091AA022091AB023091AC021B012C01E0
:101DA000201A310A420A530A40ED241647E034064D
:101DB0004104510408F481C06093A9027093AA02FF
:101DC0008093AB029093AC0280910C04882329F09D
:101DD00061E080910A040E94B30460E080910A04EB
:101DE0000E94F003C7010197F1F761E080910A04B6
:101DF0000E94F003C6010197F1F760E080910A04A8
:101E00000E94F00380910C04882329F060E0809107
:101E10000A040E94B30480910B0490E0FC01EE5A86
:101E2000FE4F6491FC01E25CFE4FE491F0E0EE0FA6
:101E3000FF1FEC5CFE4F8591949100910D04109171
:101E40000E0420910F04309110043F70462F0E9421
:101E50008B0C611571058105910539F0DC01CB0111
:101E60000196A11DB11DBF7003C080E090E0DC01B0
:101E7000B5010E94F70F769567956A5F7109769EA6
:101E8000C001779E900D1124B4010E940B10AB018C
:101E9000770F660B770B77FF05C087ED92E00E9406
:101EA000070B05C02AE087ED92E00E94BE0A63E9B5
:101EB00072E087ED92E00E94340B0E94A0012ACFCD
:101EC0000F931F93CF93DF93C7EDD2E01B821A824B
:101ED00088EE93E0A0E0B0E08C839D83AE83BF8367
:101EE0008AE091E09983888385EC90E09D878C87D8
:101EF00084EC90E09F878E8780EC90E0998B888BB4
:101F000081EC90E09B8B8A8B82EC90E09D8B8C8B9C
:101F100086EC90E09F8B8E8B198E1A8E1B8E1C8EFA
:101F20000AE014E0F80112828FE0808380E181836F
:101F300061E08FE00E94B30460E0F80181810E94BB
:101F4000B30480E29EE4A0E0B0E0F80183839483D0
:101F5000A583B683E4E7F3E0D183C08313821282C2
:101F600015821482D387C28781E084878AE893E050
:101F7000908B878780E890E0928B818B148A138AFC
:101F8000158AA5ECB2E01196FC93EE9319961C927B
:101F90001E9218971B961C921E921A971D961C92C1
:101FA0001E921C97B093B202A093B1028BE396E00D
:101FB0001F969C938E931E97A3EBB2E017961C92EC
:101FC0001E92169719961C921E9218971596FC93BE
:101FD000EE9314974FEF5FEFBA014D935D936D93BE
:101FE0007C931397DF91CF911F910F910895AA1BB6
:101FF000BB1B51E107C0AA1FBB1FA617B70710F0F4
:10200000A61BB70B881F991F5A95A9F78095909525
:10201000BC01CD01089597FB072E16F4009407D05C
:1020200077FD09D00E94F70F07FC05D03EF490958C
:1020300081959F4F0895709561957F4F0895A1E216
:102040001A2EAA1BBB1BFD010DC0AA1FBB1FEE1F32
:10205000FF1FA217B307E407F50720F0A21BB30B7D
:10206000E40BF50B661F771F881F991F1A9469F7F9
:1020700060957095809590959B01AC01BD01CF0155
:102080000895EE0FFF1F0590F491E02D0994CF9372
:10209000DF938230910510F482E090E0E091130428
:1020A000F091140420E030E0C0E0D0E0309711F16E
:1020B0004081518148175907C0F04817590761F40A
:1020C00082819381209719F09B838A832BC0909300
:1020D00014048093130426C02115310519F042170A
:1020E000530718F49A01BE01DF01EF010280F3816A
:1020F000E02DDCCF2115310509F1281B390B2430E7
:10210000310590F412968D919C911397611571058C
:1021100021F0FB019383828304C090931404809385
:102120001304FD01329644C0FD01E20FF31F8193B9
:102130009193225031092D933C933AC02091110480
:1021400030911204232B41F42091020130910301BC
:102150003093120420931104209100013091010169
:102160002115310541F42DB73EB74091040150913E
:102170000501241B350BE0911104F0911204E217C4
:10218000F307A0F42E1B3F0B2817390778F0AC019A
:102190004E5F5F4F2417350748F04E0F5F1F509377
:1021A0001204409311048193919302C0E0E0F0E0A7
:1021B000CF01DF91CF9108950F931F93CF93DF93BA
:1021C000009709F48CC0FC013297138212820091AF
:1021D0001304109114040115110581F4208131813B
:1021E000820F931F20911104309112042817390790
:1021F00079F5F0931204E093110471C0D80140E026
:1022000050E0AE17BF0750F412962D913C911397F2
:10221000AD012115310509F1D901F3CF9D01DA0195
:102220003383228360817181860F971F8217930702
:1022300069F4EC0128813981260F371F2E5F3F4F4B
:10224000318320838A819B8193838283452B29F468
:10225000F0931404E093130442C01396FC93EE939E
:102260001297ED01499159919E01240F351FE217F4
:10227000F30771F480819181840F951F0296119666
:102280009C938E938281938113969C938E93129745
:10229000E0E0F0E0D80112968D919C9113970097A1
:1022A00019F0F8018C01F6CF8D919C9198012E5F69
:1022B0003F4F820F931F2091110430911204281771
:1022C000390769F4309729F410921404109213041A
:1022D00002C0138212821093120400931104DF9142
:1022E000CF911F910F910895A0E0B0E0EAE7F1E1EE
:1022F0000C947D12EC01009721F4CB010E94471051
:10230000B8C0FC01E60FF71F9C0122503109E2170B
:10231000F30708F4ACC0D9010D911C911197061771
:102320001707B0F00530110508F49FC0C8010497E5
:102330008617970708F499C002501109061B170B5E
:10234000019311936D937C93CF010E94DC108DC09B
:102350005B01A01AB10A4C01800E911EA0911304DA
:10236000B091140440E050E0E12CF12C109709F4F6
:102370004AC0A815B905D1F56D907C9011976301FD
:1023800082E0C80ED11CCA14DB0480F1A3014A19F3
:102390005B096A0182E0C80ED11C1296BC901297AC
:1023A0001396AC91B5E0CB16D10440F0B282A38372
:1023B00051834083D9016D937C930AC00E5F1F4FF8
:1023C000C301800F911FF90191838083EB2DFA2FB8
:1023D000E114F10431F0D7011396FC93EE931297B8
:1023E00044C0F0931404E09313043FC08D919C917A
:1023F00011974817590708F4AC017D0112960D900A
:10240000BC91A02DB3CF8091110490911204881536
:102410009905E1F446175707C8F48091000190919F
:102420000101009741F48DB79EB74091040150918E
:102430000501841B950BE817F907C8F4F093120403
:10244000E0931104F901718360830FC0CB010E94F6
:1024500047107C01009759F0A801BE010E9450125C
:10246000CE010E94DC10C70104C0CE0102C080E092
:1024700090E0CDB7DEB7EEE00C94991281E090E0E9
:10248000F8940C94B012FB01DC0104C08D91019012
:10249000801921F441505040C8F7881B990B0895CA
:1024A000FB01DC0102C001900D9241505040D8F771
:1024B0000895FB01DC018D91019080190110D9F381
:1024C000990B0895FB01DC0101900D920020E1F7CA
:1024D0000895FB01DC0105900D920020E1F70895BD
:1024E000FC0105900020E9F7809590958E0F9F1FC5
:1024F00008952F923F924F925F926F927F928F92A8
:102500009F92AF92BF92CF92DF92EF92FF920F9382
:102510001F93CF93DF93CDB7DEB7CA1BDB0B0FB68C
:10252000F894DEBF0FBECDBF09942A883988488849
:102530005F846E847D848C849B84AA84B984C884DF
:10254000DF80EE80FD800C811B81AA81B981CE0FD6
:10255000D11D0FB6F894DEBF0FBECDBFED010895BB
:04256000F894FFCF1D
:10256400000015048000000000003701FE0900018E
:10257400DE00F2007E015245535420636F646520EF
:10258400004F4E002F6A736F6E2E68746D3F74791E
:1025940070653D636F6D6D616E6426706172616D0F
:1025A4003D7377697463686C6967687426696478D5
:1025B4003D323726737769746368636D643D4F6E8B
:1025C400004F4646002F6A736F6E2E68746D3F7419
:1025D4007970653D636F6D6D616E642670617261C3
:1025E4006D3D7377697463686C69676874266964A0
:1025F400783D323726737769746368636D643D4F41
:10260400666600454C2D436C69656E7420287265BE
:102614002D297374617274696E672100454C2D43D2
:102624006C69656E742073796E63206661696C658C
:10263400642100454C2D436C69656E742073796E7A
:102644006365642100454C433A20676F7420002081
:102654004000454C433A20496E76616C69642043DE
:10266400524300524553505F563A2000524553504E
:102674005F43423A20004E4545445F53594E43213F
:1026840000434D443F3F000D0A006B6F6E69656364
:102694002073656B77656E636A6920737461727405
:1026A4006F77656A003139322E3136382E312E3546
:1026B40034005245535420626567696E206661692F
:1026C4006C65643A2000454C2D5245535420726584
:1026D40061647900776C61637A616D20706F6D70ED
:1026E4006B650077796C61637A616D20706F6D70D2
:1026F4006B650025004241443A20004745540000E0
:107800000C94343C0C94513C0C94513C0C94513CE1
:107810000C94513C0C94513C0C94513C0C94513CB4
:107820000C94513C0C94513C0C94513C0C94513CA4
:107830000C94513C0C94513C0C94513C0C94513C94
:107840000C94513C0C94513C0C94513C0C94513C84
:107850000C94513C0C94513C0C94513C0C94513C74
:107860000C94513C0C94513C11241FBECFEFD8E036
:10787000DEBFCDBF11E0A0E0B1E0ECE9FFE702C060
:1078800005900D92A230B107D9F712E0A2E0B1E065
:1078900001C01D92AD30B107E1F70E942D3D0C945F
:1078A000CC3F0C94003C982F959595959595959582
:1078B000905D8F708A307CF0282F295A8091C0000B
:1078C00085FFFCCF9093C6008091C00085FFFCCF60
:1078D0002093C6000895282F205DF0CF982F809127
:1078E000C00085FFFCCF9093C6000895EF92FF92F1
:1078F0000F931F93EE24FF2487018091C00087FD22
:1079000017C00894E11CF11C011D111D81E4E8164B
:1079100082E4F8068FE0080780E0180770F3E09132
:107920000401F091050109958091C00087FFE9CF1E
:107930008091C6001F910F91FF90EF9008950E94D3
:10794000763C982F8091C00085FFFCCF9093C600B5
:1079500091362CF490330CF09053892F089597555D
:10796000892F08951F930E949F3C182F0E949F3CCF
:107970001295107F810F1F9108951F93182F882350
:1079800021F00E94763C1150E1F71F9108951F935A
:10799000182F0E94763C803249F0809103018F5F5E
:1079A000809303018530C1F01F9108958091C0003C
:1079B00085FFFCCF84E18093C6008091C00085FFE5
:1079C000FCCF1093C6008091C00085FFFCCF80E102
:1079D0008093C6001F910895E0910401F091050184
:1079E00009951F9108950E94763C803241F0809164
:1079F00003018F5F80930301853081F008958091AA
:107A0000C00085FFFCCF84E18093C6008091C00058
:107A100085FFFCCF80E18093C6000895E0910401CA
:107A2000F09105010995089540E951E08823A1F0FE
:107A30002D9A28EE33E0FA013197F1F721503040CA
:107A4000D1F72D9828EE33E0FA013197F1F7215064
:107A50003040D1F7815061F708953F924F925F9285
:107A60006F927F928F929F92AF92BF92CF92DF924E
:107A7000EF92FF920F931F93CF93DF93000080E16B
:107A80008093C4001092C50088E18093C10086E015
:107A90008093C2005098589A259A81E00E94143D24
:107AA00024E1F22E9EE1E92E85E9D82E0FE0C02ECA
:107AB00010E1B12EAA24A394B1E49B2EA6E58A2E50
:107AC000F2E57F2EE0E26E2E79E4572E63E5462E36
:107AD00050E5352E0E94763C8033B1F18133B9F107
:107AE000803409F46FC0813409F476C0823409F41B
:107AF00085C0853409F488C0803531F1823521F1A3
:107B0000813511F1853509F485C0863509F48DC0BC
:107B1000843609F496C0843709F403C1853709F423
:107B200072C1863709F466C0809103018F5F80932C
:107B30000301853079F6E0910401F0910501099582
:107B40000E94763C803351F60E94F33CC3CF0E94E2
:107B5000763C803249F78091C00085FFFCCFF092DF
:107B6000C6008091C00085FFFCCF9092C600809136
:107B7000C00085FFFCCF8092C6008091C00085FFC9
:107B8000FCCF7092C6008091C00085FFFCCF609250
:107B9000C6008091C00085FFFCCF5092C600809146
:107BA000C00085FFFCCF4092C6008091C00085FFD9
:107BB000FCCF3092C6008091C00085FFFCCFB09210
:107BC000C60088CF0E94763C863808F4BDCF0E945C
:107BD000763C0E94F33C7ECF0E94763C803809F4CC
:107BE0009CC0813809F40BC1823809F43CC1883942
:107BF00009F48FC080E00E94C73C6CCF84E10E94F2
:107C0000BD3C0E94F33C66CF85E00E94BD3C0E94D3
:107C1000F33C60CF0E94763C809306010E94763C44
:107C2000809307010E94F33C55CF0E94763C80333D
:107C300009F41DC183E00E94BD3C80E00E94C73C66
:107C400049CF0E94763C809309020E94763C809343
:107C5000080280910C028E7F80930C020E94763C79
:107C6000853409F415C18091080290910902892B8D
:107C700089F000E010E00E94763CF801E85FFE4FDA
:107C800080830F5F1F4F80910802909109020817AF
:107C9000190788F30E94763C803209F045CF809125
:107CA0000C0280FF01C16091060170910701660F0F
:107CB000771F7093070160930601A0910802B091AD
:107CC00009021097C9F0E8E0F1E09B01AD014E0F09
:107CD0005F1FF999FECF32BD21BD819180BDFA9A17
:107CE000F99A2F5F3F4FE417F50799F76A0F7B1F4B
:107CF00070930701609306018091C00085FFFCCF5F
:107D0000F092C6008091C00085FFFCCFB092C60003
:107D1000E1CE83E00E94C73CDDCE82E00E94C73CFA
:107D2000D9CE0E94763C809309020E94763C8093D3
:107D300008028091060190910701880F991F909386
:107D40000701809306010E94763C853409F4A6C0A1
:107D500080910C028E7F80930C020E94763C8032D0
:107D600009F0B8CE8091C00085FFFCCFF092C6002C
:107D7000609108027091090261157105B9F140E046
:107D800050E080910C02A82FA170B82FB27011C0E2
:107D9000BB2309F45CC0E0910601F0910701319624
:107DA000F0930701E09306014F5F5F4F46175707B7
:107DB000E8F4AA2369F3F999FECF209106013091E6
:107DC000070132BD21BDF89A90B58091C00085FFB2
:107DD000FCCF9093C6002F5F3F4F30930701209355
:107DE00006014F5F5F4F4617570718F38091C00099
:107DF00085FDE5CE8091C00085FFF8CFE0CE81E023
:107E00000E94C73C67CE0E94763C803209F08CCE3F
:107E10008091C00085FFFCCFF092C6008091C00029
:107E200085FFFCCFE092C6008091C00085FFFCCFAB
:107E3000D092C6008091C00085FFFCCFC092C600E2
:107E40008091C00085FFFCCFB092C60043CEE09188
:107E50000601F091070194918091C00085FFFCCF4D
:107E60009093C6009CCF80E10E94C73C33CE0E9415
:107E7000763C0E94763C182F0E94763C112309F430
:107E800083C0113009F484C08FE00E94C73C22CE29
:107E900080910C02816080930C02E5CE80910C02EF
:107EA000816080930C0259CF809107018823880F4D
:107EB000880B8A2180930B02809106019091070123
:107EC000880F991F90930701809306018091080203
:107ED00080FF09C080910802909109020196909359
:107EE000090280930802F894F999FECF1127E091D6
:107EF0000601F0910701C8E0D1E08091080290915D
:107F00000902103091F40091570001700130D9F34B
:107F100003E000935700E89500915700017001308D
:107F2000D9F301E100935700E89509901990009169
:107F3000570001700130D9F301E000935700E89534
:107F40001395103498F011270091570001700130FB
:107F5000D9F305E000935700E895009157000170B0
:107F60000130D9F301E100935700E895329602976A
:107F700009F0C7CF103011F00296E5CF112480919F
:107F8000C00085FFB9CEBCCE8EE10E94C73CA2CD19
:0C7F900085E90E94C73C9ECDF894FFCF0D
:027F9C00800063
:040000030000780081
:00000001FF
