:100000000C9491000C94B9000C94B9000C94B900B4
:100010000C94B9000C94B9000C94B9000C944008ED
:100020000C94B9000C94B9000C94B9000C94B9006C
:100030000C94B9000C94B9000C94B9000C94B9005C
:100040000C943D030C94B9000C94B80A0C94920AD9
:100050000C94B9000C94B9000C94B9000C94B9003C
:100060000C94B9000C94B9004C4544206973206F7E
:100070006E0074657874004C4544206973206F6687
:100080006600746578740062746E5F6F6666006205
:10009000746E5F6F6E0048616E646C6572206E6F87
:1000A0007420666F756E6420666F722055524C3AEC
:1000B0000000000000240027002A000000000025A6
:1000C0000028002B000000000800020100000304CB
:1000D0000700000000000000002F53696D706C6580
:1000E0004C45442E68746D6C2E6A736F6E00000070
:1000F000000023002600290004040404040404046E
:1001000002020202020203030303030301020408C2
:100110001020408001020408102001020408102071
:10012000FD0E11241FBECFEFD8E0DEBFCDBF12E021
:10013000A0E0B1E0EEE9F4E202C005900D92AA3130
:10014000B107D9F723E0AAE1B2E001C01D92A539B9
:10015000B207E1F710E0C1E9D0E004C02197FE0149
:100160000E94DE0FC039D107C9F70E94720C0C94AF
:100170004D120C940000DC011296ED91FC91139746
:100180003097F1F02D913C91119721153105B1F087
:1001900014964D915C911597CA019595879540FFEE
:1001A0000AC0D901A80FB91F4D915C91E40FF51F4A
:1001B0000190F081E02D820F931F0994CB010994E7
:1001C0000895EF92FF920F931F93CF93DF93EC016B
:1001D00088819981EC81FD81228133818217930787
:1001E00060F5EA81FB81019111912EEF3FEF201B19
:1001F000310B7901A3E0EA22FF24FB83EA83019615
:1002000099838883CB019A010417150708F4980194
:10021000260F371F8217930729F04191DC014D9378
:10022000CD01F8CF9701200F311F8A819B81280FC4
:10023000391F3B832A83C80102C08FEF9FEFDF91F4
:10024000CF911F910F91FF90EF900895CF93DF937F
:10025000FC0180819181A481B58112962D913C9100
:10026000139782179307E0F4A281B3814D915D91BA
:10027000B383A283019691838083EB01B983A88322
:100280002EEF3FEF241B350B23703327240F351F30
:1002900082819381280F391F33832283CA0102C0D0
:1002A0008FEF9FEFDF91CF9108954627342F252FB1
:1002B000A901442784E0440F551F8A95E1F742279E
:1002C0005327CA01892F992782958F70482759276C
:1002D000CA01882735E0969587953A95E1F78427F6
:1002E00095270895EF92FF920F931F93CF93DF937B
:1002F0007C01C901EB018B01040F151FC017D10749
:1003000031F06991AC01C7010E945501F7CFDF912F
:10031000CF911F910F91FF90EF900895CF93DF93AE
:10032000EC018A859B85603CA1F06B3D21F5DC01E9
:10033000ED91FC910190F081E02D6BED09958A859E
:100340009B85DC01ED91FC910190F081E02D6DED3C
:1003500018C0DC01ED91FC910190F081E02D6BED76
:1003600009958A859B85DC01ED91FC910190F081D6
:10037000E02D6CED06C0DC01ED91FC910190F08167
:10038000E02DDF91CF910994EF92FF920F931F938D
:10039000CF93DF937C01EB018B01040F151FC01776
:1003A000D10729F06991C7010E948E01F8CFDF9132
:1003B000CF911F910F91FF90EF9008950F931F938E
:1003C000CF93DF936115710529F18B01EC01BC011D
:1003D000645F7F4F42E050E0C8010E94E100EC8181
:1003E000FD818485882371F066E171E080819181CF
:1003F0000E94900A6C857D85EC81FD8180819181D0
:100400000E94110CBE01605F7F4FC8010E9426014F
:100410009F878E87DF91CF911F910F91089581E182
:100420000E94EA0A892B29F068E670E082E790E0F2
:1004300004C067E770E082E890E00C94B80B83306A
:1004400081F028F4813099F08230A1F0089587304E
:10045000A9F08830B9F08430D1F4809180008F7D8C
:1004600003C0809180008F7780938000089584B5C9
:100470008F7702C084B58F7D84BD08958091B000D0
:100480008F7703C08091B0008F7D8093B000089576
:100490001F93CF93DF93282F30E0F901EB53FF4FE9
:1004A0008491F901E45FFE4FD491F901E850FF4FC8
:1004B000C491CC23C9F0162F81110E941F02EC2F8A
:1004C000F0E0EE0FFF1FE554FF4FA591B4918FB7F9
:1004D000F894111105C09C91ED2FE095E92302C01D
:1004E000EC91ED2BEC938FBFDF91CF911F9108958D
:1004F000EF92FF920F931F93CF93DF93CDB7DEB7A9
:100500002C970FB6F894DEBF0FBECDBF7C011A82C8
:1005100019821C821B821E821D820097D9F0FC0169
:1005200001900020E9F731978F01081B190BB801E2
:10053000CE0101960E94A709811105C0CE01019646
:100540000E94CE0907C01E830D83B70189819A815D
:100550000E94FF1118861F821A8619861C861B8628
:100560006FE870E0CE0107960E94E009BE01695F66
:100570007F4FCE0101960E947509182F8F819885B3
:100580000E947910112311F061E01BC018861F82B0
:100590001A8619861C861B8667E870E0CE010796CE
:1005A0000E94E009BE01695F7F4FCE0101960E9463
:1005B0007509182F8F8198850E947910112321F0D9
:1005C00060E081E10E94480289819A810E9479104D
:1005D0002C960FB6F894DEBF0FBECDBFDF91CF9142
:1005E0001F910F91FF90EF900895CF93DF9390E0CC
:1005F000FC01E45FFE4F2491FC01E850FF4F849121
:10060000882361F190E0880F991FFC01EF54FF4FA0
:10061000C591D491FC01E554FF4FA591B4916111AE
:1006200009C09FB7F8948881209582238883EC9134
:100630002E230BC0623061F49FB7F8943881822F6B
:10064000809583238883EC912E2B2C939FBF06C02B
:100650008FB7F894E8812E2B28838FBFDF91CF913D
:1006600008952FB7F8946091250270912602809129
:100670002702909128022FBF08951F920F920FB664
:100680000F9211242F933F938F939F93AF93BF9318
:100690008091250290912602A0912702B091280214
:1006A0003091240223E0230F2D3720F40196A11D61
:1006B000B11D05C026E8230F0296A11DB11D209390
:1006C00024028093250290932602A0932702B093E0
:1006D00028028091200290912102A0912202B091E3
:1006E00023020196A11DB11D809320029093210247
:1006F000A0932202B0932302BF91AF919F918F915B
:100700003F912F910F900FBE0F901F901895CF9390
:10071000DF93EC01BC01635F7F4F42E050E00E9439
:10072000C4018A859B85DC01ED91FC910190F081EB
:10073000E02D60ECDF91CF910994CF92DF92EF92A0
:10074000FF920F931F93CF93DF9300D0CDB7DEB707
:100750008C017B015A83498342E050E0BE016F5F08
:100760007F4F0E94C401F8012585368542E050E0A4
:10077000BE016F5F7F4FC8010E947201F80196872A
:100780008587C980DA80CE0CDF1CEC14FD0491F063
:10079000F7016081C8010E948E01F80145855685E8
:1007A000F70161917F01C8010E945501F801968708
:1007B0008587EBCFE980FA80F194E194F108F3E0CA
:1007C000EF22FF24F1E0EF1AF10878F060E0C801B1
:1007D0000E948E01F8014585568560E0C8010E949F
:1007E0005501F80196878587EDCF0F900F90DF9127
:1007F000CF911F910F91FF90EF90DF90CF900895D0
:10080000EF92FF920F931F93CF93DF93CDB7DEB795
:1008100028970FB6F894DEBF0FBECDBF7C017A8358
:1008200069832B833C834D835E8318870F83DC01B0
:100830001E961C921E921D971A968D919C911B9745
:10084000DC01ED91FC910190F081E02D60EC0995C7
:1008500042E050E0BE016F5F7F4FC7010E94C401BC
:10086000F7012585368542E050E0BE016F5F7F4F7E
:10087000C7010E947201D7011E969C938E931D970B
:1008800042E050E0BE01695F7F4FC7010E94C40192
:10089000F7012585368542E050E0BE01695F7F4F54
:1008A000C7010E947201D7011E969C938E931D97DB
:1008B00044E050E0BE016D5F7F4FC7010E94C4015C
:1008C000F7012585368544E050E0BE016D5F7F4F1E
:1008D000C7010E947201D7011E969C938E931D97AB
:1008E00028960FB6F894DEBF0FBECDBFDF91CF9133
:1008F0001F910F91FF90EF9008952F923F924F928A
:100900005F926F927F928F929F92AF92BF92CF929F
:10091000DF92EF92FF920F931F93CF93DF93CDB7A8
:10092000DEB728970FB6F894DEBF0FBECDBF8C019F
:100930002DB73EB738872F83E0903102F090320216
:1009400042E050E0BE016B5F7F4F0E94E100AD804E
:10095000BE80370132E0630E711C44E050E0B30109
:10096000C8010E94E100270186E0480E511C42E0C8
:1009700050E0B201C8010E94E100BE016D5F7F4FEF
:10098000C8010E9426014C01D7011896CD90DC9039
:1009900019972B803C80C114D10449F1F601848160
:1009A00095818815990541F460817181A401C10187
:1009B0000E94E011892B31F0D6015E96CD90DC903B
:1009C0005F97E9CFB2E0AB16B10409F449C01CF45B
:1009D000B7FEC3C0F8C0F3E0AF16B10409F0F3C02E
:1009E00084E0882E912CE2E1CE0ED11C66C0D701A6
:1009F000ED91FC918485882309F4E5C0C080D18005
:100A000006E910E0F8016491611103C000E010E014
:100A10000DC0D601ED91FC910190F081E02DC60151
:100A200009950F5F1F4F892B69F7F0CFD701ED9123
:100A3000FC91808191810815190579F0DC01ED9117
:100A4000FC91AB81BC81A00FB11F0190F081E02D22
:100A50006C9109950F5F1F4FE9CF0E947A0AB3C0CE
:100A60002DB63EB6BE016F5F7F4FC8010E942601C2
:100A70008C010196EDB7FEB7E81BF90B0FB6F894A1
:100A8000FEBF0FBEEDBF2DB73EB72F5F3F4F4901F1
:100A900069817A81A801C9010E94ED11F401E00F7A
:100AA000F11F1082B401C60148960E94BB000FB628
:100AB000F8943EBE0FBE2DBE50C0D8011496ED91E5
:100AC000FC911597828193818816990608F07BC066
:100AD000BE016F5F7F4FC8010E94260149805A8086
:100AE000D2011196FD0101900020E9F731975F01D5
:100AF000AA1ABB0A3C016A187B08C30101970E942D
:100B0000E40FD7011B969C938E931A97A301425032
:100B10005109FC01E40FF51F1082B5016E5F7F4F94
:100B2000640D751D1A968D919C911B970E94ED1175
:100B300069817A816F5F7F4FC6010E94BB00F70118
:100B4000828593850E947910D7011B961C921E9274
:100B50001A97BFEF8B1A9B0AB0CF0FEF10E024E675
:100B600030E040E050E06FE170E0F701808191817A
:100B70000E94000444E050E0B301D7018D919C91A4
:100B80000E949D0342E050E0B201F7018081918113
:100B90000E949D03D6016D917C91C601AB2811F492
:100BA000069601C00C960E94BB0040E050E060E059
:100BB00070E0F701808191810E949D03D7018D91A2
:100BC0009C910E948703EF81F8850FB6F894FEBFD1
:100BD0000FBEEDBF28960FB6F894DEBF0FBECDBF97
:100BE000DF91CF911F910F91FF90EF90DF90CF9009
:100BF000BF90AF909F908F907F906F905F904F903D
:100C00003F902F9008950F931F93CF93DF9300D0C1
:100C100000D0CDB7DEB761E271E087E592E00E94D7
:100C20007E0A0E943A0B811103C06AE371E0F5CF9E
:100C300061E571E087E592E00E947E0A01E010E044
:100C400020E030E0A9016EE170E0809145029091D2
:100C500046020E94000481E592E0092E000CAA0BD6
:100C6000BB0B89839A83AB83BC8344E050E0BE0115
:100C70006F5F7F4F80914502909146020E949D03D5
:100C800080914502909146020E9487030F900F9039
:100C90000F900F90DF91CF911F910F9108958F9238
:100CA0009F92AF92BF92DF92EF92FF920F931F93AA
:100CB000CF93DF9300D000D000D0CDB7DEB78C014A
:100CC000DD24D394D8011A968D919C911B97DC0159
:100CD000ED91FC910480F581E02D0995892B09F4B3
:100CE0008AC1D8011A968D919C911B97DC01ED91D8
:100CF000FC910680F781E02D09958B3D910519F453
:100D0000F801D58ADFCFD80153962D913C915497A5
:100D1000803C910509F04AC12830310508F437C1FB
:100D2000F801E784F0888485882309F484C063E6A9
:100D300071E0808191810E94900AD80153964D9173
:100D40005C91549760E070E02AE08D919C910E9444
:100D5000080A6DE671E0F801808191810E94900A95
:100D6000D8011F964D915C915097052E000C660B93
:100D7000770B20E18D919C910E94080A61E971E056
:100D8000F801808191810E94900AD7014D915C9178
:100D900060E070E020E1F801808191810E94080A02
:100DA00062E971E0D8018D919C910E94900AF7014F
:100DB000448155816681778120E1D8018D919C9194
:100DC0000E94080A62E971E0F801808191810E9425
:100DD000900AD70112964D915C91139760E070E0F4
:100DE00020E1F801808191810E94080A48E0A42E48
:100DF000B12CF8012389348980819181A216B30630
:100E0000C0F462E971E00E94900AD8011F96ED914A
:100E1000FC915097EA0DFB1D408150E060E070E0CE
:100E200020E18D919C910E94080ABFEFAB1ABB0A8A
:100E3000E0CF0E947A0AD8015396AD90BC905497A7
:100E4000B2E0AB1AB108F8018784908820E030E066
:100E5000A501B401C8010E947201F401EA0DFB1D55
:100E6000208131818217930761F0D8011C968C9103
:100E70001C97882309F48BC060E771E08D919C91E9
:100E800084C0F701808191818230910539F08330EF
:100E9000910519F1019709F070C05FC0D8011C9647
:100EA0008C911C97882309F474C061E871E08D91DE
:100EB0009C910E94900AF801A080B180D7011496FD
:100EC0004D915D916D917C9117972AE0C5010E942B
:100ED000080AC5010E947A0A5CC0F801848588234B
:100EE00059F16AE871E0808191810E94900AD701EE
:100EF00014964D915D916D917C9117972AE0F801C0
:100F0000808191810E94080A62E971E0D8018D9187
:100F10009C910E94900AF801A080B180D70112969E
:100F20004D915C91139760E070E02AE0C5010E944A
:100F3000080AC5010E947A0AF701A481B5818D9142
:100F40009C911197009709F059C012962D913C91F0
:100F50001397232B09F052C01AC064E971E0D8013D
:100F60008D919C910E947E0AD8011896ED91FC917A
:100F70001997309761F009950AC0F8018485882394
:100F800031F06FE971E0808191810E947E0AE12C4D
:100F9000F12CD80154961C921E92539755961C9290
:100FA000E114F10409F48ECEC70158C0F801458957
:100FB000442371F08C3D910531F08D3D910529F46C
:100FC0008BED90E002C080EC90E0D80155961C9229
:100FD000F801418952892417350708F073CE4785F7
:100FE0005089B9016F5F7F4F748B638BFA01E20FF9
:100FF000F31F808367CE80E090E030C0FE82ED82F8
:10100000E8E0EE0EF11CFC82EB821A821982129645
:10101000ED91FC911397309709F4B9CF0097D1F077
:1010200014962D913C911597A9015595479520FF50
:101030000AC0DC01A40FB51F2D913C91E20FF31FF4
:101040000190F081E02DBE016F5F7F4F840F951FEF
:1010500009959DCFCE010196099599CF26960FB699
:10106000F894DEBF0FBECDBFDF91CF911F910F91DE
:10107000FF90EF90DF90BF90AF909F908F9008957A
:101080001F920F920FB60F9211242F933F934F93FD
:101090005F936F937F938F939F93AF93BF93EF93E0
:1010A000FF93E0911E02F0911F020995FF91EF91CD
:1010B000BF91AF919F918F917F916F915F914F9170
:1010C0003F912F910F900FBE0F901F901895CF92C8
:1010D000DF92EF92FF920F931F93CF93DF936C01F8
:1010E0007A018B01C0E0D0E0CE15DF0589F0D80190
:1010F0006D918D01D601ED91FC910190F081E02D73
:10110000C6010995892B11F47E0102C02196ECCF0E
:10111000C701DF91CF911F910F91FF90EF90DF906A
:10112000CF900895FC01918D828D981761F0828D8A
:10113000DF01A80FB11D5D968C91928D9F5F9F730B
:10114000928F90E008958FEF9FEF0895FC01918DAD
:10115000828D981731F0828DE80FF11D858D90E01A
:1011600008958FEF9FEF0895FC01918D228D892FB7
:1011700090E0805C9F4F821B91098F73992708959F
:1011800087E592E00E94B40821E0892B09F420E071
:10119000822F0895FC01848DDF01A80FB11DA35A91
:1011A000BF4F2C91848D90E001968F739927848F87
:1011B000A689B7892C93A089B1898C9180648C937E
:1011C000938D848D981306C00288F389E02D808169
:1011D0008F7D80830895EF92FF920F931F93CF939B
:1011E000DF93EC0181E0888F9B8D8C8D981305C077
:1011F000E889F989808185FD24C0F62E0B8D10E0E9
:101200000F5F1F4F0F731127E02E8C8DE8120CC05B
:101210000FB607FCFACFE889F989808185FFF5CF01
:10122000CE010E94CA08F1CF8B8DFE01E80FF11D9F
:10123000E35AFF4FF0820B8FEA89FB89808180623D
:1012400007C0EE89FF896083E889F989808180641D
:10125000808381E090E0DF91CF911F910F91FF900B
:10126000EF900895CF93DF93EC01888D8823C9F028
:10127000EA89FB89808185FD05C0A889B9898C919F
:1012800086FD0FC00FB607FCF5CF808185FFF2CF3A
:10129000A889B9898C9185FFEDCFCE010E94CA083B
:1012A000E7CFDF91CF91089580E090E0892B29F07E
:1012B0000E94C00881110C94000008956115710509
:1012C00079F0FB0101900020E9F73197AF01461B4F
:1012D000570BDC01ED91FC910280F381E02D099424
:1012E00080E090E008950E94DB11FC0124813581AB
:1012F000FB01448155812417350721F5FC018081CC
:101300009181FB0160817181009719F06115710570
:10131000A1F46115710549F0232BB1F0FB01808127
:1013200090E09195819591090AC0009769F0232B6F
:1013300059F0FC01808190E002C00E94F61121E08A
:10134000892B19F020E001C021E0822F08950F932E
:101350001F93CF93DF93EC0188819981009729F047
:101360002A813B812617370788F48B016F5F7F4FF7
:101370000E941111009761F0998388831B830A836F
:101380002C813D81232B11F4FC01108281E001C0EE
:1013900080E0DF91CF911F910F910895CF93DF935C
:1013A000EC0188819981009711F00E9479101982CF
:1013B00018821D821C821B821A82DF91CF910895B0
:1013C000EF92FF920F931F93CF93DF93EC018B016A
:1013D0006115710551F0CB010E940D127C01BC0119
:1013E000CE010E94A709811104C0CE010E94CE093E
:1013F00007C0FD82EC82B801888199810E940612A3
:10140000CE01DF91CF911F910F91FF90EF90089542
:101410004F925F926F927F92EF92FF920F931F9382
:10142000CF93DF93CDB7DEB7A1970FB6F894DEBFA9
:101430000FBECDBF7C01FA01CB0119A2223008F406
:101440002AE08E010F5D1F4F422E512C612C712C12
:10145000BF01A30192010E94BC0FF901CA01015012
:1014600011096A3014F4605D01C0695CD8016C93A5
:10147000232B242B252B61F7B801C7010E945E099D
:10148000A1960FB6F894DEBF0FBECDBFDF91CF910E
:101490001F910F91FF90EF907F906F905F904F9012
:1014A0000895CF92DF92EF92FF920F931F93CF9305
:1014B000DF93EC016A017B01E881F9810190F08101
:1014C000E02D6DE209958C0144275527BA014C198E
:1014D0005D096E097F092AE0CE010E94080A800F8B
:1014E000911FDF91CF911F910F91FF90EF90DF90AF
:1014F000CF90089565EA71E00C945E090F931F93F5
:10150000CF93DF93EC010E945E098C01CE010E9413
:101510007A0A800F911FDF91CF911F910F9108954B
:101520000C945E091F920F920FB60F9211242F9305
:101530003F934F935F936F937F938F939F93AF935B
:10154000BF93EF93FF9387E592E00E94CA08FF9153
:10155000EF91BF91AF919F918F917F916F915F912B
:101560004F913F912F910F900FBE0F901F901895A4
:101570001F920F920FB60F9211242F938F939F9368
:10158000EF93FF93E0916702F09168028081E09110
:101590006D02F0916E0282FD12C090818091700206
:1015A0008F5F8F7320917102821751F0E09170026A
:1015B000F0E0E95AFD4F958F8093700201C0808161
:1015C000FF91EF919F918F912F910F900FBE0F90F0
:1015D0001F901895CF93DF93282F30E0F901EB533C
:1015E000FF4F8491F901E45FFE4FD491F901E85077
:1015F000FF4FC491CC2391F081110E941F02EC2F68
:10160000F0E0EE0FFF1FE251FF4FA591B491EC9176
:10161000ED2381E090E021F480E002C080E090E0E2
:10162000DF91CF910895CF92DF92EF92FF92CF9307
:10163000DF93EC010E9431036B017C010E943103B6
:10164000AB01BC014C195D096E097F09403D574053
:101650006105710530F4CE010E944F06009771F3C9
:1016600002C080E090E0DF91CF91FF90EF90DF909B
:10167000CF900895AF92BF92CF92DF92EF92FF92F8
:101680000F931F93CF93DF938091FE029091FF02FF
:10169000DC01ED91FC910190F081E02D60EC099569
:1016A00086EF92E06C01990FEE08FF0800E010E071
:1016B000A701960161E070E084EF92E00E940004CF
:1016C00084EF92E00E9487030091FC021091FD02DA
:1016D0001092FD021092FC0284EF92E00E94130B24
:1016E000EC01892BA9F14C815D816E817F81809114
:1016F00000034C155D056E057F0581F4882341F0DC
:1017000069E971E08091F4029091F5020E947E0AED
:101710001093FD020093FC0281E01FC08823E1F2D8
:1017200063E172E08091F4029091F5020E94900AC8
:10173000A090F402B090F5024C815D816E817F81B2
:101740002AE0C5010E94080AC5010E947A0AC4CF96
:101750001093FD020093FC0280E0DF91CF911F9176
:101760000F91FF90EF90DF90CF90BF90AF900895D2
:101770006F927F928F929F92AF92BF92CF92DF92A1
:10178000EF92FF920F931F93CF93DF93CDB7DEB706
:101790003C016B01ADB6BEB60E940D128C01C601B4
:1017A0000E940D1211279801280F311D490182E076
:1017B000880E911C2D5F3F4FEDB7FEB7E21BF30B78
:1017C0000FB6F894FEBF0FBEEDBF8DB79EB7019662
:1017D0007C011182B30101960E940612C801029693
:1017E000B6018E0D9F1D0E940612A401B7018091C3
:1017F0004502909146020E949D030FB6F894BEBE2A
:101800000FBEADBEDF91CF911F910F91FF90EF9072
:10181000DF90CF90BF90AF909F908F907F906F9010
:1018200008950F931F93CF93DF93EC01AB01770FD4
:10183000660B770B77FF03C00E94510A03C02AE0B2
:101840000E94080A8C01CE010E947A0A800F911F23
:10185000DF91CF911F910F910895CF92DF92EF9278
:10186000FF920F931F93E82FF92F05C00150110924
:101870002109310961F1908196239417B9F305C0CC
:10188000015011092109310911F190819623941316
:10189000F7CFC12CD12CE12CF12C0AC08FEFC81A44
:1018A000D80AE80AF80A0C151D052E053F0579F03F
:1018B00080818623841791F36C2D7D2D8E2D9F2D95
:1018C0001F910F91FF90EF90DF90CF90089560E00F
:1018D00070E080E090E01F910F91FF90EF90DF901B
:1018E000CF900895CF93DF93CDB7DEB727970FB68C
:1018F000F894DEBF0FBECDBF789484B5826084BDFE
:1019000084B5816084BD85B5826085BD85B5816003
:1019100085BD80916E00816080936E001092810081
:10192000809181008260809381008091810081603C
:1019300080938100809180008160809380008091FD
:10194000B10084608093B1008091B0008160809389
:10195000B00080917A00846080937A0080917A0050
:10196000826080937A0080917A00816080937A000F
:1019700080917A00806880937A001092C100E09193
:101980006702F091680282E08083E0916302F09147
:1019900064021082E0916502F09166028FEC808310
:1019A00010926F02E0916B02F0916C0286E08083EE
:1019B000E0916902F0916A02808180618083E09108
:1019C0006902F0916A02808188608083E0916902F7
:1019D000F0916A02808180688083E0916902F091D1
:1019E0006A0280818F7D808361E08EE00E94F50233
:1019F00061E08FE00E94F50260E080E10E94F50264
:101A000061E081E10E94F50260E08EE00E94480200
:101A100068EA71E087E592E00E947E0A0E943A0B34
:101A2000811103C06AE371E0F5CF61E571E087E5FC
:101A300092E00E947E0A1A8219821C821B821E82F8
:101A40001D8269ED70E0CE0101960E94E00980E2FE
:101A500090E00E94E40F8C0180E2F80111928A95D7
:101A6000E9F7F80111821082138212821582148222
:101A700060E070E0C8010E94A709811104C0C8019C
:101A80000E94CE0909C0F8011582148267EA71E04C
:101A9000808191810E94FF11F801178216821186C0
:101AA00010861586148617861686138A128A158A5A
:101AB000148A118E108E138E128ECE0101967C0127
:101AC00008171907C9F0C980DA80C114D10489F058
:101AD000AD80BE80B501C8010E94A709882349F0E6
:101AE000F801B582A482B601808191810E94FF1124
:101AF00003C0C8010E94CE0980914D0290914E0210
:101B0000F801978F868F10934E0200934D028981C2
:101B10009A810E9479108FE092E0F8019187808786
:101B20009787868788E792E0938F828F83E096E09D
:101B30009093FD028093FC020E94030680E99FE1DE
:101B40009A8389831F8283E392E090933A02809381
:101B500039028EED91E090933C0280933B0210920B
:101B60003E0210923D0203E010E029E332E0032E32
:101B7000000C440B550B64E170E0809137029091AA
:101B800038020E9400044CE050E063EC71E0809168
:101B90003702909138020E949D0342E050E0B70165
:101BA00080913702909138020E949D0341E050E0FD
:101BB000BE01695F7F4F80913702909138020E9489
:101BC0009D0380913702909138020E948703809193
:101BD0003702909138020E94130B009791F0FC019C
:101BE000448155816681778177FD0BC04093330234
:101BF00050933402609335027093360280E090E097
:101C000003C0FC0184819581892B39F060ED71E07E
:101C100087E592E00E94900AFFCF64EE71E087E5CD
:101C200092E00E947E0A23E0E22EF12C33E2C32EE2
:101C3000D12C4CE1A42EB12C54E6752E6EE2862EEA
:101C400099249A9484EF92E00E944F060E943103F7
:101C500000912D0210912E0220912F02309130021E
:101C60001B012C01201A310A420A530A40ED2416A6
:101C700047E0340641045104F0F060932D02709364
:101C80002E0280932F02909330028EE00E94EA0A87
:101C9000892B39F461E08EE00E94480262EF71E026
:101CA00006C060E08EE00E94480261E072E087E5D5
:101CB00092E00E947E0A0E94310300912902109155
:101CC0002A0220912B0230912C021B012C01201A98
:101CD000310A420A530A48EE241643E0340641040E
:101CE000510408F487C06093290270932A028093FC
:101CF0002B0290932C0280918C03882329F061E0C1
:101D000080918A030E94F50260E080918A030E941C
:101D10004802C7010197F1F761E080918A030E94B0
:101D20004802C6010197F1F760E080918A030E94A2
:101D3000480280918C03882329F060E080918A0317
:101D40000E94F50280918B0390E0FC01E45FFE4F5E
:101D50006491FC01E850FF4FE491F0E0EE0FFF1FAB
:101D6000E251FF4F8591949100918D0310918E0364
:101D700020918F03309190033F70462F0E942D0CCD
:101D8000611571058105910539F0DC01CB010196E2
:101D9000A11DB11DBF7003C080E090E0DC01B50162
:101DA0000E94940F8B0116950795B80187E592E084
:101DB0000E94110C0A5F1109709EC001719E900D66
:101DC0001124B4010E94A80FAB01770F660B770BAB
:101DD00077FF05C087E592E00E94510A05C02AE01E
:101DE00087E592E00E94080A61E172E087E592E0EF
:101DF0000E947E0A0E94540925CF0F931F93CF9310
:101E0000DF93C7E5D2E01B821A8288EE93E0A0E060
:101E1000B0E08C839D83AE83BF838AE091E0998399
:101E2000888385EC90E09D878C8784EC90E09F8789
:101E30008E8780EC90E0998B888B81EC90E09B8B77
:101E40008A8B82EC90E09D8B8C8B86EC90E09F8B54
:101E50008E8B198E1A8E1B8E1C8E0AE813E0F801E9
:101E600012828FE0808380E1818361E08FE00E94B5
:101E7000F50260E0F80181810E94F50280E29EE4B3
:101E8000A0E0B0E0F80183839483A583B683E4EFF8
:101E9000F2E0D183C0831382128215821482D38729
:101EA000C28781E084878AE093E0908B878780E80F
:101EB00090E0928B818B148A138A158AA5E4B2E094
:101EC0001196FC93EE9319961C921E9218971B96EE
:101ED0001C921E921A971D961C921E921C97B093EC
:101EE0003202A09331028DE794E01F969C938E936B
:101EF0001E97A3E3B2E017961C921E9216971996AE
:101F00001C921E9218971596FC93EE9314974FEF20
:101F10005FEFBA014D935D936D937C931397DF91BF
:101F2000CF911F910F910895AA1BBB1B51E107C0D0
:101F3000AA1FBB1FA617B70710F0A61BB70B881F59
:101F4000991F5A95A9F780959095BC01CD010895E8
:101F500097FB072E16F4009407D077FD09D00E9456
:101F6000940F07FC05D03EF4909581959F4F0895FE
:101F7000709561957F4F0895A1E21A2EAA1BBB1B95
:101F8000FD010DC0AA1FBB1FEE1FFF1FA217B30745
:101F9000E407F50720F0A21BB30BE40BF50B661F5B
:101FA000771F881F991F1A9469F76095709580951F
:101FB00090959B01AC01BD01CF010895EE0FFF1F6D
:101FC0000590F491E02D0994CF93DF938230910531
:101FD00010F482E090E0E0919303F091940320E00C
:101FE00030E0C0E0D0E0309711F1408151814817D6
:101FF0005907C0F04817590761F4828193812097EF
:1020000019F09B838A832BC090939403809393034E
:1020100026C02115310519F04217530718F49A010B
:10202000BE01DF01EF010280F381E02DDCCF21153D
:10203000310509F1281B390B2430310590F4129633
:102040008D919C9113976115710521F0FB0193838C
:10205000828304C09093940380939303FD0132968E
:1020600044C0FD01E20FF31F819391932250310987
:102070002D933C933AC02091910330919203232BEE
:1020800041F4209102013091030130939203209397
:10209000910320910001309101012115310541F496
:1020A0002DB73EB74091040150910501241B350B1B
:1020B000E0919103F0919203E217F307A0F42E1B35
:1020C0003F0B2817390778F0AC014E5F5F4F24179C
:1020D000350748F04E0F5F1F5093920340939103D2
:1020E0008193919302C0E0E0F0E0CF01DF91CF91C6
:1020F00008950F931F93CF93DF93009709F48CC03B
:10210000FC01329713821282009193031091940381
:102110000115110581F420813181820F931F2091D7
:102120009103309192032817390779F5F0939203C0
:10213000E093910371C0D80140E050E0AE17BF07B3
:1021400050F412962D913C911397AD012115310554
:1021500009F1D901F3CF9D01DA0133832283608134
:102160007181860F971F8217930769F4EC0128810C
:102170003981260F371F2E5F3F4F318320838A819D
:102180009B8193838283452B29F4F0939403E093FE
:10219000930342C01396FC93EE931297ED0149917D
:1021A00059919E01240F351FE217F30771F48081C6
:1021B0009181840F951F029611969C938E93828134
:1021C000938113969C938E931297E0E0F0E0D801F0
:1021D00012968D919C911397009719F0F8018C013C
:1021E000F6CF8D919C9198012E5F3F4F820F931FE8
:1021F00020919103309192032817390769F43097A1
:1022000029F4109294031092930302C01382128255
:102210001093920300939103DF91CF911F910F913F
:102220000895A0E0B0E0E7E1F1E10C941A12EC01AE
:10223000009721F4CB010E94E40FB8C0FC01E60F27
:10224000F71F9C0122503109E217F30708F4ACC0D4
:10225000D9010D911C91119706171707B0F00530A1
:10226000110508F49FC0C80104978617970708F462
:1022700099C002501109061B170B019311936D931E
:102280007C93CF010E9479108DC05B01A01AB10A26
:102290004C01800E911EA0919303B091940340E0F5
:1022A00050E0E12CF12C109709F44AC0A815B905AB
:1022B000D1F56D907C901197630182E0C80ED11C1E
:1022C000CA14DB0480F1A3014A195B096A0182E0A8
:1022D000C80ED11C1296BC9012971396AC91B5E023
:1022E000CB16D10440F0B282A38351834083D9013D
:1022F0006D937C930AC00E5F1F4FC301800F911F27
:10230000F90191838083EB2DFA2FE114F10431F070
:10231000D7011396FC93EE93129744C0F093940365
:10232000E09393033FC08D919C91119748175907F3
:1023300008F4AC017D0112960D90BC91A02DB3CF95
:10234000809191039091920388159905E1F44617C5
:102350005707C8F48091000190910101009741F462
:102360008DB79EB74091040150910501841B950BD8
:10237000E817F907C8F4F0939203E0939103F90189
:10238000718360830FC0CB010E94E40F7C01009732
:1023900059F0A801BE010E94ED11CE010E947910F2
:1023A000C70104C0CE0102C080E090E0CDB7DEB727
:1023B000EEE00C94361281E090E0F8940C944D120B
:1023C000FB01DC0104C08D910190801921F4415082
:1023D0005040C8F7881B990B0895FB01DC0102C02F
:1023E00001900D9241505040D8F70895FB01DC0157
:1023F0008D91019080190110D9F3990B0895FB017B
:10240000DC0101900D920020E1F70895FB01DC0151
:1024100005900D920020E1F70895FC010590002041
:10242000E9F7809590958E0F9F1F08952F923F9208
:102430004F925F926F927F928F929F92AF92BF92D4
:10244000CF92DF92EF92FF920F931F93CF93DF9380
:10245000CDB7DEB7CA1BDB0B0FB6F894DEBF0FBEDD
:10246000CDBF09942A88398848885F846E847D842A
:102470008C849B84AA84B984C884DF80EE80FD802C
:102480000C811B81AA81B981CE0FD11D0FB6F894A2
:0E249000DEBF0FBECDBFED010895F894FFCF63
:10249E0000009503800000000000EB086708B408F8
:1024AE009208A60832095245535420636F64652082
:1024BE0000454C2D436C69656E74202872652D297C
:1024CE007374617274696E672100454C2D436C699B
:1024DE00656E742073796E63206661696C65642124
:1024EE0000454C2D436C69656E742073796E63657F
:1024FE00642100454C433A20676F74200020400051
:10250E00454C433A20496E76616C696420435243D0
:10251E0000524553505F563A2000524553505F4388
:10252E00423A20004E4545445F53594E43210043E5
:10253E004D443F3F000D0A006B6F6E69656320735B
:10254E00656B77656E636A692073746172746F77F9
:10255E00656A003139322E3136382E312E3534003F
:10256E005245535420626567696E206661696C65D9
:10257E00643A2000454C2D524553542072656164D7
:10258E007900776C61637A616D20706F6D706B6529
:10259E000077796C61637A616D20706F6D706B6519
:0A25AE000025004241443A200000DD
:00000001FF
