:100000000C9491000C94B9000C94B9000C94B900B4
:100010000C94B9000C94B9000C94B9000C945309D9
:100020000C94B9000C94B9000C94B9000C94B9006C
:100030000C94B9000C94B9000C94B9000C94B9005C
:100040000C94AC050C94B9000C9455050C942F0538
:100050000C94B9000C94B9000C94B9000C94B9003C
:100060000C94B9000C94B9004C4544206973206F7E
:100070006E0074657874004C4544206973206F6687
:100080006600746578740062746E5F6F6666006205
:10009000746E5F6F6E0048616E646C6572206E6F87
:1000A0007420666F756E6420666F722055524C3AEC
:1000B0000000000008000201000003040700000027
:1000C00000000000002F53696D706C654C45442E94
:1000D00068746D6C2E6A736F6E000000000024005F
:1000E00027002A000000000023002600290000004D
:1000F0000000250028002B00040404040404040468
:1001000002020202020203030303030301020408C2
:100110001020408001020408102001020408102071
:10012000EE0E11241FBECFEFD8E0DEBFCDBF11E031
:10013000A0E0B1E0E4E8F4E202C005900D92A83E30
:10014000B107D9F723E0A8EEB1E001C01D92AC35AC
:10015000B207E1F710E0C1E9D0E004C02197FE0149
:100160000E94D10FC039D107C9F70E94A00C0C948E
:1001700040120C940000CF92DF92EF92FF920F9307
:100180001F93CF93DF936C017A018B01C0E0D0E025
:10019000CE15DF0589F0D8016D918D01D601ED9165
:1001A000FC910190F081E02DC6010995892B11F495
:1001B0007E0102C02196ECCFC701DF91CF911F9144
:1001C0000F91FF90EF90DF90CF900895FC01918DFB
:1001D000828D981761F0828DDF01A80FB11D5D96A9
:1001E0008C91928D9F5F9F73928F90E008958FEF17
:1001F0009FEF0895FC01918D828D981731F0828DCB
:10020000E80FF11D858D90E008958FEF9FEF089521
:10021000FC01918D228D892F90E0805C9F4F821B85
:1002200091098F739927089583E192E00E94080154
:1002300021E0892B09F420E0822F0895FC01848DB0
:10024000DF01A80FB11DA35ABF4F2C91848D90E000
:1002500001968F739927848FA689B7892C93A089DB
:10026000B1898C9180648C93938D848D981306C092
:100270000288F389E02D80818F7D80830895EF923D
:10028000FF920F931F93CF93DF93EC0181E0888F50
:100290009B8D8C8D981305C0E889F989808185FD37
:1002A00024C0F62E0B8D10E00F5F1F4F0F73112728
:1002B000E02E8C8DE8120CC00FB607FCFACFE8894F
:1002C000F989808185FFF5CFCE010E941E01F1CF13
:1002D0008B8DFE01E80FF11DE35AFF4FF0820B8F6B
:1002E000EA89FB898081806207C0EE89FF8960838B
:1002F000E889F98980818064808381E090E0DF91E2
:10030000CF911F910F91FF90EF900895CF93DF93BE
:10031000EC01888D8823C9F0EA89FB89808185FDFD
:1003200005C0A889B9898C9186FD0FC00FB607FC5E
:10033000F5CF808185FFF2CFA889B9898C9185FF9F
:10034000EDCFCE010E941E01E7CFDF91CF9108953E
:1003500080E090E0892B29F00E94140181110C9417
:1003600000000895833081F028F4813099F08230C4
:10037000A1F008958730A9F08830B9F08430D1F425
:10038000809180008F7D03C0809180008F77809363
:100390008000089584B58F7702C084B58F7D84BDB9
:1003A00008958091B0008F7703C08091B0008F7D59
:1003B0008093B0000895CF93DF93282F30E0F901A8
:1003C000EF54FF4F8491F901E45FFE4FD491F9019E
:1003D000E850FF4FC491CC2391F081110E94B201EB
:1003E000EC2FF0E0EE0FFF1FEC51FF4FA591B49101
:1003F000EC91ED2381E090E021F480E002C080E008
:1004000090E0DF91CF9108951F93CF93DF93282F32
:1004100030E0F901EF54FF4F8491F901E45FFE4FA2
:10042000D491F901E850FF4FC491CC23C9F0162FA5
:1004300081110E94B201EC2FF0E0EE0FFF1FE2519C
:10044000FF4FA591B4918FB7F894111105C09C91FD
:10045000ED2FE095E92302C0EC91ED2BEC938FBFDB
:10046000DF91CF911F910895CF93DF9390E0FC012E
:10047000E45FFE4F2491FC01E850FF4F84918823F4
:1004800061F190E0880F991FFC01E652FF4FC59182
:10049000D491FC01E251FF4FA591B491611109C0C3
:1004A0009FB7F8948881209582238883EC912E232E
:1004B0000BC0623061F49FB7F8943881822F809529
:1004C00083238883EC912E2B2C939FBF06C08FB77C
:1004D000F894E8812E2B28838FBFDF91CF91089568
:1004E0002FB7F8946091EF017091F0018091F101C4
:1004F0009091F2012FBF0895DC011296ED91FC91CD
:1005000013973097F1F02D913C91119721153105FA
:10051000B1F014964D915C911597CA019595879508
:1005200040FF0AC0D901A80FB91F4D915C91E40F9B
:10053000F51F0190F081E02D820F931F0994CB01EC
:1005400009940895EF92FF920F931F93CF93DF9337
:10055000EC0188819981EC81FD81228133818217B0
:10056000930760F5EA81FB81019111912EEF3FEF36
:10057000201B310B7901A3E0EA22FF24FB83EA83ED
:10058000019699838883CB019A010417150708F413
:100590009801260F371F8217930729F04191DC013C
:1005A0004D93CD01F8CF9701200F311F8A819B8198
:1005B000280F391F3B832A83C80102C08FEF9FEFAA
:1005C000DF91CF911F910F91FF90EF900895CF93FE
:1005D000DF93FC0180819181A481B58112962D91D8
:1005E0003C91139782179307E0F4A281B3814D9158
:1005F0005D91B383A283019691838083EB01B983DC
:10060000A8832EEF3FEF241B350B23703327240FD5
:10061000351F82819381280F391F33832283CA01BA
:1006200002C08FEF9FEFDF91CF9108954627342FBF
:10063000252FA901442784E0440F551F8A95E1F72F
:1006400042275327CA01892F992782958F704827FF
:100650005927CA01882735E0969587953A95E1F79D
:10066000842795270895CF93DF93EC018A859B8596
:10067000603CA1F06B3D21F5DC01ED91FC91019016
:10068000F081E02D6BED09958A859B85DC01ED916C
:10069000FC910190F081E02D6DED18C0DC01ED9131
:1006A000FC910190F081E02D6BED09958A859B8589
:1006B000DC01ED91FC910190F081E02D6CED06C024
:1006C000DC01ED91FC910190F081E02DDF91CF9163
:1006D0000994EF92FF920F931F93CF93DF937C01C6
:1006E000EB018B01040F151FC017D10729F0699189
:1006F000C7010E943303F8CFDF91CF911F910F9173
:10070000FF90EF900895CF93DF93EC01BC01635FFE
:100710007F4F42E050E00E9469038A859B85DC019F
:10072000ED91FC910190F081E02D60ECDF91CF9193
:10073000099481E10E94DB01892B29F068E670E0D1
:1007400082E790E004C067E770E082E890E00C94F4
:100750008B0BCF93DF93EC0188819981009711F087
:100760000E946C10198218821D821C821B821A82C0
:10077000DF91CF9108950E94CE11FC012481358133
:10078000FB01448155812417350721F5FC01808147
:100790009181FB0160817181009719F061157105EC
:1007A000A1F46115710549F0232BB1F0FB018081A3
:1007B00090E09195819591090AC0009769F0232BEB
:1007C00059F0FC01808190E002C00E94E91121E013
:1007D000892B19F020E001C021E0822F08950F93AA
:1007E0001F93CF93DF93EC0188819981009729F0C3
:1007F0002A813B812617370788F48B016F5F7F4F73
:100800000E940411009761F0998388831B830A83F7
:100810002C813D81232B11F4FC01108281E001C069
:1008200080E0DF91CF911F910F910895EF92FF9299
:100830000F931F93CF93DF93EC018B01611571052B
:1008400051F0CB010E9400127C01BC01CE010E943C
:10085000EF03811104C0CE010E94A90307C0FD82ED
:10086000EC82B801888199810E94F911CE01DF9153
:10087000CF911F910F91FF90EF900895EF92FF920B
:100880000F931F93CF93DF93CDB7DEB72C970FB69F
:10089000F894DEBF0FBECDBF7C011A8219821C8284
:1008A0001B821E821D820097D9F0FC01019000205E
:1008B000E9F731978F01081B190BB801CE0101969A
:1008C0000E94EF03811105C0CE0101960E94A90389
:1008D00007C01E830D83B70189819A810E94F2119E
:1008E00018861F821A8619861C861B866FE870E0A0
:1008F000CE0107960E941604BE01695F7F4FCE01AC
:1009000001960E94BD03182F8F8198850E946C105C
:10091000112311F061E01BC018861F821A86198608
:100920001C861B8667E870E0CE0107960E941604BD
:10093000BE01695F7F4FCE0101960E94BD03182F53
:100940008F8198850E946C10112321F060E081E175
:100950000E94040289819A810E946C102C960FB625
:10096000F894DEBF0FBECDBFDF91CF911F910F91E5
:10097000FF90EF9008956115710579F0FB010190EA
:100980000020E9F73197AF01461B570BDC01ED91D1
:10099000FC910280F381E02D099480E090E00895BD
:1009A0004F925F926F927F92EF92FF920F931F93FD
:1009B000CF93DF93CDB7DEB7A1970FB6F894DEBF24
:1009C0000FBECDBF7C01FA01CB0119A2223008F481
:1009D0002AE08E010F5D1F4F422E512C612C712C8D
:1009E000BF01A30192010E94AF0FF901CA0101509A
:1009F00011096A3014F4605D01C0695CD8016C9320
:100A0000232B242B252B61F7B801C7010E94BB04BF
:100A1000A1960FB6F894DEBF0FBECDBFDF91CF9188
:100A20001F910F91FF90EF907F906F905F904F908C
:100A300008950F931F93CF93DF93EC010E94BB04A3
:100A40008C0166E171E0CE010E94BB04800F911F12
:100A5000DF91CF911F910F9108950C94BB041F92C9
:100A60000F920FB60F9211242F933F934F935F93E2
:100A70006F937F938F939F93AF93BF93EF93FF9366
:100A800083E192E00E941E01FF91EF91BF91AF912F
:100A90009F918F917F916F915F914F913F912F9196
:100AA0000F900FBE0F901F9018951F920F920FB6C8
:100AB0000F9211242F938F939F93EF93FF93E091C5
:100AC0002302F09124028081E0912902F0912A0210
:100AD00082FD12C0908180912C028F5F8F732091D4
:100AE0002D02821751F0E0912C02F0E0ED5EFD4FF7
:100AF000958F80932C0201C08081FF91EF919F918F
:100B00008F912F910F900FBE0F901F9018953FB7A8
:100B1000F8948091F3019091F401A091F501B091C6
:100B2000F60126B5A89B05C02F3F19F00196A11D1F
:100B3000B11D3FBFBA2FA92F982F8827820F911D73
:100B4000A11DB11DBC01CD0142E0660F771F881FBA
:100B5000991F4A95D1F708951F920F920FB60F92E1
:100B600011242F933F938F939F93AF93BF938091C3
:100B7000EF019091F001A091F101B091F20130915B
:100B8000EE0123E0230F2D3720F40196A11DB11DA6
:100B900005C026E8230F0296A11DB11D2093EE018A
:100BA0008093EF019093F001A093F101B093F201D3
:100BB0008091F3019091F401A091F501B091F601BB
:100BC0000196A11DB11D8093F3019093F401A093B0
:100BD000F501B093F601BF91AF919F918F913F9135
:100BE0002F910F900FBE0F901F901895EF92FF92CC
:100BF0000F931F93CF93DF937C01C901EB018B010E
:100C0000040F151FC017D10731F06991AC01C7015E
:100C10000E941603F7CFDF91CF911F910F91FF90A4
:100C2000EF900895EF92FF920F931F93CF93DF936E
:100C3000CDB7DEB728970FB6F894DEBF0FBECDBF95
:100C40007C017A8369832B833C834D835E83188781
:100C50000F83DC011E961C921E921D971A968D9191
:100C60009C911B97DC01ED91FC910190F081E02DAE
:100C700060EC099542E050E0BE016F5F7F4FC70115
:100C80000E946903F7012585368542E050E0BE01E8
:100C90006F5F7F4FC7010E94F605D7011E969C9398
:100CA0008E931D9742E050E0BE01695F7F4FC70100
:100CB0000E946903F7012585368542E050E0BE01B8
:100CC000695F7F4FC7010E94F605D7011E969C936E
:100CD0008E931D9744E050E0BE016D5F7F4FC701CA
:100CE0000E946903F7012585368544E050E0BE0186
:100CF0006D5F7F4FC7010E94F605D7011E969C933A
:100D00008E931D9728960FB6F894DEBF0FBECDBF09
:100D1000DF91CF911F910F91FF90EF900895CF92A7
:100D2000DF92EF92FF920F931F93CF93DF9300D048
:100D3000CDB7DEB78C017B015A83498342E050E096
:100D4000BE016F5F7F4F0E946903F80125853685DC
:100D500042E050E0BE016F5F7F4FC8010E94F60580
:100D6000F80196878587C980DA80CE0CDF1CEC14E9
:100D7000FD0491F0F7016081C8010E943303F8017E
:100D800045855685F70161917F01C8010E941603D0
:100D9000F80196878587EBCFE980FA80F194E1949A
:100DA000F108F3E0EF22FF24F1E0EF1AF10878F008
:100DB00060E0C8010E943303F8014585568560E074
:100DC000C8010E941603F80196878587EDCF0F9022
:100DD0000F90DF91CF911F910F91FF90EF90DF90D7
:100DE000CF9008952F923F924F925F926F927F9291
:100DF0008F929F92AF92BF92CF92DF92EF92FF922B
:100E00000F931F93CF93DF93CDB7DEB728970FB61D
:100E1000F894DEBF0FBECDBF8C012DB73EB738872B
:100E20002F83E090FF01F090000242E050E0BE010D
:100E30006B5F7F4F0E94A202AD80BE80370132E01F
:100E4000630E711C44E050E0B301C8010E94A2028D
:100E5000270186E0480E511C42E050E0B201C80173
:100E60000E94A202BE016D5F7F4FC8010E94E7028F
:100E70004C01D7011896CD90DC9019972B803C80BF
:100E8000C114D10449F1F601848195818815990531
:100E900041F460817181A401C1010E94D311892BA9
:100EA00031F0D6015E96CD90DC905F97E9CFB2E04D
:100EB000AB16B10409F44DC01CF4B7FEC7C0FCC0AA
:100EC000F3E0AF16B10409F0F7C084E0882E912C4E
:100ED000E2E1CE0ED11C6AC0D701ED91FC91848570
:100EE000882309F4E9C0C080D18006E910E0F80148
:100EF0006491611103C000E010E00DC0D601ED91D6
:100F0000FC910190F081E02DC60109950F5F1F4F04
:100F1000892B69F7F0CFD701ED91FC9108151905E0
:100F200089F080819181DC01ED91FC91AB81BC81E4
:100F3000A00FB11F0190F081E02D6C9109950F5F1A
:100F40001F4FE9CF66E171E0808191810E94BB046F
:100F5000B3C02DB63EB6BE016F5F7F4FC8010E9481
:100F6000E7028C010196EDB7FEB7E81BF90B0FB64F
:100F7000F894FEBF0FBEEDBF2DB73EB72F5F3F4FBA
:100F8000490169817A81A801C9010E94E011F40137
:100F9000E00FF11F1082B401C60148960E947C0246
:100FA0000FB6F8943EBE0FBE2DBE50C0D8011496A9
:100FB000ED91FC911597828193818816990608F02E
:100FC0007BC0BE016F5F7F4FC8010E94E70249806E
:100FD0005A80D2011196FD0101900020E9F7319766
:100FE0005F01AA1ABB0A3C016A187B08C30101977A
:100FF0000E94D70FD7011B969C938E931A97A3013B
:1010000042505109FC01E40FF51F1082B5016E5FDB
:101010007F4F640D751D1A968D919C911B970E94B0
:10102000E01169817A816F5F7F4FC6010E947C0267
:10103000F701828593850E946C10D7011B961C9244
:101040001E921A97BFEF8B1A9B0AB0CF0FEF10E0DA
:1010500024E630E040E050E06FE170E0F70180818D
:1010600091810E94120644E050E0B301D7018D91B6
:101070009C910E948F0642E050E0B201F70180810E
:1010800091810E948F06D6016D917C91C601AB289B
:1010900011F4069601C00C960E947C0240E050E0DC
:1010A00060E070E0F701808191810E948F06D70196
:1010B0008D919C910E948303EF81F8850FB6F8947F
:1010C000FEBF0FBEEDBF28960FB6F894DEBF0FBE71
:1010D000CDBFDF91CF911F910F91FF90EF90DF90E7
:1010E000CF90BF90AF909F908F907F906F905F90C8
:1010F0004F903F902F9008954F925F926F927F9202
:10110000AF92BF92CF92DF92EF92FF920F931F9315
:10111000CF93DF9300D000D0CDB7DEB769E171E0A7
:1011200083E192E00E94190582EB92E06C01990F35
:10113000EE08FF088091BA029091BB02DC01ED91AC
:10114000FC910190F081E02D60EC099500E010E049
:10115000A701960161E070E080EB92E00E94120628
:1011600080EB92E00E9483030091B8021091B902D3
:101170001092B9021092B8020E9470022B013C0139
:101180000E947002DC01CB0184199509A609B709F8
:10119000803D9740A105B10508F07AC00E948F09F3
:1011A0005C01009769F3DC0114964D915D916D919E
:1011B0007C9117978091BC024C155D056E057F05EB
:1011C00009F04FC0882341F06CED71E08091B002CE
:1011D0009091B1020E9419051093B9020093B802D0
:1011E00062E371E083E192E00E94190501E010E002
:1011F00020E030E0A9016EE170E080910102909161
:1012000002020E9412068DE092E0092E000CAA0B49
:10121000BB0B89839A83AB83BC8344E050E0BE015F
:101220006F5F7F4F80910102909102020E948F06B2
:1012300080910102909102020E9483030F900F900F
:101240000F900F90DF91CF911F910F91FF90EF9032
:10125000DF90CF90BF90AF907F906F905F904F9056
:101260000895882309F488CF64E471E08091B00286
:101270009091B1020E942D05F5014481558166814E
:1012800077818091B0029091B1020E947A0974CF67
:101290001093B9020093B8026AE471E083E192E02E
:1012A0000E94190547CF1F920F920FB60F9211247B
:1012B0002F933F934F935F936F937F938F939F935E
:1012C000AF93BF93EF93FF93E091EC01F091ED01A9
:1012D0000995FF91EF91BF91AF919F918F917F9170
:1012E0006F915F914F913F912F910F900FBE0F9093
:1012F0001F9018950F931F93CF93DF93EC012AE073
:101300000E94D0048C0166E171E0CE010E94BB0412
:10131000800F911FDF91CF911F910F910895AF9290
:10132000BF92CF92DF92FF920F931F93CF93DF93E1
:1013300000D000D000D0CDB7DEB7FF24F394809169
:10134000BA029091BB02DC01ED91FC910480F58121
:10135000E02D0995892B09F49CC18091BA029091E6
:10136000BB02DC01ED91FC910680F781E02D09952F
:101370008B3D910519F4F092C502E1CF2091C30293
:101380003091C402803C910509F05AC128303105E2
:1013900008F448C10091BF021091C0028091BC02C4
:1013A000882309F495C066EA71E08091B0029091BB
:1013B000B1020E942D054091C3025091C40260E029
:1013C00070E02AE08091B0029091B1020E94D004B6
:1013D00060EB71E08091B0029091B1020E942D0506
:1013E0004091BF025091C002052E000C660B770B96
:1013F00020E18091B0029091B1020E94D00464ED8E
:1014000071E08091B0029091B1020E942D05F80127
:101410004081518160E070E020E18091B0029091C4
:10142000B1020E94D00465ED71E08091B00290910C
:10143000B1020E942D05D80114964D915D916D91D8
:101440007C91179720E18091B0029091B1020E94A7
:10145000D00465ED71E08091B0029091B1020E94DC
:101460002D05F8014281538160E070E020E1809118
:10147000B0029091B1020E94D00448E0C42ED12C59
:101480002091C3023091C4028091B0029091B102C8
:10149000C216D306C8F465ED71E00E942D05E091F7
:1014A000BF02F091C002EC0DFD1D408150E060E0F4
:1014B00070E020E18091B0029091B1020E94D004CE
:1014C000FFEFCF1ADF0ADCCF66E171E00E94BB04B8
:1014D000C090C302D090C40282E0C81AD108A09084
:1014E000BF02B090C00220E030E0A601B50180EB61
:1014F00092E00E94F605F501EC0DFD1D2081318181
:101500008217930741F08091BC02882309F48AC0B6
:1015100063EB71E081C0D8018D919C91823091057F
:1015200039F083309105E9F0019709F06FC05EC092
:101530008091BC02882309F477C064EC71E080914B
:10154000B0029091B1020E942D05F80144815581AD
:10155000668177818091B0029091B1020E947A09F0
:1015600063C08091BC02882381F16DEC71E08091B1
:10157000B0029091B1020E942D05D80114964D91B0
:101580005D916D917C9117972AE08091B0029091C6
:10159000B1020E94D00465ED71E08091B00290919B
:1015A000B1020E942D05C090B002D090B102F801A6
:1015B0004281538160E070E02AE0C6010E94D004BD
:1015C00066E171E0C6010E94BB04F801A481B58107
:1015D0008D919C911197009709F05EC012962D9104
:1015E0003C911397232B09F057C01CC067ED71E0A5
:1015F0008091B0029091B1020E941905E091B80269
:10160000F091B902309771F009950CC08091BC023D
:10161000882341F062EE71E08091B0029091B102B6
:101620000E94190500E010E01092C4021092C3025B
:101630001092C5020115110509F481CEC8015BC0E5
:101640004091C502442369F08C3D910531F08D3DF8
:10165000910529F48BED90E002C080EC90E01092AF
:10166000C5024091C1025091C2022417350708F00B
:1016700066CE4091BF025091C002B9016F5F7F4FAB
:101680007093C4026093C302FA01E20FF31F8083D8
:1016900056CE80E090E02FC01E830D83085F1F4F61
:1016A0001C830B831A8219821296ED91FC91139779
:1016B000309709F4B7CF0097D1F014962D913C9153
:1016C0001597A9015595479520FF0AC0DC01A40F85
:1016D000B51F2D913C91E20FF31F0190F081E02D99
:1016E000BE016F5F7F4F840F951F09959BCFCE0181
:1016F0000196099597CF26960FB6F894DEBF0FBED8
:10170000CDBFDF91CF911F910F91FF90DF90CF90D0
:10171000BF90AF9008956F927F928F929F92AF92F9
:10172000BF92CF92DF92EF92FF920F931F93CF93CE
:10173000DF93CDB7DEB73C016B01ADB6BEB60E94FC
:1017400000128C01C6010E94001211279801280F77
:10175000311D490182E0880E911C2D5F3F4FEDB78E
:10176000FEB7E21BF30B0FB6F894FEBF0FBEEDBF42
:101770008DB79EB701967C011182B30101960E943C
:10178000F911C8010296B6018E0D9F1D0E94F91134
:10179000A401B70180910102909102020E948F067C
:1017A0000FB6F894BEBE0FBEADBEDF91CF911F91B4
:1017B0000F91FF90EF90DF90CF90BF90AF909F90F0
:1017C0008F907F906F9008950F931F93E091500337
:1017D000F0915103908180914A03892B8083E0919D
:1017E0004C03F0914D03908180914A0380958923A9
:1017F00080838BE090E00197F1F7E0914C03F0914A
:101800004D03908180914A03892B808383E290E08D
:101810000197F1F7E0914C03F0914D039081809195
:101820004A03809589238083E0915003F09151030E
:10183000908180914A03809589238083E0914E03B3
:10184000F0914F03908180914B03892309F073C07D
:101850000E9487052091520330915303890120E0B3
:1018600030E00855194E2F4F3F4FDC01CB01800F60
:10187000911FA21FB31F8093540390935503A0930D
:101880005603B0935703E0914E03F0914F039081BC
:1018900080914B03892381F40E94870500915403B2
:1018A00010915503209156033091570306171707DF
:1018B0002807390740F73FC00E948705209152034F
:1018C00030915303DC01CB01820F931FA11DB11D89
:1018D0008093540390935503A0935603B0935703FA
:1018E000E0914E03F0914F03908180914B03892347
:1018F00081F00E94870500915403109155032091B7
:10190000560330915703061717072807390740F782
:1019100012C00E9487052091520330915303255035
:1019200031094091540350915503241B350BC901D3
:10193000860F971F02C080E090E01F910F910895DD
:10194000CF93DF93CDB7DEB766970FB6F894DEBFBF
:101950000FBECDBF789484B5826084BD84B58160AC
:1019600084BD85B5826085BD85B5816085BD80916A
:101970006E00816080936E001092810080918100E2
:1019800082608093810080918100816080938100DA
:10199000809180008160809380008091B10084609C
:1019A0008093B1008091B00081608093B0008091FD
:1019B0007A00846080937A0080917A0082608093BC
:1019C0007A0080917A00816080937A0080917A0019
:1019D000806880937A001092C100E0912302F09118
:1019E000240282E08083E0911F02F09120021082A5
:1019F000E0912102F09122028FEC808310922B0261
:101A0000E0912702F091280286E08083E091250290
:101A1000F0912602808180618083E0912502F0911F
:101A20002602808188608083E0912502F091260261
:101A3000808180688083E0912502F0912602808178
:101A40008F7D808361E08EE00E94340261E08FE050
:101A50000E94340260E080E10E94340261E081E192
:101A60000E94340260E08EE00E94040261E671E0B0
:101A700083E192E00E9419051A8219821C821B825E
:101A80001E821D8265EC70E08E010F5F1F4FC80142
:101A90000E94160480E290E00E94D70F7C0180E251
:101AA000F70111928A95E9F7F701118210821382EA
:101AB00012821582148260E070E0C7010E94EF0379
:101AC000811104C0C7010E94A90309C0F701158252
:101AD000148268E171E0808191810E94F211F70126
:101AE000178216821186108615861486178616862A
:101AF000138A128A158A148A118E108E138E128EF2
:101B0000E016F106C9F0C980DA80C114D10489F069
:101B1000AD80BE80B501C7010E94EF03882349F064
:101B2000F701B582A482B601808191810E94F211F1
:101B300003C0C7010E94A9038091090290910A0283
:101B4000F701978F868FF0920A02E092090289814D
:101B50009A810E946C1089E993E0F7019187808750
:101B6000978786878EE394E0938F828F8CE798E047
:101B70009093B9028093B8020E947C0848EE842EAC
:101B800043E0942EA12CB12C59E3452E512C612C0D
:101B9000712C0E948F090E947002C090FB01D090AE
:101BA000FC01E090FD01F090FE019B01AC012C19BD
:101BB0003D094E095F0969017A0130EDC31637E02E
:101BC000D306E104F104F0F06093FB017093FC0193
:101BD0008093FD019093FE018EE00E94DB01892B32
:101BE00039F461E08EE00E9404026CE771E006C007
:101BF00060E08EE00E9404026BE871E083E192E015
:101C00000E9419050E947002C090F701D090F8015F
:101C1000E090F901F090FA019B01AC012C193D090B
:101C20004E095F0969017A0130EAC3163FE0D30625
:101C3000E104F10408F4CFC06093F7017093F80158
:101C40008093F9019093FA016BE971E083E192E0EE
:101C50000E942D054DB75EB75A8B498B1A821982A7
:101C600038E0232E312C0E9487056B017C010E94F5
:101C7000E40BAC01892B29F1311002C090E018C0AF
:101C8000932D292F30E0F9013197EE0FFF1FE00F60
:101C9000F11F608171816417750750F4F901EE0F2F
:101CA000FF1FE00FF11F71836083915051F7E6CF62
:101CB000F801E90FF11DE90FF11D518340833394C1
:101CC00001C02A94321408F059C00E948705DC0133
:101CD000CB018C199D09AE09BF0988349147A10534
:101CE000B10508F0C0CF0E948705F8E4CF0EF1E7F8
:101CF000DF1EE11CF11CA7019601261B370B480BC8
:101D0000590BCA01B901A50194010E94AF0F2B8B99
:101D10003C8B4D8B5E8B0E9487056B017C012B8970
:101D20003C894D895E89211531054105510509F42C
:101D30009ACF2B8B3C8B4D8B5E8B0E948705DC01F1
:101D4000CB018C199D09AE09BF092B893C894D89AE
:101D50005E89883E9340A105B10528F321503109E1
:101D60004109510968EEC60E63E0D61EE11CF11C64
:101D70002115310541055105E1F6D5CF822D8E7F24
:101D8000F801E80FF11D808191810FB6F894DEBF54
:101D90000FBECDBF69E370E00E949B0FAB0160E016
:101DA00070E02AE083E192E00E94D00462EA71E0F0
:101DB00083E192E00E9419050E94E40BBC0180E0DF
:101DC00090E0A30192010E94AF0FBA01A90183E143
:101DD00092E00E947A090E94A801DBCECF93DF93A4
:101DE000A3E1B2E013961C921E92129748EE53E0C4
:101DF00060E070E014964D935D936D937C9317971C
:101E00008AE091E011969C938E9385EC90E01D966C
:101E10009C938E931C9784EC90E01F969C938E93DA
:101E20001E9780EC90E051969C938E93509781EC96
:101E300090E053969C938E93529782EC90E0559647
:101E40009C938E93549786EC90E057969C938E9338
:101E5000569759961C9259975A961C925A975B9688
:101E60001C925B975C961C925C97EBE1F1E0E4912D
:101E7000C6E4D3E0EC83ECE1F1E0E491ED8387E0AC
:101E800091E0FC012491E22FF0E0EE0FFF1FE25100
:101E9000FF4F259134913F832E83E8E0F1E0E491F8
:101EA000F0E0EE0FFF1FEC51FF4F25913491398781
:101EB0002887FC018491E82FF0E0EE0FFF1FE65227
:101EC000FF4F859194919B878A8789E499E59D8747
:101ED0008C87E0EBF2E01382128215821482B387C2
:101EE000A287148686EC92E0908B878780E890E04A
:101EF000928B818B148A138A158AA1E0B2E0119625
:101F0000FC93EE9319961C921E9218971B961C92A6
:101F10001E921A971D961C921E921C97B093000257
:101F2000A093FF0182EF96E01F969C938E931E97DD
:101F3000DF91CF910895AA1BBB1B51E107C0AA1FD7
:101F4000BB1FA617B70710F0A61BB70B881F991F5A
:101F50005A95A9F780959095BC01CD010895A1E20D
:101F60001A2EAA1BBB1BFD010DC0AA1FBB1FEE1F13
:101F7000FF1FA217B307E407F50720F0A21BB30B5E
:101F8000E40BF50B661F771F881F991F1A9469F7DA
:101F900060957095809590959B01AC01BD01CF0136
:101FA0000895EE0FFF1F0590F491E02D0994CF9353
:101FB000DF938230910510F482E090E0E0915A03C3
:101FC000F0915B0320E030E0C0E0D0E0309711F109
:101FD0004081518148175907C0F04817590761F4EB
:101FE00082819381209719F09B838A832BC09093E1
:101FF0005B0380935A0326C02115310519F042175F
:10200000530718F49A01BE01DF01EF010280F3814A
:10201000E02DDCCF2115310509F1281B390B2430C7
:10202000310590F412968D919C911397611571056D
:1020300021F0FB019383828304C090935B03809320
:102040005A03FD01329644C0FD01E20FF31F819354
:102050009193225031092D933C933AC0209158031B
:1020600030915903232B41F4209102013091030157
:1020700030935903209358032091000130910101BE
:102080002115310541F42DB73EB74091040150911F
:102090000501241B350BE0915803F0915903E21719
:1020A000F307A0F42E1B3F0B2817390778F0AC017B
:1020B0004E5F5F4F2417350748F04E0F5F1F509358
:1020C0005903409358038193919302C0E0E0F0E0FC
:1020D000CF01DF91CF9108950F931F93CF93DF939B
:1020E000009709F48CC0FC01329713821282009190
:1020F0005A0310915B030115110581F42081318190
:10210000820F931F209158033091590328173907E4
:1021100079F5F0935903E093580371C0D80140E07A
:1021200050E0AE17BF0750F412962D913C911397D3
:10213000AD012115310509F1D901F3CF9D01DA0176
:102140003383228360817181860F971F82179307E3
:1021500069F4EC0128813981260F371F2E5F3F4F2C
:10216000318320838A819B8193838283452B29F449
:10217000F0935B03E0935A0342C01396FC93EE93F3
:102180001297ED01499159919E01240F351FE217D5
:10219000F30771F480819181840F951F0296119647
:1021A0009C938E938281938113969C938E93129726
:1021B000E0E0F0E0D80112968D919C911397009782
:1021C00019F0F8018C01F6CF8D919C9198012E5F4A
:1021D0003F4F820F931F20915803309159032817C6
:1021E000390769F4309729F410925B0310925A036F
:1021F00002C0138212821093590300935803DF9197
:10220000CF911F910F910895A0E0B0E0EAE0F1E1D5
:102210000C940D12EC01009721F4CB010E94D70F12
:10222000B8C0FC01E60FF71F9C0122503109E217EC
:10223000F30708F4ACC0D9010D911C911197061752
:102240001707B0F00530110508F49FC0C8010497C6
:102250008617970708F499C002501109061B170B3F
:10226000019311936D937C93CF010E946C108DC0EC
:102270005B01A01AB10A4C01800E911EA0915A0375
:10228000B0915B0340E050E0E12CF12C109709F491
:102290004AC0A815B905D1F56D907C9011976301DE
:1022A00082E0C80ED11CCA14DB0480F1A3014A19D4
:1022B0005B096A0182E0C80ED11C1296BC9012978D
:1022C0001396AC91B5E0CB16D10440F0B282A38353
:1022D00051834083D9016D937C930AC00E5F1F4FD9
:1022E000C301800F911FF90191838083EB2DFA2F99
:1022F000E114F10431F0D7011396FC93EE93129799
:1023000044C0F0935B03E0935A033FC08D919C91CE
:1023100011974817590708F4AC017D0112960D90EA
:10232000BC91A02DB3CF809158039091590388158B
:102330009905E1F446175707C8F480910001909180
:102340000101009741F48DB79EB74091040150916F
:102350000501841B950BE817F907C8F4F09359039E
:10236000E0935803F901718360830FC0CB010E9491
:10237000D70F7C01009759F0A801BE010E94E0111F
:10238000CE010E946C10C70104C0CE0102C080E0E3
:1023900090E0CDB7DEB7EEE00C94291281E090E03A
:1023A000F8940C944012FB01DC0104C08D91019063
:1023B000801921F441505040C8F7881B990B0895AB
:1023C000FB01DC0102C001900D9241505040D8F752
:1023D0000895FB01DC018D91019080190110D9F362
:1023E000990B0895FB01DC0101900D920020E1F7AB
:1023F0000895FB01DC0105900D920020E1F708959E
:10240000FC0105900020E9F7809590958E0F9F1FA5
:1024100008952F923F924F925F926F927F928F9288
:102420009F92AF92BF92CF92DF92EF92FF920F9363
:102430001F93CF93DF93CDB7DEB7CA1BDB0B0FB66D
:10244000F894DEBF0FBECDBF09942A88398848882A
:102450005F846E847D848C849B84AA84B984C884C0
:10246000DF80EE80FD800C811B81AA81B981CE0FB7
:10247000D11D0FB6F894DEBF0FBECDBFED0108959C
:04248000F894FFCFFE
:1024840000005C038000000000003F01BB00080165
:10249400E600FA0086010D0A00454C2D436C69657F
:1024A4006E74202872652D297374617274696E6765
:1024B4002100454C2D436C69656E742073796E63FD
:1024C400656421004241443A2000454C2D436C6927
:1024D400656E742073796E63206661696C6564212E
:1024E400006B6F6E6965632073656B77656E636AF5
:1024F400692073746172746F77656A00776C6163C5
:102504007A616D20706F6D706B650077796C6163B3
:102514007A616D20706F6D706B650050696E673AFB
:10252400200020636D00454C433A20676F742000FF
:10253400204000454C433A20496E76616C69642022
:1025440043524300524553505F563A20005245537C
:10255400505F43423A20004E4545445F53594E4331
:082564002100434D443F3F00FC
:00000001FF
