:100000000C94A9000C94D1000C94D1000C94D10054
:100010000C94D1000C94D1000C94D1000C94D1001C
:100020000C94D1000C94D1000C94D1000C94D1000C
:100030000C94D1000C94D1000C94D1000C94D100FC
:100040000C9492030C94D1000C94210B0C94FB0A99
:100050000C94D1000C94D1000C94D1000C94D100DC
:100060000C94D1000C94D10069645F6F66660069DE
:10007000645F6F6E00506F6D7061206A65737420ED
:100080007779B3B9637A6F6E6100746578740050E4
:100090006F6D7061206A6573742077B3B9637A6F8E
:1000A0006E61007465787400506F6D7061206A65D0
:1000B0007374207779B3B9637A6F6E610074657871
:1000C0007400506F6D7061206A6573742077B3B9E6
:1000D000637A6F6E6100746578740048616E646C59
:1000E0006572206E6F7420666F756E6420666F7225
:1000F0002055524C3A0000000000240027002A003E
:1001000000000000250028002B000000000800026D
:1001100001000003040700000000000000000000D0
:10012000000023002600290004040404040404043D
:100130000202020202020303030303030102040892
:100140001020408001020408102001020408102041
:100150004F0F11241FBECFEFD8E0DEBFCDBF12E09E
:10016000A0E0B1E0ECE3F5E202C005900D92A63B01
:10017000B107D9F724E0A6EBB2E001C01D92AB3283
:10018000B207E1F710E0C9EAD0E004C02197FE0110
:100190000E942D10C83AD107C9F70E94DB0C0C94BD
:1001A0009C120C940000833081F028F4813099F087
:1001B0008230A1F008958730A9F08830B9F08430FA
:1001C000D1F4809180008F7D03C0809180008F7773
:1001D00080938000089584B58F7702C084B58F7DA9
:1001E00084BD08958091B0008F7703C08091B000E6
:1001F0008F7D8093B0000895DC011296ED91FC9103
:1002000013973097F1F02D913C91119721153105FD
:10021000B1F014964D915C911597CA01959587950B
:1002200040FF0AC0D901A80FB91F4D915C91E40F9E
:10023000F51F0190F081E02D820F931F0994CB01EF
:1002400009940895EF92FF920F931F93CF93DF933A
:10025000EC0188819981EC81FD81228133818217B3
:10026000930760F5EA81FB81019111912EEF3FEF39
:10027000201B310B7901A3E0EA22FF24FB83EA83F0
:10028000019699838883CB019A010417150708F416
:100290009801260F371F8217930729F04191DC013F
:1002A0004D93CD01F8CF9701200F311F8A819B819B
:1002B000280F391F3B832A83C80102C08FEF9FEFAD
:1002C000DF91CF911F910F91FF90EF900895CF9301
:1002D000DF93FC0180819181A481B58112962D91DB
:1002E0003C91139782179307E0F4A281B3814D915B
:1002F0005D91B383A283019691838083EB01B983DF
:10030000A8832EEF3FEF241B350B23703327240FD8
:10031000351F82819381280F391F33832283CA01BD
:1003200002C08FEF9FEFDF91CF9108954627342FC2
:10033000252FA901442784E0440F551F8A95E1F732
:1003400042275327CA01892F992782958F70482702
:100350005927CA01882735E0969587953A95E1F7A0
:10036000842795270895EF92FF920F931F93CF93C1
:10037000DF937C01C901EB018B01040F151FC0172E
:10038000D10731F06991AC01C7010E949601F7CF06
:10039000DF91CF911F910F91FF90EF900895CF9330
:1003A000DF93EC018A859B85603CA1F06B3D21F5D4
:1003B000DC01ED91FC910190F081E02D6BED099550
:1003C0008A859B85DC01ED91FC910190F081E02D07
:1003D0006DED18C0DC01ED91FC910190F081E02DF4
:1003E0006BED09958A859B85DC01ED91FC9101906F
:1003F000F081E02D6CED06C0DC01ED91FC910190E7
:10040000F081E02DDF91CF910994EF92FF920F934D
:100410001F93CF93DF937C01EB018B01040F151F1A
:10042000C017D10729F06991C7010E94CF01F8CF09
:10043000DF91CF911F910F91FF90EF900895EF9270
:10044000FF920F931F93CF93DF9361157105A1F175
:100450008B01EC01BC01645F7F4F42E050E0C801BA
:100460000E942201EC81FD8184858823E9F066E108
:1004700071E0808191810E94F90A4C855D85EC8153
:10048000FD81E080F180052E000C660B770B77FF75
:1004900004C0C7010E94BA0A04C02AE0C7010E9432
:1004A000710AC7010E94E30ABE01605F7F4FC80165
:1004B0000E9467019F878E87DF91CF911F910F91D7
:1004C000FF90EF900895CF93DF93282F30E0F9014C
:1004D000E65FFE4F8491F901E45CFE4FD491F9018F
:1004E000E85DFE4FC491CC2391F081110E94D300AE
:1004F000EC2FF0E0EE0FFF1FE25EFE4FA591B491EE
:10050000EC91ED2381E090E021F480E002C080E0F6
:1005100090E0DF91CF91089582E10E946302892BE0
:1005200029F462EC70E086ED90E004C068EA70E0C7
:100530008DEB90E00C943D0C82E10E946302892BCC
:1005400029F46FE870E083EA90E004C065E770E0AA
:100550008AE890E00C943D0C1F93CF93DF93282FF3
:1005600030E0F901E65FFE4F8491F901E45CFE4F53
:10057000D491F901E85DFE4FC491CC23C9F0162F48
:1005800081110E94D300EC2FF0E0EE0FFF1FE0502E
:10059000FF4FA591B4918FB7F894111105C09C91AC
:1005A000ED2FE095E92302C0EC91ED2BEC938FBF8A
:1005B000DF91CF911F9108951F93CF93DF93CDB714
:1005C000DEB72C970FB6F894DEBF0FBECDBFBC01CF
:1005D000CE0101960E94360A18861F821A86198655
:1005E0001C861B866FE670E0CE0107960E940E0AFD
:1005F000BE01695F7F4FCE0101960E94DC09182F72
:100600008F8198850E94C810112371F060E081E10C
:100610000E94AC0261E271E08DEE92E00E94E70A76
:1006200084E291E00E94F80B18861F821A861986D0
:100630001C861B8668E670E0CE0107960E940E0AB3
:10064000BE01695F7F4FCE0101960E94DC09182F21
:100650008F8198850E94C810112371F061E081E1BB
:100660000E94AC0261E671E08DEE92E00E94E70A22
:1006700085E691E00E94F80B89819A810E94C8105A
:100680002C960FB6F894DEBF0FBECDBFDF91CF9191
:100690001F910895CF93DF9390E0FC01E45CFE4F3F
:1006A0002491FC01E85DFE4F8491882361F190E084
:1006B000880F991FFC01EA50FF4FC591D491FC01AE
:1006C000E050FF4FA591B491611109C09FB7F89414
:1006D0008881209582238883EC912E230BC0623081
:1006E00061F49FB7F8943881822F809583238883A3
:1006F000EC912E2B2C939FBF06C08FB7F894E88106
:100700002E2B28838FBFDF91CF9108952FB7F894B8
:100710006091BB027091BC028091BD029091BE02BB
:100720002FBF08951F920F920FB60F9211242F938F
:100730003F938F939F93AF93BF938091BB02909110
:10074000BC02A091BD02B091BE023091BA0223E07A
:10075000230F2D3720F40196A11DB11D05C026E8F9
:10076000230F0296A11DB11D2093BA028093BB02F4
:100770009093BC02A093BD02B093BE028091B602DA
:100780009091B702A091B802B091B9020196A11D53
:10079000B11D8093B6029093B702A093B802B093B4
:1007A000B902BF91AF919F918F913F912F910F907F
:1007B0000FBE0F901F901895CF93DF93EC01BC01F3
:1007C000635F7F4F42E050E00E9405028A859B856F
:1007D000DC01ED91FC910190F081E02D60ECDF9166
:1007E000CF910994CF92DF92EF92FF920F931F93D4
:1007F000CF93DF9300D0CDB7DEB78C017B015A8356
:10080000498342E050E0BE016F5F7F4F0E940502C6
:10081000F8012585368542E050E0BE016F5F7F4FCD
:10082000C8010E94B301F80196878587C980DA80E4
:10083000CE0CDF1CEC14FD0491F0F7016081C801BF
:100840000E94CF01F80145855685F70161917F012E
:10085000C8010E949601F80196878587EBCFE98051
:10086000FA80F194E194F108F3E0EF22FF24F1E043
:10087000EF1AF10878F060E0C8010E94CF01F8019A
:100880004585568560E0C8010E949601F80196876B
:100890008587EDCF0F900F90DF91CF911F910F9132
:1008A000FF90EF90DF90CF900895EF92FF920F931B
:1008B0001F93CF93DF93CDB7DEB728970FB6F89489
:1008C000DEBF0FBECDBF7C017A8369832B833C835F
:1008D0004D835E8318870F83DC011E961C921E9247
:1008E0001D971A968D919C911B97DC01ED91FC91BF
:1008F0000190F081E02D60EC099542E050E0BE01EE
:100900006F5F7F4FC7010E940502F701258536857D
:1009100042E050E0BE016F5F7F4FC7010E94B3010C
:10092000D7011E969C938E931D9742E050E0BE0126
:10093000695F7F4FC7010E940502F7012585368553
:1009400042E050E0BE01695F7F4FC7010E94B301E2
:10095000D7011E969C938E931D9744E050E0BE01F4
:100960006D5F7F4FC7010E940502F701258536851F
:1009700044E050E0BE016D5F7F4FC7010E94B301AC
:10098000D7011E969C938E931D9728960FB6F894C8
:10099000DEBF0FBECDBFDF91CF911F910F91FF90B2
:1009A000EF9008952F923F924F925F926F927F92B5
:1009B0008F929F92AF92BF92CF92DF92EF92FF926F
:1009C0000F931F93CF93DF93CDB7DEB728970FB662
:1009D000F894DEBF0FBECDBF8C012DB73EB7388770
:1009E0002F83E090C702F090C80242E050E0BE01C1
:1009F0006B5F7F4F0E942201AD80BE80370132E0E5
:100A0000630E711C44E050E0B301C8010E94220152
:100A1000270186E0480E511C42E050E0B201C801B7
:100A20000E942201BE016D5F7F4FC8010E946701D5
:100A30004C01D7011896CD90DC9019972B803C8003
:100A4000C114D10449F1F601848195818815990575
:100A500041F460817181A401C1010E942F12892B90
:100A600031F0D6015E96CD90DC905F97E9CFB2E091
:100A7000AB16B10409F449C01CF4B7FEC3C0F8C0FA
:100A8000F3E0AF16B10409F0F3C084E0882E912C96
:100A9000E2E1CE0ED11C66C0D701ED91FC918485B8
:100AA000882309F4E5C0C080D1800BED10E0F80187
:100AB0006491611103C000E010E00DC0D601ED911A
:100AC000FC910190F081E02DC60109950F5F1F4F49
:100AD000892B69F7F0CFD701ED91FC91808191814D
:100AE0000815190579F0DC01ED91FC91AB81BC8111
:100AF000A00FB11F0190F081E02D6C9109950F5F5F
:100B00001F4FE9CF0E94E30AB3C02DB63EB6BE0127
:100B10006F5F7F4FC8010E9467018C010196EDB79E
:100B2000FEB7E81BF90B0FB6F894FEBF0FBEEDBF82
:100B30002DB73EB72F5F3F4F490169817A81A801E8
:100B4000C9010E943C12F401E00FF11F1082B401B0
:100B5000C60148960E94FC000FB6F8943EBE0FBE38
:100B60002DBE50C0D8011496ED91FC91159782814D
:100B700093818816990608F07BC0BE016F5F7F4F96
:100B8000C8010E94670149805A80D2011196FD0177
:100B900001900020E9F731975F01AA1ABB0A3C01D6
:100BA0006A187B08C30101970E943310D7011B9676
:100BB0009C938E931A97A30142505109FC01E40FB4
:100BC000F51F1082B5016E5F7F4F640D751D1A967B
:100BD0008D919C911B970E943C1269817A816F5F75
:100BE0007F4FC6010E94FC00F701828593850E9419
:100BF000C810D7011B961C921E921A97BFEF8B1A32
:100C00009B0AB0CF0FEF10E024E630E040E050E068
:100C10006FE170E0F701808191810E94550444E00A
:100C200050E0B301D7018D919C910E94F20342E004
:100C300050E0B201F701808191810E94F203D60158
:100C40006D917C91C601AB2811F4069601C00C96FB
:100C50000E94FC0040E050E060E070E0F70180811D
:100C600091810E94F203D7018D919C910E94DC0337
:100C7000EF81F8850FB6F894FEBF0FBEEDBF289642
:100C80000FB6F894DEBF0FBECDBFDF91CF911F919D
:100C90000F91FF90EF90DF90CF90BF90AF909F901B
:100CA0008F907F906F905F904F903F902F9008951E
:100CB0000F931F93CF93DF9300D000D0CDB7DEB753
:100CC00063EA71E08DEE92E00E94E70A0E947A0BDF
:100CD000811103C06CEB71E0F5CF63ED71E08DEE37
:100CE00092E00E94E70A01E010E020E030E0A90174
:100CF0006EE170E08091DB029091DC020E9455046D
:100D000087EE92E0092E000CAA0BBB0B89839A8315
:100D1000AB83BC8344E050E0BE016F5F7F4F8091A6
:100D2000DB029091DC020E94F2038091DB02909141
:100D3000DC020E94DC030F900F900F900F90DF9168
:100D4000CF911F910F9108958F929F92AF92BF9272
:100D5000DF92EF92FF920F931F93CF93DF9300D018
:100D600000D000D0CDB7DEB78C01DD24D394D801FC
:100D70001A968D919C911B97DC01ED91FC9104805A
:100D8000F581E02D0995892B09F48AC1D8011A96BD
:100D90008D919C911B97DC01ED91FC910680F78170
:100DA000E02D09958B3D910519F4F801D58ADFCF27
:100DB000D80153962D913C915497803C910509F0B0
:100DC0004AC12830310508F437C1F801E784F088BA
:100DD0008485882309F484C065EE71E08081918167
:100DE0000E94F90AD80153964D915C91549760E0A6
:100DF00070E02AE08D919C910E94710A6FEE71E083
:100E0000F801808191810E94F90AD8011F964D91C5
:100E10005C915097052E000C660B770B20E18D91AD
:100E20009C910E94710A63E172E0F80180819181D6
:100E30000E94F90AD7014D915C9160E070E020E1D9
:100E4000F801808191810E94710A64E172E0D80109
:100E50008D919C910E94F90AF70144815581668128
:100E6000778120E1D8018D919C910E94710A64E103
:100E700072E0F801808191810E94F90AD7011296EF
:100E80004D915C91139760E070E020E1F801808162
:100E900091810E94710A48E0A42EB12CF8012389A7
:100EA000348980819181A216B306C0F464E172E0B6
:100EB0000E94F90AD8011F96ED91FC915097EA0D16
:100EC000FB1D408150E060E070E020E18D919C913D
:100ED0000E94710ABFEFAB1ABB0AE0CF0E94E30A7F
:100EE000D8015396AD90BC905497B2E0AB1AB108BC
:100EF000F8018784908820E030E0A501B401C801A2
:100F00000E94B301F401EA0DFB1D2081318182179B
:100F1000930761F0D8011C968C911C97882309F4E3
:100F20008BC062EF71E08D919C9184C0F70180814C
:100F300091818230910539F08330910519F1019743
:100F400009F070C05FC0D8011C968C911C97882353
:100F500009F474C063E072E08D919C910E94F90ADB
:100F6000F801A080B180D70114964D915D916D91EB
:100F70007C9117972AE0C5010E94710AC5010E9461
:100F8000E30A5CC0F8018485882359F16CE072E0C3
:100F9000808191810E94F90AD70114964D915D914B
:100FA0006D917C9117972AE0F801808191810E94D0
:100FB000710A64E172E0D8018D919C910E94F90A56
:100FC000F801A080B180D70112964D915C911397E2
:100FD00060E070E02AE0C5010E94710AC5010E942C
:100FE000E30AF701A481B5818D919C911197009737
:100FF00009F059C012962D913C911397232B09F0BB
:1010000052C01AC066E172E0D8018D919C910E9495
:10101000E70AD8011896ED91FC911997309761F085
:1010200009950AC0F8018485882331F061E272E0F5
:10103000808191810E94E70AE12CF12CD80154961D
:101040001C921E92539755961C92E114F10409F4D8
:101050008ECEC70158C0F8014589442371F08C3DFC
:10106000910531F08D3D910529F48BED90E002C0A2
:1010700080EC90E0D80155961C92F8014189528984
:101080002417350708F073CE47855089B9016F5F83
:101090007F4F748B638BFA01E20FF31F808367CE5F
:1010A00080E090E030C0FE82ED82E8E0EE0EF11CC0
:1010B000FC82EB821A8219821296ED91FC911397B1
:1010C000309709F4B9CF0097D1F014962D913C9147
:1010D0001597A9015595479520FF0AC0DC01A40F7B
:1010E000B51F2D913C91E20FF31F0190F081E02D8F
:1010F000BE016F5F7F4F840F951F09959DCFCE0175
:101100000196099599CF26960FB6F894DEBF0FBECB
:10111000CDBFDF91CF911F910F91FF90EF90DF90A6
:10112000BF90AF909F908F900895CF92DF92EF92F3
:10113000FF920F931F93CF93DF936C017A018B0182
:10114000C0E0D0E0CE15DF0589F0D8016D918D01AA
:10115000D601ED91FC910190F081E02DC601099539
:10116000892B11F47E0102C02196ECCFC701DF91DB
:10117000CF911F910F91FF90EF90DF90CF90089546
:10118000FC01918D828D981761F0828DDF01A80F8F
:10119000B11D5D968C91928D9F5F9F73928F90E0B1
:1011A00008958FEF9FEF0895FC01918D828D981720
:1011B00031F0828DE80FF11D858D90E008958FEF5D
:1011C0009FEF0895FC01918D228D892F90E0805C26
:1011D0009F4F821B91098F73992708958DEE92E09E
:1011E0000E94E20821E0892B09F420E0822F089573
:1011F000FC01848DDF01A80FB11DA35ABF4F2C91B4
:10120000848D90E001968F739927848FA689B78982
:101210002C93A089B1898C9180648C93938D848D5B
:10122000981306C00288F389E02D80818F7D80832A
:101230000895EF92FF920F931F93CF93DF93EC01EA
:1012400081E0888F9B8D8C8D981305C0E889F98982
:10125000808185FD24C0F62E0B8D10E00F5F1F4F9F
:101260000F731127E02E8C8DE8120CC00FB607FC0F
:10127000FACFE889F989808185FFF5CFCE010E94F8
:10128000F808F1CF8B8DFE01E80FF11DE35AFF4FF7
:10129000F0820B8FEA89FB898081806207C0EE892A
:1012A000FF896083E889F98980818064808381E097
:1012B00090E0DF91CF911F910F91FF90EF900895F3
:1012C000CF93DF93EC01888D8823C9F0EA89FB89ED
:1012D000808185FD05C0A889B9898C9186FD0FC0E4
:1012E0000FB607FCF5CF808185FFF2CFA889B989B9
:1012F0008C9185FFEDCFCE010E94F808E7CFDF91FA
:10130000CF91089580E090E0892B29F00E94EE08AB
:1013100081110C94000008956115710579F0FB01AD
:1013200001900020E9F73197AF01461B570BDC0114
:10133000ED91FC910280F381E02D099480E090E032
:101340000895CF93DF93EC0188819981009711F084
:101350000E94C810198218821D821C821B821A8268
:10136000DF91CF9108950E942A120F931F93CF937C
:10137000DF93EC0188819981009729F02A813B81D4
:101380002617370788F48B016F5F7F4F0E9460112B
:10139000009761F0998388831B830A832C813D81A8
:1013A000232B11F4FC01108281E001C080E0DF9169
:1013B000CF911F910F910895FC0124813581FB018C
:1013C000448155812417350721F5FC0180819181E5
:1013D000FB0160817181009719F061157105A1F41D
:1013E0006115710549F0232BB1F0FB01808190E07C
:1013F0009195819591090AC0009769F0232B59F0C6
:10140000FC01808190E002C00E94451221E0892BFE
:1014100019F020E001C021E0822F0895EF92FF92A1
:101420000F931F93CF93DF93EC018B01611571052F
:1014300051F0CB010E945C127C01BC01CE010E94E4
:10144000B509811104C0CE010E94A10907C0FD8227
:10145000EC82B801888199810E945512CE01DF91FA
:10146000CF911F910F91FF90EF900895EF92FF920F
:101470000F931F93CF93DF93EC01198218821B8285
:101480001A821D821C826115710521F18B01FB01FD
:1014900001900020E9F731977F01E61AF70AB701BA
:1014A0000E94B509811109C0CE01DF91CF911F9132
:1014B0000F91FF90EF900C94A109FD82EC82B8018E
:1014C00088819981DF91CF911F910F91FF90EF90CB
:1014D0000C944E12DF91CF911F910F91FF90EF90DE
:1014E00008954F925F926F927F92EF92FF920F93C7
:1014F0001F93CF93DF93CDB7DEB7A1970FB6F894C4
:10150000DEBF0FBECDBF7C01FA01CB0119A2223094
:1015100008F42AE08E010F5D1F4F422E512C612CE2
:10152000712CBF01A30192010E940B10F901CA01A5
:10153000015011096A3014F4605D01C0695CD80182
:101540006C93232B242B252B61F7B801C7010E9434
:101550008C09A1960FB6F894DEBF0FBECDBFDF9108
:10156000CF911F910F91FF90EF907F906F905F90C0
:101570004F900895CF92DF92EF92FF920F931F93B7
:10158000CF93DF93EC016A017B01E881F98101903F
:10159000F081E02D6DE209958C0144275527BA01B1
:1015A0004C195D096E097F092AE0CE010E94710A7B
:1015B000800F911FDF91CF911F910F91FF90EF90BE
:1015C000DF90CF90089567E272E00C948C090F933E
:1015D0001F93CF93DF93EC010E948C098C01CE0105
:1015E0000E94E30A800F911FDF91CF911F910F910D
:1015F00008950C948C091F920F920FB60F9211242C
:101600002F933F934F935F936F937F938F939F930A
:10161000AF93BF93EF93FF938DEE92E00E94F80893
:10162000FF91EF91BF91AF919F918F917F916F91BA
:101630005F914F913F912F910F900FBE0F901F9090
:1016400018951F920F920FB60F9211242F938F931C
:101650009F93EF93FF93E091FD02F091FE02808152
:10166000E0910303F091040382FD12C09081809108
:1016700006038F5F8F7320910703821751F0E0916B
:101680000603F0E0E351FD4F958F8093060301C000
:101690008081FF91EF919F918F912F910F900FBEBD
:1016A0000F901F901895CF92DF92EF92FF92CF93F9
:1016B000DF93EC010E9486036B017C010E9486038C
:1016C000AB01BC014C195D096E097F09403D5740D3
:1016D0006105710530F4CE010E94A406009771F3F4
:1016E00002C080E090E0DF91CF91FF90EF90DF901B
:1016F000CF900895AF92BF92CF92DF92EF92FF9278
:101700000F931F93CF93DF93809194039091950350
:10171000DC01ED91FC910190F081E02D60EC0995E8
:101720008CE893E06C01990FEE08FF0800E010E0F0
:10173000A701960161E070E08AE893E00E945504F9
:101740008AE893E00E94DC030091920310919303D6
:1017500010929303109292038AE893E00E94530B35
:10176000EC01892BA9F14C815D816E817F81809193
:1017700096034C155D056E057F0581F4882341F0C5
:101780006BE172E080918A0390918B030E94E70ADB
:10179000109393030093920381E01FC08823E1F22A
:1017A0006BEA72E080918A0390918B030E94F90AA0
:1017B000A0908A03B0908B034C815D816E817F8104
:1017C0002AE0C5010E94710AC5010E94E30AC4CF44
:1017D000109393030093920380E0DF91CF911F91C8
:1017E0000F91FF90EF90DF90CF90BF90AF90089552
:1017F0000F931F93CF93DF931092D6021092D502CE
:101800002091C9023091CA024091CB025091CC0282
:1018100057FD2EC0EC0102E010E065E170E0809120
:10182000CD029091CE020E94550443E050E061EB5E
:1018300072E08091CD029091CE020E94F203FE01EF
:1018400001900020E9F73197AF014C1B5D0BBE0101
:101850008091CD029091CE020E94F2038091CD0240
:101860009091CE02DF91CF911F910F910C94DC03E8
:10187000DF91CF911F910F9108956F927F928F9278
:101880009F92AF92BF92CF92DF92EF92FF920F930F
:101890001F93CF93DF93CDB7DEB73C016B01ADB69D
:1018A000BEB60E945C128C01C6010E945C12112718
:1018B0009801280F311D490182E0880E911C2D5F8F
:1018C0003F4FEDB7FEB7E21BF30B0FB6F894FEBF28
:1018D0000FBEEDBF8DB79EB701967C011182B3019B
:1018E00001960E945512C8010296B6018E0D9F1DE9
:1018F0000E945512A401B7018091DB029091DC0295
:101900000E94F2030FB6F894BEBE0FBEADBEDF91CB
:10191000CF911F910F91FF90EF90DF90CF90BF90EC
:10192000AF909F908F907F906F900895CF92DF92AD
:10193000EF92FF920F931F93E82FF92F05C00150EC
:1019400011092109310961F1908196239417B9F3A6
:1019500005C0015011092109310911F19081962327
:101960009413F7CFC12CD12CE12CF12C0AC08FEFAE
:10197000C81AD80AE80AF80A0C151D052E053F05F5
:1019800079F080818623841791F36C2D7D2D8E2D27
:101990009F2D1F910F91FF90EF90DF90CF900895B2
:1019A00060E070E080E090E01F910F91FF90EF9079
:1019B000DF90CF900895CF93DF93CDB7DEB7279711
:1019C0000FB6F894DEBF0FBECDBF789484B58260A9
:1019D00084BD84B5816084BD85B5826085BD85B5D3
:1019E000816085BD80916E00816080936E00109251
:1019F00081008091810082608093810080918100CC
:101A0000816080938100809180008160809380005C
:101A10008091B10084608093B1008091B0008160BA
:101A20008093B00080917A00846080937A008091E6
:101A30007A00826080937A0080917A00816080933E
:101A40007A0080917A00806880937A001092C100B9
:101A5000E091FD02F091FE0282E08083E091F902C4
:101A6000F091FA021082E091FB02F091FC0280E119
:101A7000808310920503E0910103F091020386E058
:101A80008083E091FF02F091000380818061808378
:101A9000E091FF02F0910003808188608083E091F3
:101AA000FF02F0910003808180688083E091FF0253
:101AB000F091000380818F7D808361E08EE00E9441
:101AC0004A0361E08FE00E944A0360E080E10E94E7
:101AD0004A0361E081E10E944A0360E082E10E94E2
:101AE0004A0361E08EE00E94AC0261E081E10E9465
:101AF000AC026AE272E08DEE92E00E94E70A0E9478
:101B00007A0B811103C06CEB71E0F5CF63ED71E0EE
:101B10008DEE92E00E94E70A65E972E0CE0101963F
:101B20007C010E94360A80E290E00E9433108C0112
:101B300080E2F80111928A95E9F769E272E0C80142
:101B40000E94360AF80117821682118610861586C1
:101B5000148617861686138A128A158A148A118E9D
:101B6000108E138E128E0E151F05C9F0E980FA80B3
:101B7000E114F10489F0CD80DE80B601C8010E9435
:101B8000B509882349F0F801D582C482B701808164
:101B900091810E944E1203C0C8010E94A109809148
:101BA000E3029091E402F801978F868F1093E4028C
:101BB0000093E30289819A810E94C8108CE992E027
:101BC000F801918780878CE892E0978786878CED73
:101BD00092E0938F828F88E596E0909393038093B1
:101BE00092030E94580680E99FE19A8389831F82AD
:101BF00089EC92E09093D0028093CF028FE192E043
:101C00009093D2028093D1021092D4021092D30208
:101C100003E010E02FEC32E0032E000C440B550BD8
:101C200064E170E08091CD029091CE020E94550453
:101C30004CE050E065E472E08091CD029091CE02DC
:101C40000E94F20342E050E0BE016F5F7F4F80913F
:101C5000CD029091CE020E94F20341E050E0BE011D
:101C6000695F7F4F8091CD029091CE020E94F20376
:101C70008091CD029091CE020E94DC038091CD0232
:101C80009091CE020E94530B009791F0FC01448189
:101C900055816681778177FD0BC04093C9025093CF
:101CA000CA026093CB027093CC0280E090E003C044
:101CB000FC0184819581892B39F062E572E08DEE1B
:101CC00092E00E94F90AFFCF66E672E08DEE92E0A4
:101CD0000E94E70A23E0E22EF12C33E2C32ED12C3E
:101CE0004CE1A42EB12C54E6752E6EE2862E99247A
:101CF0009A948AE893E00E94A4060E9486030091C9
:101D0000C3021091C4022091C5023091C6021B018A
:101D10002C01201A310A420A530A40EA24164BEBDE
:101D200034064DE044065104F0F06093C302709312
:101D3000C4028093C5029093C6028EE00E946302A3
:101D4000019739F460E08EE00E94AC0264E772E033
:101D500006C061E08EE00E94AC0263E872E08DEEA6
:101D600092E00E94E70A0E9486030091BF02109150
:101D7000C0022091C1023091C2021B012C01201A25
:101D8000310A420A530A40ED241647E03406410462
:101D9000510408F481C06093BF027093C002809325
:101DA000C1029093C20280912204882329F061E04D
:101DB000809120040E944A0360E0809120040E94E8
:101DC000AC02C7010197F1F761E0809120040E9405
:101DD000AC02C6010197F1F760E0809120040E94F7
:101DE000AC0280912204882329F060E080912004D5
:101DF0000E944A038091210490E0FC01E45CFE4FC4
:101E00006491FC01E85DFE4FE491F0E0EE0FFF1FEE
:101E1000E25EFE4F85919491009123041091240479
:101E200020912504309126043F70462F0E94960C85
:101E3000611571058105910539F0DC01CB01019631
:101E4000A11DB11DBF7003C080E090E0DC01B501B1
:101E50000E94E30F769567956A5F7109769EC001CF
:101E6000779E900D1124B4010E94F70FAB01770FFC
:101E7000660B770B77FF05C08DEE92E00E94BA0AE1
:101E800005C02AE08DEE92E00E94710A63E972E0DB
:101E90008DEE92E00E94E70A0E9482092ACF0F93FA
:101EA0001F93CF93DF93CDEED2E01B821A8288EE90
:101EB00093E0A0E0B0E08C839D83AE83BF838AE093
:101EC00091E09983888385EC90E09D878C8784ECF2
:101ED00090E09F878E8780EC90E0998B888B81ECD7
:101EE00090E09B8B8A8B82EC90E09D8B8C8B86ECB8
:101EF00090E09F8B8E8B198E1A8E1B8E1C8E00E2AB
:101F000014E0F80112828FE0808380E1818361E038
:101F10008FE00E944A0360E0F80181810E944A0339
:101F200080E29EE4A0E0B0E0F80183839483A5837F
:101F3000B683EAE8F3E01382128215821482D38713
:101F4000C287148680EA93E0908B878780E890E0D0
:101F5000928B818B148A138A158AABEDB2E01196AD
:101F6000FC93EE9319961C921E9218971B961C9246
:101F70001E921A971D961C921E921C97B093C8022F
:101F8000A093C70282ED94E01F969C938E931E97B8
:101F9000A9ECB2E017961C921E92169719961C9205
:101FA0001E9218971596FC93EE9314974FEF5FEFE0
:101FB000BA014D935D936D937C931397DF91CF910D
:101FC0001F910F910895AA1BBB1B51E107C0AA1FC7
:101FD000BB1FA617B70710F0A61BB70B881F991FCA
:101FE0005A95A9F780959095BC01CD01089597FB6E
:101FF000072E16F4009407D077FD09D00E94E30F56
:1020000007FC05D03EF4909581959F4F08957095FB
:1020100061957F4F0895A1E21A2EAA1BBB1BFD01FB
:102020000DC0AA1FBB1FEE1FFF1FA217B307E407B7
:10203000F50720F0A21BB30BE40BF50B661F771F0F
:10204000881F991F1A9469F76095709580959095EF
:102050009B01AC01BD01CF010895EE0FFF1F05905C
:10206000F491E02D0994CF93DF938230910510F421
:1020700082E090E0E0912904F0912A0420E030E031
:10208000C0E0D0E0309711F14081518148175907E5
:10209000C0F04817590761F482819381209719F0A5
:1020A0009B838A832BC090932A048093290426C0A3
:1020B0002115310519F04217530718F49A01BE0192
:1020C000DF01EF010280F381E02DDCCF2115310526
:1020D00009F1281B390B2430310590F412968D91AB
:1020E0009C9113976115710521F0FB019383828305
:1020F00004C090932A0480932904FD01329644C0C1
:10210000FD01E20FF31F81939193225031092D932A
:102110003C933AC02091270430912804232B41F4AA
:102120002091020130910301309328042093270469
:1021300020910001309101012115310541F42DB7A5
:102140003EB74091040150910501241B350BE091ED
:102150002704F0912804E217F307A0F42E1B3F0B8D
:102160002817390778F0AC014E5F5F4F2417350709
:1021700048F04E0F5F1F509328044093270481932B
:10218000919302C0E0E0F0E0CF01DF91CF9108959C
:102190000F931F93CF93DF93009709F48CC0FC013A
:1021A0003297138212820091290410912A0401159A
:1021B000110581F420813181820F931F2091270422
:1021C000309128042817390779F5F0932804E09313
:1021D000270471C0D80140E050E0AE17BF0750F4AB
:1021E00012962D913C911397AD012115310509F1FE
:1021F000D901F3CF9D01DA0133832283608171819C
:10220000860F971F8217930769F4EC0128813981A3
:10221000260F371F2E5F3F4F318320838A819B819A
:1022200093838283452B29F4F0932A04E0932904B5
:1022300042C01396FC93EE931297ED014991599188
:102240009E01240F351FE217F30771F480819181FD
:10225000840F951F029611969C938E938281938191
:1022600013969C938E931297E0E0F0E0D8011296BB
:102270008D919C911397009719F0F8018C01F6CF7E
:102280008D919C9198012E5F3F4F820F931F20915B
:102290002704309128042817390769F4309729F466
:1022A00010922A041092290402C013821282109301
:1022B000280400932704DF91CF911F910F91089577
:1022C000A0E0B0E0E6E6F1E10C946912EC010097C1
:1022D00021F4CB010E943310B8C0FC01E60FF71FB8
:1022E0009C0122503109E217F30708F4ACC0D90170
:1022F0000D911C91119706171707B0F005301105C5
:1023000008F49FC0C80104978617970708F499C07E
:1023100002501109061B170B019311936D937C93C7
:10232000CF010E94C8108DC05B01A01AB10A4C01F8
:10233000800E911EA0912904B0912A0440E050E043
:10234000E12CF12C109709F44AC0A815B905D1F574
:102350006D907C901197630182E0C80ED11CCA1465
:10236000DB0480F1A3014A195B096A0182E0C80E0F
:10237000D11C1296BC9012971396AC91B5E0CB1677
:10238000D10440F0B282A38351834083D9016D937D
:102390007C930AC00E5F1F4FC301800F911FF9018C
:1023A00091838083EB2DFA2FE114F10431F0D701F2
:1023B0001396FC93EE93129744C0F0932A04E09393
:1023C00029043FC08D919C9111974817590708F433
:1023D000AC017D0112960D90BC91A02DB3CF8091E0
:1023E00027049091280488159905E1F446175707AA
:1023F000C8F48091000190910101009741F48DB7DC
:102400009EB74091040150910501841B950BE8177C
:10241000F907C8F4F0932804E0932704F9017183C5
:1024200060830FC0CB010E9433107C01009759F0EC
:10243000A801BE010E943C12CE010E94C810C70133
:1024400004C0CE0102C080E090E0CDB7DEB7EEE080
:102450000C94851281E090E0F8940C949C12FB019E
:10246000DC0104C08D910190801921F4415050404D
:10247000C8F7881B990B0895FB01DC0102C001908D
:102480000D9241505040D8F70895FB01DC018D9129
:10249000019080190110D9F3990B0895FB01DC011B
:1024A00001900D920020E1F70895FB01DC010590F9
:1024B0000D920020E1F70895FC0105900020E9F756
:1024C000809590958E0F9F1F08952F923F924F9267
:1024D0005F926F927F928F929F92AF92BF92CF92B4
:1024E000DF92EF92FF920F931F93CF93DF93CDB7BD
:1024F000DEB7CA1BDB0B0FB6F894DEBF0FBECDBF35
:1025000009942A88398848885F846E847D848C8405
:102510009B84AA84B984C884DF80EE80FD800C810E
:102520001B81AA81B981CE0FD11D0FB6F894DEBFF1
:0C2530000FBECDBFED010895F894FFCF61
:10253C0000002B0480000000000019099508E20837
:10254C00C008D40860095245535420636F64652059
:10255C00004F4E002F6A736F6E2E68746D3F747946
:10256C0070653D636F6D6D616E6426706172616D37
:10257C003D7377697463686C6967687426696478FD
:10258C003D323726737769746368636D643D4F6EB3
:10259C00004F4646002F6A736F6E2E68746D3F7441
:1025AC007970653D636F6D6D616E642670617261EB
:1025BC006D3D7377697463686C69676874266964C8
:1025CC00783D323726737769746368636D643D4F69
:1025DC00666600454C2D436C69656E7420287265E7
:1025EC002D297374617274696E672100454C2D43FB
:1025FC006C69656E742073796E63206661696C65B5
:10260C00642100454C2D436C69656E742073796EA2
:10261C006365642100454C433A20676F74200020A9
:10262C004000454C433A20496E76616C6964204306
:10263C00524300524553505F563A20005245535076
:10264C005F43423A20004E4545445F53594E432167
:10265C0000434D443F3F000D0A006B6F6E6965638C
:10266C002073656B77656E636A692073746172742D
:10267C006F77656A003139322E3136382E312E356E
:10268C0034005245535420626567696E2066616957
:10269C006C65643A2000454C2D52455354207265AC
:1026AC0061647900776C61637A616D20706F6D7015
:1026BC006B650077796C61637A616D20706F6D70FA
:1026CC006B650025002F537465726F77616E6965B9
:1026DC002E68746D6C2E6A736F6E004241443A2002
:0626EC0000474554000008
:00000001FF
