:100000000C94B8000C94E0000C94E0000C94E00018
:100010000C94E0000C94E0000C94E0000C94E000E0
:100020000C94E0000C94E0000C94E0000C94E000D0
:100030000C94E0000C94E0000C94E0000C94E000C0
:100040000C9461050C94E0000C94CE030C94A8036E
:100050000C94E0000C94E0000C94E0000C94E000A0
:100060000C94E0000C94E00069645F6F66660069C0
:10007000645F6F6E00506F6D7061206A65737420ED
:100080007779C582C485637A6F6E61007465787410
:1000900000506F6D7061206A6573742077C582C4EB
:1000A00085637A6F6E61007465787400506F6D704F
:1000B00061206A657374207779C582C485637A6F1D
:1000C0006E61007465787400506F6D7061206A65B0
:1000D00073742077C582C485637A6F6E610074651E
:1000E00078740048616E646C6572206E6F7420666F
:1000F0006F756E6420666F722055524C3A00000096
:100100000000240027002A0000000000250028002D
:100110002B00000000002300260029000404040432
:1001200004040404020202020202030303030303A1
:10013000010204081020408001020408102001027E
:10014000040810200000000800020100000304075A
:1001500000000000000000002F537465726F77618B
:100160006E69652E68746D6C2E6A736F6E007E0DFD
:1001700011241FBECFEFD8E0DEBFCDBF12E0A0E05C
:10018000B1E0E6EDF7E202C005900D92A036B107AE
:10019000D9F723E0A0E6B2E001C01D92A93EB20764
:1001A000E1F710E0C8EBD0E004C02197FE010E9407
:1001B0003611C73BD107C9F70E94150E0C94E913FD
:1001C0000C940000CF92DF92EF92FF920F931F9357
:1001D000CF93DF936C017A018B01C0E0D0E0CE15A4
:1001E000DF0589F0D8016D918D01D601ED91FC916B
:1001F0000190F081E02DC6010995892B11F47E0153
:1002000002C02196ECCFC701DF91CF911F910F91D2
:10021000FF90EF90DF90CF900895FC01918D828D3B
:10022000981761F0828DDF01A80FB11D5D968C914A
:10023000928D9F5F9F73928F90E008958FEF9FEF55
:100240000895FC01918D828D981731F0828DE80F11
:10025000F11D858D90E008958FEF9FEF0895FC01CB
:10026000918D228D892F90E0805C9F4F821B910998
:100270008F73992708958DE792E00E942F0121E066
:10028000892B09F420E0822F0895FC01848DDF0181
:10029000A80FB11DA35ABF4F2C91848D90E00196F9
:1002A0008F739927848FA689B7892C93A089B189E8
:1002B0008C9180648C93938D848D981306C00288F2
:1002C000F389E02D80818F7D80830895EF92FF92E6
:1002D0000F931F93CF93DF93EC0181E0888F9B8D69
:1002E0008C8D981305C0E889F989808185FD24C02B
:1002F000F62E0B8D10E00F5F1F4F0F731127E02EAE
:100300008C8DE8120CC00FB607FCFACFE889F9898A
:10031000808185FFF5CFCE010E944501F1CF8B8D05
:10032000FE01E80FF11DE35AFF4FF0820B8FEA89BF
:10033000FB898081806207C0EE89FF896083E8893C
:10034000F98980818064808381E090E0DF91CF91A2
:100350001F910F91FF90EF900895CF93DF93EC01E1
:10036000888D8823C9F0EA89FB89808185FD05C0D5
:10037000A889B9898C9186FD0FC00FB607FCF5CF0F
:10038000808185FFF2CFA889B9898C9185FFEDCF57
:10039000CE010E944501E7CFDF91CF91089580E023
:1003A00090E0892B29F00E943B0181110C94000000
:1003B0000895833081F028F4813099F08230A1F0E3
:1003C00008958730A9F08830B9F08430D1F4809155
:1003D00080008F7D03C0809180008F7780938000A4
:1003E000089584B58F7702C084B58F7D84BD08954C
:1003F0008091B0008F7703C08091B0008F7D809393
:10040000B00008953FB7F89480916502909166021C
:10041000A0916702B091680226B5A89B05C02F3F46
:1004200019F00196A11DB11D3FBFBA2FA92F982F1A
:100430008827820F911DA11DB11DBC01CD0142E095
:10044000660F771F881F991F4A95D1F70895DC0121
:100450001296ED91FC9113973097F1F02D913C910C
:10046000119721153105B1F014964D915C911597B6
:10047000CA019595879540FF0AC0D901A80FB91FF9
:100480004D915C91E40FF51F0190F081E02D820FFA
:10049000931F0994CB0109940895EF92FF920F9353
:1004A0001F93CF93DF93EC0188819981EC81FD81CB
:1004B000228133818217930760F5EA81FB810191E4
:1004C00011912EEF3FEF201B310B7901A3E0EA22BF
:1004D000FF24FB83EA83019699838883CB019A01E9
:1004E0000417150708F49801260F371F8217930782
:1004F00029F04191DC014D93CD01F8CF9701200FF8
:10050000311F8A819B81280F391F3B832A83C801B1
:1005100002C08FEF9FEFDF91CF911F910F91FF905E
:10052000EF900895CF93DF93FC0180819181A481A6
:10053000B58112962D913C91139782179307E0F4A1
:10054000A281B3814D915D91B383A2830196918382
:100550008083EB01B983A8832EEF3FEF241B350B7B
:1005600023703327240F351F82819381280F391F71
:1005700033832283CA0102C08FEF9FEFDF91CF91B7
:1005800008954627342F252FA901442784E0440FDE
:10059000551F8A95E1F742275327CA01892F9927CA
:1005A00082958F7048275927CA01882735E096958C
:1005B00087953A95E1F7842795270895EF92FF9262
:1005C0000F931F93CF93DF937C01C901EB018B0144
:1005D000040F151FC017D10731F06991AC01C70195
:1005E0000E94C102F7CFDF91CF911F910F91FF9031
:1005F000EF900895CF93DF93EC018A859B85603C53
:10060000A1F06B3D21F5DC01ED91FC910190F081B1
:10061000E02D6BED09958A859B85DC01ED91FC91C0
:100620000190F081E02D6DED18C0DC01ED91FC91A1
:100630000190F081E02D6BED09958A859B85DC01A9
:10064000ED91FC910190F081E02D6CED06C0DC0194
:10065000ED91FC910190F081E02DDF91CF91099413
:10066000EF92FF920F931F93CF93DF937C01EB01E7
:100670008B01040F151FC017D10729F06991C7011D
:100680000E94FA02F8CFDF91CF911F910F91FF9056
:10069000EF9008956115710579F0FB01019000203C
:1006A000E9F73197AF01461B570BDC01ED91FC9147
:1006B0000280F381E02D099480E090E0089566E1E6
:1006C00071E00C944A030F931F93CF93DF93EC01D7
:1006D0000E944A038C01CE010E945F03800F911F8C
:1006E000DF91CF911F910F9108950C944A030F93BE
:1006F0001F93CF93DF936115710529F18B01EC01F5
:10070000BC01645F7F4F42E050E0C8010E944D028F
:10071000EC81FD818485882371F069E171E080813D
:1007200091810E9475036C857D85EC81FD818081BE
:1007300091810E94000DBE01605F7F4FC8010E9441
:1007400092029F878E87DF91CF911F910F9108951D
:100750001F920F920FB60F9211242F933F934F9336
:100760005F936F937F938F939F93AF93BF93EF9319
:10077000FF938DE792E00E944501FF91EF91BF91B9
:10078000AF919F918F917F916F915F914F913F9129
:100790002F910F900FBE0F901F9018951F920F92E0
:1007A0000FB60F9211242F938F939F93EF93FF9384
:1007B000E0918D02F0918E028081E0919302F091A0
:1007C000940282FD12C09081809196028F5F8F7398
:1007D00020919702821751F0E0919602F0E0E358E1
:1007E000FD4F958F8093960201C08081FF91EF911C
:1007F0009F918F912F910F900FBE0F901F90189582
:10080000CF93DF93282F30E0F901EC5BFE4F84910A
:10081000F901E05DFE4FD491F901E45EFE4FC49111
:10082000CC2391F081110E94D901EC2FF0E0EE0F62
:10083000FF1FEE5EFE4FA591B491EC91ED2381E098
:1008400090E021F480E002C080E090E0DF91CF9161
:10085000089582E10E940004892B29F468EC70E07D
:100860008EED90E004C06CEA70E083EC90E00C94B4
:100870006C0B82E10E940004892B29F461E970E08D
:1008800087EA90E004C065E770E08CE890E00C94A3
:100890006C0B1F93CF93DF93282F30E0F901EC5BB3
:1008A000FE4F8491F901E05DFE4FD491F901E45EC1
:1008B000FE4FC491CC23C9F0162F81110E94D9019B
:1008C000EC2FF0E0EE0FFF1FE85FFE4FA591B49113
:1008D0008FB7F894111105C09C91ED2FE095E92395
:1008E00002C0EC91ED2BEC938FBFDF91CF911F9164
:1008F00008951F93CF93DF93CDB7DEB72C970FB634
:10090000F894DEBF0FBECDBFBC01CE0101960E94A0
:10091000240C18861F821A8619861C861B866FE691
:1009200070E0CE0107960E94F70BBE01695F7F4F12
:10093000CE0101960E94C50B182FCE0107960E948A
:100940001F0C112351F060E081E10E94490464E230
:1009500071E08DE792E00E94630318861F821A8679
:1009600019861C861B8668E670E0CE0107960E94F9
:10097000F70BBE01695F7F4FCE0101960E94C50B48
:10098000182FCE0107960E941F0C112351F061E031
:1009900081E10E94490467E271E08DE792E00E94E4
:1009A0006303CE0101960E941F0C2C960FB6F8949B
:1009B000DEBF0FBECDBFDF91CF911F910895CF93C2
:1009C000DF9390E0FC01E05DFE4F2491FC01E45ECA
:1009D000FE4F8491882361F190E0880F991FFC01FC
:1009E000E250FF4FC591D491FC01E85FFE4FA59105
:1009F000B491611109C09FB7F89488812095822332
:100A00008883EC912E230BC0623061F49FB7F89479
:100A10003881822F809583238883EC912E2B2C9311
:100A20009FBF06C08FB7F894E8812E2B28838FBF15
:100A3000DF91CF9108958F929F92AF92BF92CF9204
:100A4000DF92EF92FF926B017C010E9402024B0148
:100A50005C01C114D104E104F104F1F00E9402022E
:100A6000DC01CB0188199909AA09BB09883E93408A
:100A7000A105B10570F321E0C21AD108E108F1081F
:100A800088EE880E83E0981EA11CB11CC114D1040D
:100A9000E104F10419F7DDCFFF90EF90DF90CF90E4
:100AA000BF90AF909F908F9008952FB7F89460916A
:100AB00061027091620280916302909164022FBF83
:100AC00008951F920F920FB60F9211242F933F9308
:100AD0008F939F93AF93BF93809161029091620235
:100AE000A0916302B09164023091600223E0230F71
:100AF0002D3720F40196A11DB11D05C026E8230F56
:100B00000296A11DB11D2093600280936102909313
:100B10006202A0936302B093640280916502909197
:100B20006602A0916702B09168020196A11DB11DF5
:100B30008093650290936602A0936702B093680267
:100B4000BF91AF919F918F913F912F910F900FBEC9
:100B50000F901F901895CF93DF93EC01BC01635F5A
:100B60007F4F42E050E00E9430038A859B85DC0184
:100B7000ED91FC910190F081E02D60ECDF91CF913F
:100B80000994CF92DF92EF92FF920F931F93CF932E
:100B9000DF9300D0CDB7DEB78C017B015A83498348
:100BA00042E050E0BE016F5F7F4F0E943003F801CA
:100BB0002585368542E050E0BE016F5F7F4FC8015A
:100BC0000E94DE02F80196878587C980DA80CE0C04
:100BD000DF1CEC14FD0491F0F7016081C8010E9454
:100BE000FA02F80145855685F70161917F01C80138
:100BF0000E94C102F80196878587EBCFE980FA80D1
:100C0000F194E194F108F3E0EF22FF24F1E0EF1A10
:100C1000F10878F060E0C8010E94FA02F801458509
:100C2000568560E0C8010E94C102F8019687858759
:100C3000EDCF0F900F90DF91CF911F910F91FF900B
:100C4000EF90DF90CF900895EF92FF920F931F9354
:100C5000CF93DF93CDB7DEB728970FB6F894DEBFFA
:100C60000FBECDBF7C017A8369832B833C834D8388
:100C70005E8318870F83DC011E961C921E921D97BF
:100C80001A968D919C911B97DC01ED91FC9101903E
:100C9000F081E02D60EC099542E050E0BE016F5F0D
:100CA0007F4FC7010E943003F7012585368542E05A
:100CB00050E0BE016F5F7F4FC7010E94DE02D70187
:100CC0001E969C938E931D9742E050E0BE01695F93
:100CD0007F4FC7010E943003F7012585368542E02A
:100CE00050E0BE01695F7F4FC7010E94DE02D7015D
:100CF0001E969C938E931D9744E050E0BE016D5F5D
:100D00007F4FC7010E943003F7012585368544E0F7
:100D100050E0BE016D5F7F4FC7010E94DE02D70128
:100D20001E969C938E931D9728960FB6F894DEBF5F
:100D30000FBECDBFDF91CF911F910F91FF90EF902C
:100D400008952F923F924F925F926F927F928F926F
:100D50009F92AF92BF92CF92DF92EF92FF920F934A
:100D60001F93CF93DF93CDB7DEB728970FB6F894D4
:100D7000DEBF0FBECDBF8C012DB73EB738872F83A6
:100D8000E0906902F0906A0242E050E0BE016B5FC1
:100D90007F4F0E944D02AD80BE80370132E0630E6E
:100DA000711C44E050E0B301C8010E944D022701CC
:100DB00086E0480E511C42E050E0B201C8010E949A
:100DC0004D02BE016D5F7F4FC8010E9492024C012F
:100DD000D7011896CD90DC9019972B803C80C114D8
:100DE000D10449F1F601848195818815990541F472
:100DF00060817181A401C1010E943813892B31F0F7
:100E0000D6015E96CD90DC905F97E9CFB2E0AB164D
:100E1000B10409F449C01CF4B7FEC3C0F8C0F3E044
:100E2000AF16B10409F0F3C084E0882E912CE2E102
:100E3000CE0ED11C66C0D701ED91FC91848588232C
:100E400009F4E5C0C080D18003EE10E0F8016491A0
:100E5000611103C000E010E00DC0D601ED91FC91DE
:100E60000190F081E02DC60109950F5F1F4F892B7E
:100E700069F7F0CFD701ED91FC9180819181081540
:100E8000190579F0DC01ED91FC91AB81BC81A00FDB
:100E9000B11F0190F081E02D6C9109950F5F1F4FFC
:100EA000E9CF0E945F03B3C02DB63EB6BE016F5FAF
:100EB0007F4FC8010E9492028C010196EDB7FEB7E8
:100EC000E81BF90B0FB6F894FEBF0FBEEDBF2DB7B0
:100ED0003EB72F5F3F4F490169817A81A801C9015F
:100EE0000E944513F401E00FF11F1082B401C60106
:100EF00048960E9427020FB6F8943EBE0FBE2DBE44
:100F000050C0D8011496ED91FC9115978281938180
:100F10008816990608F07BC0BE016F5F7F4FC8013D
:100F20000E94920249805A80D2011196FD010190DF
:100F30000020E9F731975F01AA1ABB0A3C016A1841
:100F40007B08C30101970E943C11D7011B969C931B
:100F50008E931A97A30142505109FC01E40FF51F2B
:100F60001082B5016E5F7F4F640D751D1A968D91CD
:100F70009C911B970E94451369817A816F5F7F4F17
:100F8000C6010E942702F701828593850E94D11134
:100F9000D7011B961C921E921A97BFEF8B1A9B0AC1
:100FA000B0CF0FEF10E024E630E040E050E06FE11A
:100FB00070E0F701808191810E94240644E050E0B6
:100FC000B301D7018D919C910E94C10542E050E090
:100FD000B201F701808191810E94C105D6016D9116
:100FE0007C91C601AB2811F4069601C00C960E94B4
:100FF000270240E050E060E070E0F70180819181DD
:101000000E94C105D7018D919C910E94AB05EF8193
:10101000F8850FB6F894FEBF0FBEEDBF28960FB649
:10102000F894DEBF0FBECDBFDF91CF911F910F911E
:10103000FF90EF90DF90CF90BF90AF909F908F90F8
:101040007F906F905F904F903F902F9008950F93F7
:101050001F93CF93DF9300D000D0CDB7DEB76BE204
:1010600071E08DE792E00E9463030E94820C81117F
:1010700003C064E471E0F5CF6BE571E08DE792E0C9
:101080000E94630301E010E020E030E0A9016EE17E
:1010900070E080916B0290916C020E94240687E7B9
:1010A00092E0092E000CAA0BBB0B89839A83AB83B9
:1010B000BC8344E050E0BE016F5F7F4F80916B02C4
:1010C00090916C020E94C10580916B0290916C021C
:1010D0000E94AB050F900F900F900F90DF91CF9172
:1010E0001F910F9108958F929F92AF92BF92DF92BE
:1010F000EF92FF920F931F93CF93DF9300D000D016
:1011000000D0CDB7DEB78C01DD24D394D8011A9678
:101110008D919C911B97DC01ED91FC910480F581F0
:10112000E02D0995892B09F48AC1D8011A968D9171
:101130009C911B97DC01ED91FC910680F781E02DDD
:1011400009958B3D910519F4F801D58ADFCFD801B7
:1011500053962D913C915497803C910509F04AC1DA
:101160002830310508F437C1F801E784F088848518
:10117000882309F484C06DE671E0808191810E942A
:101180007503D80153964D915C91549760E070E0DF
:101190002AE08D919C910E94390C67E771E0F8017B
:1011A000808191810E947503D8011F964D915C91B9
:1011B0005097052E000C660B770B20E18D919C91CA
:1011C0000E94390C6BE971E0F801808191810E94E5
:1011D0007503D7014D915C9160E070E020E1F8016A
:1011E000808191810E94390C6CE971E0D8018D9168
:1011F0009C910E947503F701448155816681778136
:1012000020E1D8018D919C910E94390C6CE971E02C
:10121000F801808191810E947503D70112964D914A
:101220005C91139760E070E020E1F801808191818A
:101230000E94390C48E0A42EB12CF801238934898E
:1012400080819181A216B306C0F46CE971E00E941E
:101250007503D8011F96ED91FC915097EA0DFB1D87
:10126000408150E060E070E020E18D919C910E940F
:10127000390CBFEFAB1ABB0AE0CF0E945F03D80165
:101280005396AD90BC905497B2E0AB1AB108F801F8
:101290008784908820E030E0A501B401C8010E9455
:1012A000DE02F401EA0DFB1D2081318182179307D4
:1012B00061F0D8011C968C911C97882309F48BC08F
:1012C0006AE771E08D919C9184C0F70180819181E2
:1012D0008230910539F08330910519F1019709F0B9
:1012E00070C05FC0D8011C968C911C97882309F4AC
:1012F00074C06BE871E08D919C910E947503F801B8
:10130000A080B180D70114964D915D916D917C9133
:1013100017972AE0C5010E94390CC5010E945F039E
:101320005CC0F8018485882359F164E971E080810B
:1013300091810E947503D70114964D915D916D9135
:101340007C9117972AE0F801808191810E94390CE5
:101350006CE971E0D8018D919C910E947503F801B0
:10136000A080B180D70112964D915C91139760E0F7
:1013700070E02AE0C5010E94390CC5010E945F039C
:10138000F701A481B5818D919C911197009709F087
:1013900059C012962D913C911397232B09F052C0FE
:1013A0001AC06EE971E0D8018D919C910E9463038F
:1013B000D8011896ED91FC911997309761F0099535
:1013C0000AC0F8018485882331F069EA71E08081E0
:1013D00091810E946303E12CF12CD80154961C9258
:1013E0001E92539755961C92E114F10409F48ECE87
:1013F000C70158C0F8014589442371F08C3D91051F
:1014000031F08D3D910529F48BED90E002C080EC28
:1014100090E0D80155961C92F80141895289241711
:10142000350708F073CE47855089B9016F5F7F4F4C
:10143000748B638BFA01E20FF31F808367CE80E029
:1014400090E030C0FE82ED82E8E0EE0EF11CFC82FE
:10145000EB821A8219821296ED91FC9113973097C4
:1014600009F4B9CF0097D1F014962D913C911597BE
:10147000A9015595479520FF0AC0DC01A40FB51FAF
:101480002D913C91E20FF31F0190F081E02DBE0100
:101490006F5F7F4F840F951F09959DCFCE010196F9
:1014A000099599CF26960FB6F894DEBF0FBECDBF33
:1014B000DF91CF911F910F91FF90EF90DF90BF9040
:1014C000AF909F908F9008950F931F938091B203D8
:1014D000882329F061E08091B0030E94DF0460E07E
:1014E0008091B0030E94490483E090E00197F1F7F6
:1014F00061E08091B0030E94490483E290E001978B
:10150000F1F760E08091B0030E9449048091B2033A
:10151000882329F060E08091B0030E94DF0480916D
:10152000B10390E0FC01E05DFE4F6491FC01E45EDC
:10153000FE4FE491F0E0EE0FFF1FEE5EFE4F85914F
:1015400094910091B3031091B4032091B5033091AD
:10155000B6033F70462F0E94390D61157105810554
:10156000910539F0DC01CB010196A11DB11DBF70C1
:1015700003C080E090E0DC016CE170E00E94EC10C0
:10158000769567956A5F710924E6269FC001279FBB
:10159000900D11246EE27FEF0E940011CB011F918C
:1015A0000F910895CF92DF92EF92FF92CF93DF9346
:1015B000EC010E9455056B017C010E945505AB01B1
:1015C000BC014C195D096E097F09403D574061051A
:1015D000710530F4CE010E947308009771F302C0C8
:1015E00080E090E0DF91CF91FF90EF90DF90CF907F
:1015F00008950E9433130F931F93CF93DF93EC0151
:1016000088819981009729F02A813B812617370725
:1016100088F48B016F5F7F4F0E946912009761F021
:10162000998388831B830A832C813D81232B11F4AA
:10163000FC01108281E001C080E0DF91CF911F9119
:101640000F910895CF93DF93EC01888199810097E2
:1016500011F00E94D111198218821D821C821B82F6
:101660001A82DF91CF910895EF92FF920F931F930B
:10167000CF93DF93EC017B018A01BA010E94FB0A40
:10168000811104C0CE010E94220B07C01D830C8370
:10169000B701888199810E945713CE01DF91CF91C4
:1016A0001F910F91FF90EF900895CF93DF93EC017E
:1016B000FB018617970761F06081718161157105E3
:1016C00029F0448155810E94340B02C00E94220BF4
:1016D000CE01DF91CF9108956F927F928F929F926A
:1016E000AF92BF92CF92DF92EF92FF920F931F9330
:1016F000CF93DF93CDB7DEB73C016B01ADB6BEB67D
:101700000E9474138C01C6010E9474131127980162
:10171000280F311D490182E0880E911C2D5F3F4F3B
:10172000EDB7FEB7E21BF30B0FB6F894FEBF0FBE8A
:10173000EDBF8DB79EB701967C011182B301019672
:101740000E946D13C8010296B6018E0D9F1D0E9466
:101750006D13A401B70180916B0290916C020E94FD
:10176000C1050FB6F894BEBE0FBEADBEDF91CF91DE
:101770001F910F91FF90EF90DF90CF90BF90AF90AF
:101780009F908F907F906F900895FC012481358108
:10179000FB01448155812417350721F5FC01808127
:1017A0009181FB0160817181009719F061157105CC
:1017B000A1F46115710549F0232BB1F0FB01808183
:1017C00090E09195819591090AC0009769F0232BCB
:1017D00059F0FC01808190E002C00E944E1321E08C
:1017E000892B19F020E001C021E0822F0895EF92AB
:1017F000FF920F931F93CF93DF93EC018B01611541
:10180000710551F0CB010E9474137C01BC01CE0123
:101810000E94FB0A811104C0CE010E94220B07C066
:10182000FD82EC82B801888199810E946D13CE01FE
:10183000DF91CF911F910F91FF90EF900895FC01E0
:10184000808191810C94D111FC011182108213824C
:101850001282158214826115710551F0FB0101900D
:101860000020E9F73197AF01461B570B0C94340B5E
:1018700008954F925F926F927F92EF92FF920F9333
:101880001F93CF93DF93CDB7DEB7A1970FB6F89430
:10189000DEBF0FBECDBF7C01FA01CB0119A2223001
:1018A00008F42AE08E010F5D1F4F422E512C612C4F
:1018B000712CBF01A30192010E941411F901CA0108
:1018C000015011096A3014F4605D01C0695CD801EF
:1018D0006C93232B242B252B61F7B801C7010E94A1
:1018E0004A03A1960FB6F894DEBF0FBECDBFDF91BD
:1018F000CF911F910F91FF90EF907F906F905F902D
:101900004F900895AF92BF92CF92DF92EF92FF92E5
:101910000F931F93CF93DF9380912403909125031E
:10192000DC01ED91FC910190F081E02D60EC0995D6
:101930008CE193E06C01990FEE08FF0800E010E0E5
:10194000A701960161E070E08AE193E00E9424061D
:101950008AE193E00E94AB050091220310912303DA
:1019600010922303109222038AE193E00E94D20A8C
:10197000EC01892BA9F14C815D816E817F81809181
:1019800026034C155D056E057F0581F4882341F023
:1019900063EA71E080911A0390911B030E94630334
:1019A000109323030093220381E01FC08823E1F2F8
:1019B0006FEA71E080911A0390911B030E947503F6
:1019C000A0901A03B0901B034C815D816E817F81D2
:1019D0002AE0C5010E94390CC5010E945F03C4CFF3
:1019E000109323030093220380E0DF91CF911F9196
:1019F0000F91FF90EF90DF90CF90BF90AF90089540
:101A0000CF92DF92EF92FF920F931F93CF93DF93CA
:101A1000EC016B01770FEE08FF08F7FE16C0E881B6
:101A2000F9810190F081E02D6DE209958C01442748
:101A30005527BA014C195D096E097F092AE0CE01CC
:101A40000E94390C080F191F06C02AE0B701A60131
:101A50000E94390C8C01CE010E945F03800F911F00
:101A6000DF91CF911F910F91FF90EF90DF90CF907A
:101A70000895CF92DF92EF92FF920F931F93E82F7A
:101A8000F92F05C0015011092109310961F1908137
:101A900096239417B9F305C00150110921093109A2
:101AA00011F1908196239413F7CFC12CD12CE12C06
:101AB000F12C0AC08FEFC81AD80AE80AF80A0C15E8
:101AC0001D052E053F0579F080818623841791F34B
:101AD0006C2D7D2D8E2D9F2D1F910F91FF90EF90DE
:101AE000DF90CF90089560E070E080E090E01F917B
:101AF0000F91FF90EF90DF90CF9008950F931F9379
:101B0000CF93DF93CDE7D2E01B821A8288EE93E079
:101B1000A0E0B0E08C839D83AE83BF838AE091E038
:101B20009983888385EC90E09D878C8784EC90E096
:101B30009F878E8780EC90E0998B888B81EC90E07A
:101B40009B8B8A8B82EC90E09D8B8C8B86EC90E05B
:101B50009F8B8E8B198E1A8E1B8E1C8E00EB13E0C2
:101B6000F80112828FE0808380E1818361E08FE061
:101B70000E94DF0460E0F80181810E94DF0480E2BE
:101B80009EE4A0E0B0E0F80183839483A583B6834C
:101B9000EAE1F3E0D183C0831382128215821482BA
:101BA000D387C28781E0848780E393E0908B878727
:101BB00080E890E0928B818B148A138A158AABE6B9
:101BC000B2E01196FC93EE9319961C921E92189710
:101BD0001B961C921E921A971D961C921E921C9781
:101BE000B0936A02A093690281EA96E01F969C93E3
:101BF0008E931E97A3EDB3E017961C921E92169734
:101C000019961C921E9218971596FC93EE931497B2
:101C10004FEF5FEFBA014D935D936D937C931397F4
:101C2000DF91CF911F910F910895CF93DF93CDB79F
:101C3000DEB7C355D1090FB6F894DEBF0FBECDBFD6
:101C4000789484B5826084BD84B5816084BD85B597
:101C5000826085BD85B5816085BD80916E008160A3
:101C600080936E0010928100809181008260809349
:101C7000810080918100816080938100809180004B
:101C80008160809380008091B10084608093B10076
:101C90008091B00081608093B00080917A00846070
:101CA00080937A0080917A00826080937A0080919C
:101CB0007A00816080937A0080917A0080688093B6
:101CC0007A001092C100E0918D02F0918E0282E0C4
:101CD0008083E0918902F0918A021082E0918B0268
:101CE000F0918C0280E1808310929502E091910244
:101CF000F091920286E08083E0918F02F091900251
:101D0000808180618083E0918F02F09190028081D8
:101D100088608083E0918F02F091900280818068DA
:101D20008083E0918F02F091900280818F7D80838B
:101D300061E08EE00E94DF0461E08FE00E94DF043A
:101D400060E080E10E94DF0461E081E10E94DF0445
:101D500060E082E10E94DF0461E08EE00E944904BD
:101D600061E081E10E94490465EB71E08DE792E05A
:101D70000E9463030E94820C811103C064E471E03D
:101D8000F5CF6BE571E08DE792E00E9463031A8264
:101D900019821C821B821E821D8268E571E0CE01C1
:101DA00001967C010E94F70B80E290E00E943C11BA
:101DB0008C0180E2F80111928A95E9F768E171E0FF
:101DC000C8010E94240CF801178216821186108621
:101DD0001586148617861686138A128A158A148A1F
:101DE000118E108E138E128EB701C8010E94550BF2
:101DF0008091730290917402F801978F868F1093EF
:101E0000740200937302C7010E941F0C89E394E0DF
:101E1000F8019187808789E294E09787868789E730
:101E200094E0938F828F87E298E0909323038093CE
:101E300022030E94270880E99FE164969FAF8EAF3E
:101E40006497198283ED93E09093DA038093D9032A
:101E500087E793E09093DC038093DB031092DE032B
:101E60001092DD0303E010E029ED33E0032E000CB7
:101E7000440B550B64E170E08091D7039091D80337
:101E80000E9424064CE050E062E572E08091D703A6
:101E90009091D8030E94C10542E050E0BE016E5A05
:101EA0007F4F8091D7039091D8030E94C10541E0F4
:101EB00050E0B7018091D7039091D8030E94C105EB
:101EC0008091D7039091D8030E94AB058091D703EE
:101ED0009091D8030E94D20A009791F0FC014481AE
:101EE00055816681778177FD0BC04093D303509372
:101EF000D4036093D5037093D60380E090E003C0D1
:101F0000FC0184819581892B39F060ED71E08DE7CA
:101F100092E00E947503FFCF64EE71E08DE792E0DE
:101F20000E9463038AE193E00E9473080E945505B2
:101F30000091CF031091D0032091D1033091D203AF
:101F40005B016C01A01AB10AC20AD30A40EAA416C6
:101F50004BEBB4064DE0C406D104F0F06093CF0320
:101F60007093D0038093D1039093D2038EE00E94AC
:101F70000004019739F460E08EE00E94490462EFAA
:101F800071E006C061E08EE00E94490461E072E009
:101F90008DE792E00E9463030E9455050091CB03F8
:101FA0001091CC032091CD033091CE035B016C01E5
:101FB000A01AB10AC20AD30A40E2A4164EE4B4063B
:101FC000C104D10408F401C16093CB037093CC0326
:101FD0008093CD039093CE030E94640A8C0161E14B
:101FE00072E0CE01845B9F4F0E94240C28961FAEA6
:101FF0001EAE28972A961FAE1EAE2A972C961FAEAD
:102000001EAE2C974AE0B701C8010E947D13F7016C
:1020100001900020E9F73197AF014E195F09B70130
:10202000CE018A5B9F4F0E94340B1A8219821C8258
:102030001B821E821D82BE01645B7F4FC7010E940E
:10204000550B2C968EAD9FAD2C972896CEACDFAC61
:1020500028970D811E81C114D10409F4B9C00097DD
:10206000A1F0080F191FB801C7010E94FB0A8823BD
:1020700009F4AEC029813A818D819E81B601820F1B
:10208000931F0E9457131E830D8322961FAE1EAE10
:10209000229724961FAE1EAE249726961FAE1EAE24
:1020A0002697B701CE01805C9F4F0E94550BC70158
:1020B0000E941F0C26964EAD5FAD269722966EAD00
:1020C0007FAD22978DE792E00E94E2008DE792E0DB
:1020D0000E945F0322966EAD7FAD22974FE350E0E2
:1020E000C7010E945E131FAEB7018DE792E00E9408
:1020F00063031092E0031092DF032091D303309129
:10210000D4034091D5035091D60357FD29C002E076
:1021100010E065E170E08091D7039091D8030E94B0
:10212000240643E050E06EE472E08091D703909182
:10213000D8030E94C105F70101900020E9F731970B
:10214000AF014E195F09B7018091D7039091D80371
:102150000E94C1058091D7039091D8030E94AB05DE
:1021600060E273E080E090E00E941B0507EB13E063
:1021700068010E94640AF601819391936F0168EEF1
:1021800073E080E090E00E941B05FBECCF16F3E0CB
:10219000DF0679F7F801619171918F018DE792E087
:1021A0000E94000DF3E00B3C1F07A1F7CE01805CFD
:1021B0009F4F0E941F0CCE018A5B9F4F0E941F0CF5
:1021C000CE01845B9F4F0E941F0C0E94CF01AACEBC
:1021D000C7010E94220B59CFAA1BBB1B51E107C0AC
:1021E000AA1FBB1FA617B70710F0A61BB70B881FA7
:1021F000991F5A95A9F780959095BC01CD01089536
:1022000097FB072E16F4009407D077FD09D00E94A3
:10221000EC1007FC05D03EF4909581959F4F0895F2
:10222000709561957F4F0895A1E21A2EAA1BBB1BE2
:10223000FD010DC0AA1FBB1FEE1FFF1FA217B30792
:10224000E407F50720F0A21BB30BE40BF50B661FA8
:10225000771F881F991F1A9469F76095709580956C
:1022600090959B01AC01BD01CF010895EE0FFF1FBA
:102270000590F491E02D0994CF93DF93823091057E
:1022800010F482E090E0E091E703F091E80320E0B1
:1022900030E0C0E0D0E0309711F140815181481723
:1022A0005907C0F04817590761F48281938120973C
:1022B00019F09B838A832BC09093E8038093E703F4
:1022C00026C02115310519F04217530718F49A0159
:1022D000BE01DF01EF010280F381E02DDCCF21158B
:1022E000310509F1281B390B2430310590F4129681
:1022F0008D919C9113976115710521F0FB019383DA
:10230000828304C09093E8038093E703FD01329633
:1023100044C0FD01E20FF31F8193919322503109D4
:102320002D933C933AC02091E5033091E603232B93
:1023300041F420910201309103013093E603209390
:10234000E50320910001309101012115310541F48F
:102350002DB73EB74091040150910501241B350B68
:10236000E091E503F091E603E217F307A0F42E1BDA
:102370003F0B2817390778F0AC014E5F5F4F2417E9
:10238000350748F04E0F5F1F5093E6034093E50377
:102390008193919302C0E0E0F0E0CF01DF91CF9113
:1023A00008950F931F93CF93DF93009709F48CC088
:1023B000FC013297138212820091E7031091E80327
:1023C0000115110581F420813181820F931F209125
:1023D000E5033091E6032817390779F5F093E60312
:1023E000E093E50371C0D80140E050E0AE17BF07AD
:1023F00050F412962D913C911397AD0121153105A2
:1024000009F1D901F3CF9D01DA0133832283608181
:102410007181860F971F8217930769F4EC01288159
:102420003981260F371F2E5F3F4F318320838A81EA
:102430009B8193838283452B29F4F093E803E093F7
:10244000E70342C01396FC93EE931297ED01499176
:1024500059919E01240F351FE217F30771F4808113
:102460009181840F951F029611969C938E93828181
:10247000938113969C938E931297E0E0F0E0D8013D
:1024800012968D919C911397009719F0F8018C0189
:10249000F6CF8D919C9198012E5F3F4F820F931F35
:1024A0002091E5033091E6032817390769F4309746
:1024B00029F41092E8031092E70302C013821282FB
:1024C0001093E6030093E503DF91CF911F910F91E5
:1024D0000895A0E0B0E0EFE6F2E10C94B613EC0151
:1024E000009721F4CB010E943C11B8C0FC01E60F1B
:1024F000F71F9C0122503109E217F30708F4ACC022
:10250000D9010D911C91119706171707B0F00530EE
:10251000110508F49FC0C80104978617970708F4AF
:1025200099C002501109061B170B019311936D936B
:102530007C93CF010E94D1118DC05B01A01AB10A1A
:102540004C01800E911EA091E703B091E80340E09A
:1025500050E0E12CF12C109709F44AC0A815B905F8
:10256000D1F56D907C901197630182E0C80ED11C6B
:10257000CA14DB0480F1A3014A195B096A0182E0F5
:10258000C80ED11C1296BC9012971396AC91B5E070
:10259000CB16D10440F0B282A38351834083D9018A
:1025A0006D937C930AC00E5F1F4FC301800F911F74
:1025B000F90191838083EB2DFA2FE114F10431F0BE
:1025C000D7011396FC93EE93129744C0F093E8035F
:1025D000E093E7033FC08D919C91119748175907ED
:1025E00008F4AC017D0112960D90BC91A02DB3CFE3
:1025F0008091E5039091E60388159905E1F446176B
:102600005707C8F48091000190910101009741F4AF
:102610008DB79EB74091040150910501841B950B25
:10262000E817F907C8F4F093E603E093E503F9012E
:10263000718360830FC0CB010E943C117C01009725
:1026400059F0A801BE010E944513CE010E94D1118C
:10265000C70104C0CE0102C080E090E0CDB7DEB774
:10266000EEE00C94D21381E090E0F8940C94E9131E
:10267000FB01DC0104C08D910190801921F44150CF
:102680005040C8F7881B990B0895FB01DC0102C07C
:1026900001900D9241505040D8F70895FB01DC01A4
:1026A0008D91019080190110D9F3990B0895FB01C8
:1026B000DC0101900D920020E1F70895FB01DC019F
:1026C0004150504048F001900D920020C9F701C0E0
:1026D0001D9241505040E0F70895FB01DC01059048
:1026E0000D920020E1F70895FC0105900020E9F724
:1026F000809590958E0F9F1F0895BB274A3031F427
:10270000992322F4BDE2909581959F4F0C948913F3
:10271000BB27FB015527AA27880F991FAA1FA417BB
:1027200010F0A41B83955051B9F7A05DAA3308F0AF
:10273000A95DA193009779F7B111B1931192CB01E3
:102740000C94A213DC01FC01672F71917723E1F750
:10275000329704C07C916D9370836291AE17BF076E
:10276000C8F308952F923F924F925F926F927F929B
:102770008F929F92AF92BF92CF92DF92EF92FF9291
:102780000F931F93CF93DF93CDB7DEB7CA1BDB0B3D
:102790000FB6F894DEBF0FBECDBF09942A883988E2
:1027A00048885F846E847D848C849B84AA84B984E9
:1027B000C884DF80EE80FD800C811B81AA81B981F5
:1027C000CE0FD11D0FB6F894DEBF0FBECDBFED0109
:0627D0000895F894FFCF0C
:1027D6000000E9038000000000006601E2002F010E
:1027E6000D012101AD010D0A005245535420636FBE
:1027F600646520004F4E004F464600454C2D436C05
:1028060069656E74202872652D2973746172746906
:102816006E672100454C2D436C69656E7420737993
:102826006E63206661696C65642100454C2D436CBE
:1028360069656E742073796E6365642100454C4347
:102846003A20676F742000204000454C433A2049E7
:102856006E76616C69642043524300524553505F63
:10286600563A2000524553505F43423A20004E45A7
:1028760045445F53594E432100434D443F3F004278
:1028860041443A20006B6F6E6965632073656B7710
:10289600656E636A692073746172746F77656A0026
:1028A6005245535420626567696E206661696C659E
:1028B600643A2000454C2D5245535420726561649C
:1028C6007900776C61637A616D20706F6D706B65EE
:1028D6000077796C61637A616D20706F6D706B65DE
:1028E600002F6A736F6E2E68746D3F747970653D44
:1028F600636F6D6D616E6426706172616D3D7564A6
:102906006576696365266964783D3333266E76613C
:102916006C75653D30267376616C75653D0047457F
:1029260054003139322E3136382E312E35340000EE
:107800000C94343C0C94513C0C94513C0C94513CE1
:107810000C94513C0C94513C0C94513C0C94513CB4
:107820000C94513C0C94513C0C94513C0C94513CA4
:107830000C94513C0C94513C0C94513C0C94513C94
:107840000C94513C0C94513C0C94513C0C94513C84
:107850000C94513C0C94513C0C94513C0C94513C74
:107860000C94513C0C94513C11241FBECFEFD8E036
:10787000DEBFCDBF11E0A0E0B1E0ECE9FFE702C060
:1078800005900D92A230B107D9F712E0A2E0B1E065
:1078900001C01D92AD30B107E1F70E942D3D0C945F
:1078A000CC3F0C94003C982F959595959595959582
:1078B000905D8F708A307CF0282F295A8091C0000B
:1078C00085FFFCCF9093C6008091C00085FFFCCF60
:1078D0002093C6000895282F205DF0CF982F809127
:1078E000C00085FFFCCF9093C6000895EF92FF92F1
:1078F0000F931F93EE24FF2487018091C00087FD22
:1079000017C00894E11CF11C011D111D81E4E8164B
:1079100082E4F8068FE0080780E0180770F3E09132
:107920000401F091050109958091C00087FFE9CF1E
:107930008091C6001F910F91FF90EF9008950E94D3
:10794000763C982F8091C00085FFFCCF9093C600B5
:1079500091362CF490330CF09053892F089597555D
:10796000892F08951F930E949F3C182F0E949F3CCF
:107970001295107F810F1F9108951F93182F882350
:1079800021F00E94763C1150E1F71F9108951F935A
:10799000182F0E94763C803249F0809103018F5F5E
:1079A000809303018530C1F01F9108958091C0003C
:1079B00085FFFCCF84E18093C6008091C00085FFE5
:1079C000FCCF1093C6008091C00085FFFCCF80E102
:1079D0008093C6001F910895E0910401F091050184
:1079E00009951F9108950E94763C803241F0809164
:1079F00003018F5F80930301853081F008958091AA
:107A0000C00085FFFCCF84E18093C6008091C00058
:107A100085FFFCCF80E18093C6000895E0910401CA
:107A2000F09105010995089540E951E08823A1F0FE
:107A30002D9A28EE33E0FA013197F1F721503040CA
:107A4000D1F72D9828EE33E0FA013197F1F7215064
:107A50003040D1F7815061F708953F924F925F9285
:107A60006F927F928F929F92AF92BF92CF92DF924E
:107A7000EF92FF920F931F93CF93DF93000080E16B
:107A80008093C4001092C50088E18093C10086E015
:107A90008093C2005098589A259A81E00E94143D24
:107AA00024E1F22E9EE1E92E85E9D82E0FE0C02ECA
:107AB00010E1B12EAA24A394B1E49B2EA6E58A2E50
:107AC000F2E57F2EE0E26E2E79E4572E63E5462E36
:107AD00050E5352E0E94763C8033B1F18133B9F107
:107AE000803409F46FC0813409F476C0823409F41B
:107AF00085C0853409F488C0803531F1823521F1A3
:107B0000813511F1853509F485C0863509F48DC0BC
:107B1000843609F496C0843709F403C1853709F423
:107B200072C1863709F466C0809103018F5F80932C
:107B30000301853079F6E0910401F0910501099582
:107B40000E94763C803351F60E94F33CC3CF0E94E2
:107B5000763C803249F78091C00085FFFCCFF092DF
:107B6000C6008091C00085FFFCCF9092C600809136
:107B7000C00085FFFCCF8092C6008091C00085FFC9
:107B8000FCCF7092C6008091C00085FFFCCF609250
:107B9000C6008091C00085FFFCCF5092C600809146
:107BA000C00085FFFCCF4092C6008091C00085FFD9
:107BB000FCCF3092C6008091C00085FFFCCFB09210
:107BC000C60088CF0E94763C863808F4BDCF0E945C
:107BD000763C0E94F33C7ECF0E94763C803809F4CC
:107BE0009CC0813809F40BC1823809F43CC1883942
:107BF00009F48FC080E00E94C73C6CCF84E10E94F2
:107C0000BD3C0E94F33C66CF85E00E94BD3C0E94D3
:107C1000F33C60CF0E94763C809306010E94763C44
:107C2000809307010E94F33C55CF0E94763C80333D
:107C300009F41DC183E00E94BD3C80E00E94C73C66
:107C400049CF0E94763C809309020E94763C809343
:107C5000080280910C028E7F80930C020E94763C79
:107C6000853409F415C18091080290910902892B8D
:107C700089F000E010E00E94763CF801E85FFE4FDA
:107C800080830F5F1F4F80910802909109020817AF
:107C9000190788F30E94763C803209F045CF809125
:107CA0000C0280FF01C16091060170910701660F0F
:107CB000771F7093070160930601A0910802B091AD
:107CC00009021097C9F0E8E0F1E09B01AD014E0F09
:107CD0005F1FF999FECF32BD21BD819180BDFA9A17
:107CE000F99A2F5F3F4FE417F50799F76A0F7B1F4B
:107CF00070930701609306018091C00085FFFCCF5F
:107D0000F092C6008091C00085FFFCCFB092C60003
:107D1000E1CE83E00E94C73CDDCE82E00E94C73CFA
:107D2000D9CE0E94763C809309020E94763C8093D3
:107D300008028091060190910701880F991F909386
:107D40000701809306010E94763C853409F4A6C0A1
:107D500080910C028E7F80930C020E94763C8032D0
:107D600009F0B8CE8091C00085FFFCCFF092C6002C
:107D7000609108027091090261157105B9F140E046
:107D800050E080910C02A82FA170B82FB27011C0E2
:107D9000BB2309F45CC0E0910601F0910701319624
:107DA000F0930701E09306014F5F5F4F46175707B7
:107DB000E8F4AA2369F3F999FECF209106013091E6
:107DC000070132BD21BDF89A90B58091C00085FFB2
:107DD000FCCF9093C6002F5F3F4F30930701209355
:107DE00006014F5F5F4F4617570718F38091C00099
:107DF00085FDE5CE8091C00085FFF8CFE0CE81E023
:107E00000E94C73C67CE0E94763C803209F08CCE3F
:107E10008091C00085FFFCCFF092C6008091C00029
:107E200085FFFCCFE092C6008091C00085FFFCCFAB
:107E3000D092C6008091C00085FFFCCFC092C600E2
:107E40008091C00085FFFCCFB092C60043CEE09188
:107E50000601F091070194918091C00085FFFCCF4D
:107E60009093C6009CCF80E10E94C73C33CE0E9415
:107E7000763C0E94763C182F0E94763C112309F430
:107E800083C0113009F484C08FE00E94C73C22CE29
:107E900080910C02816080930C02E5CE80910C02EF
:107EA000816080930C0259CF809107018823880F4D
:107EB000880B8A2180930B02809106019091070123
:107EC000880F991F90930701809306018091080203
:107ED00080FF09C080910802909109020196909359
:107EE000090280930802F894F999FECF1127E091D6
:107EF0000601F0910701C8E0D1E08091080290915D
:107F00000902103091F40091570001700130D9F34B
:107F100003E000935700E89500915700017001308D
:107F2000D9F301E100935700E89509901990009169
:107F3000570001700130D9F301E000935700E89534
:107F40001395103498F011270091570001700130FB
:107F5000D9F305E000935700E895009157000170B0
:107F60000130D9F301E100935700E895329602976A
:107F700009F0C7CF103011F00296E5CF112480919F
:107F8000C00085FFB9CEBCCE8EE10E94C73CA2CD19
:0C7F900085E90E94C73C9ECDF894FFCF0D
:027F9C00800063
:040000030000780081
:00000001FF
