:100000000C9482000C94AA000C94AA000C94AA00F0
:100010000C94AA000C94AA000C94AA000C94AA00B8
:100020000C94AA000C94AA000C94AA000C94AA00A8
:100030000C94AA000C94AA000C94AA000C94AA0098
:100040000C941E030C94AA000C94D50B0C94AF0BCB
:100050000C94AA000C94AA000C94AA000C94AA0078
:100060000C94AA000C94AA0062746E5F6F6666001E
:1000700062746E5F6F6E0048616E646C6572206EB4
:100080006F7420666F756E6420666F722055524CD7
:100090003A0000000000240027002A0000000000B1
:1000A000250028002B002F53696D706C654C45446A
:1000B0002E68746D6C2E6A736F6E00000000002352
:1000C00000260029000404040404040404020202BB
:1000D0000202020303030303030102040810204089
:1000E0008001020408102001020408102000000012
:1000F00008000201000003040700000000000000E7
:1001000000004C0C11241FBECFEFD8E0DEBFCDBFE6
:1001100023E0ACE1B2E001C01D92A539B207E1F7DE
:1001200012E0A0E0B1E0E6ECF3E202C005900D922F
:10013000AC31B107D9F710E0C2E8D0E004C0219794
:10014000FE010E94B90FC138D107C9F70E94E00C27
:100150000C94E1110C940000DC011296ED91FC91DD
:1001600013973097F1F02D913C911197211531059E
:10017000B1F014964D915C911597CA0195958795AC
:1001800040FF0AC0D901A80FB91F4D915C91E40F3F
:10019000F51F0190F081E02D820F931F0994CB0190
:1001A00009940895EF92FF920F931F93CF93DF93DB
:1001B000EC0188819981EC81FD8122813381821754
:1001C000930760F5EA81FB81019111912EEF3FEFDA
:1001D000201B310B7901A3E0EA22FF24FB83EA8391
:1001E000019699838883CB019A010417150708F4B7
:1001F0009801260F371F8217930729F04191DC01E0
:100200004D93CD01F8CF9701200F311F8A819B813B
:10021000280F391F3B832A83C80102C08FEF9FEF4D
:10022000DF91CF911F910F91FF90EF900895CF93A1
:10023000DF93FC0180819181A481B58112962D917B
:100240003C91139782179307E0F4A281B3814D91FB
:100250005D91B383A283019691838083EB01B9837F
:10026000A8832EEF3FEF241B350B23703327240F79
:10027000351F82819381280F391F33832283CA015E
:1002800002C08FEF9FEFDF91CF9108954627342F63
:10029000252FA901442784E0440F551F8A95E1F7D3
:1002A00042275327CA01892F992782958F704827A3
:1002B0005927CA01882735E0969587953A95E1F741
:1002C000842795270895EF92FF920F931F93CF9362
:1002D000DF937C01C901EB018B01040F151FC017CF
:1002E000D10731F06991AC01C7010E944601F7CFF7
:1002F000DF91CF911F910F91FF90EF900895CF93D1
:10030000DF93EC018A859B85603CA1F06B3D21F574
:10031000DC01ED91FC910190F081E02D6BED0995F0
:100320008A859B85DC01ED91FC910190F081E02DA7
:100330006DED18C0DC01ED91FC910190F081E02D94
:100340006BED09958A859B85DC01ED91FC9101900F
:10035000F081E02D6CED06C0DC01ED91FC91019087
:10036000F081E02DDF91CF910994EF92FF920F93EE
:100370001F93CF93DF937C01EB018B01040F151FBB
:10038000C017D10729F06991C7010E947F01F8CFFA
:10039000DF91CF911F910F91FF90EF9008950F93F0
:1003A0001F93CF93DF936115710529F18B01EC0148
:1003B000BC01645F7F4F42E050E0C8010E94D20060
:1003C000EC81FD818485882371F068E171E0808192
:1003D00091810E942F0B6C857D85EC81FD81808150
:1003E00091810E94010BBE01605F7F4FC8010E9496
:1003F00017019F878E87DF91CF911F910F910895ED
:10040000833081F028F4813099F08230A1F0089592
:100410008730A9F08830B9F08430D1F48091800021
:100420008F7D03C0809180008F7780938000089536
:1004300084B58F7702C084B58F7D84BD0895809187
:10044000B0008F7703C08091B0008F7D8093B000A3
:1004500008951F93CF93DF93282F30E0F901E351E4
:10046000FF4F8491F901E752FF4FD491F901EB530B
:10047000FF4FC491CC23C9F0162F81110E940002B6
:10048000EC2FF0E0EE0FFF1FE456FF4FA591B49163
:100490008FB7F894111105C09C91ED2FE095E923D9
:1004A00002C0EC91ED2BEC938FBFDF91CF911F91A8
:1004B0000895EF92FF920F931F93CF93DF93CDB7E1
:1004C000DEB72C970FB6F894DEBF0FBECDBF7C0110
:1004D0001A8219821C821B821E821D820097D9F00B
:1004E000FC0101900020E9F731978F01081B190BDF
:1004F000B801CE0101960E942A0A811105C0CE01E1
:1005000001960E94510A07C01E830D83B70189819D
:100510009A810E94DA1118861F821A8619861C8613
:100520001B8660E770E0CE0107960E94630ABE0159
:10053000695F7F4FCE0101960E94F809182F8F81C5
:1005400098850E945410112311F060E01BC018869A
:100550001F821A8619861C861B8668E670E0CE010B
:1005600007960E94630ABE01695F7F4FCE01019624
:100570000E94F809182F8F8198850E94541011232A
:1005800021F061E081E10E94290289819A810E9423
:1005900054102C960FB6F894DEBF0FBECDBFDF917E
:1005A000CF911F910F91FF90EF900895CF93DF931C
:1005B00090E0FC01E752FF4F2491FC01EB53FF4F09
:1005C0008491882361F190E0880F991FFC01EE5619
:1005D000FF4FC591D491FC01E456FF4FA591B49112
:1005E000611109C09FB7F894888120958223888380
:1005F000EC912E230BC0623061F49FB7F8943881E0
:10060000822F809583238883EC912E2B2C939FBF80
:1006100006C08FB7F894E8812E2B28838FBFDF9117
:10062000CF9108952FB7F894609121027091220222
:1006300080912302909124022FBF08951F920F9260
:100640000FB60F9211242F933F938F939F93AF93E5
:10065000BF938091210290912202A0912302B09138
:1006600024023091200223E0230F2D3720F401963D
:10067000A11DB11D05C026E8230F0296A11DB11DC5
:10068000209320028093210290932202A0932302C0
:10069000B093240280911C0290911D02A0911E0231
:1006A000B0911F020196A11DB11D80931C02909371
:1006B0001D02A0931E02B0931F02BF91AF919F91A4
:1006C0008F913F912F910F900FBE0F901F90189513
:1006D000CF93DF93EC01BC01635F7F4F42E050E0BA
:1006E0000E94B5018A859B85DC01ED91FC9101900A
:1006F000F081E02D60ECDF91CF910994CF92DF92F1
:10070000EF92FF920F931F93CF93DF9300D0CDB75B
:10071000DEB78C017B015A83498342E050E0BE0181
:100720006F5F7F4F0E94B501F8012585368542E055
:1007300050E0BE016F5F7F4FC8010E946301F80166
:1007400096878587C980DA80CE0CDF1CEC14FD0407
:1007500091F0F7016081C8010E947F01F801458591
:100760005685F70161917F01C8010E944601F80199
:1007700096878587EBCFE980FA80F194E194F108C0
:10078000F3E0EF22FF24F1E0EF1AF10878F060E0E7
:10079000C8010E947F01F8014585568560E0C801C7
:1007A0000E944601F80196878587EDCF0F900F9044
:1007B000DF91CF911F910F91FF90EF90DF90CF903D
:1007C0000895EF92FF920F931F93CF93DF93CDB7CE
:1007D000DEB728970FB6F894DEBF0FBECDBF7C0101
:1007E0007A8369832B833C834D835E8318870F83D1
:1007F000DC011E961C921E921D971A968D919C915B
:100800001B97DC01ED91FC910190F081E02D60ECF3
:10081000099542E050E0BE016F5F7F4FC7010E9423
:10082000B501F7012585368542E050E0BE016F5FD6
:100830007F4FC7010E946301D7011E969C938E9340
:100840001D9742E050E0BE01695F7F4FC7010E94E3
:10085000B501F7012585368542E050E0BE01695FAC
:100860007F4FC7010E946301D7011E969C938E9310
:100870001D9744E050E0BE016D5F7F4FC7010E94AD
:10088000B501F7012585368544E050E0BE016D5F76
:100890007F4FC7010E946301D7011E969C938E93E0
:1008A0001D9728960FB6F894DEBF0FBECDBFDF911F
:1008B000CF911F910F91FF90EF9008952F923F924B
:1008C0004F925F926F927F928F929F92AF92BF9260
:1008D000CF92DF92EF92FF920F931F93CF93DF930C
:1008E000CDB7DEB728970FB6F894DEBF0FBECDBFE9
:1008F0008C012DB73EB738872F83E0902502F0900A
:10090000260242E050E0BE016B5F7F4F0E94D200A2
:10091000AD80BE80370132E0630E711C44E050E0D0
:10092000B301C8010E94D200270186E0480E511C85
:1009300042E050E0B201C8010E94D200BE016D5FEA
:100940007F4FC8010E9417014C01D7011896CD9026
:10095000DC9019972B803C80C114D10449F1F60139
:10096000848195818815990541F460817181A40184
:10097000C1010E94BB11892B31F0D6015E96CD904A
:10098000DC905F97E9CFB2E0AB16B10409F449C03F
:100990001CF4B7FEC3C0F8C0F3E0AF16B10409F011
:1009A000F3C084E0882E912CE2E1CE0ED11C66C00B
:1009B000D701ED91FC918485882309F4E5C0C080BE
:1009C000D18007E710E0F8016491611103C000E0F5
:1009D00010E00DC0D601ED91FC910190F081E02D69
:1009E000C60109950F5F1F4F892B69F7F0CFD7011B
:1009F000ED91FC91808191810815190579F0DC0158
:100A0000ED91FC91AB81BC81A00FB11F0190F081F1
:100A1000E02D6C9109950F5F1F4FE9CF0E94FD0AF1
:100A2000B3C02DB63EB6BE016F5F7F4FC8010E94B6
:100A300017018C010196EDB7FEB7E81BF90B0FB655
:100A4000F894FEBF0FBEEDBF2DB73EB72F5F3F4FEF
:100A5000490169817A81A801C9010E94C811F40184
:100A6000E00FF11F1082B401C60148960E94AC004D
:100A70000FB6F8943EBE0FBE2DBE50C0D8011496DE
:100A8000ED91FC911597828193818816990608F063
:100A90007BC0BE016F5F7F4FC8010E941701498074
:100AA0005A80D2011196FD0101900020E9F731979B
:100AB0005F01AA1ABB0A3C016A187B08C3010197AF
:100AC0000E94BF0FD7011B969C938E931A97A30188
:100AD00042505109FC01E40FF51F1082B5016E5F11
:100AE0007F4F640D751D1A968D919C911B970E94E6
:100AF000C81169817A816F5F7F4FC6010E94AC0087
:100B0000F701828593850E945410D7011B961C9291
:100B10001E921A97BFEF8B1A9B0AB0CF0FEF10E00F
:100B200024E630E040E050E06FE170E0F7018081C2
:100B300091810E94E10344E050E0B301D7018D911F
:100B40009C910E947E0342E050E0B201F701808157
:100B500091810E947E03D6016D917C91C601AB28E4
:100B600011F4069601C00C960E94AC0040E050E0E3
:100B700060E070E0F701808191810E947E03D701DF
:100B80008D919C910E946803EF81F8850FB6F894CF
:100B9000FEBF0FBEEDBF28960FB6F894DEBF0FBEA6
:100BA000CDBFDF91CF911F910F91FF90EF90DF901C
:100BB000CF90BF90AF909F908F907F906F905F90FD
:100BC0004F903F902F9008950F931F93CF93DF93F3
:100BD00000D000D0CDB7DEB763E271E089E392E0E8
:100BE0000E941D0B0E94310B811103C06CE371E068
:100BF000F5CF63E571E089E392E00E941D0B01E00F
:100C000010E020E030E0A9016EE170E08091270261
:100C1000909128020E94E10383E392E0092E000CE8
:100C2000AA0BBB0B89839A83AB83BC8344E050E05F
:100C3000BE016F5F7F4F80912702909128020E9432
:100C40007E0380912702909128020E9468030F90F2
:100C50000F900F900F90DF91CF911F910F910895FA
:100C60008F929F92AF92BF92DF92EF92FF920F937B
:100C70001F93CF93DF9300D000D000D0CDB7DEB765
:100C80008C01DD24D394D8011A968D919C911B97E9
:100C9000DC01ED91FC910084F185E02D0995892B13
:100CA00009F48AC1D8011A968D919C911B97DC0199
:100CB000ED91FC910284F385E02D09958B3D910522
:100CC00019F4F801D58ADFCFD80153962D913C91C4
:100CD0005497803C910509F04AC12830310508F449
:100CE00037C1F801E784F0888485882309F484C03B
:100CF00065E671E0808191810E942F0BD8015396A7
:100D00004D915C91549760E070E02AE08D919C9148
:100D10000E948B0A6FE671E0F801808191810E9448
:100D20002F0BD8011F964D915C915097052E000C0A
:100D3000660B770B20E18D919C910E948B0A63E9F1
:100D400071E0F801808191810E942F0BD7014D91B4
:100D50005C9160E070E020E1F801808191810E9467
:100D60008B0A64E971E0D8018D919C910E942F0B50
:100D7000F701448155816681778120E1D8018D9109
:100D80009C910E948B0A64E971E0F8018081918155
:100D90000E942F0BD70112964D915C91139760E042
:100DA00070E020E1F801808191810E948B0A48E087
:100DB000A42EB12CF8012389348980819181A21657
:100DC000B306C0F464E971E00E942F0BD8011F96AE
:100DD000ED91FC915097EA0DFB1D408150E060E0E1
:100DE00070E020E18D919C910E948B0ABFEFAB1ABD
:100DF000BB0AE0CF0E94FD0AD8015396AD90BC908B
:100E00005497B2E0AB1AB108F8018784908820E0CB
:100E100030E0A501B401C8010E946301F401EA0DAC
:100E2000FB1D208131818217930761F0D8011C9648
:100E30008C911C97882309F48BC062E771E08D9137
:100E40009C9184C0F701808191818230910539F0B5
:100E50008330910519F1019709F070C05FC0D80186
:100E60001C968C911C97882309F474C063E871E088
:100E70008D919C910E942F0BF801A080B180D70129
:100E800014964D915D916D917C9117972AE0C50163
:100E90000E948B0AC5010E94FD0A5CC0F80184858E
:100EA000882359F16CE871E0808191810E942F0BB9
:100EB000D70114964D915D916D917C9117972AE021
:100EC000F801808191810E948B0A64E971E0D80168
:100ED0008D919C910E942F0BF801A080B180D701C9
:100EE00012964D915C91139760E070E02AE0C50185
:100EF0000E948B0AC5010E94FD0AF701A481B581F9
:100F00008D919C911197009709F059C012962D91DF
:100F10003C911397232B09F052C01AC066E971E087
:100F2000D8018D919C910E941D0BD8011896ED91CE
:100F3000FC911997309761F009950AC0F8018485F2
:100F4000882331F061EA71E0808191810E941D0B5C
:100F5000E12CF12CD80154961C921E925397559671
:100F60001C92E114F10409F48ECEC70158C0F801B7
:100F70004589442371F08C3D910531F08D3D9105FB
:100F800029F48BED90E002C080EC90E0D8015596FA
:100F90001C92F801418952892417350708F073CE55
:100FA00047855089B9016F5F7F4F748B638BFA015E
:100FB000E20FF31F808367CE80E090E030C0FE82B6
:100FC000ED82E8E0EE0EF11CFC82EB821A821982BF
:100FD0001296ED91FC911397309709F4B9CF0097D1
:100FE000D1F014962D913C911597A90155954795EF
:100FF00020FF0AC0DC01A40FB51F2D913C91E20F28
:10100000F31F0190F081E02DBE016F5F7F4F840FD1
:10101000951F09959DCFCE010196099599CF2696EA
:101020000FB6F894DEBF0FBECDBFDF91CF911F91F9
:101030000F91FF90EF90DF90BF90AF909F908F90B7
:1010400008950F931F93CF93DF9380916E038823AE
:1010500029F061E080916C030E94D60260E08091EB
:101060006C030E94290283E090E00197F1F761E0B0
:1010700080916C030E94290283E290E00197F1F7CE
:1010800060E080916C030E94290280916E038823A6
:1010900029F060E080916C030E94D60280916D037C
:1010A00090E0FC01E752FF4F6491FC01EB53FF4FCE
:1010B000E491F0E0EE0FFF1FE554FF4F859194910E
:1010C00000916F03109170032091710330917203AE
:1010D0003F70462F0E94070C61157105810591052F
:1010E00039F0DC01CB010196A11DB11DBF7003C019
:1010F00080E090E0DC016CE170E00E946F0FEB019A
:10110000D695C795BE0189E392E00E94010BCA5FA4
:10111000D10924E62C9FC0012D9F900D11246EE271
:101120007FEF0E94830FEB01AB01770F660B770B0C
:1011300077FF05C089E392E00E94D40A05C02AE047
:1011400089E392E00E948B0A67EA71E089E392E00A
:101150000E941D0BCE01DF91CF911F910F91089539
:10116000CF92DF92EF92FF920F931F93CF93DF9373
:101170006C017A018B01C0E0D0E0CE15DF0589F06B
:10118000D8016D918D01D601ED91FC910190F08116
:10119000E02DC6010995892B11F47E0102C021962C
:1011A000ECCFC701DF91CF911F910F91FF90EF908E
:1011B000DF90CF900895089580E090E00895FC01BD
:1011C000538D448D252F30E0842F90E0821B930BAC
:1011D000541710F0CF96089501970895FC01918D52
:1011E000828D981761F0828DDF01A80FB11D5D9689
:1011F0008C91928D9F5F9F73928F90E008958FEFF7
:101200009FEF0895FC01918D828D981731F0828DAA
:10121000E80FF11D858D90E008958FEF9FEF089501
:10122000FC01918D228D892F90E0805C9F4F821B65
:1012300091098F739927089589E392E00E9410091C
:1012400021E0892B09F420E0822F0895FC01848D90
:10125000DF01A80FB11DA35ABF4F2C91848D90E0E0
:1012600001968F739927848FA689B7892C93A089BB
:10127000B1898C9180648C93938D848D981306C072
:101280000288F389E02D80818F7D80830895EF921D
:10129000FF920F931F93CF93DF93EC0181E0888F30
:1012A0009B8D8C8D981305C0E889F989808185FD17
:1012B00024C0F62E0B8D10E00F5F1F4F0F73112708
:1012C000E02E8C8DE8120CC00FB607FCFACFE8892F
:1012D000F989808185FFF5CFCE010E942609F1CFE3
:1012E0008B8DFE01E80FF11DE35AFF4FF0820B8F4B
:1012F000EA89FB898081806207C0EE89FF8960836B
:10130000E889F98980818064808381E090E0DF91C1
:10131000CF911F910F91FF90EF900895CF93DF939E
:10132000EC01888D8823C9F0EA89FB89808185FDDD
:1013300005C0A889B9898C9186FD0FC00FB607FC3E
:10134000F5CF808185FFF2CFA889B9898C9185FF7F
:10135000EDCFCE010E942609E7CFDF91CF9108950E
:1013600080E090E0892B29F00E941C0981110C94E7
:1013700000000895CF92DF92EF92FF92CF93DF9318
:10138000EC010E9412036B017C010E941203AB016D
:10139000BC014C195D096E097F09403D574061054C
:1013A000710530F4CE010E943006009771F302C03F
:1013B00080E090E0DF91CF91FF90EF90DF90CF90B1
:1013C00008956115710579F0FB0101900020E9F79E
:1013D0003197AF01461B570BDC01ED91FC91028068
:1013E000F381E02D099480E090E008950E94B61109
:1013F000FC0124813581FB01448155812417350787
:1014000021F5FC0180819181FB0160817181009750
:1014100019F061157105A1F46115710549F0232BCF
:10142000B1F0FB01808190E09195819591090AC00E
:10143000009769F0232B59F0FC01808190E002C0F5
:101440000E94D11121E0892B19F020E001C021E098
:10145000822F08950F931F93CF93DF93EC01888120
:101460009981009729F02A813B812617370788F454
:101470008B016F5F7F4F0E94EC10009761F09983A2
:1014800088831B830A832C813D81232B11F4FC016B
:10149000108281E001C080E0DF91CF911F910F9118
:1014A0000895CF93DF93EC0188819981009711F023
:1014B0000E945410198218821D821C821B821A827B
:1014C000DF91CF910895EF92FF920F931F93CF93E7
:1014D000DF93EC018B016115710551F0CB010E9486
:1014E0002F0F7C01BC01CE010E942A0A811104C089
:1014F000CE010E94510A07C0FD82EC82B8018881AA
:1015000099810E94280FCE01DF91CF911F910F91F9
:10151000FF90EF9008954F925F926F927F92EF92BB
:10152000FF920F931F93CF93DF93CDB7DEB7A197B1
:101530000FB6F894DEBF0FBECDBF7C01FA01CB0120
:1015400019A2223008F42AE08E010F5D1F4F422EAF
:10155000512C612C712CBF01A30192010E94970FA5
:10156000F901CA01015011096A3014F4605D01C02B
:10157000695CD8016C93232B242B252B61F7B801D0
:10158000C7010E94E109A1960FB6F894DEBF0FBE15
:10159000CDBFDF91CF911F910F91FF90EF907F9082
:1015A0006F905F904F900895CF92DF92EF92FF92ED
:1015B0000F931F93CF93DF93EC016A017B01E881C6
:1015C000F9810190F081E02D6DE209958C014427AD
:1015D0005527BA014C195D096E097F092AE0CE0131
:1015E0000E948B0A800F911FDF91CF911F910F9165
:1015F000FF90EF90DF90CF90089569EA71E00C942E
:10160000E1090F931F93CF93DF93EC01AB01770FA9
:10161000660B770B77FF03C00E94D40A03C02AE051
:101620000E948B0A8C01CE010E94FD0A800F911F3F
:10163000DF91CF911F910F9108950F931F93CF9337
:10164000DF93EC010E94E1098C01CE010E94FD0AAA
:10165000800F911FDF91CF911F910F9108950C94EE
:10166000E109AF92BF92CF92DF92EF92FF920F9378
:101670001F93CF93DF938091E0029091E102DC0110
:10168000ED91FC910190F081E02D60EC099588EDE1
:1016900092E06C01990FEE08FF0800E010E0A7014E
:1016A000960161E070E086ED92E00E94E10386ED34
:1016B00092E00E9468030091DE021091DF02109216
:1016C000DF021092DE0286ED92E00E94BA09EC0180
:1016D000892BA9F14C815D816E817F818091E2022D
:1016E0004C155D056E057F0581F4882341F06BE99B
:1016F00071E08091D6029091D7020E941D0B109349
:10170000DF020093DE0281E01FC08823E1F26CEA71
:1017100071E08091D6029091D7020E942F0BA09089
:10172000D602B090D7024C815D816E817F812AE024
:10173000C5010E948B0AC5010E94FD0AC4CF109307
:10174000DF020093DE0280E0DF91CF911F910F91C5
:10175000FF90EF90DF90CF90BF90AF9008951F92D1
:101760000F920FB60F9211242F933F934F935F93D5
:101770006F937F938F939F93AF93BF93EF93FF9359
:1017800089E392E00E942609FF91EF91BF91AF910A
:101790009F918F917F916F915F914F913F912F9189
:1017A0000F900FBE0F901F9018951F920F920FB6BB
:1017B0000F9211242F938F939F93EF93FF93E091B8
:1017C0004902F0914A028081E0914F02F09150026B
:1017D00082FD12C09081809152028F5F8F732091A1
:1017E0005302821751F0E0915202F0E0E75CFD4FA6
:1017F000958F8093520201C08081FF91EF919F915C
:101800008F912F910F900FBE0F901F901895CF9230
:10181000DF92EF92FF920F931F93E82FF92F05C0ED
:10182000015011092109310961F190819623941722
:10183000B9F305C0015011092109310911F1908155
:1018400096239413F7CFC12CD12CE12CF12C0AC094
:101850008FEFC81AD80AE80AF80A0C151D052E05DC
:101860003F0579F080818623841791F36C2D7D2DBF
:101870008E2D9F2D1F910F91FF90EF90DF90CF90B5
:10188000089560E070E080E090E01F910F91FF907C
:10189000EF90DF90CF9008950F931F93CF93DF9336
:1018A000C9E3D2E01B821A8288EE93E0A0E0B0E0A8
:1018B0008C839D83AE83BF838AE091E09983888384
:1018C00085EC90E09D878C8784EC90E09F878E87E5
:1018D00080EC90E0998B888B81EC90E09B8B8A8BDD
:1018E00082EC90E09D8B8C8B86EC90E09F8B8E8BB6
:1018F000198E1A8E1B8E1C8E0CE613E0F8011282D4
:101900008FE0808380E1818361E08FE00E94D602D6
:1019100060E0F80181810E94D60280E29EE4A0E0AE
:10192000B0E0F80183839483A583B683E6EDF2E00B
:101930001382128215821482D387C28714868CEE9A
:1019400092E0908B878780E890E0928B818B148A5D
:10195000138A158AA7E2B2E01196FC93EE931996CA
:101960001C921E9218971B961C921E921A971D96F7
:101970001C921E921C97B0932602A09325028EE51E
:1019800094E01F969C938E931E97AFE7B3E0179653
:101990001C921E92169719961C921E9218971596D5
:1019A000FC93EE9314974FEF5FEFBA014D935D9365
:1019B0006D937C931397DF91CF911F910F910895B1
:1019C000CF93DF93CDB7DEB727970FB6F894DEBF7E
:1019D0000FBECDBF789484B5826084BD84B581602C
:1019E00084BD85B5826085BD85B5816085BD8091EA
:1019F0006E00816080936E00109281008091810062
:101A00008260809381008091810081608093810059
:101A1000809180008160809380008091B10084601B
:101A20008093B1008091B00081608093B00080917C
:101A30007A00846080937A0080917A00826080933B
:101A40007A0080917A00816080937A0080917A0098
:101A5000806880937A001092C100E0914902F09171
:101A60004A0282E08083E0914502F09146021082B2
:101A7000E0914702F09148028FEC8083109251026E
:101A8000E0914D02F0914E0286E08083E0914B029E
:101A9000F0914C02808180618083E0914B02F09153
:101AA0004C02808188608083E0914B02F0914C026F
:101AB000808180688083E0914B02F0914C028081AC
:101AC0008F7D808361E08EE00E94D60261E08FE02E
:101AD0000E94D60260E080E10E94D60261E081E1CE
:101AE0000E94D60261E08EE00E94290261E081E15D
:101AF0000E94290262EB71E089E392E00E941D0BD3
:101B00000E94310B811103C06CE371E0F5CF63E5F6
:101B100071E089E392E00E941D0B1A8219821C82F7
:101B20001B821E821D8266EA70E0CE0101967C0156
:101B30000E94630A80E290E00E94BF0F8C0180E265
:101B4000F80111928A95E9F7F80111821082138247
:101B500012821582148260E070E0C8010E942A0A95
:101B6000811104C0C8010E94510A09C0F801158200
:101B700014826BEA71E0808191810E94DA11F80190
:101B80001782168211861086158614861786168689
:101B9000138A128A158A148A118E108E138E128E51
:101BA0000E151F05C9F0C980DA80C114D10489F06F
:101BB000AD80BE80B501C8010E942A0A882349F081
:101BC000F801B582A482B601808191810E94DA1168
:101BD00003C0C8010E94510A80912F0290913002E7
:101BE000F801978F868F1093300200932F0289811E
:101BF0009A810E94541089E592E0F801938F828FB8
:101C000084EE95E09093DF028093DE020E94E4056B
:101C100080E99FE19A8389831F828FE793E0909305
:101C20008603809385038FEC91E0909388038093E3
:101C3000870310928A031092890303E010E025E8DD
:101C400033E0032E000C440B550B64E170E08091EF
:101C50008303909184030E94E1034CE050E06DEC1B
:101C600071E080918303909184030E947E0342E09F
:101C700050E0B70180918303909184030E947E031A
:101C800041E050E0BE01695F7F4F809183039091F6
:101C900084030E947E0380918303909184030E94B9
:101CA000680380918303909184030E94BA0900978E
:101CB00091F0FC01448155816681778177FD0BC0ED
:101CC00040937F035093800360938103709382035A
:101CD00080E090E003C0FC0184819581892B39F07C
:101CE0006AED71E089E392E00E942F0BFFCF6EEE68
:101CF00071E089E392E00E941D0B0BEF10E037EEDC
:101D0000E32E30E0F32E43EDC42E40E0D42E86EDDA
:101D100092E00E9430060E94120380907B03909014
:101D20007C03A0907D03B0907E039B01AC01281939
:101D300039094A095B0949015A0130EA83163BEB2C
:101D400093063DE0A306B10408F430C060937B0322
:101D500070937C0380937D0390937E03F8018491BC
:101D6000F701A490F601B490BB20B1F081110E945C
:101D700000028B2D90E0880F991F85549F4FFC0126
:101D8000A591B4918C91A82239F060E08EE00E9478
:101D900029026CEF71E006C061E08EE00E9429022A
:101DA0006BE072E089E392E00E941D0B0E94120337
:101DB0008090770390907803A0907903B0907A0395
:101DC0009B01AC01281939094A095B0949015A01EB
:101DD00038EE831633E09306A104B104B0F16093AA
:101DE0007703709378038093790390937A030E942A
:101DF00021088535910524F060E081E10E942902E7
:101E00000E9412038090730390907403A090750356
:101E1000B0907603861A970AA80AB90A44EF841686
:101E200041E09406A104B10480F0609373037093C1
:101E3000740380937503909376030E942108409762
:101E400024F461E081E10E9429020E94B0095FCF81
:101E5000FB01DC0105900D920020E1F70895FC01E3
:101E600005900020E9F7809590958E0F9F1F0895AB
:101E70002F923F924F925F926F927F928F929F929A
:101E8000AF92BF92CF92DF92EF92FF920F931F9388
:101E9000CF93DF93CDB7DEB7CA1BDB0B0FB6F89439
:101EA000DEBF0FBECDBF09942A88398848885F8479
:101EB0006E847D848C849B84AA84B984C884DF80EA
:101EC000EE80FD800C811B81AA81B981CE0FD11DCE
:101ED0000FB6F894DEBF0FBECDBFED010895AA1B6B
:101EE000BB1B51E107C0AA1FBB1FA617B70710F005
:101EF000A61BB70B881F991F5A95A9F78095909537
:101F0000BC01CD01089597FB072E16F4009407D06D
:101F100077FD09D00E946F0F07FC05D03EF4909525
:101F200081959F4F0895709561957F4F0895A1E227
:101F30001A2EAA1BBB1BFD010DC0AA1FBB1FEE1F43
:101F4000FF1FA217B307E407F50720F0A21BB30B8E
:101F5000E40BF50B661F771F881F991F1A9469F70A
:101F600060957095809590959B01AC01BD01CF0166
:101F70000895EE0FFF1F0590F491E02D0994CF9383
:101F8000DF938230910510F482E090E0E0919303BA
:101F9000F091940320E030E0C0E0D0E0309711F100
:101FA0004081518148175907C0F04817590761F41B
:101FB00082819381209719F09B838A832BC0909311
:101FC00094038093930326C02115310519F042171D
:101FD000530718F49A01BE01DF01EF010280F3817B
:101FE000E02DDCCF2115310509F1281B390B2430F8
:101FF000310590F412968D919C911397611571059E
:1020000021F0FB019383828304C090939403809317
:102010009303FD01329644C0FD01E20FF31F81934B
:102020009193225031092D933C933AC02091910312
:1020300030919203232B41F420910201309103014E
:10204000309392032093910320910001309101017C
:102050002115310541F42DB73EB74091040150914F
:102060000501241B350BE0919103F0919203E217D7
:10207000F307A0F42E1B3F0B2817390778F0AC01AB
:102080004E5F5F4F2417350748F04E0F5F1F509388
:102090009203409391038193919302C0E0E0F0E0BA
:1020A000CF01DF91CF9108950F931F93CF93DF93CB
:1020B000009709F48CC0FC013297138212820091C0
:1020C0009303109194030115110581F4208131814E
:1020D000820F931F209191033091920328173907A3
:1020E00079F5F0939203E093910371C0D80140E039
:1020F00050E0AE17BF0750F412962D913C91139704
:10210000AD012115310509F1D901F3CF9D01DA01A6
:102110003383228360817181860F971F8217930713
:1021200069F4EC0128813981260F371F2E5F3F4F5C
:10213000318320838A819B8193838283452B29F479
:10214000F0939403E093930342C01396FC93EE93B1
:102150001297ED01499159919E01240F351FE21705
:10216000F30771F480819181840F951F0296119677
:102170009C938E938281938113969C938E93129756
:10218000E0E0F0E0D80112968D919C9113970097B2
:1021900019F0F8018C01F6CF8D919C9198012E5F7A
:1021A0003F4F820F931F2091910330919203281784
:1021B000390769F4309729F410929403109293032D
:1021C00002C0138212821093920300939103DF9155
:1021D000CF911F910F910895A0E0B0E0E2EFF0E100
:1021E0000C943C0FEC01009721F4CB010E94BF0F2F
:1021F000B8C0FC01E60FF71F9C0122503109E2171D
:10220000F30708F4ACC0D9010D911C911197061782
:102210001707B0F00530110508F49FC0C8010497F6
:102220008617970708F499C002501109061B170B6F
:10223000019311936D937C93CF010E9454108DC034
:102240005B01A01AB10A4C01800E911EA09193036C
:10225000B091940340E050E0E12CF12C109709F488
:102260004AC0A815B905D1F56D907C90119763010E
:1022700082E0C80ED11CCA14DB0480F1A3014A1904
:102280005B096A0182E0C80ED11C1296BC901297BD
:102290001396AC91B5E0CB16D10440F0B282A38383
:1022A00051834083D9016D937C930AC00E5F1F4F09
:1022B000C301800F911FF90191838083EB2DFA2FC9
:1022C000E114F10431F0D7011396FC93EE931297C9
:1022D00044C0F0939403E09393033FC08D919C918D
:1022E00011974817590708F4AC017D0112960D901B
:1022F000BC91A02DB3CF809191039091920388154A
:102300009905E1F446175707C8F4809100019091B0
:102310000101009741F48DB79EB74091040150919F
:102320000501841B950BE817F907C8F4F093920395
:10233000E0939103F901718360830FC0CB010E9488
:10234000BF0F7C01009759F0A801BE010E94C8117F
:10235000CE010E945410C70104C0CE0102C080E02B
:1023600090E0CDB7DEB7EEE00C94580F81E090E03E
:10237000F8940C94E111FB01DC0104C08D910190F3
:10238000801921F441505040C8F7881B990B0895DB
:10239000FB01DC0102C001900D9241505040D8F782
:1023A0000895FB01DC018D91019080190110D9F392
:1023B000990B0895FB01DC0101900D920020E1F7DB
:0623C0000895F894FFCF20
:1023C600000095038000000000004709B008DF0800
:1023D6008E091009EE0802095245535420636F64B2
:1023E600652000454C2D436C69656E742028726526
:1023F6002D297374617274696E672100454C2D43F3
:102406006C69656E742073796E63206661696C65AC
:10241600642100454C2D436C69656E742073796E9A
:102426006365642100454C433A20676F74200020A1
:102436004000454C433A20496E76616C69642043FE
:10244600524300524553505F563A2000524553506E
:102456005F43423A20004E4545445F53594E43215F
:1024660000434D443F3F0025000D0A004241443AD7
:1024760020006B6F6E6965632073656B77656E63AD
:102486006A692073746172746F77656A00313932D4
:102496002E3136382E312E353400524553542062B3
:1024A6006567696E206661696C65643A2000454C13
:1024B6002D5245535420726561647900776C6163CF
:1024C6007A616D20706F6D706B650077796C6163F2
:0C24D6007A616D20706F6D706B65000006
:00000001FF
