:100000000C94AD000C94D5000C94D5000C94D50044
:100010000C94D5000C94D5000C94D5000C94D5000C
:100020000C94D5000C94D5000C94D5000C94D500FC
:100030000C94D5000C94D5000C94D5000C94D500EC
:100040000C945F040C94D5000C948C030C94660300
:100050000C94D5000C94D5000C94D5000C94D500CC
:100060000C94D5000C94D50000000000240027005B
:100070002A0000000000250028002B0000000008D6
:10008000000201000003040700000000000000005F
:1000900000000000230026002900040404040404D6
:1000A0000404020202020202030303030303010227
:1000B00004081020408001020408102001020408F6
:1000C000102069645F6F66660069645F6F6E005040
:1000D0006F6D7061206A657374207779C582C485FD
:1000E000637A6F6E61007465787400506F6D706133
:1000F000206A6573742077C582C485637A6F6E61E8
:10010000007465787400506F6D7061206A65737457
:10011000207779C582C485637A6F6E6100746578D3
:100120007400506F6D7061206A6573742077C582AA
:10013000C485637A6F6E6100746578740048616E7F
:10014000646C6572206E6F7420666F756E642066D5
:100150006F722055524C3A00060F11241FBECFEF8C
:10016000D8E0DEBFCDBF12E0A0E0B1E0EAEAF4E201
:1001700002C005900D92A633B107D9F723E0A6E39C
:10018000B2E001C01D92AB3AB207E1F710E0CDEA50
:10019000D0E004C02197FE010E94E40FCC3AD107C1
:1001A000C9F70E94920C0C9453120C940000CF9249
:1001B000DF92EF92FF920F931F93CF93DF936C0127
:1001C0007A018B01C0E0D0E0CE15DF0589F0D801BF
:1001D0006D918D01D601ED91FC910190F081E02DA2
:1001E000C6010995892B11F47E0102C02196ECCF3E
:1001F000C701DF91CF911F910F91FF90EF90DF909A
:10020000CF900895FC01918D828D981761F0828DB9
:10021000DF01A80FB11D5D968C91928D9F5F9F733A
:10022000928F90E008958FEF9FEF0895FC01918DDC
:10023000828D981731F0828DE80FF11D858D90E049
:1002400008958FEF9FEF0895FC01918D228D892FE6
:1002500090E0805C9F4F821B91098F7399270895CE
:100260008DE692E00E94240121E0892B09F420E030
:10027000822F0895FC01848DDF01A80FB11DA35AC0
:10028000BF4F2C91848D90E001968F739927848FB6
:10029000A689B7892C93A089B1898C9180648C93AD
:1002A000938D848D981306C00288F389E02D808198
:1002B0008F7D80830895EF92FF920F931F93CF93CA
:1002C000DF93EC0181E0888F9B8D8C8D981305C0A6
:1002D000E889F989808185FD24C0F62E0B8D10E018
:1002E0000F5F1F4F0F731127E02E8C8DE8120CC08B
:1002F0000FB607FCFACFE889F989808185FFF5CF31
:10030000CE010E943A01F1CF8B8DFE01E80FF11D65
:10031000E35AFF4FF0820B8FEA89FB89808180626C
:1003200007C0EE89FF896083E889F989808180644C
:10033000808381E090E0DF91CF911F910F91FF903A
:10034000EF900895CF93DF93EC01888D8823C9F057
:10035000EA89FB89808185FD05C0A889B9898C91CE
:1003600086FD0FC00FB607FCF5CF808185FFF2CF69
:10037000A889B9898C9185FFEDCFCE010E943A0101
:10038000E7CFDF91CF91089580E090E0892B29F0AD
:100390000E94300181110C9400000895833081F097
:1003A00028F4813099F08230A1F008958730A9F0C7
:1003B0008830B9F08430D1F4809180008F7D03C003
:1003C000809180008F7780938000089584B58F7727
:1003D00002C084B58F7D84BD08958091B0008F7771
:1003E00003C08091B0008F7D8093B00008956115A7
:1003F000710579F0FB0101900020E9F73197AF0119
:10040000461B570BDC01ED91FC910280F381E02D3E
:10041000099480E090E00895CF93DF93EC01888108
:100420009981009711F00E947F10198218821D8215
:100430001C821B821A82DF91CF9108950E94E111E4
:100440000F931F93CF93DF93EC01888199810097DD
:1004500029F02A813B812617370788F48B016F5FCB
:100460007F4F0E941711009761F0998388831B8347
:100470000A832C813D81232B11F4FC01108281E041
:1004800001C080E0DF91CF911F910F910895FC0191
:1004900024813581FB01448155812417350721F5DD
:1004A000FC0180819181FB0160817181009719F0CD
:1004B00061157105A1F46115710549F0232BB1F0A7
:1004C000FB01808190E09195819591090AC0009788
:1004D00069F0232B59F0FC01808190E002C00E945A
:1004E000FC1121E0892B19F020E001C021E0822FCE
:1004F0000895EF92FF920F931F93CF93DF93EC0138
:100500008B016115710551F0CB010E9413127C0122
:10051000BC01CE010E942002811104C0CE010E94C4
:100520000C0207C0FD82EC82B801888199810E948B
:100530000C12CE01DF91CF911F910F91FF90EF90A0
:100540000895EF92FF920F931F93CF93DF93EC01E7
:10055000198218821B821A821D821C826115710504
:1005600021F18B01FB0101900020E9F731977F0118
:10057000E61AF70AB7010E942002811109C0CE01D4
:10058000DF91CF911F910F91FF90EF900C940C028F
:10059000FD82EC82B80188819981DF91CF911F9112
:1005A0000F91FF90EF900C940512DF91CF911F9166
:1005B0000F91FF90EF9008954F925F926F927F920C
:1005C000EF92FF920F931F93CF93DF93CDB7DEB7D8
:1005D000A1970FB6F894DEBF0FBECDBF7C01FA0124
:1005E000CB0119A2223008F42AE08E010F5D1F4FC3
:1005F000422E512C612C712CBF01A30192010E944B
:10060000C20FF901CA01015011096A3014F4605D8A
:1006100001C0695CD8016C93232B242B252B61F737
:10062000B801C7010E94F701A1960FB6F894DEBF8A
:100630000FBECDBFDF91CF911F910F91FF90EF9033
:100640007F906F905F904F900895CF92DF92EF92DE
:10065000FF920F931F93CF93DF93EC016A017B010D
:10066000E881F9810190F081E02D6DE209958C011E
:1006700044275527BA014C195D096E097F092AE004
:10068000CE010E94DC02800F911FDF91CF911F915C
:100690000F91FF90EF90DF90CF90089566E171E0A9
:1006A0000C94F7010F931F93CF93DF93EC010E94FB
:1006B000F7018C01CE010E944E03800F911FDF9144
:1006C000CF911F910F9108950C94F7011F920F92F3
:1006D0000FB60F9211242F933F934F935F936F9315
:1006E0007F938F939F93AF93BF93EF93FF938DE689
:1006F00092E00E943A01FF91EF91BF91AF919F91DB
:100700008F917F916F915F914F913F912F910F90BA
:100710000FBE0F901F9018951F920F920FB60F9259
:1007200011242F938F939F93EF93FF93E0917D027A
:10073000F0917E028081E0918302F091840282FD3B
:1007400012C09081809186028F5F8F732091870203
:10075000821751F0E0918602F0E0E359FD4F958F4A
:100760008093860201C08081FF91EF919F918F91CC
:100770002F910F900FBE0F901F901895CF93DF937E
:10078000282F30E0F901E458FF4F8491F901E25538
:10079000FF4FD491F901E656FF4FC491CC2391F05D
:1007A00081110E94CE01EC2FF0E0EE0FFF1FE05709
:1007B000FF4FA591B491EC91ED2381E090E021F4FD
:1007C00080E002C080E090E0DF91CF9108951F9318
:1007D000CF93DF93282F30E0F901E458FF4F849145
:1007E000F901E255FF4FD491F901E656FF4FC4914C
:1007F000CC23C9F0162F81110E94CE01EC2FF0E01E
:10080000EE0FFF1FEE58FF4FA591B4918FB7F894EC
:10081000111105C09C91ED2FE095E92302C0EC91E8
:10082000ED2BEC938FBFDF91CF911F910895CF9364
:10083000DF9390E0FC01E255FF4F2491FC01E65666
:10084000FF4F8491882361F190E0880F991FFC018C
:10085000E859FF4FC591D491FC01EE58FF4FA59187
:10086000B491611109C09FB7F894888120958223C3
:100870008883EC912E230BC0623061F49FB7F8940B
:100880003881822F809583238883EC912E2B2C93A3
:100890009FBF06C08FB7F894E8812E2B28838FBFA7
:1008A000DF91CF9108952FB7F89460913B0270913A
:1008B0003C0280913D0290913E022FBF08951F920D
:1008C0000F920FB60F9211242F933F938F939F9304
:1008D000AF93BF9380913B0290913C02A0913D0267
:1008E000B0913E0230913A0223E0230F2D3720F4DD
:1008F0000196A11DB11D05C026E8230F0296A11D7A
:10090000B11D20933A0280933B0290933C02A09346
:100910003D02B0933E028091360290913702A09141
:100920003802B09139020196A11DB11D80933602A3
:1009300090933702A0933802B0933902BF91AF91E0
:100940009F918F913F912F910F900FBE0F901F900D
:100950001895DC011296ED91FC9113973097F1F008
:100960002D913C91119721153105B1F014964D91BF
:100970005C911597CA019595879540FF0AC0D901EA
:10098000A80FB91F4D915C91E40FF51F0190F08104
:10099000E02D820F931F0994CB0109940895EF92E3
:1009A000FF920F931F93CF93DF93EC01888199817E
:1009B000EC81FD81228133818217930760F5EA8102
:1009C000FB81019111912EEF3FEF201B310B79013B
:1009D000A3E0EA22FF24FB83EA83019699838883BC
:1009E000CB019A010417150708F49801260F371F49
:1009F0008217930729F04191DC014D93CD01F8CF87
:100A00009701200F311F8A819B81280F391F3B835B
:100A10002A83C80102C08FEF9FEFDF91CF911F9112
:100A20000F91FF90EF900895CF93DF93FC018081A9
:100A30009181A481B58112962D913C9113978217D3
:100A40009307E0F4A281B3814D915D91B383A283BA
:100A5000019691838083EB01B983A8832EEF3FEF4A
:100A6000241B350B23703327240F351F828193817C
:100A7000280F391F33832283CA0102C08FEF9FEFF3
:100A8000DF91CF9108954627342F252FA9014427C0
:100A900084E0440F551F8A95E1F742275327CA0186
:100AA000892F992782958F7048275927CA0188274F
:100AB00035E0969587953A95E1F78427952708952F
:100AC000EF92FF920F931F93CF93DF937C01C901A5
:100AD000EB018B01040F151FC017D10731F069918D
:100AE000AC01C7010E944305F7CFDF91CF911F9161
:100AF0000F91FF90EF900895CF93DF93EC018A85DB
:100B00009B85603CA1F06B3D21F5DC01ED91FC91F2
:100B10000190F081E02D6BED09958A859B85DC01C4
:100B2000ED91FC910190F081E02D6DED18C0DC019C
:100B3000ED91FC910190F081E02D6BED09958A8596
:100B40009B85DC01ED91FC910190F081E02D6CED35
:100B500006C0DC01ED91FC910190F081E02DDF9168
:100B6000CF910994EF92FF920F931F93CF93DF934E
:100B70007C01EB018B01040F151FC017D10729F071
:100B80006991C7010E947C05F8CFDF91CF911F9139
:100B90000F91FF90EF900895EF92FF920F931F93A4
:100BA000CF93DF9361157105A1F18B01EC01BC01BD
:100BB000645F7F4F42E050E0C8010E94CF04EC81A7
:100BC000FD8184858823E9F063EC71E08081918167
:100BD0000E9464034C855D85EC81FD81E080F1809D
:100BE000052E000C660B770B77FF04C0C7010E942F
:100BF000250304C02AE0C7010E94DC02C7010E944D
:100C00004E03BE01605F7F4FC8010E9414059F879D
:100C10008E87DF91CF911F910F91FF90EF900895F4
:100C200082E10E94BE03892B29F462E271E088E32D
:100C300091E004C066E071E08DE191E00C94F40B6A
:100C400082E10E94BE03892B29F46BEE70E081E003
:100C500091E004C06FEC70E086EE90E00C94F40B31
:100C60001F93CF93DF93CDB7DEB72C970FB6F894D1
:100C7000DEBF0FBECDBFBC01CE0101960E94A10216
:100C800018861F821A8619861C861B8669EC70E0FE
:100C9000CE0107960E947902BE01695F7F4FCE01A7
:100CA00001960E944702182F8F8198850E947F101D
:100CB000112351F060E081E10E94E7036EEC71E0E6
:100CC0008DE692E00E94520318861F821A861986CA
:100CD0001C861B8662EC70E0CE0107960E947902AA
:100CE000BE01695F7F4FCE0101960E944702182F17
:100CF0008F8198850E947F10112351F061E081E17E
:100D00000E94E70361ED71E08DE692E00E945203DC
:100D100089819A810E947F102C960FB6F894DEBFCD
:100D20000FBECDBFDF91CF911F910895CF93DF9379
:100D3000EC01BC01635F7F4F42E050E00E94B205CE
:100D40008A859B85DC01ED91FC910190F081E02D7D
:100D500060ECDF91CF910994CF92DF92EF92FF92F6
:100D60000F931F93CF93DF9300D0CDB7DEB78C01E5
:100D70007B015A83498342E050E0BE016F5F7F4FA1
:100D80000E94B205F8012585368542E050E0BE019B
:100D90006F5F7F4FC8010E946005F80196878587C5
:100DA000C980DA80CE0CDF1CEC14FD0491F0F70151
:100DB0006081C8010E947C05F80145855685F701D0
:100DC00061917F01C8010E944305F80196878587DC
:100DD000EBCFE980FA80F194E194F108F3E0EF229F
:100DE000FF24F1E0EF1AF10878F060E0C8010E94FA
:100DF0007C05F8014585568560E0C8010E944305E1
:100E0000F80196878587EDCF0F900F90DF91CF91F6
:100E10001F910F91FF90EF90DF90CF900895EF9288
:100E2000FF920F931F93CF93DF93CDB7DEB7289731
:100E30000FB6F894DEBF0FBECDBF7C017A83698305
:100E40002B833C834D835E8318870F83DC011E96C2
:100E50001C921E921D971A968D919C911B97DC01F6
:100E6000ED91FC910190F081E02D60EC099542E05C
:100E700050E0BE016F5F7F4FC7010E94B205F701CE
:100E80002585368542E050E0BE016F5F7F4FC70188
:100E90000E946005D7011E969C938E931D9742E099
:100EA00050E0BE01695F7F4FC7010E94B205F701A4
:100EB0002585368542E050E0BE01695F7F4FC7015E
:100EC0000E946005D7011E969C938E931D9744E067
:100ED00050E0BE016D5F7F4FC7010E94B205F70170
:100EE0002585368544E050E0BE016D5F7F4FC70128
:100EF0000E946005D7011E969C938E931D9728969D
:100F00000FB6F894DEBF0FBECDBFDF91CF911F911A
:100F10000F91FF90EF9008952F923F924F925F9222
:100F20006F927F928F929F92AF92BF92CF92DF92F9
:100F3000EF92FF920F931F93CF93DF93CDB7DEB75E
:100F400028970FB6F894DEBF0FBECDBF8C012DB72A
:100F50003EB738872F83E0904702F090480242E086
:100F600050E0BE016B5F7F4F0E94CF04AD80BE801A
:100F7000370132E0630E711C44E050E0B301C80158
:100F80000E94CF04270186E0480E511C42E050E049
:100F9000B201C8010E94CF04BE016D5F7F4FC8013E
:100FA0000E9414054C01D7011896CD90DC9019973A
:100FB0002B803C80C114D10449F1F60184819581D4
:100FC0008815990541F460817181A401C1010E94D5
:100FD000E611892B31F0D6015E96CD90DC905F97BB
:100FE000E9CFB2E0AB16B10409F449C01CF4B7FE76
:100FF000C3C0F8C0F3E0AF16B10409F0F3C084E059
:10100000882E912CE2E1CE0ED11C66C0D701ED9165
:10101000FC918485882309F4E5C0C080D1800DE36C
:1010200011E0F8016491611103C000E010E00DC00F
:10103000D601ED91FC910190F081E02DC60109955A
:101040000F5F1F4F892B69F7F0CFD701ED91FC910E
:10105000808191810815190579F0DC01ED91FC91F1
:10106000AB81BC81A00FB11F0190F081E02D6C918C
:1010700009950F5F1F4FE9CF0E944E03B3C02DB6F5
:101080003EB6BE016F5F7F4FC8010E9414058C0100
:101090000196EDB7FEB7E81BF90B0FB6F894FEBF4B
:1010A0000FBEEDBF2DB73EB72F5F3F4F490169819E
:1010B0007A81A801C9010E94F311F401E00FF11F28
:1010C0001082B401C60148960E94A9040FB6F89494
:1010D0003EBE0FBE2DBE50C0D8011496ED91FC91BE
:1010E0001597828193818816990608F07BC0BE010E
:1010F0006F5F7F4FC8010E94140549805A80D2015A
:101100001196FD0101900020E9F731975F01AA1ABD
:10111000BB0A3C016A187B08C30101970E94EA0FD1
:10112000D7011B969C938E931A97A30142505109A5
:10113000FC01E40FF51F1082B5016E5F7F4F640D57
:10114000751D1A968D919C911B970E94F3116981D0
:101150007A816F5F7F4FC6010E94A904F7018285E3
:1011600093850E947F10D7011B961C921E921A979E
:10117000BFEF8B1A9B0AB0CF0FEF10E024E630E0F0
:1011800040E050E06FE170E0F701808191810E94C2
:101190000F0744E050E0B301D7018D919C910E946C
:1011A000AC0642E050E0B201F701808191810E94DB
:1011B000AC06D6016D917C91C601AB2811F4069660
:1011C00001C00C960E94A90440E050E060E070E08D
:1011D000F701808191810E94AC06D7018D919C918D
:1011E0000E949606EF81F8850FB6F894FEBF0FBEF9
:1011F000EDBF28960FB6F894DEBF0FBECDBFDF91CE
:10120000CF911F910F91FF90EF90DF90CF90BF9003
:10121000AF909F908F907F906F905F904F903F9096
:101220002F9008950F931F93CF93DF9300D000D09A
:10123000CDB7DEB765ED71E08DE692E00E94520316
:101240000E94760B811103C064E371E0F5CF6BE976
:1012500071E08DE692E00E94520301E010E020E090
:1012600030E0A9016EE170E080915B0290915C0238
:101270000E940F0787E692E0092E000CAA0BBB0B19
:1012800089839A83AB83BC8344E050E0BE016F5FE7
:101290007F4F80915B0290915C020E94AC0680912E
:1012A0005B0290915C020E9496060F900F900F9047
:1012B0000F90DF91CF911F910F9108958F929F9280
:1012C000AF92BF92DF92EF92FF920F931F93CF9353
:1012D000DF9300D000D000D0CDB7DEB78C01DD2485
:1012E000D394D8011A968D919C911B97DC01ED91B6
:1012F000FC910480F581E02D0995892B09F48AC1C0
:10130000D8011A968D919C911B97DC01ED91FC916F
:101310000680F781E02D09958B3D910519F4F801C0
:10132000D58ADFCFD80153962D913C915497803CBC
:10133000910509F04AC12830310508F437C1F80198
:10134000E784F0888485882309F484C06EEE71E018
:10135000808191810E946403D80153964D915C91E4
:10136000549760E070E02AE08D919C910E94DC022D
:1013700068EF71E0F801808191810E946403D801D7
:101380001F964D915C915097052E000C660B770BC4
:1013900020E18D919C910E94DC026CE172E0F801E9
:1013A000808191810E946403D7014D915C9160E03E
:1013B00070E020E1F801808191810E94DC026DE102
:1013C00072E0D8018D919C910E946403F7014481E1
:1013D00055816681778120E1D8018D919C910E9491
:1013E000DC026DE172E0F801808191810E9464036A
:1013F000D70112964D915C91139760E070E020E167
:10140000F801808191810E94DC0248E0A42EB12C79
:10141000F8012389348980819181A216B306C0F432
:101420006DE172E00E946403D8011F96ED91FC917A
:101430005097EA0DFB1D408150E060E070E020E134
:101440008D919C910E94DC02BFEFAB1ABB0AE0CFEA
:101450000E944E03D8015396AD90BC905497B2E0D1
:10146000AB1AB108F8018784908820E030E0A5012C
:10147000B401C8010E946005F401EA0DFB1D208142
:1014800031818217930761F0D8011C968C911C97CB
:10149000882309F48BC06BEF71E08D919C9184C01F
:1014A000F701808191818230910539F08330910577
:1014B00019F1019709F070C05FC0D8011C968C919A
:1014C0001C97882309F474C06CE072E08D919C91A4
:1014D0000E946403F801A080B180D70114964D9159
:1014E0005D916D917C9117972AE0C5010E94DC0205
:1014F000C5010E944E035CC0F8018485882359F120
:1015000065E172E0808191810E946403D7011496A5
:101510004D915D916D917C9117972AE0F801808142
:1015200091810E94DC026DE172E0D8018D919C9165
:101530000E946403F801A080B180D70112964D91FA
:101540005C91139760E070E02AE0C5010E94DC0224
:10155000C5010E944E03F701A481B5818D919C9134
:101560001197009709F059C012962D913C9113974D
:10157000232B09F052C01AC06FE172E0D8018D919F
:101580009C910E945203D8011896ED91FC911997F5
:10159000309761F009950AC0F8018485882331F0FD
:1015A0006AE272E0808191810E945203E12CF12C69
:1015B000D80154961C921E92539755961C92E11492
:1015C000F10409F48ECEC70158C0F80145894423BF
:1015D00071F08C3D910531F08D3D910529F48BED35
:1015E00090E002C080EC90E0D80155961C92F80182
:1015F000418952892417350708F073CE47855089F1
:10160000B9016F5F7F4F748B638BFA01E20FF31F99
:10161000808367CE80E090E030C0FE82ED82E8E01B
:10162000EE0EF11CFC82EB821A8219821296ED9169
:10163000FC911397309709F4B9CF0097D1F0149625
:101640002D913C911597A9015595479520FF0AC00A
:10165000DC01A40FB51F2D913C91E20FF31F019007
:10166000F081E02DBE016F5F7F4F840F951F0995BC
:101670009DCFCE010196099599CF26960FB6F89485
:10168000DEBF0FBECDBFDF91CF911F910F91FF90B5
:10169000EF90DF90BF90AF909F908F900895CF9282
:1016A000DF92EF92FF92CF93DF93EC010E945304FD
:1016B0006B017C010E945304AB01BC014C195D0914
:1016C0006E097F09403D57406105710530F4CE0138
:1016D0000E945E09009771F302C080E090E0DF9104
:1016E000CF91FF90EF90DF90CF900895AF92BF928F
:1016F000CF92DF92EF92FF920F931F93CF93DF93DE
:101700008091140390911503DC01ED91FC910190FF
:10171000F081E02D60EC09958CE093E06C01990F6D
:10172000EE08FF0800E010E0A701960161E070E01C
:101730008AE093E00E940F078AE093E00E949606F9
:1017400000911203109113031092130310921203CD
:101750008AE093E00E944F0BEC01892BA9F14C81A8
:101760005D816E817F81809116034C155D056E054C
:101770007F0581F4882341F064E272E080910A03DE
:1017800090910B030E9452031093130300931203D2
:1017900081E01FC08823E1F260E372E080910A03D8
:1017A00090910B030E946403A0900A03B0900B0376
:1017B0004C815D816E817F812AE0C5010E94DC023F
:1017C000C5010E944E03C4CF10931303009312036C
:1017D00080E0DF91CF911F910F91FF90EF90DF900C
:1017E000CF90BF90AF9008956F927F928F929F920B
:1017F000AF92BF92CF92DF92EF92FF920F931F931F
:10180000CF93DF93CDB7DEB73C016B01ADB6BEB66B
:101810000E9413128C01C6010E9413121127980115
:10182000280F311D490182E0880E911C2D5F3F4F2A
:10183000EDB7FEB7E21BF30B0FB6F894FEBF0FBE79
:10184000EDBF8DB79EB701967C011182B301019661
:101850000E940C12C8010296B6018E0D9F1D0E94B7
:101860000C12A401B70180915B0290915C020E946E
:10187000AC060FB6F894BEBE0FBEADBEDF91CF91E1
:101880001F910F91FF90EF90DF90CF90BF90AF909E
:101890009F908F907F906F900895CF92DF92EF92FC
:1018A000FF920F931F93E82FF92F05C001501109E4
:1018B0002109310961F1908196239417B9F305C08C
:1018C000015011092109310911F1908196239413D6
:1018D000F7CFC12CD12CE12CF12C0AC08FEFC81A04
:1018E000D80AE80AF80A0C151D052E053F0579F0FF
:1018F00080818623841791F36C2D7D2D8E2D9F2D55
:101900001F910F91FF90EF90DF90CF90089560E0CE
:1019100070E080E090E01F910F91FF90EF90DF90DA
:10192000CF900895CF93DF93CDB7DEB727970FB64B
:10193000F894DEBF0FBECDBF789484B5826084BDBD
:1019400084B5816084BD85B5826085BD85B58160C3
:1019500085BD80916E00816080936E001092810041
:1019600080918100826080938100809181008160FC
:1019700080938100809180008160809380008091BD
:10198000B10084608093B1008091B0008160809349
:10199000B00080917A00846080937A0080917A0010
:1019A000826080937A0080917A00816080937A00CF
:1019B00080917A00806880937A001092C100E09153
:1019C0007D02F0917E0282E08083E0917902F091C5
:1019D0007A021082E0917B02F0917C0280E18083A8
:1019E00010928502E0918102F091820286E080836C
:1019F000E0917F02F0918002808180618083E0919C
:101A00007F02F0918002808188608083E0917F0274
:101A1000F0918002808180688083E0917F02F09164
:101A2000800280818F7D808361E08EE00E941704B8
:101A300061E08FE00E94170460E080E10E941704DB
:101A400061E081E10E94170460E082E10E941704D6
:101A500061E08EE00E94E70361E081E10E94E7031C
:101A600069E171E08DE692E00E9452030E94760BDC
:101A7000811103C064E371E0F5CF6BE971E08DE69D
:101A800092E00E9452036DEA71E0CE0101967C0162
:101A90000E94A10280E290E00E94EA0F8C0180E2A5
:101AA000F80111928A95E9F768E171E0C8010E9496
:101AB000A102F801178216821186108615861486F7
:101AC00017861686138A128A158A148A118E108E2A
:101AD000138E128E0E151F05C9F0E980FA80E114ED
:101AE000F10489F0CD80DE80B601C8010E94200299
:101AF000882349F0F801D582C482B70180819181A1
:101B00000E94051203C0C8010E940C02809163026A
:101B100090916402F801978F868F1093640200936E
:101B2000630289819A810E947F1080E296E0F80129
:101B30009187808780E196E09787868780E396E0AB
:101B4000938F828F82E199E0909313038093120325
:101B50000E94120980E99FE19A8389831F8289E4A8
:101B600092E09093500280934F028CEC95E090931A
:101B7000520280935102109254021092530203E0D9
:101B800010E02FE432E0032E000C440B550B64E10F
:101B900070E080914D0290914E020E940F074CE040
:101BA00050E06BE471E080914D0290914E020E94F2
:101BB000AC0642E050E0BE016F5F7F4F80914D0266
:101BC00090914E020E94AC0641E050E0BE01695F78
:101BD0007F4F80914D0290914E020E94AC06809101
:101BE0004D0290914E020E94960680914D02909176
:101BF0004E020E944F0B009791F0FC0144815581E9
:101C00006681778177FD0BC04093490250934A0269
:101C100060934B0270934C0280E090E003C0FC01A3
:101C200084819581892B39F068E571E08DE692E039
:101C30000E946403FFCF6CE671E08DE692E00E94A3
:101C4000520323E0E22EF12C33E2C32ED12C4CE1DF
:101C5000A42EB12C54E6752E6EE2862E99249A9409
:101C60008AE093E00E945E090E94530400914302BF
:101C70001091440220914502309146021B012C0133
:101C8000201A310A420A530A40EA24164BEB340662
:101C90004DE044065104F0F0609343027093440217
:101CA00080934502909346028EE00E94BE03019706
:101CB00039F460E08EE00E94E7036AE771E006C055
:101CC00061E08EE00E94E70369E871E08DE692E052
:101CD0000E9452030E94530400913F02109140025F
:101CE00020914102309142021B012C01201A310A3D
:101CF000420A530A40ED241647E0340641045104D9
:101D000008F481C060933F027093400280934102C7
:101D1000909342028091A203882329F061E0809190
:101D2000A0030E94170460E08091A0030E94E703D3
:101D3000C7010197F1F761E08091A0030E94E703DA
:101D4000C6010197F1F760E08091A0030E94E703CC
:101D50008091A203882329F060E08091A0030E9473
:101D600017048091A10390E0FC01E255FF4F6491BC
:101D7000FC01E656FF4FE491F0E0EE0FFF1FE05745
:101D8000FF4F859194910091A3031091A40320919A
:101D9000A5033091A6033F70462F0E944D0C61159C
:101DA00071058105910539F0DC01CB010196A11D7A
:101DB000B11DBF7003C080E090E0DC01B5010E945E
:101DC0009A0F769567956A5F7109769EC001779E36
:101DD000900D1124B4010E94AE0FAB01770F660B7A
:101DE000770B77FF05C08DE692E00E94250305C0C2
:101DF0002AE08DE692E00E94DC0269E971E08DE65E
:101E000092E00E9452030E94C4012ACF0F931F93B5
:101E1000CF93DF93CDE6D2E01B821A8288EE93E067
:101E2000A0E0B0E08C839D83AE83BF838AE091E025
:101E30009983888385EC90E09D878C8784EC90E083
:101E40009F878E8780EC90E0998B888B81EC90E067
:101E50009B8B8A8B82EC90E09D8B8C8B86EC90E048
:101E60009F8B8E8B198E1A8E1B8E1C8E00EA13E0B0
:101E7000F80112828FE0808380E1818361E08FE04E
:101E80000E94170460E0F80181810E94170480E23B
:101E90009EE4A0E0B0E0F80183839483A583B68339
:101EA000EAE0F3E01382128215821482D387C2879C
:101EB000148680E293E0908B878780E890E0928B95
:101EC000818B148A138A158AABE5B2E01196FC93D4
:101ED000EE9319961C921E9218971B961C921E92B6
:101EE0001A971D961C921E921C97B0934802A093BD
:101EF00047028CE897E01F969C938E931E97A9E467
:101F0000B2E017961C921E92169719961C921E927A
:101F100018971596FC93EE9314974FEF5FEFBA0165
:101F20004D935D936D937C931397DF91CF911F91A8
:101F30000F910895AA1BBB1B51E107C0AA1FBB1F2D
:101F4000A617B70710F0A61BB70B881F991F5A9545
:101F5000A9F780959095BC01CD01089597FB072EB8
:101F600016F4009407D077FD09D00E949A0F07FC61
:101F700005D03EF4909581959F4F08957095619599
:101F80007F4F0895A1E21A2EAA1BBB1BFD010DC0B5
:101F9000AA1FBB1FEE1FFF1FA217B307E407F50719
:101FA00020F0A21BB30BE40BF50B661F771F881FF5
:101FB000991F1A9469F760957095809590959B018B
:101FC000AC01BD01CF010895EE0FFF1F0590F49104
:101FD000E02D0994CF93DF938230910510F482E0D5
:101FE00090E0E091A903F091AA0320E030E0C0E086
:101FF000D0E0309711F14081518148175907C0F066
:102000004817590761F482819381209719F09B83C7
:102010008A832BC09093AA038093A90326C021151D
:10202000310519F04217530718F49A01BE01DF0178
:10203000EF010280F381E02DDCCF2115310509F19C
:10204000281B390B2430310590F412968D919C9108
:1020500013976115710521F0FB019383828304C0FE
:102060009093AA038093A903FD01329644C0FD0119
:10207000E20FF31F81939193225031092D933C93EA
:102080003AC02091A7033091A803232B41F420915B
:102090000201309103013093A8032093A7032091FC
:1020A0000001309101012115310541F42DB73EB7F2
:1020B0004091040150910501241B350BE091A703C9
:1020C000F091A803E217F307A0F42E1B3F0B28178B
:1020D000390778F0AC014E5F5F4F2417350748F0A1
:1020E0004E0F5F1F5093A8034093A70381939193D2
:1020F00002C0E0E0F0E0CF01DF91CF9108950F93AF
:102100001F93CF93DF93009709F48CC0FC013297A3
:10211000138212820091A9031091AA0301151105DF
:1021200081F420813181820F931F2091A703309188
:10213000A8032817390779F5F093A803E093A703BC
:1021400071C0D80140E050E0AE17BF0750F41296BE
:102150002D913C911397AD012115310509F1D9015C
:10216000F3CF9D01DA013383228360817181860F71
:10217000971F8217930769F4EC0128813981260F94
:10218000371F2E5F3F4F318320838A819B8193834A
:102190008283452B29F4F093AA03E093A90342C05C
:1021A0001396FC93EE931297ED01499159919E017C
:1021B000240F351FE217F30771F480819181840F9A
:1021C000951F029611969C938E938281938113960C
:1021D0009C938E931297E0E0F0E0D80112968D91D7
:1021E0009C911397009719F0F8018C01F6CF8D910F
:1021F0009C9198012E5F3F4F820F931F2091A70360
:102200003091A8032817390769F4309729F4109200
:10221000AA031092A90302C0138212821093A8038A
:102220000093A703DF91CF911F910F910895A0E034
:10223000B0E0EDE1F1E10C942012EC01009721F403
:10224000CB010E94EA0FB8C0FC01E60FF71F9C010A
:1022500022503109E217F30708F4ACC0D9010D91FF
:102260001C91119706171707B0F00530110508F4F7
:102270009FC0C80104978617970708F499C00250B9
:102280001109061B170B019311936D937C93CF01DA
:102290000E947F108DC05B01A01AB10A4C01800E14
:1022A000911EA091A903B091AA0340E050E0E12C57
:1022B000F12C109709F44AC0A815B905D1F56D9015
:1022C0007C901197630182E0C80ED11CCA14DB0414
:1022D00080F1A3014A195B096A0182E0C80ED11C92
:1022E0001296BC9012971396AC91B5E0CB16D10420
:1022F00040F0B282A38351834083D9016D937C93D4
:102300000AC00E5F1F4FC301800F911FF901918317
:102310008083EB2DFA2FE114F10431F0D7011396ED
:10232000FC93EE93129744C0F093AA03E093A903A1
:102330003FC08D919C9111974817590708F4AC0143
:102340007D0112960D90BC91A02DB3CF8091A70373
:102350009091A80388159905E1F446175707C8F42A
:102360008091000190910101009741F48DB79EB7D3
:102370004091040150910501841B950BE817F90762
:10238000C8F4F093A803E093A703F9017183608375
:102390000FC0CB010E94EA0F7C01009759F0A80101
:1023A000BE010E94F311CE010E947F10C70104C03C
:1023B000CE0102C080E090E0CDB7DEB7EEE00C9435
:1023C0003C1281E090E0F8940C945312FB01DC0184
:1023D00004C08D910190801921F441505040C8F7FC
:1023E000881B990B0895FB01DC0102C001900D923E
:1023F00041505040D8F70895FB01DC018D910190C8
:1024000080190110D9F3990B0895FB01DC010190AB
:102410000D920020E1F70895FB01DC0105900D927B
:102420000020E1F70895FC0105900020E9F7809570
:1024300090958E0F9F1F08952F923F924F925F921B
:102440006F927F928F929F92AF92BF92CF92DF92C4
:10245000EF92FF920F931F93CF93DF93CDB7DEB729
:10246000CA1BDB0B0FB6F894DEBF0FBECDBF0994BD
:102470002A88398848885F846E847D848C849B8414
:10248000AA84B984C884DF80EE80FD800C811B8122
:10249000AA81B981CE0FD11D0FB6F894DEBF0FBE51
:0A24A000CDBFED010895F894FFCFC1
:1024AA000000AB038000000000005B01D70024019C
:1024BA0002011601A2010D0A006B6F6E69656320A5
:1024CA0073656B77656E636A692073746172746F82
:1024DA0077656A00454C2D436C69656E7420737983
:1024EA006E63206661696C656421003139322E3170
:1024FA0036382E312E3534005245535420626567E2
:10250A00696E206661696C65643A2000454C2D52FB
:10251A0045535420726561647900776C61637A610E
:10252A006D20706F6D706B650077796C61637A618D
:10253A006D20706F6D706B65002500454C2D436CE6
:10254A0069656E742073796E63656421002F537414
:10255A0065726F77616E69652E68746D6C2E6A7329
:10256A006F6E005245535420636F646520004F4ECE
:10257A00004F464600454C2D436C69656E74202811
:10258A0072652D297374617274696E672100454CF6
:10259A00433A20676F742000204000454C433A209C
:1025AA00496E76616C696420435243005245535028
:1025BA005F563A2000524553505F43423A20004E3C
:1025CA004545445F53594E432100434D443F3F0024
:0625DA004241443A2000DA
:107800000C94343C0C94513C0C94513C0C94513CE1
:107810000C94513C0C94513C0C94513C0C94513CB4
:107820000C94513C0C94513C0C94513C0C94513CA4
:107830000C94513C0C94513C0C94513C0C94513C94
:107840000C94513C0C94513C0C94513C0C94513C84
:107850000C94513C0C94513C0C94513C0C94513C74
:107860000C94513C0C94513C11241FBECFEFD8E036
:10787000DEBFCDBF11E0A0E0B1E0ECE9FFE702C060
:1078800005900D92A230B107D9F712E0A2E0B1E065
:1078900001C01D92AD30B107E1F70E942D3D0C945F
:1078A000CC3F0C94003C982F959595959595959582
:1078B000905D8F708A307CF0282F295A8091C0000B
:1078C00085FFFCCF9093C6008091C00085FFFCCF60
:1078D0002093C6000895282F205DF0CF982F809127
:1078E000C00085FFFCCF9093C6000895EF92FF92F1
:1078F0000F931F93EE24FF2487018091C00087FD22
:1079000017C00894E11CF11C011D111D81E4E8164B
:1079100082E4F8068FE0080780E0180770F3E09132
:107920000401F091050109958091C00087FFE9CF1E
:107930008091C6001F910F91FF90EF9008950E94D3
:10794000763C982F8091C00085FFFCCF9093C600B5
:1079500091362CF490330CF09053892F089597555D
:10796000892F08951F930E949F3C182F0E949F3CCF
:107970001295107F810F1F9108951F93182F882350
:1079800021F00E94763C1150E1F71F9108951F935A
:10799000182F0E94763C803249F0809103018F5F5E
:1079A000809303018530C1F01F9108958091C0003C
:1079B00085FFFCCF84E18093C6008091C00085FFE5
:1079C000FCCF1093C6008091C00085FFFCCF80E102
:1079D0008093C6001F910895E0910401F091050184
:1079E00009951F9108950E94763C803241F0809164
:1079F00003018F5F80930301853081F008958091AA
:107A0000C00085FFFCCF84E18093C6008091C00058
:107A100085FFFCCF80E18093C6000895E0910401CA
:107A2000F09105010995089540E951E08823A1F0FE
:107A30002D9A28EE33E0FA013197F1F721503040CA
:107A4000D1F72D9828EE33E0FA013197F1F7215064
:107A50003040D1F7815061F708953F924F925F9285
:107A60006F927F928F929F92AF92BF92CF92DF924E
:107A7000EF92FF920F931F93CF93DF93000080E16B
:107A80008093C4001092C50088E18093C10086E015
:107A90008093C2005098589A259A81E00E94143D24
:107AA00024E1F22E9EE1E92E85E9D82E0FE0C02ECA
:107AB00010E1B12EAA24A394B1E49B2EA6E58A2E50
:107AC000F2E57F2EE0E26E2E79E4572E63E5462E36
:107AD00050E5352E0E94763C8033B1F18133B9F107
:107AE000803409F46FC0813409F476C0823409F41B
:107AF00085C0853409F488C0803531F1823521F1A3
:107B0000813511F1853509F485C0863509F48DC0BC
:107B1000843609F496C0843709F403C1853709F423
:107B200072C1863709F466C0809103018F5F80932C
:107B30000301853079F6E0910401F0910501099582
:107B40000E94763C803351F60E94F33CC3CF0E94E2
:107B5000763C803249F78091C00085FFFCCFF092DF
:107B6000C6008091C00085FFFCCF9092C600809136
:107B7000C00085FFFCCF8092C6008091C00085FFC9
:107B8000FCCF7092C6008091C00085FFFCCF609250
:107B9000C6008091C00085FFFCCF5092C600809146
:107BA000C00085FFFCCF4092C6008091C00085FFD9
:107BB000FCCF3092C6008091C00085FFFCCFB09210
:107BC000C60088CF0E94763C863808F4BDCF0E945C
:107BD000763C0E94F33C7ECF0E94763C803809F4CC
:107BE0009CC0813809F40BC1823809F43CC1883942
:107BF00009F48FC080E00E94C73C6CCF84E10E94F2
:107C0000BD3C0E94F33C66CF85E00E94BD3C0E94D3
:107C1000F33C60CF0E94763C809306010E94763C44
:107C2000809307010E94F33C55CF0E94763C80333D
:107C300009F41DC183E00E94BD3C80E00E94C73C66
:107C400049CF0E94763C809309020E94763C809343
:107C5000080280910C028E7F80930C020E94763C79
:107C6000853409F415C18091080290910902892B8D
:107C700089F000E010E00E94763CF801E85FFE4FDA
:107C800080830F5F1F4F80910802909109020817AF
:107C9000190788F30E94763C803209F045CF809125
:107CA0000C0280FF01C16091060170910701660F0F
:107CB000771F7093070160930601A0910802B091AD
:107CC00009021097C9F0E8E0F1E09B01AD014E0F09
:107CD0005F1FF999FECF32BD21BD819180BDFA9A17
:107CE000F99A2F5F3F4FE417F50799F76A0F7B1F4B
:107CF00070930701609306018091C00085FFFCCF5F
:107D0000F092C6008091C00085FFFCCFB092C60003
:107D1000E1CE83E00E94C73CDDCE82E00E94C73CFA
:107D2000D9CE0E94763C809309020E94763C8093D3
:107D300008028091060190910701880F991F909386
:107D40000701809306010E94763C853409F4A6C0A1
:107D500080910C028E7F80930C020E94763C8032D0
:107D600009F0B8CE8091C00085FFFCCFF092C6002C
:107D7000609108027091090261157105B9F140E046
:107D800050E080910C02A82FA170B82FB27011C0E2
:107D9000BB2309F45CC0E0910601F0910701319624
:107DA000F0930701E09306014F5F5F4F46175707B7
:107DB000E8F4AA2369F3F999FECF209106013091E6
:107DC000070132BD21BDF89A90B58091C00085FFB2
:107DD000FCCF9093C6002F5F3F4F30930701209355
:107DE00006014F5F5F4F4617570718F38091C00099
:107DF00085FDE5CE8091C00085FFF8CFE0CE81E023
:107E00000E94C73C67CE0E94763C803209F08CCE3F
:107E10008091C00085FFFCCFF092C6008091C00029
:107E200085FFFCCFE092C6008091C00085FFFCCFAB
:107E3000D092C6008091C00085FFFCCFC092C600E2
:107E40008091C00085FFFCCFB092C60043CEE09188
:107E50000601F091070194918091C00085FFFCCF4D
:107E60009093C6009CCF80E10E94C73C33CE0E9415
:107E7000763C0E94763C182F0E94763C112309F430
:107E800083C0113009F484C08FE00E94C73C22CE29
:107E900080910C02816080930C02E5CE80910C02EF
:107EA000816080930C0259CF809107018823880F4D
:107EB000880B8A2180930B02809106019091070123
:107EC000880F991F90930701809306018091080203
:107ED00080FF09C080910802909109020196909359
:107EE000090280930802F894F999FECF1127E091D6
:107EF0000601F0910701C8E0D1E08091080290915D
:107F00000902103091F40091570001700130D9F34B
:107F100003E000935700E89500915700017001308D
:107F2000D9F301E100935700E89509901990009169
:107F3000570001700130D9F301E000935700E89534
:107F40001395103498F011270091570001700130FB
:107F5000D9F305E000935700E895009157000170B0
:107F60000130D9F301E100935700E895329602976A
:107F700009F0C7CF103011F00296E5CF112480919F
:107F8000C00085FFB9CEBCCE8EE10E94C73CA2CD19
:0C7F900085E90E94C73C9ECDF894FFCF0D
:027F9C00800063
:040000030000780081
:00000001FF
